{
  "_format": "hh-sol-artifact-1",
  "contractName": "SimpleSwap",
  "sourceName": "contracts/SimpleSwap.sol",
  "abi": [
    {
      "inputs": [],
      "stateMutability": "nonpayable",
      "type": "constructor"
    },
    {
      "inputs": [
        {
          "internalType": "address",
          "name": "spender",
          "type": "address"
        },
        {
          "internalType": "uint256",
          "name": "allowance",
          "type": "uint256"
        },
        {
          "internalType": "uint256",
          "name": "needed",
          "type": "uint256"
        }
      ],
      "name": "ERC20InsufficientAllowance",
      "type": "error"
    },
    {
      "inputs": [
        {
          "internalType": "address",
          "name": "sender",
          "type": "address"
        },
        {
          "internalType": "uint256",
          "name": "balance",
          "type": "uint256"
        },
        {
          "internalType": "uint256",
          "name": "needed",
          "type": "uint256"
        }
      ],
      "name": "ERC20InsufficientBalance",
      "type": "error"
    },
    {
      "inputs": [
        {
          "internalType": "address",
          "name": "approver",
          "type": "address"
        }
      ],
      "name": "ERC20InvalidApprover",
      "type": "error"
    },
    {
      "inputs": [
        {
          "internalType": "address",
          "name": "receiver",
          "type": "address"
        }
      ],
      "name": "ERC20InvalidReceiver",
      "type": "error"
    },
    {
      "inputs": [
        {
          "internalType": "address",
          "name": "sender",
          "type": "address"
        }
      ],
      "name": "ERC20InvalidSender",
      "type": "error"
    },
    {
      "inputs": [
        {
          "internalType": "address",
          "name": "spender",
          "type": "address"
        }
      ],
      "name": "ERC20InvalidSpender",
      "type": "error"
    },
    {
      "inputs": [
        {
          "internalType": "address",
          "name": "owner",
          "type": "address"
        }
      ],
      "name": "OwnableInvalidOwner",
      "type": "error"
    },
    {
      "inputs": [
        {
          "internalType": "address",
          "name": "account",
          "type": "address"
        }
      ],
      "name": "OwnableUnauthorizedAccount",
      "type": "error"
    },
    {
      "inputs": [],
      "name": "ReentrancyGuardReentrantCall",
      "type": "error"
    },
    {
      "anonymous": false,
      "inputs": [
        {
          "indexed": true,
          "internalType": "address",
          "name": "owner",
          "type": "address"
        },
        {
          "indexed": true,
          "internalType": "address",
          "name": "spender",
          "type": "address"
        },
        {
          "indexed": false,
          "internalType": "uint256",
          "name": "value",
          "type": "uint256"
        }
      ],
      "name": "Approval",
      "type": "event"
    },
    {
      "anonymous": false,
      "inputs": [
        {
          "indexed": true,
          "internalType": "address",
          "name": "provider",
          "type": "address"
        },
        {
          "indexed": true,
          "internalType": "address",
          "name": "tokenA",
          "type": "address"
        },
        {
          "indexed": true,
          "internalType": "address",
          "name": "tokenB",
          "type": "address"
        },
        {
          "indexed": false,
          "internalType": "uint256",
          "name": "amountA",
          "type": "uint256"
        },
        {
          "indexed": false,
          "internalType": "uint256",
          "name": "amountB",
          "type": "uint256"
        },
        {
          "indexed": false,
          "internalType": "uint256",
          "name": "liquidity",
          "type": "uint256"
        }
      ],
      "name": "LiquidityAdded",
      "type": "event"
    },
    {
      "anonymous": false,
      "inputs": [
        {
          "indexed": true,
          "internalType": "address",
          "name": "provider",
          "type": "address"
        },
        {
          "indexed": true,
          "internalType": "address",
          "name": "tokenA",
          "type": "address"
        },
        {
          "indexed": true,
          "internalType": "address",
          "name": "tokenB",
          "type": "address"
        },
        {
          "indexed": false,
          "internalType": "uint256",
          "name": "amountA",
          "type": "uint256"
        },
        {
          "indexed": false,
          "internalType": "uint256",
          "name": "amountB",
          "type": "uint256"
        },
        {
          "indexed": false,
          "internalType": "uint256",
          "name": "liquidity",
          "type": "uint256"
        }
      ],
      "name": "LiquidityRemoved",
      "type": "event"
    },
    {
      "anonymous": false,
      "inputs": [
        {
          "indexed": true,
          "internalType": "address",
          "name": "previousOwner",
          "type": "address"
        },
        {
          "indexed": true,
          "internalType": "address",
          "name": "newOwner",
          "type": "address"
        }
      ],
      "name": "OwnershipTransferred",
      "type": "event"
    },
    {
      "anonymous": false,
      "inputs": [
        {
          "indexed": true,
          "internalType": "address",
          "name": "trader",
          "type": "address"
        },
        {
          "indexed": true,
          "internalType": "address",
          "name": "tokenIn",
          "type": "address"
        },
        {
          "indexed": true,
          "internalType": "address",
          "name": "tokenOut",
          "type": "address"
        },
        {
          "indexed": false,
          "internalType": "uint256",
          "name": "amountIn",
          "type": "uint256"
        },
        {
          "indexed": false,
          "internalType": "uint256",
          "name": "amountOut",
          "type": "uint256"
        }
      ],
      "name": "TokenSwapped",
      "type": "event"
    },
    {
      "anonymous": false,
      "inputs": [
        {
          "indexed": true,
          "internalType": "address",
          "name": "from",
          "type": "address"
        },
        {
          "indexed": true,
          "internalType": "address",
          "name": "to",
          "type": "address"
        },
        {
          "indexed": false,
          "internalType": "uint256",
          "name": "value",
          "type": "uint256"
        }
      ],
      "name": "Transfer",
      "type": "event"
    },
    {
      "inputs": [
        {
          "internalType": "address",
          "name": "tokenA",
          "type": "address"
        },
        {
          "internalType": "address",
          "name": "tokenB",
          "type": "address"
        },
        {
          "internalType": "uint256",
          "name": "amountADesired",
          "type": "uint256"
        },
        {
          "internalType": "uint256",
          "name": "amountBDesired",
          "type": "uint256"
        },
        {
          "internalType": "uint256",
          "name": "amountAMin",
          "type": "uint256"
        },
        {
          "internalType": "uint256",
          "name": "amountBMin",
          "type": "uint256"
        },
        {
          "internalType": "address",
          "name": "to",
          "type": "address"
        },
        {
          "internalType": "uint256",
          "name": "deadline",
          "type": "uint256"
        }
      ],
      "name": "addLiquidity",
      "outputs": [
        {
          "internalType": "uint256",
          "name": "amountA",
          "type": "uint256"
        },
        {
          "internalType": "uint256",
          "name": "amountB",
          "type": "uint256"
        },
        {
          "internalType": "uint256",
          "name": "liquidity",
          "type": "uint256"
        }
      ],
      "stateMutability": "nonpayable",
      "type": "function"
    },
    {
      "inputs": [
        {
          "internalType": "address",
          "name": "owner",
          "type": "address"
        },
        {
          "internalType": "address",
          "name": "spender",
          "type": "address"
        }
      ],
      "name": "allowance",
      "outputs": [
        {
          "internalType": "uint256",
          "name": "",
          "type": "uint256"
        }
      ],
      "stateMutability": "view",
      "type": "function"
    },
    {
      "inputs": [
        {
          "internalType": "address",
          "name": "spender",
          "type": "address"
        },
        {
          "internalType": "uint256",
          "name": "value",
          "type": "uint256"
        }
      ],
      "name": "approve",
      "outputs": [
        {
          "internalType": "bool",
          "name": "",
          "type": "bool"
        }
      ],
      "stateMutability": "nonpayable",
      "type": "function"
    },
    {
      "inputs": [
        {
          "internalType": "address",
          "name": "account",
          "type": "address"
        }
      ],
      "name": "balanceOf",
      "outputs": [
        {
          "internalType": "uint256",
          "name": "",
          "type": "uint256"
        }
      ],
      "stateMutability": "view",
      "type": "function"
    },
    {
      "inputs": [
        {
          "internalType": "uint256",
          "name": "value",
          "type": "uint256"
        }
      ],
      "name": "burn",
      "outputs": [],
      "stateMutability": "nonpayable",
      "type": "function"
    },
    {
      "inputs": [
        {
          "internalType": "address",
          "name": "account",
          "type": "address"
        },
        {
          "internalType": "uint256",
          "name": "value",
          "type": "uint256"
        }
      ],
      "name": "burnFrom",
      "outputs": [],
      "stateMutability": "nonpayable",
      "type": "function"
    },
    {
      "inputs": [],
      "name": "decimals",
      "outputs": [
        {
          "internalType": "uint8",
          "name": "",
          "type": "uint8"
        }
      ],
      "stateMutability": "view",
      "type": "function"
    },
    {
      "inputs": [
        {
          "internalType": "uint256",
          "name": "amountIn",
          "type": "uint256"
        },
        {
          "internalType": "uint256",
          "name": "reserveIn",
          "type": "uint256"
        },
        {
          "internalType": "uint256",
          "name": "reserveOut",
          "type": "uint256"
        }
      ],
      "name": "getAmountOut",
      "outputs": [
        {
          "internalType": "uint256",
          "name": "amountOut",
          "type": "uint256"
        }
      ],
      "stateMutability": "pure",
      "type": "function"
    },
    {
      "inputs": [
        {
          "internalType": "address",
          "name": "tokenA",
          "type": "address"
        },
        {
          "internalType": "address",
          "name": "tokenB",
          "type": "address"
        }
      ],
      "name": "getPrice",
      "outputs": [
        {
          "internalType": "uint256",
          "name": "price",
          "type": "uint256"
        }
      ],
      "stateMutability": "view",
      "type": "function"
    },
    {
      "inputs": [],
      "name": "name",
      "outputs": [
        {
          "internalType": "string",
          "name": "",
          "type": "string"
        }
      ],
      "stateMutability": "view",
      "type": "function"
    },
    {
      "inputs": [],
      "name": "owner",
      "outputs": [
        {
          "internalType": "address",
          "name": "",
          "type": "address"
        }
      ],
      "stateMutability": "view",
      "type": "function"
    },
    {
      "inputs": [
        {
          "internalType": "address",
          "name": "tokenA",
          "type": "address"
        },
        {
          "internalType": "address",
          "name": "tokenB",
          "type": "address"
        },
        {
          "internalType": "uint256",
          "name": "liquidity",
          "type": "uint256"
        },
        {
          "internalType": "uint256",
          "name": "amountAMin",
          "type": "uint256"
        },
        {
          "internalType": "uint256",
          "name": "amountBMin",
          "type": "uint256"
        },
        {
          "internalType": "address",
          "name": "to",
          "type": "address"
        },
        {
          "internalType": "uint256",
          "name": "deadline",
          "type": "uint256"
        }
      ],
      "name": "removeLiquidity",
      "outputs": [
        {
          "internalType": "uint256",
          "name": "amountA",
          "type": "uint256"
        },
        {
          "internalType": "uint256",
          "name": "amountB",
          "type": "uint256"
        }
      ],
      "stateMutability": "nonpayable",
      "type": "function"
    },
    {
      "inputs": [],
      "name": "renounceOwnership",
      "outputs": [],
      "stateMutability": "nonpayable",
      "type": "function"
    },
    {
      "inputs": [
        {
          "internalType": "address",
          "name": "",
          "type": "address"
        }
      ],
      "name": "reserveOf",
      "outputs": [
        {
          "internalType": "uint256",
          "name": "",
          "type": "uint256"
        }
      ],
      "stateMutability": "view",
      "type": "function"
    },
    {
      "inputs": [
        {
          "internalType": "uint256",
          "name": "amountIn",
          "type": "uint256"
        },
        {
          "internalType": "uint256",
          "name": "amountOutMin",
          "type": "uint256"
        },
        {
          "internalType": "address[]",
          "name": "path",
          "type": "address[]"
        },
        {
          "internalType": "address",
          "name": "to",
          "type": "address"
        },
        {
          "internalType": "uint256",
          "name": "deadline",
          "type": "uint256"
        }
      ],
      "name": "swapExactTokensForTokens",
      "outputs": [
        {
          "internalType": "uint256[]",
          "name": "amounts",
          "type": "uint256[]"
        }
      ],
      "stateMutability": "nonpayable",
      "type": "function"
    },
    {
      "inputs": [],
      "name": "symbol",
      "outputs": [
        {
          "internalType": "string",
          "name": "",
          "type": "string"
        }
      ],
      "stateMutability": "view",
      "type": "function"
    },
    {
      "inputs": [
        {
          "internalType": "address",
          "name": "token",
          "type": "address"
        }
      ],
      "name": "syncReserve",
      "outputs": [],
      "stateMutability": "nonpayable",
      "type": "function"
    },
    {
      "inputs": [],
      "name": "totalSupply",
      "outputs": [
        {
          "internalType": "uint256",
          "name": "",
          "type": "uint256"
        }
      ],
      "stateMutability": "view",
      "type": "function"
    },
    {
      "inputs": [
        {
          "internalType": "address",
          "name": "to",
          "type": "address"
        },
        {
          "internalType": "uint256",
          "name": "value",
          "type": "uint256"
        }
      ],
      "name": "transfer",
      "outputs": [
        {
          "internalType": "bool",
          "name": "",
          "type": "bool"
        }
      ],
      "stateMutability": "nonpayable",
      "type": "function"
    },
    {
      "inputs": [
        {
          "internalType": "address",
          "name": "from",
          "type": "address"
        },
        {
          "internalType": "address",
          "name": "to",
          "type": "address"
        },
        {
          "internalType": "uint256",
          "name": "value",
          "type": "uint256"
        }
      ],
      "name": "transferFrom",
      "outputs": [
        {
          "internalType": "bool",
          "name": "",
          "type": "bool"
        }
      ],
      "stateMutability": "nonpayable",
      "type": "function"
    },
    {
      "inputs": [
        {
          "internalType": "address",
          "name": "newOwner",
          "type": "address"
        }
      ],
      "name": "transferOwnership",
      "outputs": [],
      "stateMutability": "nonpayable",
      "type": "function"
    }
  ],
  "bytecode": "0x608060405234801561001057600080fd5b50336040518060400160405280600b81526020017f53696d706c6520537761700000000000000000000000000000000000000000008152506040518060400160405280600481526020017f5353575000000000000000000000000000000000000000000000000000000000815250816003908161008d9190610462565b50806004908161009d9190610462565b5050506001600581905550600073ffffffffffffffffffffffffffffffffffffffff168173ffffffffffffffffffffffffffffffffffffffff160361011a5760006040517f1e4fbdf70000000000000000000000000000000000000000000000000000000081526004016101119190610575565b60405180910390fd5b6101298161014960201b60201c565b506101446788032756139f09c760c01b61020f60201b60201c565b610590565b6000600660009054906101000a900473ffffffffffffffffffffffffffffffffffffffff16905081600660006101000a81548173ffffffffffffffffffffffffffffffffffffffff021916908373ffffffffffffffffffffffffffffffffffffffff1602179055508173ffffffffffffffffffffffffffffffffffffffff168173ffffffffffffffffffffffffffffffffffffffff167f8be0079c531659141344cd1fd0a4f28419497f9722a3daafe3b4186f6b6457e060405160405180910390a35050565b50565b600081519050919050565b7f4e487b7100000000000000000000000000000000000000000000000000000000600052604160045260246000fd5b7f4e487b7100000000000000000000000000000000000000000000000000000000600052602260045260246000fd5b6000600282049050600182168061029357607f821691505b6020821081036102a6576102a561024c565b5b50919050565b60008190508160005260206000209050919050565b60006020601f8301049050919050565b600082821b905092915050565b60006008830261030e7fffffffffffffffffffffffffffffffffffffffffffffffffffffffffffffffff826102d1565b61031886836102d1565b95508019841693508086168417925050509392505050565b6000819050919050565b6000819050919050565b600061035f61035a61035584610330565b61033a565b610330565b9050919050565b6000819050919050565b61037983610344565b61038d61038582610366565b8484546102de565b825550505050565b600090565b6103a2610395565b6103ad818484610370565b505050565b5b818110156103d1576103c660008261039a565b6001810190506103b3565b5050565b601f821115610416576103e7816102ac565b6103f0846102c1565b810160208510156103ff578190505b61041361040b856102c1565b8301826103b2565b50505b505050565b600082821c905092915050565b60006104396000198460080261041b565b1980831691505092915050565b60006104528383610428565b9150826002028217905092915050565b61046b82610212565b67ffffffffffffffff8111156104845761048361021d565b5b61048e825461027b565b6104998282856103d5565b600060209050601f8311600181146104cc57600084156104ba578287015190505b6104c48582610446565b86555061052c565b601f1984166104da866102ac565b60005b82811015610502578489015182556001820191506020850194506020810190506104dd565b8683101561051f578489015161051b601f891682610428565b8355505b6001600288020188555050505b505050505050565b600073ffffffffffffffffffffffffffffffffffffffff82169050919050565b600061055f82610534565b9050919050565b61056f81610554565b82525050565b600060208201905061058a6000830184610566565b92915050565b6146288061059f6000396000f3fe608060405234801561001057600080fd5b50600436106101375760003560e01c806379cc6790116100b8578063a9059cbb1161007c578063a9059cbb14610350578063ac41865a14610380578063baa2abde146103b0578063dd62ed3e146103e1578063e8e3370014610411578063f2fde38b1461044357610137565b806379cc6790146102ac5780638da5cb5b146102c857806395d89b41146102e65780639fa77b2014610304578063a4eef28a1461033457610137565b8063313ce567116100ff578063313ce5671461020857806338ed17391461022657806342966c681461025657806370a0823114610272578063715018a6146102a257610137565b8063054d50d41461013c57806306fdde031461016c578063095ea7b31461018a57806318160ddd146101ba57806323b872dd146101d8575b600080fd5b61015660048036038101906101519190613665565b61045f565b60405161016391906136c7565b60405180910390f35b6101746104c5565b6040516101819190613772565b60405180910390f35b6101a4600480360381019061019f91906137f2565b610557565b6040516101b1919061384d565b60405180910390f35b6101c261057a565b6040516101cf91906136c7565b60405180910390f35b6101f260048036038101906101ed9190613868565b610584565b6040516101ff919061384d565b60405180910390f35b6102106105b3565b60405161021d91906138d7565b60405180910390f35b610240600480360381019061023b9190613957565b6105bc565b60405161024d9190613aaf565b60405180910390f35b610270600480360381019061026b9190613ad1565b610dbc565b005b61028c60048036038101906102879190613afe565b610dd0565b60405161029991906136c7565b60405180910390f35b6102aa610e18565b005b6102c660048036038101906102c191906137f2565b610e2c565b005b6102d0610e4c565b6040516102dd9190613b3a565b60405180910390f35b6102ee610e76565b6040516102fb9190613772565b60405180910390f35b61031e60048036038101906103199190613afe565b610f08565b60405161032b91906136c7565b60405180910390f35b61034e60048036038101906103499190613afe565b610f20565b005b61036a600480360381019061036591906137f2565b611038565b604051610377919061384d565b60405180910390f35b61039a60048036038101906103959190613b55565b61105b565b6040516103a791906136c7565b60405180910390f35b6103ca60048036038101906103c59190613b95565b6111ae565b6040516103d8929190613c37565b60405180910390f35b6103fb60048036038101906103f69190613b55565b611629565b60405161040891906136c7565b60405180910390f35b61042b60048036038101906104269190613c60565b6116b0565b60405161043a93929190613d16565b60405180910390f35b61045d60048036038101906104589190613afe565b611ade565b005b60006104756795ae8bf06f87aa3060c01b611b64565b610489672799301b696b2a1a60c01b611b64565b610494848484611b67565b90506104aa67883f27bd6f56d3e660c01b611b64565b6104be67ac1efd23a87d40f060c01b611b64565b9392505050565b6060600380546104d490613d7c565b80601f016020809104026020016040519081016040528092919081815260200182805461050090613d7c565b801561054d5780601f106105225761010080835404028352916020019161054d565b820191906000526020600020905b81548152906001019060200180831161053057829003601f168201915b5050505050905090565b600080610562611d5f565b905061056f818585611d67565b600191505092915050565b6000600254905090565b60008061058f611d5f565b905061059c858285611d79565b6105a7858585611e0e565b60019150509392505050565b60006012905090565b60606105d26745d2c814478c038c60c01b611b64565b816105e7676f58d80f285bd63360c01b611b64565b6105fb674c4413935b09e12960c01b611b64565b61060f679be85b8866ce540860c01b611b64565b61062367278ad0793e397d8560c01b611b64565b428111610665576040517f08c379a000000000000000000000000000000000000000000000000000000000815260040161065c90613df9565b60405180910390fd5b610679677f3ebf4141a62a8460c01b611b64565b61068d676a3cc7ccd4b4099a60c01b611b64565b6106a16773f4be26ebd7abf660c01b611b64565b6106b567aba439ef7e7d745360c01b611b64565b858580806020026020016040519081016040528093929190818152602001838360200280828437600081840152601f19601f8201169050808301925050505050505061070b67aedf52e31f02690460c01b611b64565b61071f67ae42b729ee45e62d60c01b611b64565b61073367229df968b0921fbd60c01b611b64565b6107476792813401921fff0360c01b611b64565b600281511461078b576040517f08c379a000000000000000000000000000000000000000000000000000000000815260040161078290613e65565b60405180910390fd5b61079f67ba4cb43791568f8560c01b611b64565b6107b367eb084abb294157a360c01b611b64565b6107c7673d43063a835cafa460c01b611b64565b6107db679aeb5b1e3964785a60c01b611b64565b6107e3611f02565b6107f7671490e0bb82ac413660c01b611b64565b61080b6724ed8e1c6503d81160c01b611b64565b61081f670ea33943eb491b5260c01b611b64565b610833677f2dc2619a2f04e060c01b611b64565b610847676dc23ed0452137bd60c01b611b64565b8686600181811061085b5761085a613e85565b5b90506020020160208101906108709190613afe565b73ffffffffffffffffffffffffffffffffffffffff168787600081811061089a57610899613e85565b5b90506020020160208101906108af9190613afe565b73ffffffffffffffffffffffffffffffffffffffff1603610905576040517f08c379a00000000000000000000000000000000000000000000000000000000081526004016108fc90613f00565b60405180910390fd5b610919671bdfcd19652093bf60c01b611b64565b61092d67182ca3c7e0b5514460c01b611b64565b61097889888880806020026020016040519081016040528093929190818152602001838360200280828437600081840152601f19601f82011690508083019250505050505050611f48565b925061098e67b71d2271851c397a60c01b611b64565b6109a2671c9d4afa06b12dec60c01b611b64565b6109b667881e8d07fdec9c0960c01b611b64565b87836001815181106109cb576109ca613e85565b5b60200260200101511015610a14576040517f08c379a0000000000000000000000000000000000000000000000000000000008152600401610a0b90613f6c565b60405180910390fd5b610a2867ee5e31714bcc546760c01b611b64565b610a3c676a798b807e3c81ae60c01b611b64565b610a5067411ae2597ff2701660c01b611b64565b610a8487876000818110610a6757610a66613e85565b5b9050602002016020810190610a7c9190613afe565b33308c6121d2565b610a98678ac7eae7795200c360c01b611b64565b610aac670cbc9e593839d09a60c01b611b64565b610afa87876001818110610ac357610ac2613e85565b5b9050602002016020810190610ad89190613afe565b8685600181518110610aed57610aec613e85565b5b6020026020010151612329565b610b0e673b47f44eb10e807960c01b611b64565b82600081518110610b2257610b21613e85565b5b60200260200101516007600089896000818110610b4257610b41613e85565b5b9050602002016020810190610b579190613afe565b73ffffffffffffffffffffffffffffffffffffffff1673ffffffffffffffffffffffffffffffffffffffff1681526020019081526020016000206000828254610ba09190613fbb565b92505081905550610bbb67b3b87980748dbd0360c01b611b64565b82600181518110610bcf57610bce613e85565b5b60200260200101516007600089896001818110610bef57610bee613e85565b5b9050602002016020810190610c049190613afe565b73ffffffffffffffffffffffffffffffffffffffff1673ffffffffffffffffffffffffffffffffffffffff1681526020019081526020016000206000828254610c4d9190613fef565b92505081905550610c686770c1adc3a3192cbc60c01b611b64565b610c7c67172855709e7eff8e60c01b611b64565b86866001818110610c9057610c8f613e85565b5b9050602002016020810190610ca59190613afe565b73ffffffffffffffffffffffffffffffffffffffff1687876000818110610ccf57610cce613e85565b5b9050602002016020810190610ce49190613afe565b73ffffffffffffffffffffffffffffffffffffffff163373ffffffffffffffffffffffffffffffffffffffff167fd36cc53ba71bc76a3db3364981f5296dd4ca5eba0e8c89874f2170515bd20d2486600081518110610d4657610d45613e85565b5b602002602001015187600181518110610d6257610d61613e85565b5b6020026020010151604051610d78929190613c37565b60405180910390a4610d9467bf736dbc69a6358d60c01b611b64565b610da86715ec6c042811d4c760c01b611b64565b610db061247d565b50509695505050505050565b610dcd610dc7611d5f565b82612487565b50565b60008060008373ffffffffffffffffffffffffffffffffffffffff1673ffffffffffffffffffffffffffffffffffffffff168152602001908152602001600020549050919050565b610e20612509565b610e2a6000612590565b565b610e3e82610e38611d5f565b83611d79565b610e488282612487565b5050565b6000600660009054906101000a900473ffffffffffffffffffffffffffffffffffffffff16905090565b606060048054610e8590613d7c565b80601f0160208091040260200160405190810160405280929190818152602001828054610eb190613d7c565b8015610efe5780601f10610ed357610100808354040283529160200191610efe565b820191906000526020600020905b815481529060010190602001808311610ee157829003601f168201915b5050505050905090565b60076020528060005260406000206000915090505481565b610f346739ce43d2ba47895d60c01b611b64565b610f3c612509565b610f50670d707e6768882feb60c01b611b64565b610f6467d6899708a0e953d460c01b611b64565b610f78672e2126e45edae97360c01b611b64565b8073ffffffffffffffffffffffffffffffffffffffff166370a08231306040518263ffffffff1660e01b8152600401610fb19190613b3a565b602060405180830381865afa158015610fce573d6000803e3d6000fd5b505050506040513d601f19601f82011682018060405250810190610ff29190614038565b600760008373ffffffffffffffffffffffffffffffffffffffff1673ffffffffffffffffffffffffffffffffffffffff1681526020019081526020016000208190555050565b600080611043611d5f565b9050611050818585611e0e565b600191505092915050565b600061107167b0d61d3a736879dc60c01b611b64565b61108567f8aa75485206d0b560c01b611b64565b61109967fe1c6f104274306c60c01b611b64565b6000806110a68585612656565b915091506110be673c40924e97f5983b60c01b611b64565b6110d2670e684e4b24a07ac260c01b611b64565b6110e6677ef4551155b86a2a60c01b611b64565b6000821180156110f65750600081115b611135576040517f08c379a000000000000000000000000000000000000000000000000000000000815260040161112c906140b1565b60405180910390fd5b61114967d83a7d2d4c19007c60c01b611b64565b61115d67329eac3237681fea60c01b611b64565b81670de0b6b3a76400008261117291906140d1565b61117c9190614142565b925061119267659a319b48d1597860c01b611b64565b6111a66740c0f2efa0a1202060c01b611b64565b505092915050565b6000806111c567441f5fee5aecace060c01b611b64565b826111da676f58d80f285bd63360c01b611b64565b6111ee674c4413935b09e12960c01b611b64565b611202679be85b8866ce540860c01b611b64565b61121667278ad0793e397d8560c01b611b64565b428111611258576040517f08c379a000000000000000000000000000000000000000000000000000000000815260040161124f90613df9565b60405180910390fd5b61126c677f3ebf4141a62a8460c01b611b64565b611280676a3cc7ccd4b4099a60c01b611b64565b611294677487db176f0d3d5e60c01b611b64565b6112a8676021b281f2bd623760c01b611b64565b6112b0611f02565b6112c467b8d309cbb052264060c01b611b64565b6112d8674a81ad981a858fbc60c01b611b64565b6112ec678de9fcd34a15ee9e60c01b611b64565b61130067fd498b5b3dfb158260c01b611b64565b60008061130d8c8c612656565b9150915061132567bedac171748a51de60c01b611b64565b6113308a8383612748565b809550819650505061134c6751b5a9e0d538ceaf60c01b611b64565b61136067c919313bb5655b0960c01b611b64565b61137467743bd3307a46343760c01b611b64565b8885101580156113845750878410155b6113c3576040517f08c379a00000000000000000000000000000000000000000000000000000000081526004016113ba906141bf565b60405180910390fd5b6113d767dd08a1826382d3f860c01b611b64565b6113eb670d0d1ac9bd3d80fb60c01b611b64565b84600760008e73ffffffffffffffffffffffffffffffffffffffff1673ffffffffffffffffffffffffffffffffffffffff168152602001908152602001600020600082825461143a9190613fef565b925050819055506114556798469a49cbc834ee60c01b611b64565b83600760008d73ffffffffffffffffffffffffffffffffffffffff1673ffffffffffffffffffffffffffffffffffffffff16815260200190815260200160002060008282546114a49190613fef565b925050819055506114bf67428225e9f782eafa60c01b611b64565b6114d367ba736fd60738059d60c01b611b64565b6114dc8a610dbc565b6114f067936e679119b639b360c01b611b64565b61150467204db7fc20b7b16560c01b611b64565b61150f8c8887612329565b611523675c3ba6ce9dc9a2dd60c01b611b64565b611537673853c22cf84b24fb60c01b611b64565b6115428b8886612329565b611556675b1337609b7fcfea60c01b611b64565b61156a67aad6cc282ef96ad760c01b611b64565b8a73ffffffffffffffffffffffffffffffffffffffff168c73ffffffffffffffffffffffffffffffffffffffff163373ffffffffffffffffffffffffffffffffffffffff167fd765e08eef31c0983ecca03ecd166297ac485ecd5dd69e291c848f0a020333c188888f6040516115e293929190613d16565b60405180910390a46115fe674448d952572f209c60c01b611b64565b611612670238611c007e046a60c01b611b64565b505061161c61247d565b5097509795505050505050565b6000600160008473ffffffffffffffffffffffffffffffffffffffff1673ffffffffffffffffffffffffffffffffffffffff16815260200190815260200160002060008373ffffffffffffffffffffffffffffffffffffffff1673ffffffffffffffffffffffffffffffffffffffff16815260200190815260200160002054905092915050565b60008060006116c967d90abcbc14591bb260c01b611b64565b836116de676f58d80f285bd63360c01b611b64565b6116f2674c4413935b09e12960c01b611b64565b611706679be85b8866ce540860c01b611b64565b61171a67278ad0793e397d8560c01b611b64565b42811161175c576040517f08c379a000000000000000000000000000000000000000000000000000000000815260040161175390613df9565b60405180910390fd5b611770677f3ebf4141a62a8460c01b611b64565b611784676a3cc7ccd4b4099a60c01b611b64565b61179867e10be893a56b4a9f60c01b611b64565b6117ac67325fdde2be4bc1d660c01b611b64565b6117b4611f02565b6117c8673db0e24ff7de74e360c01b611b64565b6117dc67c561340d15a80b9460c01b611b64565b6117f067a511ed25a7fcaa2860c01b611b64565b611804676b1d20e5fd4bb7bf60c01b611b64565b61181867bde5a7a6adbe37f960c01b611b64565b8a73ffffffffffffffffffffffffffffffffffffffff168c73ffffffffffffffffffffffffffffffffffffffff1603611886576040517f08c379a000000000000000000000000000000000000000000000000000000000815260040161187d9061422b565b60405180910390fd5b61189a67ac0a0c465814509a60c01b611b64565b6118ae6775c634ca425c4eb260c01b611b64565b6118c2678d81472b94cbfe7560c01b611b64565b6000806118cf8e8e612656565b915091506118e767136767281410f15260c01b611b64565b6118f58c8c8c8c8686612911565b8096508197505050611911675942ff0d494f58db60c01b611b64565b611925670a42b03fc1a3593060c01b611b64565b6119318e3330896121d2565b611945678cab5e0326cf64f760c01b611b64565b611959679d35b12d5cc1a5b960c01b611b64565b6119658d3330886121d2565b61197967b3f924ab9a43c42360c01b611b64565b61198d674f20008d8ea82d7b60c01b611b64565b6119998e8e8888612cfa565b6119ad670a54308cfea5fddb60c01b611b64565b6119c18e8e88886119bc61057a565b612de8565b93506119d7673bd768b91244ccab60c01b611b64565b6119eb675e76122687780e3f60c01b611b64565b6119f58885612fd6565b611a0967a1ba306ca82ca0a560c01b611b64565b611a1d67806f4b1e584e766060c01b611b64565b8c73ffffffffffffffffffffffffffffffffffffffff168e73ffffffffffffffffffffffffffffffffffffffff163373ffffffffffffffffffffffffffffffffffffffff167f43c967b388d3a4ccad3f7ab80167852e322e5a3fde9893f530252281b2ae8b70898989604051611a9593929190613d16565b60405180910390a4611ab167f8f2a17b6c99fe7960c01b611b64565b611ac56757423a21c82a269460c01b611b64565b5050611acf61247d565b50985098509895505050505050565b611ae6612509565b600073ffffffffffffffffffffffffffffffffffffffff168173ffffffffffffffffffffffffffffffffffffffff1603611b585760006040517f1e4fbdf7000000000000000000000000000000000000000000000000000000008152600401611b4f9190613b3a565b60405180910390fd5b611b6181612590565b50565b50565b6000611b7d675a631bad22b333c560c01b611b64565b8282611b9367072ada1136cfb18160c01b611b64565b611ba7679d893b3de856f29560c01b611b64565b611bbb674fb131068698a1f860c01b611b64565b611bcf671f40dd99a27cb28c60c01b611b64565b600082118015611bdf5750600081115b611c1e576040517f08c379a0000000000000000000000000000000000000000000000000000000008152600401611c1590614297565b60405180910390fd5b611c326799983bfc3728d84860c01b611b64565b611c466758e6ddbf3c24d11460c01b611b64565b611c5a67a8cdd560eccce90060c01b611b64565b611c6e675f872059c81cb70360c01b611b64565b611c826721a55e31dbcf862260c01b611b64565b611c9667c8ba52fb9734893560c01b611b64565b611caa67d79ff5e2fc0ee66360c01b611b64565b60008611611ced576040517f08c379a0000000000000000000000000000000000000000000000000000000008152600401611ce490614303565b60405180910390fd5b611d01672c7899b59155941360c01b611b64565b611d15677b3f28de916e0dac60c01b611b64565b848487611d2291906140d1565b611d2c9190614142565b9250611d4267992bb06846fed28f60c01b611b64565b611d5667860e2936e302caae60c01b611b64565b50509392505050565b600033905090565b611d748383836001613058565b505050565b6000611d858484611629565b90507fffffffffffffffffffffffffffffffffffffffffffffffffffffffffffffffff811015611e085781811015611df8578281836040517ffb8f41b2000000000000000000000000000000000000000000000000000000008152600401611def93929190614323565b60405180910390fd5b611e0784848484036000613058565b5b50505050565b600073ffffffffffffffffffffffffffffffffffffffff168373ffffffffffffffffffffffffffffffffffffffff1603611e805760006040517f96c6fd1e000000000000000000000000000000000000000000000000000000008152600401611e779190613b3a565b60405180910390fd5b600073ffffffffffffffffffffffffffffffffffffffff168273ffffffffffffffffffffffffffffffffffffffff1603611ef25760006040517fec442f05000000000000000000000000000000000000000000000000000000008152600401611ee99190613b3a565b60405180910390fd5b611efd83838361322f565b505050565b600260055403611f3e576040517f3ee5aeb500000000000000000000000000000000000000000000000000000000815260040160405180910390fd5b6002600581905550565b6060611f5e671e6150fb9f64dd9860c01b611b64565b81611f7367aedf52e31f02690460c01b611b64565b611f8767ae42b729ee45e62d60c01b611b64565b611f9b67229df968b0921fbd60c01b611b64565b611faf6792813401921fff0360c01b611b64565b6002815114611ff3576040517f08c379a0000000000000000000000000000000000000000000000000000000008152600401611fea90613e65565b60405180910390fd5b61200767ba4cb43791568f8560c01b611b64565b61201b67eb084abb294157a360c01b611b64565b61202f672127ccdc6499dbeb60c01b611b64565b61204367cdf4587bd984d87c60c01b611b64565b612057674b4cfbef3b636ec360c01b611b64565b825167ffffffffffffffff8111156120725761207161435a565b5b6040519080825280602002602001820160405280156120a05781602001602082028036833780820191505090505b5091506120b76774e9a46ba7553f2360c01b611b64565b83826000815181106120cc576120cb613e85565b5b6020026020010181815250506120ec671a8432194771992c60c01b611b64565b6121006754a907154853f5d360c01b611b64565b6000806121438560008151811061211a57612119613e85565b5b60200260200101518660018151811061213657612135613e85565b5b6020026020010151612656565b9150915061215b671d09e982a19de5c460c01b611b64565b6121818460008151811061217257612171613e85565b5b60200260200101518383611b67565b8460018151811061219557612194613e85565b5b6020026020010181815250506121b567b5f4babfd8e5223260c01b611b64565b6121c967c45bd7cef8c51c6460c01b611b64565b50505092915050565b6121e667ee9b4d885ae7875c60c01b611b64565b6121fa672f8a80fbfde38a8860c01b611b64565b61220e674d18d06b093e273460c01b611b64565b60008473ffffffffffffffffffffffffffffffffffffffff166323b872dd8585856040518463ffffffff1660e01b815260040161224d93929190614389565b6020604051808303816000875af115801561226c573d6000803e3d6000fd5b505050506040513d601f19601f8201168201806040525081019061229091906143ec565b90506122a66797e32177a7486b0e60c01b611b64565b6122ba6785566f06335473f060c01b611b64565b6122ce679ea8eb6a82379d0460c01b611b64565b8061230e576040517f08c379a000000000000000000000000000000000000000000000000000000000815260040161230590614465565b60405180910390fd5b61232267c188c6b1c85aaf0460c01b611b64565b5050505050565b61233d67c6fc23b6b13efb6160c01b611b64565b61235167d388b5cf1ff656b060c01b611b64565b61236567abf6b794e052279660c01b611b64565b60008373ffffffffffffffffffffffffffffffffffffffff1663a9059cbb84846040518363ffffffff1660e01b81526004016123a2929190614485565b6020604051808303816000875af11580156123c1573d6000803e3d6000fd5b505050506040513d601f19601f820116820180604052508101906123e591906143ec565b90506123fb67442817dbd61e87a460c01b611b64565b61240f67076f008f2bfbedd960c01b611b64565b61242367892941bdc093411260c01b611b64565b80612463576040517f08c379a000000000000000000000000000000000000000000000000000000000815260040161245a90614465565b60405180910390fd5b6124776728fb85f33e6dd36560c01b611b64565b50505050565b6001600581905550565b600073ffffffffffffffffffffffffffffffffffffffff168273ffffffffffffffffffffffffffffffffffffffff16036124f95760006040517f96c6fd1e0000000000000000000000000000000000000000000000000000000081526004016124f09190613b3a565b60405180910390fd5b6125058260008361322f565b5050565b612511611d5f565b73ffffffffffffffffffffffffffffffffffffffff1661252f610e4c565b73ffffffffffffffffffffffffffffffffffffffff161461258e57612552611d5f565b6040517f118cdaa70000000000000000000000000000000000000000000000000000000081526004016125859190613b3a565b60405180910390fd5b565b6000600660009054906101000a900473ffffffffffffffffffffffffffffffffffffffff16905081600660006101000a81548173ffffffffffffffffffffffffffffffffffffffff021916908373ffffffffffffffffffffffffffffffffffffffff1602179055508173ffffffffffffffffffffffffffffffffffffffff168173ffffffffffffffffffffffffffffffffffffffff167f8be0079c531659141344cd1fd0a4f28419497f9722a3daafe3b4186f6b6457e060405160405180910390a35050565b60008061266d67a72c1de98a3e10e960c01b611b64565b61268167f64ab210e9e907fa60c01b611b64565b600760008573ffffffffffffffffffffffffffffffffffffffff1673ffffffffffffffffffffffffffffffffffffffff1681526020019081526020016000205491506126d7677a634688dec64e1d60c01b611b64565b600760008473ffffffffffffffffffffffffffffffffffffffff1673ffffffffffffffffffffffffffffffffffffffff16815260200190815260200160002054905061272d6761081932b446b62260c01b611b64565b612741670916e04ccaac4a6460c01b611b64565b9250929050565b60008061275f67a91a5b30177a253760c01b611b64565b838361277567072ada1136cfb18160c01b611b64565b612789679d893b3de856f29560c01b611b64565b61279d674fb131068698a1f860c01b611b64565b6127b1671f40dd99a27cb28c60c01b611b64565b6000821180156127c15750600081115b612800576040517f08c379a00000000000000000000000000000000000000000000000000000000081526004016127f790614297565b60405180910390fd5b6128146799983bfc3728d84860c01b611b64565b6128286758e6ddbf3c24d11460c01b611b64565b61283c67517b94ecb31195e060c01b611b64565b61285067bd13413597166ddf60c01b611b64565b612864674c41bd7bc7d841c560c01b611b64565b61287867014feb8ab553475f60c01b611b64565b600061288261057a565b90506128986757c8882179285bd960c01b611b64565b8087896128a591906140d1565b6128af9190614142565b94506128c5677733d06353f9deb560c01b611b64565b8086896128d291906140d1565b6128dc9190614142565b93506128f26730c320dd4fafe51860c01b611b64565b6129066707f4dccd95031aa060c01b611b64565b505050935093915050565b600080612928676f0c43a3935570d560c01b611b64565b61293c67d993ac161953b4dc60c01b611b64565b612950679d52261a2ccf7c5d60c01b611b64565b60006129666706f13025084cffb160c01b611b64565b61297a6753f1e06edfc98cdf60c01b611b64565b6000612990676f3d9a105e13110560c01b611b64565b6129a467b20cd6f46003d3d760c01b611b64565b6000861480156129b45750600085145b156129f0576129cd67f7df6bc3444a376860c01b611b64565b6129e167894ab39be5ad1fb460c01b611b64565b89898094508195505050612cc5565b612a04678c11120b09fa142c60c01b611b64565b612a1867c6dcc0989e62cfc860c01b611b64565b612a238a8787611b67565b9050612a39672c7c15981d6b699760c01b611b64565b612a4d675b3c74d65c259d3060c01b611b64565b888111612b1e57612a6867b26e40a38532bb9b60c01b611b64565b612a7c671b2dd8aa0045890060c01b611b64565b612a9067f3468d403617de4b60c01b611b64565b612aa46736e63e4e38205fe460c01b611b64565b86811015612ae7576040517f08c379a0000000000000000000000000000000000000000000000000000000008152600401612ade906144fa565b60405180910390fd5b612afb6712fee7324aaa9c0960c01b611b64565b612b0f67523df4f5420dba5860c01b611b64565b89818094508195505050612cc4565b612b3267df2eb3ebab6918f560c01b611b64565b612b466786578b0bcc4cedbf60c01b611b64565b612b51898688611b67565b9150612b67675a1ed0ce2166977360c01b611b64565b612b7b67346f21c3f71fe6a560c01b611b64565b898211612c4c57612b9667c51db4323462b66860c01b611b64565b612baa674011c9e209ba660560c01b611b64565b612bbe674dbe750be309b85660c01b611b64565b612bd267d26ce3dbcd76e77260c01b611b64565b87821015612c15576040517f08c379a0000000000000000000000000000000000000000000000000000000008152600401612c0c90614566565b60405180910390fd5b612c2967394aba989d2dd80460c01b611b64565b612c3d67e1e2992e0a6b6a4a60c01b611b64565b81898094508195505050612cc3565b612c6067b01b2fa3e074efd160c01b611b64565b612c746736eeb157222375be60c01b611b64565b612c8867bba30cc30b8feb0c60c01b611b64565b6040517f08c379a0000000000000000000000000000000000000000000000000000000008152600401612cba906145d2565b60405180910390fd5b5b5b612cd96731129ac87a809b3d60c01b611b64565b612ced674c2ebdbb398c1e8560c01b611b64565b5050965096945050505050565b612d0e671a411c6f9507963b60c01b611b64565b612d2267b248f97f9aafd9c160c01b611b64565b81600760008673ffffffffffffffffffffffffffffffffffffffff1673ffffffffffffffffffffffffffffffffffffffff1681526020019081526020016000206000828254612d719190613fbb565b92505081905550612d8c670837e896497660ca60c01b611b64565b80600760008573ffffffffffffffffffffffffffffffffffffffff1673ffffffffffffffffffffffffffffffffffffffff1681526020019081526020016000206000828254612ddb9190613fbb565b9250508190555050505050565b6000612dfe67759cc84a6755403560c01b611b64565b612e1267f0cf54dcc85d240660c01b611b64565b612e26670e394a4770da7b3a60c01b611b64565b60008203612e7157612e426744182aafa387f82d60c01b611b64565b612e5667711fc4b654ad68d160c01b611b64565b612e6a8385612e6591906140d1565b613454565b9050612fa5565b612e8567de090170bdcd770860c01b611b64565b612e9967a37fd826b40d9d3060c01b611b64565b612ead6729ac3dd80024410860c01b611b64565b600080612eba8888612656565b91509150612ed26797f90b63a6c5aeea60c01b611b64565b612ee6670e000f9bf292129e60c01b611b64565b6000828588612ef591906140d1565b612eff9190614142565b9050612f1567a89907dee0b1ecff60c01b611b64565b612f29675b5e758128edd91460c01b611b64565b6000828688612f3891906140d1565b612f429190614142565b9050612f586759d119f553dd896660c01b611b64565b80821080612f765750612f756768f1a021433c33c360c01b613613565b5b8015612f925750612f91677ac920647948b6a260c01b61361a565b5b612f9c5780612f9e565b815b9450505050505b612fb967b17de76458c8b50660c01b611b64565b612fcd6745486584d73dde2960c01b611b64565b95945050505050565b600073ffffffffffffffffffffffffffffffffffffffff168273ffffffffffffffffffffffffffffffffffffffff16036130485760006040517fec442f0500000000000000000000000000000000000000000000000000000000815260040161303f9190613b3a565b60405180910390fd5b6130546000838361322f565b5050565b600073ffffffffffffffffffffffffffffffffffffffff168473ffffffffffffffffffffffffffffffffffffffff16036130ca5760006040517fe602df050000000000000000000000000000000000000000000000000000000081526004016130c19190613b3a565b60405180910390fd5b600073ffffffffffffffffffffffffffffffffffffffff168373ffffffffffffffffffffffffffffffffffffffff160361313c5760006040517f94280d620000000000000000000000000000000000000000000000000000000081526004016131339190613b3a565b60405180910390fd5b81600160008673ffffffffffffffffffffffffffffffffffffffff1673ffffffffffffffffffffffffffffffffffffffff16815260200190815260200160002060008573ffffffffffffffffffffffffffffffffffffffff1673ffffffffffffffffffffffffffffffffffffffff168152602001908152602001600020819055508015613229578273ffffffffffffffffffffffffffffffffffffffff168473ffffffffffffffffffffffffffffffffffffffff167f8c5be1e5ebec7d5bd14f71427d1e84f3dd0314c0f7b2291e5b200ac8c7c3b9258460405161322091906136c7565b60405180910390a35b50505050565b600073ffffffffffffffffffffffffffffffffffffffff168373ffffffffffffffffffffffffffffffffffffffff16036132815780600260008282546132759190613fbb565b92505081905550613354565b60008060008573ffffffffffffffffffffffffffffffffffffffff1673ffffffffffffffffffffffffffffffffffffffff1681526020019081526020016000205490508181101561330d578381836040517fe450d38c00000000000000000000000000000000000000000000000000000000815260040161330493929190614323565b60405180910390fd5b8181036000808673ffffffffffffffffffffffffffffffffffffffff1673ffffffffffffffffffffffffffffffffffffffff16815260200190815260200160002081905550505b600073ffffffffffffffffffffffffffffffffffffffff168273ffffffffffffffffffffffffffffffffffffffff160361339d57806002600082825403925050819055506133ea565b806000808473ffffffffffffffffffffffffffffffffffffffff1673ffffffffffffffffffffffffffffffffffffffff168152602001908152602001600020600082825401925050819055505b8173ffffffffffffffffffffffffffffffffffffffff168373ffffffffffffffffffffffffffffffffffffffff167fddf252ad1be2c89b69c2b068fc378daa952ba7f163c4a11628f55a4df523b3ef8360405161344791906136c7565b60405180910390a3505050565b600061346a672f0ed1ccc13a545160c01b611b64565b61347e674c687ad7fe850eaf60c01b611b64565b613492670c799ff0abadf68f60c01b611b64565b6003821115613597576134af67d2103044c7f43cdf60c01b611b64565b6134c3679e94c64db3faa81560c01b611b64565b8190506134da672f0ad733493ce36260c01b611b64565b6134ee67b2fdbc85b9ededc560c01b611b64565b600060016002846134ff9190614142565b6135099190613fbb565b905061351f67ac163a0da8a72be660c01b611b64565b6135336771e570f1c6d57c1a60c01b611b64565b5b818110156135915761355067fe213a033555135160c01b611b64565b80915061356767bc2a36190a859f1460c01b611b64565b60028182856135769190614142565b6135809190613fbb565b61358a9190614142565b9050613534565b5061360e565b6135ab67149d83b0e3d4ffa460c01b611b64565b6135bf671ce728c6864e1b4e60c01b611b64565b600082146135f8576135db674166f41802c7dbd760c01b611b64565b6135ef67cdeda41770ead2d360c01b611b64565b6001905061360d565b61360c67e9ebf47b38c08ce160c01b611b64565b5b5b919050565b6000919050565b600060019050919050565b600080fd5b600080fd5b6000819050919050565b6136428161362f565b811461364d57600080fd5b50565b60008135905061365f81613639565b92915050565b60008060006060848603121561367e5761367d613625565b5b600061368c86828701613650565b935050602061369d86828701613650565b92505060406136ae86828701613650565b9150509250925092565b6136c18161362f565b82525050565b60006020820190506136dc60008301846136b8565b92915050565b600081519050919050565b600082825260208201905092915050565b60005b8381101561371c578082015181840152602081019050613701565b60008484015250505050565b6000601f19601f8301169050919050565b6000613744826136e2565b61374e81856136ed565b935061375e8185602086016136fe565b61376781613728565b840191505092915050565b6000602082019050818103600083015261378c8184613739565b905092915050565b600073ffffffffffffffffffffffffffffffffffffffff82169050919050565b60006137bf82613794565b9050919050565b6137cf816137b4565b81146137da57600080fd5b50565b6000813590506137ec816137c6565b92915050565b6000806040838503121561380957613808613625565b5b6000613817858286016137dd565b925050602061382885828601613650565b9150509250929050565b60008115159050919050565b61384781613832565b82525050565b6000602082019050613862600083018461383e565b92915050565b60008060006060848603121561388157613880613625565b5b600061388f868287016137dd565b93505060206138a0868287016137dd565b92505060406138b186828701613650565b9150509250925092565b600060ff82169050919050565b6138d1816138bb565b82525050565b60006020820190506138ec60008301846138c8565b92915050565b600080fd5b600080fd5b600080fd5b60008083601f840112613917576139166138f2565b5b8235905067ffffffffffffffff811115613934576139336138f7565b5b6020830191508360208202830111156139505761394f6138fc565b5b9250929050565b60008060008060008060a0878903121561397457613973613625565b5b600061398289828a01613650565b965050602061399389828a01613650565b955050604087013567ffffffffffffffff8111156139b4576139b361362a565b5b6139c089828a01613901565b945094505060606139d389828a016137dd565b92505060806139e489828a01613650565b9150509295509295509295565b600081519050919050565b600082825260208201905092915050565b6000819050602082019050919050565b613a268161362f565b82525050565b6000613a388383613a1d565b60208301905092915050565b6000602082019050919050565b6000613a5c826139f1565b613a6681856139fc565b9350613a7183613a0d565b8060005b83811015613aa2578151613a898882613a2c565b9750613a9483613a44565b925050600181019050613a75565b5085935050505092915050565b60006020820190508181036000830152613ac98184613a51565b905092915050565b600060208284031215613ae757613ae6613625565b5b6000613af584828501613650565b91505092915050565b600060208284031215613b1457613b13613625565b5b6000613b22848285016137dd565b91505092915050565b613b34816137b4565b82525050565b6000602082019050613b4f6000830184613b2b565b92915050565b60008060408385031215613b6c57613b6b613625565b5b6000613b7a858286016137dd565b9250506020613b8b858286016137dd565b9150509250929050565b600080600080600080600060e0888a031215613bb457613bb3613625565b5b6000613bc28a828b016137dd565b9750506020613bd38a828b016137dd565b9650506040613be48a828b01613650565b9550506060613bf58a828b01613650565b9450506080613c068a828b01613650565b93505060a0613c178a828b016137dd565b92505060c0613c288a828b01613650565b91505092959891949750929550565b6000604082019050613c4c60008301856136b8565b613c5960208301846136b8565b9392505050565b600080600080600080600080610100898b031215613c8157613c80613625565b5b6000613c8f8b828c016137dd565b9850506020613ca08b828c016137dd565b9750506040613cb18b828c01613650565b9650506060613cc28b828c01613650565b9550506080613cd38b828c01613650565b94505060a0613ce48b828c01613650565b93505060c0613cf58b828c016137dd565b92505060e0613d068b828c01613650565b9150509295985092959890939650565b6000606082019050613d2b60008301866136b8565b613d3860208301856136b8565b613d4560408301846136b8565b949350505050565b7f4e487b7100000000000000000000000000000000000000000000000000000000600052602260045260246000fd5b60006002820490506001821680613d9457607f821691505b602082108103613da757613da6613d4d565b5b50919050565b7f53537761703a20446561646c696e6520726561636865642e0000000000000000600082015250565b6000613de36018836136ed565b9150613dee82613dad565b602082019050919050565b60006020820190508181036000830152613e1281613dd6565b9050919050565b7f53537761703a204e6f20746f6b656e732073656c65637465642e000000000000600082015250565b6000613e4f601a836136ed565b9150613e5a82613e19565b602082019050919050565b60006020820190508181036000830152613e7e81613e42565b9050919050565b7f4e487b7100000000000000000000000000000000000000000000000000000000600052603260045260246000fd5b7f53537761703a2053616d6520746f6b656e732e00000000000000000000000000600082015250565b6000613eea6013836136ed565b9150613ef582613eb4565b602082019050919050565b60006020820190508181036000830152613f1981613edd565b9050919050565b7f53537761703a205472616e736665722063616e63656c6c65642e000000000000600082015250565b6000613f56601a836136ed565b9150613f6182613f20565b602082019050919050565b60006020820190508181036000830152613f8581613f49565b9050919050565b7f4e487b7100000000000000000000000000000000000000000000000000000000600052601160045260246000fd5b6000613fc68261362f565b9150613fd18361362f565b9250828201905080821115613fe957613fe8613f8c565b5b92915050565b6000613ffa8261362f565b91506140058361362f565b925082820390508181111561401d5761401c613f8c565b5b92915050565b60008151905061403281613639565b92915050565b60006020828403121561404e5761404d613625565b5b600061405c84828501614023565b91505092915050565b7f53537761703a204c69717569646974792e000000000000000000000000000000600082015250565b600061409b6011836136ed565b91506140a682614065565b602082019050919050565b600060208201905081810360008301526140ca8161408e565b9050919050565b60006140dc8261362f565b91506140e78361362f565b92508282026140f58161362f565b9150828204841483151761410c5761410b613f8c565b5b5092915050565b7f4e487b7100000000000000000000000000000000000000000000000000000000600052601260045260246000fd5b600061414d8261362f565b91506141588361362f565b92508261416857614167614113565b5b828204905092915050565b7f53537761703a2042616c616e63652e0000000000000000000000000000000000600082015250565b60006141a9600f836136ed565b91506141b482614173565b602082019050919050565b600060208201905081810360008301526141d88161419c565b9050919050565b7f53537761703a2053616d6520546f6b656e730000000000000000000000000000600082015250565b60006142156012836136ed565b9150614220826141df565b602082019050919050565b6000602082019050818103600083015261424481614208565b9050919050565b7f53537761703a204e6f7420456e6f756768204c69717569646974790000000000600082015250565b6000614281601b836136ed565b915061428c8261424b565b602082019050919050565b600060208201905081810360008301526142b081614274565b9050919050565b7f53537761703a20496e73756666696369656e7420616d6f756e742e0000000000600082015250565b60006142ed601b836136ed565b91506142f8826142b7565b602082019050919050565b6000602082019050818103600083015261431c816142e0565b9050919050565b60006060820190506143386000830186613b2b565b61434560208301856136b8565b61435260408301846136b8565b949350505050565b7f4e487b7100000000000000000000000000000000000000000000000000000000600052604160045260246000fd5b600060608201905061439e6000830186613b2b565b6143ab6020830185613b2b565b6143b860408301846136b8565b949350505050565b6143c981613832565b81146143d457600080fd5b50565b6000815190506143e6816143c0565b92915050565b60006020828403121561440257614401613625565b5b6000614410848285016143d7565b91505092915050565b7f53537761703a205472616e73666572206661696c656421000000000000000000600082015250565b600061444f6017836136ed565b915061445a82614419565b602082019050919050565b6000602082019050818103600083015261447e81614442565b9050919050565b600060408201905061449a6000830185613b2b565b6144a760208301846136b8565b9392505050565b7f53537761703a20422042616c616e63652e000000000000000000000000000000600082015250565b60006144e46011836136ed565b91506144ef826144ae565b602082019050919050565b60006020820190508181036000830152614513816144d7565b9050919050565b7f53537761703a20412042616c616e63652e000000000000000000000000000000600082015250565b60006145506011836136ed565b915061455b8261451a565b602082019050919050565b6000602082019050818103600083015261457f81614543565b9050919050565b7f53537761703a20746f6b656e20726174696f0000000000000000000000000000600082015250565b60006145bc6012836136ed565b91506145c782614586565b602082019050919050565b600060208201905081810360008301526145eb816145af565b905091905056fea2646970667358221220be9f3f55b9563732e52ab186bb60bf210d79ba304ab22370e6ba7bc62a580f4664736f6c634300081c0033",
  "linkReferences": {},
  "deployedLinkReferences": {}
}