{"contracts/SimpleSwap.sol":{"SimpleSwap":{"abi":[{"inputs":[],"stateMutability":"nonpayable","type":"constructor"},{"inputs":[{"internalType":"address","name":"spender","type":"address"},{"internalType":"uint256","name":"allowance","type":"uint256"},{"internalType":"uint256","name":"needed","type":"uint256"}],"name":"ERC20InsufficientAllowance","type":"error"},{"inputs":[{"internalType":"address","name":"sender","type":"address"},{"internalType":"uint256","name":"balance","type":"uint256"},{"internalType":"uint256","name":"needed","type":"uint256"}],"name":"ERC20InsufficientBalance","type":"error"},{"inputs":[{"internalType":"address","name":"approver","type":"address"}],"name":"ERC20InvalidApprover","type":"error"},{"inputs":[{"internalType":"address","name":"receiver","type":"address"}],"name":"ERC20InvalidReceiver","type":"error"},{"inputs":[{"internalType":"address","name":"sender","type":"address"}],"name":"ERC20InvalidSender","type":"error"},{"inputs":[{"internalType":"address","name":"spender","type":"address"}],"name":"ERC20InvalidSpender","type":"error"},{"inputs":[{"internalType":"address","name":"owner","type":"address"}],"name":"OwnableInvalidOwner","type":"error"},{"inputs":[{"internalType":"address","name":"account","type":"address"}],"name":"OwnableUnauthorizedAccount","type":"error"},{"inputs":[],"name":"ReentrancyGuardReentrantCall","type":"error"},{"anonymous":false,"inputs":[{"indexed":true,"internalType":"address","name":"owner","type":"address"},{"indexed":true,"internalType":"address","name":"spender","type":"address"},{"indexed":false,"internalType":"uint256","name":"value","type":"uint256"}],"name":"Approval","type":"event"},{"anonymous":false,"inputs":[{"indexed":true,"internalType":"address","name":"provider","type":"address"},{"indexed":true,"internalType":"address","name":"tokenA","type":"address"},{"indexed":true,"internalType":"address","name":"tokenB","type":"address"},{"indexed":false,"internalType":"uint256","name":"amountA","type":"uint256"},{"indexed":false,"internalType":"uint256","name":"amountB","type":"uint256"},{"indexed":false,"internalType":"uint256","name":"liquidity","type":"uint256"}],"name":"LiquidityAdded","type":"event"},{"anonymous":false,"inputs":[{"indexed":true,"internalType":"address","name":"provider","type":"address"},{"indexed":true,"internalType":"address","name":"tokenA","type":"address"},{"indexed":true,"internalType":"address","name":"tokenB","type":"address"},{"indexed":false,"internalType":"uint256","name":"amountA","type":"uint256"},{"indexed":false,"internalType":"uint256","name":"amountB","type":"uint256"},{"indexed":false,"internalType":"uint256","name":"liquidity","type":"uint256"}],"name":"LiquidityRemoved","type":"event"},{"anonymous":false,"inputs":[{"indexed":true,"internalType":"address","name":"previousOwner","type":"address"},{"indexed":true,"internalType":"address","name":"newOwner","type":"address"}],"name":"OwnershipTransferred","type":"event"},{"anonymous":false,"inputs":[{"indexed":true,"internalType":"address","name":"trader","type":"address"},{"indexed":true,"internalType":"address","name":"tokenIn","type":"address"},{"indexed":true,"internalType":"address","name":"tokenOut","type":"address"},{"indexed":false,"internalType":"uint256","name":"amountIn","type":"uint256"},{"indexed":false,"internalType":"uint256","name":"amountOut","type":"uint256"}],"name":"TokenSwapped","type":"event"},{"anonymous":false,"inputs":[{"indexed":true,"internalType":"address","name":"from","type":"address"},{"indexed":true,"internalType":"address","name":"to","type":"address"},{"indexed":false,"internalType":"uint256","name":"value","type":"uint256"}],"name":"Transfer","type":"event"},{"inputs":[{"internalType":"address","name":"tokenA","type":"address"},{"internalType":"address","name":"tokenB","type":"address"},{"internalType":"uint256","name":"amountADesired","type":"uint256"},{"internalType":"uint256","name":"amountBDesired","type":"uint256"},{"internalType":"uint256","name":"amountAMin","type":"uint256"},{"internalType":"uint256","name":"amountBMin","type":"uint256"},{"internalType":"address","name":"to","type":"address"},{"internalType":"uint256","name":"deadline","type":"uint256"}],"name":"addLiquidity","outputs":[{"internalType":"uint256","name":"amountA","type":"uint256"},{"internalType":"uint256","name":"amountB","type":"uint256"},{"internalType":"uint256","name":"liquidity","type":"uint256"}],"stateMutability":"nonpayable","type":"function"},{"inputs":[{"internalType":"address","name":"owner","type":"address"},{"internalType":"address","name":"spender","type":"address"}],"name":"allowance","outputs":[{"internalType":"uint256","name":"","type":"uint256"}],"stateMutability":"view","type":"function"},{"inputs":[{"internalType":"address","name":"spender","type":"address"},{"internalType":"uint256","name":"value","type":"uint256"}],"name":"approve","outputs":[{"internalType":"bool","name":"","type":"bool"}],"stateMutability":"nonpayable","type":"function"},{"inputs":[{"internalType":"address","name":"account","type":"address"}],"name":"balanceOf","outputs":[{"internalType":"uint256","name":"","type":"uint256"}],"stateMutability":"view","type":"function"},{"inputs":[{"internalType":"uint256","name":"value","type":"uint256"}],"name":"burn","outputs":[],"stateMutability":"nonpayable","type":"function"},{"inputs":[{"internalType":"address","name":"account","type":"address"},{"internalType":"uint256","name":"value","type":"uint256"}],"name":"burnFrom","outputs":[],"stateMutability":"nonpayable","type":"function"},{"inputs":[],"name":"decimals","outputs":[{"internalType":"uint8","name":"","type":"uint8"}],"stateMutability":"view","type":"function"},{"inputs":[{"internalType":"uint256","name":"amountIn","type":"uint256"},{"internalType":"uint256","name":"reserveIn","type":"uint256"},{"internalType":"uint256","name":"reserveOut","type":"uint256"}],"name":"getAmountOut","outputs":[{"internalType":"uint256","name":"amountOut","type":"uint256"}],"stateMutability":"pure","type":"function"},{"inputs":[{"internalType":"address","name":"tokenA","type":"address"},{"internalType":"address","name":"tokenB","type":"address"}],"name":"getPrice","outputs":[{"internalType":"uint256","name":"price","type":"uint256"}],"stateMutability":"view","type":"function"},{"inputs":[],"name":"name","outputs":[{"internalType":"string","name":"","type":"string"}],"stateMutability":"view","type":"function"},{"inputs":[],"name":"owner","outputs":[{"internalType":"address","name":"","type":"address"}],"stateMutability":"view","type":"function"},{"inputs":[{"internalType":"address","name":"tokenA","type":"address"},{"internalType":"address","name":"tokenB","type":"address"},{"internalType":"uint256","name":"liquidity","type":"uint256"},{"internalType":"uint256","name":"amountAMin","type":"uint256"},{"internalType":"uint256","name":"amountBMin","type":"uint256"},{"internalType":"address","name":"to","type":"address"},{"internalType":"uint256","name":"deadline","type":"uint256"}],"name":"removeLiquidity","outputs":[{"internalType":"uint256","name":"amountA","type":"uint256"},{"internalType":"uint256","name":"amountB","type":"uint256"}],"stateMutability":"nonpayable","type":"function"},{"inputs":[],"name":"renounceOwnership","outputs":[],"stateMutability":"nonpayable","type":"function"},{"inputs":[{"internalType":"address","name":"","type":"address"}],"name":"reserveOf","outputs":[{"internalType":"uint256","name":"","type":"uint256"}],"stateMutability":"view","type":"function"},{"inputs":[{"internalType":"uint256","name":"amountIn","type":"uint256"},{"internalType":"uint256","name":"amountOutMin","type":"uint256"},{"internalType":"address[]","name":"path","type":"address[]"},{"internalType":"address","name":"to","type":"address"},{"internalType":"uint256","name":"deadline","type":"uint256"}],"name":"swapExactTokensForTokens","outputs":[{"internalType":"uint256[]","name":"amounts","type":"uint256[]"}],"stateMutability":"nonpayable","type":"function"},{"inputs":[],"name":"symbol","outputs":[{"internalType":"string","name":"","type":"string"}],"stateMutability":"view","type":"function"},{"inputs":[{"internalType":"address","name":"token","type":"address"}],"name":"syncReserve","outputs":[],"stateMutability":"nonpayable","type":"function"},{"inputs":[],"name":"totalSupply","outputs":[{"internalType":"uint256","name":"","type":"uint256"}],"stateMutability":"view","type":"function"},{"inputs":[{"internalType":"address","name":"to","type":"address"},{"internalType":"uint256","name":"value","type":"uint256"}],"name":"transfer","outputs":[{"internalType":"bool","name":"","type":"bool"}],"stateMutability":"nonpayable","type":"function"},{"inputs":[{"internalType":"address","name":"from","type":"address"},{"internalType":"address","name":"to","type":"address"},{"internalType":"uint256","name":"value","type":"uint256"}],"name":"transferFrom","outputs":[{"internalType":"bool","name":"","type":"bool"}],"stateMutability":"nonpayable","type":"function"},{"inputs":[{"internalType":"address","name":"newOwner","type":"address"}],"name":"transferOwnership","outputs":[],"stateMutability":"nonpayable","type":"function"}],"evm":{"bytecode":{"linkReferences":{},"object":"608060405234801561001057600080fd5b50336040518060400160405280600b81526020017f53696d706c6520537761700000000000000000000000000000000000000000008152506040518060400160405280600481526020017f5353575000000000000000000000000000000000000000000000000000000000815250816003908161008d9190610462565b50806004908161009d9190610462565b5050506001600581905550600073ffffffffffffffffffffffffffffffffffffffff168173ffffffffffffffffffffffffffffffffffffffff160361011a5760006040517f1e4fbdf70000000000000000000000000000000000000000000000000000000081526004016101119190610575565b60405180910390fd5b6101298161014960201b60201c565b506101446799983bfc3728d84860c01b61020f60201b60201c565b610590565b6000600660009054906101000a900473ffffffffffffffffffffffffffffffffffffffff16905081600660006101000a81548173ffffffffffffffffffffffffffffffffffffffff021916908373ffffffffffffffffffffffffffffffffffffffff1602179055508173ffffffffffffffffffffffffffffffffffffffff168173ffffffffffffffffffffffffffffffffffffffff167f8be0079c531659141344cd1fd0a4f28419497f9722a3daafe3b4186f6b6457e060405160405180910390a35050565b50565b600081519050919050565b7f4e487b7100000000000000000000000000000000000000000000000000000000600052604160045260246000fd5b7f4e487b7100000000000000000000000000000000000000000000000000000000600052602260045260246000fd5b6000600282049050600182168061029357607f821691505b6020821081036102a6576102a561024c565b5b50919050565b60008190508160005260206000209050919050565b60006020601f8301049050919050565b600082821b905092915050565b60006008830261030e7fffffffffffffffffffffffffffffffffffffffffffffffffffffffffffffffff826102d1565b61031886836102d1565b95508019841693508086168417925050509392505050565b6000819050919050565b6000819050919050565b600061035f61035a61035584610330565b61033a565b610330565b9050919050565b6000819050919050565b61037983610344565b61038d61038582610366565b8484546102de565b825550505050565b600090565b6103a2610395565b6103ad818484610370565b505050565b5b818110156103d1576103c660008261039a565b6001810190506103b3565b5050565b601f821115610416576103e7816102ac565b6103f0846102c1565b810160208510156103ff578190505b61041361040b856102c1565b8301826103b2565b50505b505050565b600082821c905092915050565b60006104396000198460080261041b565b1980831691505092915050565b60006104528383610428565b9150826002028217905092915050565b61046b82610212565b67ffffffffffffffff8111156104845761048361021d565b5b61048e825461027b565b6104998282856103d5565b600060209050601f8311600181146104cc57600084156104ba578287015190505b6104c48582610446565b86555061052c565b601f1984166104da866102ac565b60005b82811015610502578489015182556001820191506020850194506020810190506104dd565b8683101561051f578489015161051b601f891682610428565b8355505b6001600288020188555050505b505050505050565b600073ffffffffffffffffffffffffffffffffffffffff82169050919050565b600061055f82610534565b9050919050565b61056f81610554565b82525050565b600060208201905061058a6000830184610566565b92915050565b61473a8061059f6000396000f3fe608060405234801561001057600080fd5b50600436106101375760003560e01c806379cc6790116100b8578063a9059cbb1161007c578063a9059cbb14610350578063ac41865a14610380578063baa2abde146103b0578063dd62ed3e146103e1578063e8e3370014610411578063f2fde38b1461044357610137565b806379cc6790146102ac5780638da5cb5b146102c857806395d89b41146102e65780639fa77b2014610304578063a4eef28a1461033457610137565b8063313ce567116100ff578063313ce5671461020857806338ed17391461022657806342966c681461025657806370a0823114610272578063715018a6146102a257610137565b8063054d50d41461013c57806306fdde031461016c578063095ea7b31461018a57806318160ddd146101ba57806323b872dd146101d8575b600080fd5b61015660048036038101906101519190613777565b61045f565b60405161016391906137d9565b60405180910390f35b6101746104c5565b6040516101819190613884565b60405180910390f35b6101a4600480360381019061019f9190613904565b610557565b6040516101b1919061395f565b60405180910390f35b6101c261057a565b6040516101cf91906137d9565b60405180910390f35b6101f260048036038101906101ed919061397a565b610584565b6040516101ff919061395f565b60405180910390f35b6102106105b3565b60405161021d91906139e9565b60405180910390f35b610240600480360381019061023b9190613a69565b6105bc565b60405161024d9190613bc1565b60405180910390f35b610270600480360381019061026b9190613be3565b610dbc565b005b61028c60048036038101906102879190613c10565b610dd0565b60405161029991906137d9565b60405180910390f35b6102aa610e18565b005b6102c660048036038101906102c19190613904565b610e2c565b005b6102d0610e4c565b6040516102dd9190613c4c565b60405180910390f35b6102ee610e76565b6040516102fb9190613884565b60405180910390f35b61031e60048036038101906103199190613c10565b610f08565b60405161032b91906137d9565b60405180910390f35b61034e60048036038101906103499190613c10565b610f20565b005b61036a60048036038101906103659190613904565b611038565b604051610377919061395f565b60405180910390f35b61039a60048036038101906103959190613c67565b61105b565b6040516103a791906137d9565b60405180910390f35b6103ca60048036038101906103c59190613ca7565b6111ae565b6040516103d8929190613d49565b60405180910390f35b6103fb60048036038101906103f69190613c67565b611629565b60405161040891906137d9565b60405180910390f35b61042b60048036038101906104269190613d72565b6116b0565b60405161043a93929190613e28565b60405180910390f35b61045d60048036038101906104589190613c10565b611b7f565b005b60006104756795ae8bf06f87aa3060c01b611c05565b610489672799301b696b2a1a60c01b611c05565b610494848484611c08565b90506104aa67883f27bd6f56d3e660c01b611c05565b6104be67ac1efd23a87d40f060c01b611c05565b9392505050565b6060600380546104d490613e8e565b80601f016020809104026020016040519081016040528092919081815260200182805461050090613e8e565b801561054d5780601f106105225761010080835404028352916020019161054d565b820191906000526020600020905b81548152906001019060200180831161053057829003601f168201915b5050505050905090565b600080610562611e00565b905061056f818585611e08565b600191505092915050565b6000600254905090565b60008061058f611e00565b905061059c858285611e1a565b6105a7858585611eaf565b60019150509392505050565b60006012905090565b60606105d2672a7ccadd08a3613260c01b611c05565b816105e76798beef8724399c0b60c01b611c05565b6105fb67167cf81a3ed20fe860c01b611c05565b61060f67d0b9da5569cd735460c01b611c05565b6106236703c9e9afde64c6e860c01b611c05565b428111610665576040517f08c379a000000000000000000000000000000000000000000000000000000000815260040161065c90613f0b565b60405180910390fd5b61067967d8a33ed4dbb4e57660c01b611c05565b61068d6783f53ab5ccfa685f60c01b611c05565b6106a167cc61a248b2dcbd0460c01b611c05565b6106b567b30ad34de91cc89c60c01b611c05565b858580806020026020016040519081016040528093929190818152602001838360200280828437600081840152601f19601f8201169050808301925050505050505061070b677f3ebf4141a62a8460c01b611c05565b61071f676a3cc7ccd4b4099a60c01b611c05565b61073367072ada1136cfb18160c01b611c05565b610747679d893b3de856f29560c01b611c05565b600281511461078b576040517f08c379a000000000000000000000000000000000000000000000000000000000815260040161078290613f77565b60405180910390fd5b61079f674fb131068698a1f860c01b611c05565b6107b3671f40dd99a27cb28c60c01b611c05565b6107c767f002242310d232a460c01b611c05565b6107db67be07a49f0a19375060c01b611c05565b6107e3611fa3565b6107f767a5d918b5b8e2339860c01b611c05565b61080b6724ed8e1c6503d81160c01b611c05565b61081f670ea33943eb491b5260c01b611c05565b610833677f2dc2619a2f04e060c01b611c05565b610847676dc23ed0452137bd60c01b611c05565b8686600181811061085b5761085a613f97565b5b90506020020160208101906108709190613c10565b73ffffffffffffffffffffffffffffffffffffffff168787600081811061089a57610899613f97565b5b90506020020160208101906108af9190613c10565b73ffffffffffffffffffffffffffffffffffffffff1603610905576040517f08c379a00000000000000000000000000000000000000000000000000000000081526004016108fc90614012565b60405180910390fd5b610919671bdfcd19652093bf60c01b611c05565b61092d67182ca3c7e0b5514460c01b611c05565b61097889888880806020026020016040519081016040528093929190818152602001838360200280828437600081840152601f19601f82011690508083019250505050505050611fe9565b925061098e67b71d2271851c397a60c01b611c05565b6109a2671c9d4afa06b12dec60c01b611c05565b6109b667881e8d07fdec9c0960c01b611c05565b87836001815181106109cb576109ca613f97565b5b60200260200101511015610a14576040517f08c379a0000000000000000000000000000000000000000000000000000000008152600401610a0b9061407e565b60405180910390fd5b610a2867ee5e31714bcc546760c01b611c05565b610a3c676a798b807e3c81ae60c01b611c05565b610a5067411ae2597ff2701660c01b611c05565b610a8487876000818110610a6757610a66613f97565b5b9050602002016020810190610a7c9190613c10565b33308c612273565b610a98678ac7eae7795200c360c01b611c05565b610aac670cbc9e593839d09a60c01b611c05565b610afa87876001818110610ac357610ac2613f97565b5b9050602002016020810190610ad89190613c10565b8685600181518110610aed57610aec613f97565b5b60200260200101516123ca565b610b0e673b47f44eb10e807960c01b611c05565b82600081518110610b2257610b21613f97565b5b60200260200101516007600089896000818110610b4257610b41613f97565b5b9050602002016020810190610b579190613c10565b73ffffffffffffffffffffffffffffffffffffffff1673ffffffffffffffffffffffffffffffffffffffff1681526020019081526020016000206000828254610ba091906140cd565b92505081905550610bbb67b3b87980748dbd0360c01b611c05565b82600181518110610bcf57610bce613f97565b5b60200260200101516007600089896001818110610bef57610bee613f97565b5b9050602002016020810190610c049190613c10565b73ffffffffffffffffffffffffffffffffffffffff1673ffffffffffffffffffffffffffffffffffffffff1681526020019081526020016000206000828254610c4d9190614101565b92505081905550610c686770c1adc3a3192cbc60c01b611c05565b610c7c67172855709e7eff8e60c01b611c05565b86866001818110610c9057610c8f613f97565b5b9050602002016020810190610ca59190613c10565b73ffffffffffffffffffffffffffffffffffffffff1687876000818110610ccf57610cce613f97565b5b9050602002016020810190610ce49190613c10565b73ffffffffffffffffffffffffffffffffffffffff163373ffffffffffffffffffffffffffffffffffffffff167fd36cc53ba71bc76a3db3364981f5296dd4ca5eba0e8c89874f2170515bd20d2486600081518110610d4657610d45613f97565b5b602002602001015187600181518110610d6257610d61613f97565b5b6020026020010151604051610d78929190613d49565b60405180910390a4610d9467bf736dbc69a6358d60c01b611c05565b610da86715ec6c042811d4c760c01b611c05565b610db061251e565b50509695505050505050565b610dcd610dc7611e00565b82612528565b50565b60008060008373ffffffffffffffffffffffffffffffffffffffff1673ffffffffffffffffffffffffffffffffffffffff168152602001908152602001600020549050919050565b610e206125aa565b610e2a6000612631565b565b610e3e82610e38611e00565b83611e1a565b610e488282612528565b5050565b6000600660009054906101000a900473ffffffffffffffffffffffffffffffffffffffff16905090565b606060048054610e8590613e8e565b80601f0160208091040260200160405190810160405280929190818152602001828054610eb190613e8e565b8015610efe5780601f10610ed357610100808354040283529160200191610efe565b820191906000526020600020905b815481529060010190602001808311610ee157829003601f168201915b5050505050905090565b60076020528060005260406000206000915090505481565b610f34677b3e0f17341b9bc760c01b611c05565b610f3c6125aa565b610f5067bc999bd75f72e0d860c01b611c05565b610f6467d6899708a0e953d460c01b611c05565b610f78672e2126e45edae97360c01b611c05565b8073ffffffffffffffffffffffffffffffffffffffff166370a08231306040518263ffffffff1660e01b8152600401610fb19190613c4c565b602060405180830381865afa158015610fce573d6000803e3d6000fd5b505050506040513d601f19601f82011682018060405250810190610ff2919061414a565b600760008373ffffffffffffffffffffffffffffffffffffffff1673ffffffffffffffffffffffffffffffffffffffff1681526020019081526020016000208190555050565b600080611043611e00565b9050611050818585611eaf565b600191505092915050565b600061107167b0d61d3a736879dc60c01b611c05565b61108567f8aa75485206d0b560c01b611c05565b61109967fe1c6f104274306c60c01b611c05565b6000806110a685856126f7565b915091506110be673c40924e97f5983b60c01b611c05565b6110d2670e684e4b24a07ac260c01b611c05565b6110e6677ef4551155b86a2a60c01b611c05565b6000821180156110f65750600081115b611135576040517f08c379a000000000000000000000000000000000000000000000000000000000815260040161112c906141c3565b60405180910390fd5b61114967d83a7d2d4c19007c60c01b611c05565b61115d67329eac3237681fea60c01b611c05565b81670de0b6b3a76400008261117291906141e3565b61117c9190614254565b925061119267659a319b48d1597860c01b611c05565b6111a66740c0f2efa0a1202060c01b611c05565b505092915050565b6000806111c567a638823caf611cbb60c01b611c05565b826111da6798beef8724399c0b60c01b611c05565b6111ee67167cf81a3ed20fe860c01b611c05565b61120267d0b9da5569cd735460c01b611c05565b6112166703c9e9afde64c6e860c01b611c05565b428111611258576040517f08c379a000000000000000000000000000000000000000000000000000000000815260040161124f90613f0b565b60405180910390fd5b61126c67d8a33ed4dbb4e57660c01b611c05565b6112806783f53ab5ccfa685f60c01b611c05565b61129467f745292647e7456f60c01b611c05565b6112a8672825c7dafe037ec960c01b611c05565b6112b0611fa3565b6112c4671d257dfe2e78b99560c01b611c05565b6112d8674a81ad981a858fbc60c01b611c05565b6112ec678de9fcd34a15ee9e60c01b611c05565b61130067fd498b5b3dfb158260c01b611c05565b60008061130d8c8c6126f7565b9150915061132567bedac171748a51de60c01b611c05565b6113308a83836127e9565b809550819650505061134c6751b5a9e0d538ceaf60c01b611c05565b61136067c919313bb5655b0960c01b611c05565b61137467743bd3307a46343760c01b611c05565b8885101580156113845750878410155b6113c3576040517f08c379a00000000000000000000000000000000000000000000000000000000081526004016113ba906142d1565b60405180910390fd5b6113d767dd08a1826382d3f860c01b611c05565b6113eb670d0d1ac9bd3d80fb60c01b611c05565b84600760008e73ffffffffffffffffffffffffffffffffffffffff1673ffffffffffffffffffffffffffffffffffffffff168152602001908152602001600020600082825461143a9190614101565b925050819055506114556798469a49cbc834ee60c01b611c05565b83600760008d73ffffffffffffffffffffffffffffffffffffffff1673ffffffffffffffffffffffffffffffffffffffff16815260200190815260200160002060008282546114a49190614101565b925050819055506114bf67428225e9f782eafa60c01b611c05565b6114d367ba736fd60738059d60c01b611c05565b6114dc8a610dbc565b6114f067936e679119b639b360c01b611c05565b61150467204db7fc20b7b16560c01b611c05565b61150f8c88876123ca565b611523675c3ba6ce9dc9a2dd60c01b611c05565b611537673853c22cf84b24fb60c01b611c05565b6115428b88866123ca565b611556675b1337609b7fcfea60c01b611c05565b61156a67aad6cc282ef96ad760c01b611c05565b8a73ffffffffffffffffffffffffffffffffffffffff168c73ffffffffffffffffffffffffffffffffffffffff163373ffffffffffffffffffffffffffffffffffffffff167fd765e08eef31c0983ecca03ecd166297ac485ecd5dd69e291c848f0a020333c188888f6040516115e293929190613e28565b60405180910390a46115fe674448d952572f209c60c01b611c05565b611612670238611c007e046a60c01b611c05565b505061161c61251e565b5097509795505050505050565b6000600160008473ffffffffffffffffffffffffffffffffffffffff1673ffffffffffffffffffffffffffffffffffffffff16815260200190815260200160002060008373ffffffffffffffffffffffffffffffffffffffff1673ffffffffffffffffffffffffffffffffffffffff16815260200190815260200160002054905092915050565b60008060006116c9672aeb0e4828d10ea660c01b611c05565b836116de6798beef8724399c0b60c01b611c05565b6116f267167cf81a3ed20fe860c01b611c05565b61170667d0b9da5569cd735460c01b611c05565b61171a6703c9e9afde64c6e860c01b611c05565b42811161175c576040517f08c379a000000000000000000000000000000000000000000000000000000000815260040161175390613f0b565b60405180910390fd5b61177067d8a33ed4dbb4e57660c01b611c05565b6117846783f53ab5ccfa685f60c01b611c05565b611798677071feb4fb41fa6660c01b611c05565b6117ac679c1e916d9cb9faed60c01b611c05565b6117b4611fa3565b6117c867725f315703b182f660c01b611c05565b6117dc676a15c3d53aac6a7360c01b611c05565b6117f0676d1fe4c8af6ae05e60c01b611c05565b6118046753232977ff841d0060c01b611c05565b611818674952862e8ab1d54b60c01b611c05565b8a73ffffffffffffffffffffffffffffffffffffffff168c73ffffffffffffffffffffffffffffffffffffffff1603611886576040517f08c379a000000000000000000000000000000000000000000000000000000000815260040161187d9061433d565b60405180910390fd5b61189a67c561340d15a80b9460c01b611c05565b6118ae67a511ed25a7fcaa2860c01b611c05565b6118c2676b1d20e5fd4bb7bf60c01b611c05565b6000806118cf8e8e6126f7565b915091506118e767bde5a7a6adbe37f960c01b611c05565b6118f58c8c8c8c86866129b2565b809650819750505061191167ac0a0c465814509a60c01b611c05565b6119256775c634ca425c4eb260c01b611c05565b611939678d81472b94cbfe7560c01b611c05565b6000861415801561194b575060008514155b61198a576040517f08c379a0000000000000000000000000000000000000000000000000000000008152600401611981906143a9565b60405180910390fd5b61199e67136767281410f15260c01b611c05565b6119b2675942ff0d494f58db60c01b611c05565b6119c6670a42b03fc1a3593060c01b611c05565b6119d28e333089612273565b6119e6678cab5e0326cf64f760c01b611c05565b6119fa679d35b12d5cc1a5b960c01b611c05565b611a068d333088612273565b611a1a67b3f924ab9a43c42360c01b611c05565b611a2e674f20008d8ea82d7b60c01b611c05565b611a3a8e8e8888612d39565b611a4e670a54308cfea5fddb60c01b611c05565b611a628e8e8888611a5d61057a565b612e27565b9350611a78673bd768b91244ccab60c01b611c05565b611a8c675e76122687780e3f60c01b611c05565b611a968885612f23565b611aaa67a1ba306ca82ca0a560c01b611c05565b611abe67806f4b1e584e766060c01b611c05565b8c73ffffffffffffffffffffffffffffffffffffffff168e73ffffffffffffffffffffffffffffffffffffffff163373ffffffffffffffffffffffffffffffffffffffff167f43c967b388d3a4ccad3f7ab80167852e322e5a3fde9893f530252281b2ae8b70898989604051611b3693929190613e28565b60405180910390a4611b5267f8f2a17b6c99fe7960c01b611c05565b611b666757423a21c82a269460c01b611c05565b5050611b7061251e565b50985098509895505050505050565b611b876125aa565b600073ffffffffffffffffffffffffffffffffffffffff168173ffffffffffffffffffffffffffffffffffffffff1603611bf95760006040517f1e4fbdf7000000000000000000000000000000000000000000000000000000008152600401611bf09190613c4c565b60405180910390fd5b611c0281612631565b50565b50565b6000611c1e67a17d8778f775db3360c01b611c05565b8282611c34673798d119faffcfeb60c01b611c05565b611c4867f83bd4a8b9abd92760c01b611c05565b611c5c676f58d80f285bd63360c01b611c05565b611c70674c4413935b09e12960c01b611c05565b600082118015611c805750600081115b611cbf576040517f08c379a0000000000000000000000000000000000000000000000000000000008152600401611cb690614415565b60405180910390fd5b611cd3679be85b8866ce540860c01b611c05565b611ce767278ad0793e397d8560c01b611c05565b611cfb67ca175e44c68b425560c01b611c05565b611d0f67246824d5445dbec260c01b611c05565b611d23679eade68a218c891060c01b611c05565b611d37675f872059c81cb70360c01b611c05565b611d4b6721a55e31dbcf862260c01b611c05565b60008611611d8e576040517f08c379a0000000000000000000000000000000000000000000000000000000008152600401611d8590614481565b60405180910390fd5b611da267c8ba52fb9734893560c01b611c05565b611db667d79ff5e2fc0ee66360c01b611c05565b848487611dc391906141e3565b611dcd9190614254565b9250611de3672c7899b59155941360c01b611c05565b611df7677b3f28de916e0dac60c01b611c05565b50509392505050565b600033905090565b611e158383836001612fa5565b505050565b6000611e268484611629565b90507fffffffffffffffffffffffffffffffffffffffffffffffffffffffffffffffff811015611ea95781811015611e99578281836040517ffb8f41b2000000000000000000000000000000000000000000000000000000008152600401611e90939291906144a1565b60405180910390fd5b611ea884848484036000612fa5565b5b50505050565b600073ffffffffffffffffffffffffffffffffffffffff168373ffffffffffffffffffffffffffffffffffffffff1603611f215760006040517f96c6fd1e000000000000000000000000000000000000000000000000000000008152600401611f189190613c4c565b60405180910390fd5b600073ffffffffffffffffffffffffffffffffffffffff168273ffffffffffffffffffffffffffffffffffffffff1603611f935760006040517fec442f05000000000000000000000000000000000000000000000000000000008152600401611f8a9190613c4c565b60405180910390fd5b611f9e83838361317c565b505050565b600260055403611fdf576040517f3ee5aeb500000000000000000000000000000000000000000000000000000000815260040160405180910390fd5b6002600581905550565b6060611fff67b3ae5609fcd7763560c01b611c05565b81612014677f3ebf4141a62a8460c01b611c05565b612028676a3cc7ccd4b4099a60c01b611c05565b61203c67072ada1136cfb18160c01b611c05565b612050679d893b3de856f29560c01b611c05565b6002815114612094576040517f08c379a000000000000000000000000000000000000000000000000000000000815260040161208b90613f77565b60405180910390fd5b6120a8674fb131068698a1f860c01b611c05565b6120bc671f40dd99a27cb28c60c01b611c05565b6120d067f8d6849695e7cd6560c01b611c05565b6120e467cdf4587bd984d87c60c01b611c05565b6120f8674b4cfbef3b636ec360c01b611c05565b825167ffffffffffffffff811115612113576121126144d8565b5b6040519080825280602002602001820160405280156121415781602001602082028036833780820191505090505b5091506121586774e9a46ba7553f2360c01b611c05565b838260008151811061216d5761216c613f97565b5b60200260200101818152505061218d671a8432194771992c60c01b611c05565b6121a16754a907154853f5d360c01b611c05565b6000806121e4856000815181106121bb576121ba613f97565b5b6020026020010151866001815181106121d7576121d6613f97565b5b60200260200101516126f7565b915091506121fc671d09e982a19de5c460c01b611c05565b6122228460008151811061221357612212613f97565b5b60200260200101518383611c08565b8460018151811061223657612235613f97565b5b60200260200101818152505061225667b5f4babfd8e5223260c01b611c05565b61226a67c45bd7cef8c51c6460c01b611c05565b50505092915050565b612287671a411c6f9507963b60c01b611c05565b61229b67b248f97f9aafd9c160c01b611c05565b6122af670837e896497660ca60c01b611c05565b60008473ffffffffffffffffffffffffffffffffffffffff166323b872dd8585856040518463ffffffff1660e01b81526004016122ee93929190614507565b6020604051808303816000875af115801561230d573d6000803e3d6000fd5b505050506040513d601f19601f82011682018060405250810190612331919061456a565b905061234767a72c1de98a3e10e960c01b611c05565b61235b67f64ab210e9e907fa60c01b611c05565b61236f677a634688dec64e1d60c01b611c05565b806123af576040517f08c379a00000000000000000000000000000000000000000000000000000000081526004016123a6906145e3565b60405180910390fd5b6123c36761081932b446b62260c01b611c05565b5050505050565b6123de670916e04ccaac4a6460c01b611c05565b6123f267ee9b4d885ae7875c60c01b611c05565b612406672f8a80fbfde38a8860c01b611c05565b60008373ffffffffffffffffffffffffffffffffffffffff1663a9059cbb84846040518363ffffffff1660e01b8152600401612443929190614603565b6020604051808303816000875af1158015612462573d6000803e3d6000fd5b505050506040513d601f19601f82011682018060405250810190612486919061456a565b905061249c674d18d06b093e273460c01b611c05565b6124b06797e32177a7486b0e60c01b611c05565b6124c46785566f06335473f060c01b611c05565b80612504576040517f08c379a00000000000000000000000000000000000000000000000000000000081526004016124fb906145e3565b60405180910390fd5b612518679ea8eb6a82379d0460c01b611c05565b50505050565b6001600581905550565b600073ffffffffffffffffffffffffffffffffffffffff168273ffffffffffffffffffffffffffffffffffffffff160361259a5760006040517f96c6fd1e0000000000000000000000000000000000000000000000000000000081526004016125919190613c4c565b60405180910390fd5b6125a68260008361317c565b5050565b6125b2611e00565b73ffffffffffffffffffffffffffffffffffffffff166125d0610e4c565b73ffffffffffffffffffffffffffffffffffffffff161461262f576125f3611e00565b6040517f118cdaa70000000000000000000000000000000000000000000000000000000081526004016126269190613c4c565b60405180910390fd5b565b6000600660009054906101000a900473ffffffffffffffffffffffffffffffffffffffff16905081600660006101000a81548173ffffffffffffffffffffffffffffffffffffffff021916908373ffffffffffffffffffffffffffffffffffffffff1602179055508173ffffffffffffffffffffffffffffffffffffffff168173ffffffffffffffffffffffffffffffffffffffff167f8be0079c531659141344cd1fd0a4f28419497f9722a3daafe3b4186f6b6457e060405160405180910390a35050565b60008061270e67229df968b0921fbd60c01b611c05565b6127226792813401921fff0360c01b611c05565b600760008573ffffffffffffffffffffffffffffffffffffffff1673ffffffffffffffffffffffffffffffffffffffff16815260200190815260200160002054915061277867ba4cb43791568f8560c01b611c05565b600760008473ffffffffffffffffffffffffffffffffffffffff1673ffffffffffffffffffffffffffffffffffffffff1681526020019081526020016000205490506127ce67eb084abb294157a360c01b611c05565b6127e26788032756139f09c760c01b611c05565b9250929050565b600080612800672389f6d72fb9773260c01b611c05565b8383612816673798d119faffcfeb60c01b611c05565b61282a67f83bd4a8b9abd92760c01b611c05565b61283e676f58d80f285bd63360c01b611c05565b612852674c4413935b09e12960c01b611c05565b6000821180156128625750600081115b6128a1576040517f08c379a000000000000000000000000000000000000000000000000000000000815260040161289890614415565b60405180910390fd5b6128b5679be85b8866ce540860c01b611c05565b6128c967278ad0793e397d8560c01b611c05565b6128dd67f8f543283b7b1eba60c01b611c05565b6128f167bd13413597166ddf60c01b611c05565b612905674c41bd7bc7d841c560c01b611c05565b61291967014feb8ab553475f60c01b611c05565b600061292361057a565b90506129396757c8882179285bd960c01b611c05565b80878961294691906141e3565b6129509190614254565b9450612966677733d06353f9deb560c01b611c05565b80868961297391906141e3565b61297d9190614254565b93506129936730c320dd4fafe51860c01b611c05565b6129a76707f4dccd95031aa060c01b611c05565b505050935093915050565b6000806129c967992bb06846fed28f60c01b611c05565b6129dd67860e2936e302caae60c01b611c05565b6129f1676f0c43a3935570d560c01b611c05565b6000612a0767d993ac161953b4dc60c01b611c05565b612a1b679d52261a2ccf7c5d60c01b611c05565b6000612a316706f13025084cffb160c01b611c05565b612a456753f1e06edfc98cdf60c01b611c05565b600086148015612a555750600085145b15612a9157612a6e676f3d9a105e13110560c01b611c05565b612a8267b20cd6f46003d3d760c01b611c05565b89898094508195505050612d04565b612aa567f7df6bc3444a376860c01b611c05565b612ab967894ab39be5ad1fb460c01b611c05565b612ac48a8787611c08565b9050612ada678c11120b09fa142c60c01b611c05565b612aee67c6dcc0989e62cfc860c01b611c05565b888111612bbf57612b09672c7c15981d6b699760c01b611c05565b612b1d675b3c74d65c259d3060c01b611c05565b612b3167b26e40a38532bb9b60c01b611c05565b612b45671b2dd8aa0045890060c01b611c05565b86811015612b88576040517f08c379a0000000000000000000000000000000000000000000000000000000008152600401612b7f90614678565b60405180910390fd5b612b9c67f3468d403617de4b60c01b611c05565b612bb06736e63e4e38205fe460c01b611c05565b89818094508195505050612d03565b612bd36712fee7324aaa9c0960c01b611c05565b612be767523df4f5420dba5860c01b611c05565b612bf2898688611c08565b9150612c0867df2eb3ebab6918f560c01b611c05565b612c1c6786578b0bcc4cedbf60c01b611c05565b898211612ced57612c37675a1ed0ce2166977360c01b611c05565b612c4b67346f21c3f71fe6a560c01b611c05565b612c5f67c51db4323462b66860c01b611c05565b612c73674011c9e209ba660560c01b611c05565b87821015612cb6576040517f08c379a0000000000000000000000000000000000000000000000000000000008152600401612cad906146e4565b60405180910390fd5b612cca674dbe750be309b85660c01b611c05565b612cde67d26ce3dbcd76e77260c01b611c05565b81898094508195505050612d02565b612d0167394aba989d2dd80460c01b611c05565b5b5b5b612d1867e1e2992e0a6b6a4a60c01b611c05565b612d2c67b01b2fa3e074efd160c01b611c05565b5050965096945050505050565b612d4d6758e6ddbf3c24d11460c01b611c05565b612d6167aedf52e31f02690460c01b611c05565b81600760008673ffffffffffffffffffffffffffffffffffffffff1673ffffffffffffffffffffffffffffffffffffffff1681526020019081526020016000206000828254612db091906140cd565b92505081905550612dcb67ae42b729ee45e62d60c01b611c05565b80600760008573ffffffffffffffffffffffffffffffffffffffff1673ffffffffffffffffffffffffffffffffffffffff1681526020019081526020016000206000828254612e1a91906140cd565b9250508190555050505050565b6000612e3d67a37fd826b40d9d3060c01b611c05565b612e516729ac3dd80024410860c01b611c05565b612e656797f90b63a6c5aeea60c01b611c05565b60008203612eb057612e81670e000f9bf292129e60c01b611c05565b612e9567a89907dee0b1ecff60c01b611c05565b612ea98385612ea491906141e3565b6133a1565b9050612ef2565b612ec4675b5e758128edd91460c01b611c05565b612ed86759d119f553dd896660c01b611c05565b81612ee587878787613560565b612eef91906141e3565b90505b612f066768f1a021433c33c360c01b611c05565b612f1a677ac920647948b6a260c01b611c05565b95945050505050565b600073ffffffffffffffffffffffffffffffffffffffff168273ffffffffffffffffffffffffffffffffffffffff1603612f955760006040517fec442f05000000000000000000000000000000000000000000000000000000008152600401612f8c9190613c4c565b60405180910390fd5b612fa16000838361317c565b5050565b600073ffffffffffffffffffffffffffffffffffffffff168473ffffffffffffffffffffffffffffffffffffffff16036130175760006040517fe602df0500000000000000000000000000000000000000000000000000000000815260040161300e9190613c4c565b60405180910390fd5b600073ffffffffffffffffffffffffffffffffffffffff168373ffffffffffffffffffffffffffffffffffffffff16036130895760006040517f94280d620000000000000000000000000000000000000000000000000000000081526004016130809190613c4c565b60405180910390fd5b81600160008673ffffffffffffffffffffffffffffffffffffffff1673ffffffffffffffffffffffffffffffffffffffff16815260200190815260200160002060008573ffffffffffffffffffffffffffffffffffffffff1673ffffffffffffffffffffffffffffffffffffffff168152602001908152602001600020819055508015613176578273ffffffffffffffffffffffffffffffffffffffff168473ffffffffffffffffffffffffffffffffffffffff167f8c5be1e5ebec7d5bd14f71427d1e84f3dd0314c0f7b2291e5b200ac8c7c3b9258460405161316d91906137d9565b60405180910390a35b50505050565b600073ffffffffffffffffffffffffffffffffffffffff168373ffffffffffffffffffffffffffffffffffffffff16036131ce5780600260008282546131c291906140cd565b925050819055506132a1565b60008060008573ffffffffffffffffffffffffffffffffffffffff1673ffffffffffffffffffffffffffffffffffffffff1681526020019081526020016000205490508181101561325a578381836040517fe450d38c000000000000000000000000000000000000000000000000000000008152600401613251939291906144a1565b60405180910390fd5b8181036000808673ffffffffffffffffffffffffffffffffffffffff1673ffffffffffffffffffffffffffffffffffffffff16815260200190815260200160002081905550505b600073ffffffffffffffffffffffffffffffffffffffff168273ffffffffffffffffffffffffffffffffffffffff16036132ea5780600260008282540392505081905550613337565b806000808473ffffffffffffffffffffffffffffffffffffffff1673ffffffffffffffffffffffffffffffffffffffff168152602001908152602001600020600082825401925050819055505b8173ffffffffffffffffffffffffffffffffffffffff168373ffffffffffffffffffffffffffffffffffffffff167fddf252ad1be2c89b69c2b068fc378daa952ba7f163c4a11628f55a4df523b3ef8360405161339491906137d9565b60405180910390a3505050565b60006133b767c188c6b1c85aaf0460c01b611c05565b6133cb67c6fc23b6b13efb6160c01b611c05565b6133df67d388b5cf1ff656b060c01b611c05565b60038211156134e4576133fc67abf6b794e052279660c01b611c05565b61341067442817dbd61e87a460c01b611c05565b81905061342767076f008f2bfbedd960c01b611c05565b61343b67892941bdc093411260c01b611c05565b6000600160028461344c9190614254565b61345691906140cd565b905061346c6728fb85f33e6dd36560c01b611c05565b613480672f0ed1ccc13a545160c01b611c05565b5b818110156134de5761349d674c687ad7fe850eaf60c01b611c05565b8091506134b4670c799ff0abadf68f60c01b611c05565b60028182856134c39190614254565b6134cd91906140cd565b6134d79190614254565b9050613481565b5061355b565b6134f867d2103044c7f43cdf60c01b611c05565b61350c679e94c64db3faa81560c01b611c05565b6000821461354557613528672f0ad733493ce36260c01b611c05565b61353c67b2fdbc85b9ededc560c01b611c05565b6001905061355a565b61355967ac163a0da8a72be660c01b611c05565b5b5b919050565b60006135766771e570f1c6d57c1a60c01b611c05565b61358a67fe213a033555135160c01b611c05565b61359e67bc2a36190a859f1460c01b611c05565b6000806135ab87876126f7565b915091506135c367149d83b0e3d4ffa460c01b611c05565b60008214806135e257506135e1671ce728c6864e1b4e60c01b613725565b5b80156135fe57506135fd674166f41802c7dbd760c01b61372c565b5b613608578161360b565b60015b915061362167cdeda41770ead2d360c01b611c05565b6000811480613640575061363f67e9ebf47b38c08ce160c01b613725565b5b801561365c575061365b67759cc84a6755403560c01b61372c565b5b6136665780613669565b60015b905061367f67f0cf54dcc85d240660c01b611c05565b808461368b9190614254565b82866136979190614254565b10806136b357506136b2670e394a4770da7b3a60c01b613725565b5b80156136cf57506136ce6744182aafa387f82d60c01b61372c565b5b6136e45780846136df9190614254565b6136f1565b81856136f09190614254565b5b925061370767711fc4b654ad68d160c01b611c05565b61371b67de090170bdcd770860c01b611c05565b5050949350505050565b6000919050565b600060019050919050565b600080fd5b600080fd5b6000819050919050565b61375481613741565b811461375f57600080fd5b50565b6000813590506137718161374b565b92915050565b6000806000606084860312156137905761378f613737565b5b600061379e86828701613762565b93505060206137af86828701613762565b92505060406137c086828701613762565b9150509250925092565b6137d381613741565b82525050565b60006020820190506137ee60008301846137ca565b92915050565b600081519050919050565b600082825260208201905092915050565b60005b8381101561382e578082015181840152602081019050613813565b60008484015250505050565b6000601f19601f8301169050919050565b6000613856826137f4565b61386081856137ff565b9350613870818560208601613810565b6138798161383a565b840191505092915050565b6000602082019050818103600083015261389e818461384b565b905092915050565b600073ffffffffffffffffffffffffffffffffffffffff82169050919050565b60006138d1826138a6565b9050919050565b6138e1816138c6565b81146138ec57600080fd5b50565b6000813590506138fe816138d8565b92915050565b6000806040838503121561391b5761391a613737565b5b6000613929858286016138ef565b925050602061393a85828601613762565b9150509250929050565b60008115159050919050565b61395981613944565b82525050565b60006020820190506139746000830184613950565b92915050565b60008060006060848603121561399357613992613737565b5b60006139a1868287016138ef565b93505060206139b2868287016138ef565b92505060406139c386828701613762565b9150509250925092565b600060ff82169050919050565b6139e3816139cd565b82525050565b60006020820190506139fe60008301846139da565b92915050565b600080fd5b600080fd5b600080fd5b60008083601f840112613a2957613a28613a04565b5b8235905067ffffffffffffffff811115613a4657613a45613a09565b5b602083019150836020820283011115613a6257613a61613a0e565b5b9250929050565b60008060008060008060a08789031215613a8657613a85613737565b5b6000613a9489828a01613762565b9650506020613aa589828a01613762565b955050604087013567ffffffffffffffff811115613ac657613ac561373c565b5b613ad289828a01613a13565b94509450506060613ae589828a016138ef565b9250506080613af689828a01613762565b9150509295509295509295565b600081519050919050565b600082825260208201905092915050565b6000819050602082019050919050565b613b3881613741565b82525050565b6000613b4a8383613b2f565b60208301905092915050565b6000602082019050919050565b6000613b6e82613b03565b613b788185613b0e565b9350613b8383613b1f565b8060005b83811015613bb4578151613b9b8882613b3e565b9750613ba683613b56565b925050600181019050613b87565b5085935050505092915050565b60006020820190508181036000830152613bdb8184613b63565b905092915050565b600060208284031215613bf957613bf8613737565b5b6000613c0784828501613762565b91505092915050565b600060208284031215613c2657613c25613737565b5b6000613c34848285016138ef565b91505092915050565b613c46816138c6565b82525050565b6000602082019050613c616000830184613c3d565b92915050565b60008060408385031215613c7e57613c7d613737565b5b6000613c8c858286016138ef565b9250506020613c9d858286016138ef565b9150509250929050565b600080600080600080600060e0888a031215613cc657613cc5613737565b5b6000613cd48a828b016138ef565b9750506020613ce58a828b016138ef565b9650506040613cf68a828b01613762565b9550506060613d078a828b01613762565b9450506080613d188a828b01613762565b93505060a0613d298a828b016138ef565b92505060c0613d3a8a828b01613762565b91505092959891949750929550565b6000604082019050613d5e60008301856137ca565b613d6b60208301846137ca565b9392505050565b600080600080600080600080610100898b031215613d9357613d92613737565b5b6000613da18b828c016138ef565b9850506020613db28b828c016138ef565b9750506040613dc38b828c01613762565b9650506060613dd48b828c01613762565b9550506080613de58b828c01613762565b94505060a0613df68b828c01613762565b93505060c0613e078b828c016138ef565b92505060e0613e188b828c01613762565b9150509295985092959890939650565b6000606082019050613e3d60008301866137ca565b613e4a60208301856137ca565b613e5760408301846137ca565b949350505050565b7f4e487b7100000000000000000000000000000000000000000000000000000000600052602260045260246000fd5b60006002820490506001821680613ea657607f821691505b602082108103613eb957613eb8613e5f565b5b50919050565b7f53537761703a20446561646c696e6520726561636865642e0000000000000000600082015250565b6000613ef56018836137ff565b9150613f0082613ebf565b602082019050919050565b60006020820190508181036000830152613f2481613ee8565b9050919050565b7f53537761703a204e6f20746f6b656e732073656c65637465642e000000000000600082015250565b6000613f61601a836137ff565b9150613f6c82613f2b565b602082019050919050565b60006020820190508181036000830152613f9081613f54565b9050919050565b7f4e487b7100000000000000000000000000000000000000000000000000000000600052603260045260246000fd5b7f53537761703a2053616d6520746f6b656e732e00000000000000000000000000600082015250565b6000613ffc6013836137ff565b915061400782613fc6565b602082019050919050565b6000602082019050818103600083015261402b81613fef565b9050919050565b7f53537761703a205472616e736665722063616e63656c6c65642e000000000000600082015250565b6000614068601a836137ff565b915061407382614032565b602082019050919050565b600060208201905081810360008301526140978161405b565b9050919050565b7f4e487b7100000000000000000000000000000000000000000000000000000000600052601160045260246000fd5b60006140d882613741565b91506140e383613741565b92508282019050808211156140fb576140fa61409e565b5b92915050565b600061410c82613741565b915061411783613741565b925082820390508181111561412f5761412e61409e565b5b92915050565b6000815190506141448161374b565b92915050565b6000602082840312156141605761415f613737565b5b600061416e84828501614135565b91505092915050565b7f53537761703a204c69717569646974792e000000000000000000000000000000600082015250565b60006141ad6011836137ff565b91506141b882614177565b602082019050919050565b600060208201905081810360008301526141dc816141a0565b9050919050565b60006141ee82613741565b91506141f983613741565b925082820261420781613741565b9150828204841483151761421e5761421d61409e565b5b5092915050565b7f4e487b7100000000000000000000000000000000000000000000000000000000600052601260045260246000fd5b600061425f82613741565b915061426a83613741565b92508261427a57614279614225565b5b828204905092915050565b7f53537761703a2042616c616e63652e0000000000000000000000000000000000600082015250565b60006142bb600f836137ff565b91506142c682614285565b602082019050919050565b600060208201905081810360008301526142ea816142ae565b9050919050565b7f53537761703a2053616d6520546f6b656e730000000000000000000000000000600082015250565b60006143276012836137ff565b9150614332826142f1565b602082019050919050565b600060208201905081810360008301526143568161431a565b9050919050565b7f53537761703a20416d6f756e7473000000000000000000000000000000000000600082015250565b6000614393600e836137ff565b915061439e8261435d565b602082019050919050565b600060208201905081810360008301526143c281614386565b9050919050565b7f53537761703a204e6f7420456e6f756768204c69717569646974790000000000600082015250565b60006143ff601b836137ff565b915061440a826143c9565b602082019050919050565b6000602082019050818103600083015261442e816143f2565b9050919050565b7f53537761703a20496e73756666696369656e7420616d6f756e742e0000000000600082015250565b600061446b601b836137ff565b915061447682614435565b602082019050919050565b6000602082019050818103600083015261449a8161445e565b9050919050565b60006060820190506144b66000830186613c3d565b6144c360208301856137ca565b6144d060408301846137ca565b949350505050565b7f4e487b7100000000000000000000000000000000000000000000000000000000600052604160045260246000fd5b600060608201905061451c6000830186613c3d565b6145296020830185613c3d565b61453660408301846137ca565b949350505050565b61454781613944565b811461455257600080fd5b50565b6000815190506145648161453e565b92915050565b6000602082840312156145805761457f613737565b5b600061458e84828501614555565b91505092915050565b7f53537761703a205472616e73666572206661696c656421000000000000000000600082015250565b60006145cd6017836137ff565b91506145d882614597565b602082019050919050565b600060208201905081810360008301526145fc816145c0565b9050919050565b60006040820190506146186000830185613c3d565b61462560208301846137ca565b9392505050565b7f53537761703a20422042616c616e63652e000000000000000000000000000000600082015250565b60006146626011836137ff565b915061466d8261462c565b602082019050919050565b6000602082019050818103600083015261469181614655565b9050919050565b7f53537761703a20412042616c616e63652e000000000000000000000000000000600082015250565b60006146ce6011836137ff565b91506146d982614698565b602082019050919050565b600060208201905081810360008301526146fd816146c1565b905091905056fea264697066735822122074e472d6d7f4c5a86fd4ea6d5ce055d9bd4bd0196c658286f07cae5b6f74d79e64736f6c634300081c0033","opcodes":"PUSH1 0x80 PUSH1 0x40 MSTORE CALLVALUE DUP1 ISZERO PUSH2 0x10 JUMPI PUSH1 0x0 DUP1 REVERT JUMPDEST POP CALLER PUSH1 0x40 MLOAD DUP1 PUSH1 0x40 ADD PUSH1 0x40 MSTORE DUP1 PUSH1 0xB DUP2 MSTORE PUSH1 0x20 ADD PUSH32 0x53696D706C652053776170000000000000000000000000000000000000000000 DUP2 MSTORE POP PUSH1 0x40 MLOAD DUP1 PUSH1 0x40 ADD PUSH1 0x40 MSTORE DUP1 PUSH1 0x4 DUP2 MSTORE PUSH1 0x20 ADD PUSH32 0x5353575000000000000000000000000000000000000000000000000000000000 DUP2 MSTORE POP DUP2 PUSH1 0x3 SWAP1 DUP2 PUSH2 0x8D SWAP2 SWAP1 PUSH2 0x462 JUMP JUMPDEST POP DUP1 PUSH1 0x4 SWAP1 DUP2 PUSH2 0x9D SWAP2 SWAP1 PUSH2 0x462 JUMP JUMPDEST POP POP POP PUSH1 0x1 PUSH1 0x5 DUP2 SWAP1 SSTORE POP PUSH1 0x0 PUSH20 0xFFFFFFFFFFFFFFFFFFFFFFFFFFFFFFFFFFFFFFFF AND DUP2 PUSH20 0xFFFFFFFFFFFFFFFFFFFFFFFFFFFFFFFFFFFFFFFF AND SUB PUSH2 0x11A JUMPI PUSH1 0x0 PUSH1 0x40 MLOAD PUSH32 0x1E4FBDF700000000000000000000000000000000000000000000000000000000 DUP2 MSTORE PUSH1 0x4 ADD PUSH2 0x111 SWAP2 SWAP1 PUSH2 0x575 JUMP JUMPDEST PUSH1 0x40 MLOAD DUP1 SWAP2 SUB SWAP1 REVERT JUMPDEST PUSH2 0x129 DUP2 PUSH2 0x149 PUSH1 0x20 SHL PUSH1 0x20 SHR JUMP JUMPDEST POP PUSH2 0x144 PUSH8 0x99983BFC3728D848 PUSH1 0xC0 SHL PUSH2 0x20F PUSH1 0x20 SHL PUSH1 0x20 SHR JUMP JUMPDEST PUSH2 0x590 JUMP JUMPDEST PUSH1 0x0 PUSH1 0x6 PUSH1 0x0 SWAP1 SLOAD SWAP1 PUSH2 0x100 EXP SWAP1 DIV PUSH20 0xFFFFFFFFFFFFFFFFFFFFFFFFFFFFFFFFFFFFFFFF AND SWAP1 POP DUP2 PUSH1 0x6 PUSH1 0x0 PUSH2 0x100 EXP DUP2 SLOAD DUP2 PUSH20 0xFFFFFFFFFFFFFFFFFFFFFFFFFFFFFFFFFFFFFFFF MUL NOT AND SWAP1 DUP4 PUSH20 0xFFFFFFFFFFFFFFFFFFFFFFFFFFFFFFFFFFFFFFFF AND MUL OR SWAP1 SSTORE POP DUP2 PUSH20 0xFFFFFFFFFFFFFFFFFFFFFFFFFFFFFFFFFFFFFFFF AND DUP2 PUSH20 0xFFFFFFFFFFFFFFFFFFFFFFFFFFFFFFFFFFFFFFFF AND PUSH32 0x8BE0079C531659141344CD1FD0A4F28419497F9722A3DAAFE3B4186F6B6457E0 PUSH1 0x40 MLOAD PUSH1 0x40 MLOAD DUP1 SWAP2 SUB SWAP1 LOG3 POP POP JUMP JUMPDEST POP JUMP JUMPDEST PUSH1 0x0 DUP2 MLOAD SWAP1 POP SWAP2 SWAP1 POP JUMP JUMPDEST PUSH32 0x4E487B7100000000000000000000000000000000000000000000000000000000 PUSH1 0x0 MSTORE PUSH1 0x41 PUSH1 0x4 MSTORE PUSH1 0x24 PUSH1 0x0 REVERT JUMPDEST PUSH32 0x4E487B7100000000000000000000000000000000000000000000000000000000 PUSH1 0x0 MSTORE PUSH1 0x22 PUSH1 0x4 MSTORE PUSH1 0x24 PUSH1 0x0 REVERT JUMPDEST PUSH1 0x0 PUSH1 0x2 DUP3 DIV SWAP1 POP PUSH1 0x1 DUP3 AND DUP1 PUSH2 0x293 JUMPI PUSH1 0x7F DUP3 AND SWAP2 POP JUMPDEST PUSH1 0x20 DUP3 LT DUP2 SUB PUSH2 0x2A6 JUMPI PUSH2 0x2A5 PUSH2 0x24C JUMP JUMPDEST JUMPDEST POP SWAP2 SWAP1 POP JUMP JUMPDEST PUSH1 0x0 DUP2 SWAP1 POP DUP2 PUSH1 0x0 MSTORE PUSH1 0x20 PUSH1 0x0 KECCAK256 SWAP1 POP SWAP2 SWAP1 POP JUMP JUMPDEST PUSH1 0x0 PUSH1 0x20 PUSH1 0x1F DUP4 ADD DIV SWAP1 POP SWAP2 SWAP1 POP JUMP JUMPDEST PUSH1 0x0 DUP3 DUP3 SHL SWAP1 POP SWAP3 SWAP2 POP POP JUMP JUMPDEST PUSH1 0x0 PUSH1 0x8 DUP4 MUL PUSH2 0x30E PUSH32 0xFFFFFFFFFFFFFFFFFFFFFFFFFFFFFFFFFFFFFFFFFFFFFFFFFFFFFFFFFFFFFFFF DUP3 PUSH2 0x2D1 JUMP JUMPDEST PUSH2 0x318 DUP7 DUP4 PUSH2 0x2D1 JUMP JUMPDEST SWAP6 POP DUP1 NOT DUP5 AND SWAP4 POP DUP1 DUP7 AND DUP5 OR SWAP3 POP POP POP SWAP4 SWAP3 POP POP POP JUMP JUMPDEST PUSH1 0x0 DUP2 SWAP1 POP SWAP2 SWAP1 POP JUMP JUMPDEST PUSH1 0x0 DUP2 SWAP1 POP SWAP2 SWAP1 POP JUMP JUMPDEST PUSH1 0x0 PUSH2 0x35F PUSH2 0x35A PUSH2 0x355 DUP5 PUSH2 0x330 JUMP JUMPDEST PUSH2 0x33A JUMP JUMPDEST PUSH2 0x330 JUMP JUMPDEST SWAP1 POP SWAP2 SWAP1 POP JUMP JUMPDEST PUSH1 0x0 DUP2 SWAP1 POP SWAP2 SWAP1 POP JUMP JUMPDEST PUSH2 0x379 DUP4 PUSH2 0x344 JUMP JUMPDEST PUSH2 0x38D PUSH2 0x385 DUP3 PUSH2 0x366 JUMP JUMPDEST DUP5 DUP5 SLOAD PUSH2 0x2DE JUMP JUMPDEST DUP3 SSTORE POP POP POP POP JUMP JUMPDEST PUSH1 0x0 SWAP1 JUMP JUMPDEST PUSH2 0x3A2 PUSH2 0x395 JUMP JUMPDEST PUSH2 0x3AD DUP2 DUP5 DUP5 PUSH2 0x370 JUMP JUMPDEST POP POP POP JUMP JUMPDEST JUMPDEST DUP2 DUP2 LT ISZERO PUSH2 0x3D1 JUMPI PUSH2 0x3C6 PUSH1 0x0 DUP3 PUSH2 0x39A JUMP JUMPDEST PUSH1 0x1 DUP2 ADD SWAP1 POP PUSH2 0x3B3 JUMP JUMPDEST POP POP JUMP JUMPDEST PUSH1 0x1F DUP3 GT ISZERO PUSH2 0x416 JUMPI PUSH2 0x3E7 DUP2 PUSH2 0x2AC JUMP JUMPDEST PUSH2 0x3F0 DUP5 PUSH2 0x2C1 JUMP JUMPDEST DUP2 ADD PUSH1 0x20 DUP6 LT ISZERO PUSH2 0x3FF JUMPI DUP2 SWAP1 POP JUMPDEST PUSH2 0x413 PUSH2 0x40B DUP6 PUSH2 0x2C1 JUMP JUMPDEST DUP4 ADD DUP3 PUSH2 0x3B2 JUMP JUMPDEST POP POP JUMPDEST POP POP POP JUMP JUMPDEST PUSH1 0x0 DUP3 DUP3 SHR SWAP1 POP SWAP3 SWAP2 POP POP JUMP JUMPDEST PUSH1 0x0 PUSH2 0x439 PUSH1 0x0 NOT DUP5 PUSH1 0x8 MUL PUSH2 0x41B JUMP JUMPDEST NOT DUP1 DUP4 AND SWAP2 POP POP SWAP3 SWAP2 POP POP JUMP JUMPDEST PUSH1 0x0 PUSH2 0x452 DUP4 DUP4 PUSH2 0x428 JUMP JUMPDEST SWAP2 POP DUP3 PUSH1 0x2 MUL DUP3 OR SWAP1 POP SWAP3 SWAP2 POP POP JUMP JUMPDEST PUSH2 0x46B DUP3 PUSH2 0x212 JUMP JUMPDEST PUSH8 0xFFFFFFFFFFFFFFFF DUP2 GT ISZERO PUSH2 0x484 JUMPI PUSH2 0x483 PUSH2 0x21D JUMP JUMPDEST JUMPDEST PUSH2 0x48E DUP3 SLOAD PUSH2 0x27B JUMP JUMPDEST PUSH2 0x499 DUP3 DUP3 DUP6 PUSH2 0x3D5 JUMP JUMPDEST PUSH1 0x0 PUSH1 0x20 SWAP1 POP PUSH1 0x1F DUP4 GT PUSH1 0x1 DUP2 EQ PUSH2 0x4CC JUMPI PUSH1 0x0 DUP5 ISZERO PUSH2 0x4BA JUMPI DUP3 DUP8 ADD MLOAD SWAP1 POP JUMPDEST PUSH2 0x4C4 DUP6 DUP3 PUSH2 0x446 JUMP JUMPDEST DUP7 SSTORE POP PUSH2 0x52C JUMP JUMPDEST PUSH1 0x1F NOT DUP5 AND PUSH2 0x4DA DUP7 PUSH2 0x2AC JUMP JUMPDEST PUSH1 0x0 JUMPDEST DUP3 DUP2 LT ISZERO PUSH2 0x502 JUMPI DUP5 DUP10 ADD MLOAD DUP3 SSTORE PUSH1 0x1 DUP3 ADD SWAP2 POP PUSH1 0x20 DUP6 ADD SWAP5 POP PUSH1 0x20 DUP2 ADD SWAP1 POP PUSH2 0x4DD JUMP JUMPDEST DUP7 DUP4 LT ISZERO PUSH2 0x51F JUMPI DUP5 DUP10 ADD MLOAD PUSH2 0x51B PUSH1 0x1F DUP10 AND DUP3 PUSH2 0x428 JUMP JUMPDEST DUP4 SSTORE POP JUMPDEST PUSH1 0x1 PUSH1 0x2 DUP9 MUL ADD DUP9 SSTORE POP POP POP JUMPDEST POP POP POP POP POP POP JUMP JUMPDEST PUSH1 0x0 PUSH20 0xFFFFFFFFFFFFFFFFFFFFFFFFFFFFFFFFFFFFFFFF DUP3 AND SWAP1 POP SWAP2 SWAP1 POP JUMP JUMPDEST PUSH1 0x0 PUSH2 0x55F DUP3 PUSH2 0x534 JUMP JUMPDEST SWAP1 POP SWAP2 SWAP1 POP JUMP JUMPDEST PUSH2 0x56F DUP2 PUSH2 0x554 JUMP JUMPDEST DUP3 MSTORE POP POP JUMP JUMPDEST PUSH1 0x0 PUSH1 0x20 DUP3 ADD SWAP1 POP PUSH2 0x58A PUSH1 0x0 DUP4 ADD DUP5 PUSH2 0x566 JUMP JUMPDEST SWAP3 SWAP2 POP POP JUMP JUMPDEST PUSH2 0x473A DUP1 PUSH2 0x59F PUSH1 0x0 CODECOPY PUSH1 0x0 RETURN INVALID PUSH1 0x80 PUSH1 0x40 MSTORE CALLVALUE DUP1 ISZERO PUSH2 0x10 JUMPI PUSH1 0x0 DUP1 REVERT JUMPDEST POP PUSH1 0x4 CALLDATASIZE LT PUSH2 0x137 JUMPI PUSH1 0x0 CALLDATALOAD PUSH1 0xE0 SHR DUP1 PUSH4 0x79CC6790 GT PUSH2 0xB8 JUMPI DUP1 PUSH4 0xA9059CBB GT PUSH2 0x7C JUMPI DUP1 PUSH4 0xA9059CBB EQ PUSH2 0x350 JUMPI DUP1 PUSH4 0xAC41865A EQ PUSH2 0x380 JUMPI DUP1 PUSH4 0xBAA2ABDE EQ PUSH2 0x3B0 JUMPI DUP1 PUSH4 0xDD62ED3E EQ PUSH2 0x3E1 JUMPI DUP1 PUSH4 0xE8E33700 EQ PUSH2 0x411 JUMPI DUP1 PUSH4 0xF2FDE38B EQ PUSH2 0x443 JUMPI PUSH2 0x137 JUMP JUMPDEST DUP1 PUSH4 0x79CC6790 EQ PUSH2 0x2AC JUMPI DUP1 PUSH4 0x8DA5CB5B EQ PUSH2 0x2C8 JUMPI DUP1 PUSH4 0x95D89B41 EQ PUSH2 0x2E6 JUMPI DUP1 PUSH4 0x9FA77B20 EQ PUSH2 0x304 JUMPI DUP1 PUSH4 0xA4EEF28A EQ PUSH2 0x334 JUMPI PUSH2 0x137 JUMP JUMPDEST DUP1 PUSH4 0x313CE567 GT PUSH2 0xFF JUMPI DUP1 PUSH4 0x313CE567 EQ PUSH2 0x208 JUMPI DUP1 PUSH4 0x38ED1739 EQ PUSH2 0x226 JUMPI DUP1 PUSH4 0x42966C68 EQ PUSH2 0x256 JUMPI DUP1 PUSH4 0x70A08231 EQ PUSH2 0x272 JUMPI DUP1 PUSH4 0x715018A6 EQ PUSH2 0x2A2 JUMPI PUSH2 0x137 JUMP JUMPDEST DUP1 PUSH4 0x54D50D4 EQ PUSH2 0x13C JUMPI DUP1 PUSH4 0x6FDDE03 EQ PUSH2 0x16C JUMPI DUP1 PUSH4 0x95EA7B3 EQ PUSH2 0x18A JUMPI DUP1 PUSH4 0x18160DDD EQ PUSH2 0x1BA JUMPI DUP1 PUSH4 0x23B872DD EQ PUSH2 0x1D8 JUMPI JUMPDEST PUSH1 0x0 DUP1 REVERT JUMPDEST PUSH2 0x156 PUSH1 0x4 DUP1 CALLDATASIZE SUB DUP2 ADD SWAP1 PUSH2 0x151 SWAP2 SWAP1 PUSH2 0x3777 JUMP JUMPDEST PUSH2 0x45F JUMP JUMPDEST PUSH1 0x40 MLOAD PUSH2 0x163 SWAP2 SWAP1 PUSH2 0x37D9 JUMP JUMPDEST PUSH1 0x40 MLOAD DUP1 SWAP2 SUB SWAP1 RETURN JUMPDEST PUSH2 0x174 PUSH2 0x4C5 JUMP JUMPDEST PUSH1 0x40 MLOAD PUSH2 0x181 SWAP2 SWAP1 PUSH2 0x3884 JUMP JUMPDEST PUSH1 0x40 MLOAD DUP1 SWAP2 SUB SWAP1 RETURN JUMPDEST PUSH2 0x1A4 PUSH1 0x4 DUP1 CALLDATASIZE SUB DUP2 ADD SWAP1 PUSH2 0x19F SWAP2 SWAP1 PUSH2 0x3904 JUMP JUMPDEST PUSH2 0x557 JUMP JUMPDEST PUSH1 0x40 MLOAD PUSH2 0x1B1 SWAP2 SWAP1 PUSH2 0x395F JUMP JUMPDEST PUSH1 0x40 MLOAD DUP1 SWAP2 SUB SWAP1 RETURN JUMPDEST PUSH2 0x1C2 PUSH2 0x57A JUMP JUMPDEST PUSH1 0x40 MLOAD PUSH2 0x1CF SWAP2 SWAP1 PUSH2 0x37D9 JUMP JUMPDEST PUSH1 0x40 MLOAD DUP1 SWAP2 SUB SWAP1 RETURN JUMPDEST PUSH2 0x1F2 PUSH1 0x4 DUP1 CALLDATASIZE SUB DUP2 ADD SWAP1 PUSH2 0x1ED SWAP2 SWAP1 PUSH2 0x397A JUMP JUMPDEST PUSH2 0x584 JUMP JUMPDEST PUSH1 0x40 MLOAD PUSH2 0x1FF SWAP2 SWAP1 PUSH2 0x395F JUMP JUMPDEST PUSH1 0x40 MLOAD DUP1 SWAP2 SUB SWAP1 RETURN JUMPDEST PUSH2 0x210 PUSH2 0x5B3 JUMP JUMPDEST PUSH1 0x40 MLOAD PUSH2 0x21D SWAP2 SWAP1 PUSH2 0x39E9 JUMP JUMPDEST PUSH1 0x40 MLOAD DUP1 SWAP2 SUB SWAP1 RETURN JUMPDEST PUSH2 0x240 PUSH1 0x4 DUP1 CALLDATASIZE SUB DUP2 ADD SWAP1 PUSH2 0x23B SWAP2 SWAP1 PUSH2 0x3A69 JUMP JUMPDEST PUSH2 0x5BC JUMP JUMPDEST PUSH1 0x40 MLOAD PUSH2 0x24D SWAP2 SWAP1 PUSH2 0x3BC1 JUMP JUMPDEST PUSH1 0x40 MLOAD DUP1 SWAP2 SUB SWAP1 RETURN JUMPDEST PUSH2 0x270 PUSH1 0x4 DUP1 CALLDATASIZE SUB DUP2 ADD SWAP1 PUSH2 0x26B SWAP2 SWAP1 PUSH2 0x3BE3 JUMP JUMPDEST PUSH2 0xDBC JUMP JUMPDEST STOP JUMPDEST PUSH2 0x28C PUSH1 0x4 DUP1 CALLDATASIZE SUB DUP2 ADD SWAP1 PUSH2 0x287 SWAP2 SWAP1 PUSH2 0x3C10 JUMP JUMPDEST PUSH2 0xDD0 JUMP JUMPDEST PUSH1 0x40 MLOAD PUSH2 0x299 SWAP2 SWAP1 PUSH2 0x37D9 JUMP JUMPDEST PUSH1 0x40 MLOAD DUP1 SWAP2 SUB SWAP1 RETURN JUMPDEST PUSH2 0x2AA PUSH2 0xE18 JUMP JUMPDEST STOP JUMPDEST PUSH2 0x2C6 PUSH1 0x4 DUP1 CALLDATASIZE SUB DUP2 ADD SWAP1 PUSH2 0x2C1 SWAP2 SWAP1 PUSH2 0x3904 JUMP JUMPDEST PUSH2 0xE2C JUMP JUMPDEST STOP JUMPDEST PUSH2 0x2D0 PUSH2 0xE4C JUMP JUMPDEST PUSH1 0x40 MLOAD PUSH2 0x2DD SWAP2 SWAP1 PUSH2 0x3C4C JUMP JUMPDEST PUSH1 0x40 MLOAD DUP1 SWAP2 SUB SWAP1 RETURN JUMPDEST PUSH2 0x2EE PUSH2 0xE76 JUMP JUMPDEST PUSH1 0x40 MLOAD PUSH2 0x2FB SWAP2 SWAP1 PUSH2 0x3884 JUMP JUMPDEST PUSH1 0x40 MLOAD DUP1 SWAP2 SUB SWAP1 RETURN JUMPDEST PUSH2 0x31E PUSH1 0x4 DUP1 CALLDATASIZE SUB DUP2 ADD SWAP1 PUSH2 0x319 SWAP2 SWAP1 PUSH2 0x3C10 JUMP JUMPDEST PUSH2 0xF08 JUMP JUMPDEST PUSH1 0x40 MLOAD PUSH2 0x32B SWAP2 SWAP1 PUSH2 0x37D9 JUMP JUMPDEST PUSH1 0x40 MLOAD DUP1 SWAP2 SUB SWAP1 RETURN JUMPDEST PUSH2 0x34E PUSH1 0x4 DUP1 CALLDATASIZE SUB DUP2 ADD SWAP1 PUSH2 0x349 SWAP2 SWAP1 PUSH2 0x3C10 JUMP JUMPDEST PUSH2 0xF20 JUMP JUMPDEST STOP JUMPDEST PUSH2 0x36A PUSH1 0x4 DUP1 CALLDATASIZE SUB DUP2 ADD SWAP1 PUSH2 0x365 SWAP2 SWAP1 PUSH2 0x3904 JUMP JUMPDEST PUSH2 0x1038 JUMP JUMPDEST PUSH1 0x40 MLOAD PUSH2 0x377 SWAP2 SWAP1 PUSH2 0x395F JUMP JUMPDEST PUSH1 0x40 MLOAD DUP1 SWAP2 SUB SWAP1 RETURN JUMPDEST PUSH2 0x39A PUSH1 0x4 DUP1 CALLDATASIZE SUB DUP2 ADD SWAP1 PUSH2 0x395 SWAP2 SWAP1 PUSH2 0x3C67 JUMP JUMPDEST PUSH2 0x105B JUMP JUMPDEST PUSH1 0x40 MLOAD PUSH2 0x3A7 SWAP2 SWAP1 PUSH2 0x37D9 JUMP JUMPDEST PUSH1 0x40 MLOAD DUP1 SWAP2 SUB SWAP1 RETURN JUMPDEST PUSH2 0x3CA PUSH1 0x4 DUP1 CALLDATASIZE SUB DUP2 ADD SWAP1 PUSH2 0x3C5 SWAP2 SWAP1 PUSH2 0x3CA7 JUMP JUMPDEST PUSH2 0x11AE JUMP JUMPDEST PUSH1 0x40 MLOAD PUSH2 0x3D8 SWAP3 SWAP2 SWAP1 PUSH2 0x3D49 JUMP JUMPDEST PUSH1 0x40 MLOAD DUP1 SWAP2 SUB SWAP1 RETURN JUMPDEST PUSH2 0x3FB PUSH1 0x4 DUP1 CALLDATASIZE SUB DUP2 ADD SWAP1 PUSH2 0x3F6 SWAP2 SWAP1 PUSH2 0x3C67 JUMP JUMPDEST PUSH2 0x1629 JUMP JUMPDEST PUSH1 0x40 MLOAD PUSH2 0x408 SWAP2 SWAP1 PUSH2 0x37D9 JUMP JUMPDEST PUSH1 0x40 MLOAD DUP1 SWAP2 SUB SWAP1 RETURN JUMPDEST PUSH2 0x42B PUSH1 0x4 DUP1 CALLDATASIZE SUB DUP2 ADD SWAP1 PUSH2 0x426 SWAP2 SWAP1 PUSH2 0x3D72 JUMP JUMPDEST PUSH2 0x16B0 JUMP JUMPDEST PUSH1 0x40 MLOAD PUSH2 0x43A SWAP4 SWAP3 SWAP2 SWAP1 PUSH2 0x3E28 JUMP JUMPDEST PUSH1 0x40 MLOAD DUP1 SWAP2 SUB SWAP1 RETURN JUMPDEST PUSH2 0x45D PUSH1 0x4 DUP1 CALLDATASIZE SUB DUP2 ADD SWAP1 PUSH2 0x458 SWAP2 SWAP1 PUSH2 0x3C10 JUMP JUMPDEST PUSH2 0x1B7F JUMP JUMPDEST STOP JUMPDEST PUSH1 0x0 PUSH2 0x475 PUSH8 0x95AE8BF06F87AA30 PUSH1 0xC0 SHL PUSH2 0x1C05 JUMP JUMPDEST PUSH2 0x489 PUSH8 0x2799301B696B2A1A PUSH1 0xC0 SHL PUSH2 0x1C05 JUMP JUMPDEST PUSH2 0x494 DUP5 DUP5 DUP5 PUSH2 0x1C08 JUMP JUMPDEST SWAP1 POP PUSH2 0x4AA PUSH8 0x883F27BD6F56D3E6 PUSH1 0xC0 SHL PUSH2 0x1C05 JUMP JUMPDEST PUSH2 0x4BE PUSH8 0xAC1EFD23A87D40F0 PUSH1 0xC0 SHL PUSH2 0x1C05 JUMP JUMPDEST SWAP4 SWAP3 POP POP POP JUMP JUMPDEST PUSH1 0x60 PUSH1 0x3 DUP1 SLOAD PUSH2 0x4D4 SWAP1 PUSH2 0x3E8E JUMP JUMPDEST DUP1 PUSH1 0x1F ADD PUSH1 0x20 DUP1 SWAP2 DIV MUL PUSH1 0x20 ADD PUSH1 0x40 MLOAD SWAP1 DUP2 ADD PUSH1 0x40 MSTORE DUP1 SWAP3 SWAP2 SWAP1 DUP2 DUP2 MSTORE PUSH1 0x20 ADD DUP3 DUP1 SLOAD PUSH2 0x500 SWAP1 PUSH2 0x3E8E JUMP JUMPDEST DUP1 ISZERO PUSH2 0x54D JUMPI DUP1 PUSH1 0x1F LT PUSH2 0x522 JUMPI PUSH2 0x100 DUP1 DUP4 SLOAD DIV MUL DUP4 MSTORE SWAP2 PUSH1 0x20 ADD SWAP2 PUSH2 0x54D JUMP JUMPDEST DUP3 ADD SWAP2 SWAP1 PUSH1 0x0 MSTORE PUSH1 0x20 PUSH1 0x0 KECCAK256 SWAP1 JUMPDEST DUP2 SLOAD DUP2 MSTORE SWAP1 PUSH1 0x1 ADD SWAP1 PUSH1 0x20 ADD DUP1 DUP4 GT PUSH2 0x530 JUMPI DUP3 SWAP1 SUB PUSH1 0x1F AND DUP3 ADD SWAP2 JUMPDEST POP POP POP POP POP SWAP1 POP SWAP1 JUMP JUMPDEST PUSH1 0x0 DUP1 PUSH2 0x562 PUSH2 0x1E00 JUMP JUMPDEST SWAP1 POP PUSH2 0x56F DUP2 DUP6 DUP6 PUSH2 0x1E08 JUMP JUMPDEST PUSH1 0x1 SWAP2 POP POP SWAP3 SWAP2 POP POP JUMP JUMPDEST PUSH1 0x0 PUSH1 0x2 SLOAD SWAP1 POP SWAP1 JUMP JUMPDEST PUSH1 0x0 DUP1 PUSH2 0x58F PUSH2 0x1E00 JUMP JUMPDEST SWAP1 POP PUSH2 0x59C DUP6 DUP3 DUP6 PUSH2 0x1E1A JUMP JUMPDEST PUSH2 0x5A7 DUP6 DUP6 DUP6 PUSH2 0x1EAF JUMP JUMPDEST PUSH1 0x1 SWAP2 POP POP SWAP4 SWAP3 POP POP POP JUMP JUMPDEST PUSH1 0x0 PUSH1 0x12 SWAP1 POP SWAP1 JUMP JUMPDEST PUSH1 0x60 PUSH2 0x5D2 PUSH8 0x2A7CCADD08A36132 PUSH1 0xC0 SHL PUSH2 0x1C05 JUMP JUMPDEST DUP2 PUSH2 0x5E7 PUSH8 0x98BEEF8724399C0B PUSH1 0xC0 SHL PUSH2 0x1C05 JUMP JUMPDEST PUSH2 0x5FB PUSH8 0x167CF81A3ED20FE8 PUSH1 0xC0 SHL PUSH2 0x1C05 JUMP JUMPDEST PUSH2 0x60F PUSH8 0xD0B9DA5569CD7354 PUSH1 0xC0 SHL PUSH2 0x1C05 JUMP JUMPDEST PUSH2 0x623 PUSH8 0x3C9E9AFDE64C6E8 PUSH1 0xC0 SHL PUSH2 0x1C05 JUMP JUMPDEST TIMESTAMP DUP2 GT PUSH2 0x665 JUMPI PUSH1 0x40 MLOAD PUSH32 0x8C379A000000000000000000000000000000000000000000000000000000000 DUP2 MSTORE PUSH1 0x4 ADD PUSH2 0x65C SWAP1 PUSH2 0x3F0B JUMP JUMPDEST PUSH1 0x40 MLOAD DUP1 SWAP2 SUB SWAP1 REVERT JUMPDEST PUSH2 0x679 PUSH8 0xD8A33ED4DBB4E576 PUSH1 0xC0 SHL PUSH2 0x1C05 JUMP JUMPDEST PUSH2 0x68D PUSH8 0x83F53AB5CCFA685F PUSH1 0xC0 SHL PUSH2 0x1C05 JUMP JUMPDEST PUSH2 0x6A1 PUSH8 0xCC61A248B2DCBD04 PUSH1 0xC0 SHL PUSH2 0x1C05 JUMP JUMPDEST PUSH2 0x6B5 PUSH8 0xB30AD34DE91CC89C PUSH1 0xC0 SHL PUSH2 0x1C05 JUMP JUMPDEST DUP6 DUP6 DUP1 DUP1 PUSH1 0x20 MUL PUSH1 0x20 ADD PUSH1 0x40 MLOAD SWAP1 DUP2 ADD PUSH1 0x40 MSTORE DUP1 SWAP4 SWAP3 SWAP2 SWAP1 DUP2 DUP2 MSTORE PUSH1 0x20 ADD DUP4 DUP4 PUSH1 0x20 MUL DUP1 DUP3 DUP5 CALLDATACOPY PUSH1 0x0 DUP2 DUP5 ADD MSTORE PUSH1 0x1F NOT PUSH1 0x1F DUP3 ADD AND SWAP1 POP DUP1 DUP4 ADD SWAP3 POP POP POP POP POP POP POP PUSH2 0x70B PUSH8 0x7F3EBF4141A62A84 PUSH1 0xC0 SHL PUSH2 0x1C05 JUMP JUMPDEST PUSH2 0x71F PUSH8 0x6A3CC7CCD4B4099A PUSH1 0xC0 SHL PUSH2 0x1C05 JUMP JUMPDEST PUSH2 0x733 PUSH8 0x72ADA1136CFB181 PUSH1 0xC0 SHL PUSH2 0x1C05 JUMP JUMPDEST PUSH2 0x747 PUSH8 0x9D893B3DE856F295 PUSH1 0xC0 SHL PUSH2 0x1C05 JUMP JUMPDEST PUSH1 0x2 DUP2 MLOAD EQ PUSH2 0x78B JUMPI PUSH1 0x40 MLOAD PUSH32 0x8C379A000000000000000000000000000000000000000000000000000000000 DUP2 MSTORE PUSH1 0x4 ADD PUSH2 0x782 SWAP1 PUSH2 0x3F77 JUMP JUMPDEST PUSH1 0x40 MLOAD DUP1 SWAP2 SUB SWAP1 REVERT JUMPDEST PUSH2 0x79F PUSH8 0x4FB131068698A1F8 PUSH1 0xC0 SHL PUSH2 0x1C05 JUMP JUMPDEST PUSH2 0x7B3 PUSH8 0x1F40DD99A27CB28C PUSH1 0xC0 SHL PUSH2 0x1C05 JUMP JUMPDEST PUSH2 0x7C7 PUSH8 0xF002242310D232A4 PUSH1 0xC0 SHL PUSH2 0x1C05 JUMP JUMPDEST PUSH2 0x7DB PUSH8 0xBE07A49F0A193750 PUSH1 0xC0 SHL PUSH2 0x1C05 JUMP JUMPDEST PUSH2 0x7E3 PUSH2 0x1FA3 JUMP JUMPDEST PUSH2 0x7F7 PUSH8 0xA5D918B5B8E23398 PUSH1 0xC0 SHL PUSH2 0x1C05 JUMP JUMPDEST PUSH2 0x80B PUSH8 0x24ED8E1C6503D811 PUSH1 0xC0 SHL PUSH2 0x1C05 JUMP JUMPDEST PUSH2 0x81F PUSH8 0xEA33943EB491B52 PUSH1 0xC0 SHL PUSH2 0x1C05 JUMP JUMPDEST PUSH2 0x833 PUSH8 0x7F2DC2619A2F04E0 PUSH1 0xC0 SHL PUSH2 0x1C05 JUMP JUMPDEST PUSH2 0x847 PUSH8 0x6DC23ED0452137BD PUSH1 0xC0 SHL PUSH2 0x1C05 JUMP JUMPDEST DUP7 DUP7 PUSH1 0x1 DUP2 DUP2 LT PUSH2 0x85B JUMPI PUSH2 0x85A PUSH2 0x3F97 JUMP JUMPDEST JUMPDEST SWAP1 POP PUSH1 0x20 MUL ADD PUSH1 0x20 DUP2 ADD SWAP1 PUSH2 0x870 SWAP2 SWAP1 PUSH2 0x3C10 JUMP JUMPDEST PUSH20 0xFFFFFFFFFFFFFFFFFFFFFFFFFFFFFFFFFFFFFFFF AND DUP8 DUP8 PUSH1 0x0 DUP2 DUP2 LT PUSH2 0x89A JUMPI PUSH2 0x899 PUSH2 0x3F97 JUMP JUMPDEST JUMPDEST SWAP1 POP PUSH1 0x20 MUL ADD PUSH1 0x20 DUP2 ADD SWAP1 PUSH2 0x8AF SWAP2 SWAP1 PUSH2 0x3C10 JUMP JUMPDEST PUSH20 0xFFFFFFFFFFFFFFFFFFFFFFFFFFFFFFFFFFFFFFFF AND SUB PUSH2 0x905 JUMPI PUSH1 0x40 MLOAD PUSH32 0x8C379A000000000000000000000000000000000000000000000000000000000 DUP2 MSTORE PUSH1 0x4 ADD PUSH2 0x8FC SWAP1 PUSH2 0x4012 JUMP JUMPDEST PUSH1 0x40 MLOAD DUP1 SWAP2 SUB SWAP1 REVERT JUMPDEST PUSH2 0x919 PUSH8 0x1BDFCD19652093BF PUSH1 0xC0 SHL PUSH2 0x1C05 JUMP JUMPDEST PUSH2 0x92D PUSH8 0x182CA3C7E0B55144 PUSH1 0xC0 SHL PUSH2 0x1C05 JUMP JUMPDEST PUSH2 0x978 DUP10 DUP9 DUP9 DUP1 DUP1 PUSH1 0x20 MUL PUSH1 0x20 ADD PUSH1 0x40 MLOAD SWAP1 DUP2 ADD PUSH1 0x40 MSTORE DUP1 SWAP4 SWAP3 SWAP2 SWAP1 DUP2 DUP2 MSTORE PUSH1 0x20 ADD DUP4 DUP4 PUSH1 0x20 MUL DUP1 DUP3 DUP5 CALLDATACOPY PUSH1 0x0 DUP2 DUP5 ADD MSTORE PUSH1 0x1F NOT PUSH1 0x1F DUP3 ADD AND SWAP1 POP DUP1 DUP4 ADD SWAP3 POP POP POP POP POP POP POP PUSH2 0x1FE9 JUMP JUMPDEST SWAP3 POP PUSH2 0x98E PUSH8 0xB71D2271851C397A PUSH1 0xC0 SHL PUSH2 0x1C05 JUMP JUMPDEST PUSH2 0x9A2 PUSH8 0x1C9D4AFA06B12DEC PUSH1 0xC0 SHL PUSH2 0x1C05 JUMP JUMPDEST PUSH2 0x9B6 PUSH8 0x881E8D07FDEC9C09 PUSH1 0xC0 SHL PUSH2 0x1C05 JUMP JUMPDEST DUP8 DUP4 PUSH1 0x1 DUP2 MLOAD DUP2 LT PUSH2 0x9CB JUMPI PUSH2 0x9CA PUSH2 0x3F97 JUMP JUMPDEST JUMPDEST PUSH1 0x20 MUL PUSH1 0x20 ADD ADD MLOAD LT ISZERO PUSH2 0xA14 JUMPI PUSH1 0x40 MLOAD PUSH32 0x8C379A000000000000000000000000000000000000000000000000000000000 DUP2 MSTORE PUSH1 0x4 ADD PUSH2 0xA0B SWAP1 PUSH2 0x407E JUMP JUMPDEST PUSH1 0x40 MLOAD DUP1 SWAP2 SUB SWAP1 REVERT JUMPDEST PUSH2 0xA28 PUSH8 0xEE5E31714BCC5467 PUSH1 0xC0 SHL PUSH2 0x1C05 JUMP JUMPDEST PUSH2 0xA3C PUSH8 0x6A798B807E3C81AE PUSH1 0xC0 SHL PUSH2 0x1C05 JUMP JUMPDEST PUSH2 0xA50 PUSH8 0x411AE2597FF27016 PUSH1 0xC0 SHL PUSH2 0x1C05 JUMP JUMPDEST PUSH2 0xA84 DUP8 DUP8 PUSH1 0x0 DUP2 DUP2 LT PUSH2 0xA67 JUMPI PUSH2 0xA66 PUSH2 0x3F97 JUMP JUMPDEST JUMPDEST SWAP1 POP PUSH1 0x20 MUL ADD PUSH1 0x20 DUP2 ADD SWAP1 PUSH2 0xA7C SWAP2 SWAP1 PUSH2 0x3C10 JUMP JUMPDEST CALLER ADDRESS DUP13 PUSH2 0x2273 JUMP JUMPDEST PUSH2 0xA98 PUSH8 0x8AC7EAE7795200C3 PUSH1 0xC0 SHL PUSH2 0x1C05 JUMP JUMPDEST PUSH2 0xAAC PUSH8 0xCBC9E593839D09A PUSH1 0xC0 SHL PUSH2 0x1C05 JUMP JUMPDEST PUSH2 0xAFA DUP8 DUP8 PUSH1 0x1 DUP2 DUP2 LT PUSH2 0xAC3 JUMPI PUSH2 0xAC2 PUSH2 0x3F97 JUMP JUMPDEST JUMPDEST SWAP1 POP PUSH1 0x20 MUL ADD PUSH1 0x20 DUP2 ADD SWAP1 PUSH2 0xAD8 SWAP2 SWAP1 PUSH2 0x3C10 JUMP JUMPDEST DUP7 DUP6 PUSH1 0x1 DUP2 MLOAD DUP2 LT PUSH2 0xAED JUMPI PUSH2 0xAEC PUSH2 0x3F97 JUMP JUMPDEST JUMPDEST PUSH1 0x20 MUL PUSH1 0x20 ADD ADD MLOAD PUSH2 0x23CA JUMP JUMPDEST PUSH2 0xB0E PUSH8 0x3B47F44EB10E8079 PUSH1 0xC0 SHL PUSH2 0x1C05 JUMP JUMPDEST DUP3 PUSH1 0x0 DUP2 MLOAD DUP2 LT PUSH2 0xB22 JUMPI PUSH2 0xB21 PUSH2 0x3F97 JUMP JUMPDEST JUMPDEST PUSH1 0x20 MUL PUSH1 0x20 ADD ADD MLOAD PUSH1 0x7 PUSH1 0x0 DUP10 DUP10 PUSH1 0x0 DUP2 DUP2 LT PUSH2 0xB42 JUMPI PUSH2 0xB41 PUSH2 0x3F97 JUMP JUMPDEST JUMPDEST SWAP1 POP PUSH1 0x20 MUL ADD PUSH1 0x20 DUP2 ADD SWAP1 PUSH2 0xB57 SWAP2 SWAP1 PUSH2 0x3C10 JUMP JUMPDEST PUSH20 0xFFFFFFFFFFFFFFFFFFFFFFFFFFFFFFFFFFFFFFFF AND PUSH20 0xFFFFFFFFFFFFFFFFFFFFFFFFFFFFFFFFFFFFFFFF AND DUP2 MSTORE PUSH1 0x20 ADD SWAP1 DUP2 MSTORE PUSH1 0x20 ADD PUSH1 0x0 KECCAK256 PUSH1 0x0 DUP3 DUP3 SLOAD PUSH2 0xBA0 SWAP2 SWAP1 PUSH2 0x40CD JUMP JUMPDEST SWAP3 POP POP DUP2 SWAP1 SSTORE POP PUSH2 0xBBB PUSH8 0xB3B87980748DBD03 PUSH1 0xC0 SHL PUSH2 0x1C05 JUMP JUMPDEST DUP3 PUSH1 0x1 DUP2 MLOAD DUP2 LT PUSH2 0xBCF JUMPI PUSH2 0xBCE PUSH2 0x3F97 JUMP JUMPDEST JUMPDEST PUSH1 0x20 MUL PUSH1 0x20 ADD ADD MLOAD PUSH1 0x7 PUSH1 0x0 DUP10 DUP10 PUSH1 0x1 DUP2 DUP2 LT PUSH2 0xBEF JUMPI PUSH2 0xBEE PUSH2 0x3F97 JUMP JUMPDEST JUMPDEST SWAP1 POP PUSH1 0x20 MUL ADD PUSH1 0x20 DUP2 ADD SWAP1 PUSH2 0xC04 SWAP2 SWAP1 PUSH2 0x3C10 JUMP JUMPDEST PUSH20 0xFFFFFFFFFFFFFFFFFFFFFFFFFFFFFFFFFFFFFFFF AND PUSH20 0xFFFFFFFFFFFFFFFFFFFFFFFFFFFFFFFFFFFFFFFF AND DUP2 MSTORE PUSH1 0x20 ADD SWAP1 DUP2 MSTORE PUSH1 0x20 ADD PUSH1 0x0 KECCAK256 PUSH1 0x0 DUP3 DUP3 SLOAD PUSH2 0xC4D SWAP2 SWAP1 PUSH2 0x4101 JUMP JUMPDEST SWAP3 POP POP DUP2 SWAP1 SSTORE POP PUSH2 0xC68 PUSH8 0x70C1ADC3A3192CBC PUSH1 0xC0 SHL PUSH2 0x1C05 JUMP JUMPDEST PUSH2 0xC7C PUSH8 0x172855709E7EFF8E PUSH1 0xC0 SHL PUSH2 0x1C05 JUMP JUMPDEST DUP7 DUP7 PUSH1 0x1 DUP2 DUP2 LT PUSH2 0xC90 JUMPI PUSH2 0xC8F PUSH2 0x3F97 JUMP JUMPDEST JUMPDEST SWAP1 POP PUSH1 0x20 MUL ADD PUSH1 0x20 DUP2 ADD SWAP1 PUSH2 0xCA5 SWAP2 SWAP1 PUSH2 0x3C10 JUMP JUMPDEST PUSH20 0xFFFFFFFFFFFFFFFFFFFFFFFFFFFFFFFFFFFFFFFF AND DUP8 DUP8 PUSH1 0x0 DUP2 DUP2 LT PUSH2 0xCCF JUMPI PUSH2 0xCCE PUSH2 0x3F97 JUMP JUMPDEST JUMPDEST SWAP1 POP PUSH1 0x20 MUL ADD PUSH1 0x20 DUP2 ADD SWAP1 PUSH2 0xCE4 SWAP2 SWAP1 PUSH2 0x3C10 JUMP JUMPDEST PUSH20 0xFFFFFFFFFFFFFFFFFFFFFFFFFFFFFFFFFFFFFFFF AND CALLER PUSH20 0xFFFFFFFFFFFFFFFFFFFFFFFFFFFFFFFFFFFFFFFF AND PUSH32 0xD36CC53BA71BC76A3DB3364981F5296DD4CA5EBA0E8C89874F2170515BD20D24 DUP7 PUSH1 0x0 DUP2 MLOAD DUP2 LT PUSH2 0xD46 JUMPI PUSH2 0xD45 PUSH2 0x3F97 JUMP JUMPDEST JUMPDEST PUSH1 0x20 MUL PUSH1 0x20 ADD ADD MLOAD DUP8 PUSH1 0x1 DUP2 MLOAD DUP2 LT PUSH2 0xD62 JUMPI PUSH2 0xD61 PUSH2 0x3F97 JUMP JUMPDEST JUMPDEST PUSH1 0x20 MUL PUSH1 0x20 ADD ADD MLOAD PUSH1 0x40 MLOAD PUSH2 0xD78 SWAP3 SWAP2 SWAP1 PUSH2 0x3D49 JUMP JUMPDEST PUSH1 0x40 MLOAD DUP1 SWAP2 SUB SWAP1 LOG4 PUSH2 0xD94 PUSH8 0xBF736DBC69A6358D PUSH1 0xC0 SHL PUSH2 0x1C05 JUMP JUMPDEST PUSH2 0xDA8 PUSH8 0x15EC6C042811D4C7 PUSH1 0xC0 SHL PUSH2 0x1C05 JUMP JUMPDEST PUSH2 0xDB0 PUSH2 0x251E JUMP JUMPDEST POP POP SWAP7 SWAP6 POP POP POP POP POP POP JUMP JUMPDEST PUSH2 0xDCD PUSH2 0xDC7 PUSH2 0x1E00 JUMP JUMPDEST DUP3 PUSH2 0x2528 JUMP JUMPDEST POP JUMP JUMPDEST PUSH1 0x0 DUP1 PUSH1 0x0 DUP4 PUSH20 0xFFFFFFFFFFFFFFFFFFFFFFFFFFFFFFFFFFFFFFFF AND PUSH20 0xFFFFFFFFFFFFFFFFFFFFFFFFFFFFFFFFFFFFFFFF AND DUP2 MSTORE PUSH1 0x20 ADD SWAP1 DUP2 MSTORE PUSH1 0x20 ADD PUSH1 0x0 KECCAK256 SLOAD SWAP1 POP SWAP2 SWAP1 POP JUMP JUMPDEST PUSH2 0xE20 PUSH2 0x25AA JUMP JUMPDEST PUSH2 0xE2A PUSH1 0x0 PUSH2 0x2631 JUMP JUMPDEST JUMP JUMPDEST PUSH2 0xE3E DUP3 PUSH2 0xE38 PUSH2 0x1E00 JUMP JUMPDEST DUP4 PUSH2 0x1E1A JUMP JUMPDEST PUSH2 0xE48 DUP3 DUP3 PUSH2 0x2528 JUMP JUMPDEST POP POP JUMP JUMPDEST PUSH1 0x0 PUSH1 0x6 PUSH1 0x0 SWAP1 SLOAD SWAP1 PUSH2 0x100 EXP SWAP1 DIV PUSH20 0xFFFFFFFFFFFFFFFFFFFFFFFFFFFFFFFFFFFFFFFF AND SWAP1 POP SWAP1 JUMP JUMPDEST PUSH1 0x60 PUSH1 0x4 DUP1 SLOAD PUSH2 0xE85 SWAP1 PUSH2 0x3E8E JUMP JUMPDEST DUP1 PUSH1 0x1F ADD PUSH1 0x20 DUP1 SWAP2 DIV MUL PUSH1 0x20 ADD PUSH1 0x40 MLOAD SWAP1 DUP2 ADD PUSH1 0x40 MSTORE DUP1 SWAP3 SWAP2 SWAP1 DUP2 DUP2 MSTORE PUSH1 0x20 ADD DUP3 DUP1 SLOAD PUSH2 0xEB1 SWAP1 PUSH2 0x3E8E JUMP JUMPDEST DUP1 ISZERO PUSH2 0xEFE JUMPI DUP1 PUSH1 0x1F LT PUSH2 0xED3 JUMPI PUSH2 0x100 DUP1 DUP4 SLOAD DIV MUL DUP4 MSTORE SWAP2 PUSH1 0x20 ADD SWAP2 PUSH2 0xEFE JUMP JUMPDEST DUP3 ADD SWAP2 SWAP1 PUSH1 0x0 MSTORE PUSH1 0x20 PUSH1 0x0 KECCAK256 SWAP1 JUMPDEST DUP2 SLOAD DUP2 MSTORE SWAP1 PUSH1 0x1 ADD SWAP1 PUSH1 0x20 ADD DUP1 DUP4 GT PUSH2 0xEE1 JUMPI DUP3 SWAP1 SUB PUSH1 0x1F AND DUP3 ADD SWAP2 JUMPDEST POP POP POP POP POP SWAP1 POP SWAP1 JUMP JUMPDEST PUSH1 0x7 PUSH1 0x20 MSTORE DUP1 PUSH1 0x0 MSTORE PUSH1 0x40 PUSH1 0x0 KECCAK256 PUSH1 0x0 SWAP2 POP SWAP1 POP SLOAD DUP2 JUMP JUMPDEST PUSH2 0xF34 PUSH8 0x7B3E0F17341B9BC7 PUSH1 0xC0 SHL PUSH2 0x1C05 JUMP JUMPDEST PUSH2 0xF3C PUSH2 0x25AA JUMP JUMPDEST PUSH2 0xF50 PUSH8 0xBC999BD75F72E0D8 PUSH1 0xC0 SHL PUSH2 0x1C05 JUMP JUMPDEST PUSH2 0xF64 PUSH8 0xD6899708A0E953D4 PUSH1 0xC0 SHL PUSH2 0x1C05 JUMP JUMPDEST PUSH2 0xF78 PUSH8 0x2E2126E45EDAE973 PUSH1 0xC0 SHL PUSH2 0x1C05 JUMP JUMPDEST DUP1 PUSH20 0xFFFFFFFFFFFFFFFFFFFFFFFFFFFFFFFFFFFFFFFF AND PUSH4 0x70A08231 ADDRESS PUSH1 0x40 MLOAD DUP3 PUSH4 0xFFFFFFFF AND PUSH1 0xE0 SHL DUP2 MSTORE PUSH1 0x4 ADD PUSH2 0xFB1 SWAP2 SWAP1 PUSH2 0x3C4C JUMP JUMPDEST PUSH1 0x20 PUSH1 0x40 MLOAD DUP1 DUP4 SUB DUP2 DUP7 GAS STATICCALL ISZERO DUP1 ISZERO PUSH2 0xFCE JUMPI RETURNDATASIZE PUSH1 0x0 DUP1 RETURNDATACOPY RETURNDATASIZE PUSH1 0x0 REVERT JUMPDEST POP POP POP POP PUSH1 0x40 MLOAD RETURNDATASIZE PUSH1 0x1F NOT PUSH1 0x1F DUP3 ADD AND DUP3 ADD DUP1 PUSH1 0x40 MSTORE POP DUP2 ADD SWAP1 PUSH2 0xFF2 SWAP2 SWAP1 PUSH2 0x414A JUMP JUMPDEST PUSH1 0x7 PUSH1 0x0 DUP4 PUSH20 0xFFFFFFFFFFFFFFFFFFFFFFFFFFFFFFFFFFFFFFFF AND PUSH20 0xFFFFFFFFFFFFFFFFFFFFFFFFFFFFFFFFFFFFFFFF AND DUP2 MSTORE PUSH1 0x20 ADD SWAP1 DUP2 MSTORE PUSH1 0x20 ADD PUSH1 0x0 KECCAK256 DUP2 SWAP1 SSTORE POP POP JUMP JUMPDEST PUSH1 0x0 DUP1 PUSH2 0x1043 PUSH2 0x1E00 JUMP JUMPDEST SWAP1 POP PUSH2 0x1050 DUP2 DUP6 DUP6 PUSH2 0x1EAF JUMP JUMPDEST PUSH1 0x1 SWAP2 POP POP SWAP3 SWAP2 POP POP JUMP JUMPDEST PUSH1 0x0 PUSH2 0x1071 PUSH8 0xB0D61D3A736879DC PUSH1 0xC0 SHL PUSH2 0x1C05 JUMP JUMPDEST PUSH2 0x1085 PUSH8 0xF8AA75485206D0B5 PUSH1 0xC0 SHL PUSH2 0x1C05 JUMP JUMPDEST PUSH2 0x1099 PUSH8 0xFE1C6F104274306C PUSH1 0xC0 SHL PUSH2 0x1C05 JUMP JUMPDEST PUSH1 0x0 DUP1 PUSH2 0x10A6 DUP6 DUP6 PUSH2 0x26F7 JUMP JUMPDEST SWAP2 POP SWAP2 POP PUSH2 0x10BE PUSH8 0x3C40924E97F5983B PUSH1 0xC0 SHL PUSH2 0x1C05 JUMP JUMPDEST PUSH2 0x10D2 PUSH8 0xE684E4B24A07AC2 PUSH1 0xC0 SHL PUSH2 0x1C05 JUMP JUMPDEST PUSH2 0x10E6 PUSH8 0x7EF4551155B86A2A PUSH1 0xC0 SHL PUSH2 0x1C05 JUMP JUMPDEST PUSH1 0x0 DUP3 GT DUP1 ISZERO PUSH2 0x10F6 JUMPI POP PUSH1 0x0 DUP2 GT JUMPDEST PUSH2 0x1135 JUMPI PUSH1 0x40 MLOAD PUSH32 0x8C379A000000000000000000000000000000000000000000000000000000000 DUP2 MSTORE PUSH1 0x4 ADD PUSH2 0x112C SWAP1 PUSH2 0x41C3 JUMP JUMPDEST PUSH1 0x40 MLOAD DUP1 SWAP2 SUB SWAP1 REVERT JUMPDEST PUSH2 0x1149 PUSH8 0xD83A7D2D4C19007C PUSH1 0xC0 SHL PUSH2 0x1C05 JUMP JUMPDEST PUSH2 0x115D PUSH8 0x329EAC3237681FEA PUSH1 0xC0 SHL PUSH2 0x1C05 JUMP JUMPDEST DUP2 PUSH8 0xDE0B6B3A7640000 DUP3 PUSH2 0x1172 SWAP2 SWAP1 PUSH2 0x41E3 JUMP JUMPDEST PUSH2 0x117C SWAP2 SWAP1 PUSH2 0x4254 JUMP JUMPDEST SWAP3 POP PUSH2 0x1192 PUSH8 0x659A319B48D15978 PUSH1 0xC0 SHL PUSH2 0x1C05 JUMP JUMPDEST PUSH2 0x11A6 PUSH8 0x40C0F2EFA0A12020 PUSH1 0xC0 SHL PUSH2 0x1C05 JUMP JUMPDEST POP POP SWAP3 SWAP2 POP POP JUMP JUMPDEST PUSH1 0x0 DUP1 PUSH2 0x11C5 PUSH8 0xA638823CAF611CBB PUSH1 0xC0 SHL PUSH2 0x1C05 JUMP JUMPDEST DUP3 PUSH2 0x11DA PUSH8 0x98BEEF8724399C0B PUSH1 0xC0 SHL PUSH2 0x1C05 JUMP JUMPDEST PUSH2 0x11EE PUSH8 0x167CF81A3ED20FE8 PUSH1 0xC0 SHL PUSH2 0x1C05 JUMP JUMPDEST PUSH2 0x1202 PUSH8 0xD0B9DA5569CD7354 PUSH1 0xC0 SHL PUSH2 0x1C05 JUMP JUMPDEST PUSH2 0x1216 PUSH8 0x3C9E9AFDE64C6E8 PUSH1 0xC0 SHL PUSH2 0x1C05 JUMP JUMPDEST TIMESTAMP DUP2 GT PUSH2 0x1258 JUMPI PUSH1 0x40 MLOAD PUSH32 0x8C379A000000000000000000000000000000000000000000000000000000000 DUP2 MSTORE PUSH1 0x4 ADD PUSH2 0x124F SWAP1 PUSH2 0x3F0B JUMP JUMPDEST PUSH1 0x40 MLOAD DUP1 SWAP2 SUB SWAP1 REVERT JUMPDEST PUSH2 0x126C PUSH8 0xD8A33ED4DBB4E576 PUSH1 0xC0 SHL PUSH2 0x1C05 JUMP JUMPDEST PUSH2 0x1280 PUSH8 0x83F53AB5CCFA685F PUSH1 0xC0 SHL PUSH2 0x1C05 JUMP JUMPDEST PUSH2 0x1294 PUSH8 0xF745292647E7456F PUSH1 0xC0 SHL PUSH2 0x1C05 JUMP JUMPDEST PUSH2 0x12A8 PUSH8 0x2825C7DAFE037EC9 PUSH1 0xC0 SHL PUSH2 0x1C05 JUMP JUMPDEST PUSH2 0x12B0 PUSH2 0x1FA3 JUMP JUMPDEST PUSH2 0x12C4 PUSH8 0x1D257DFE2E78B995 PUSH1 0xC0 SHL PUSH2 0x1C05 JUMP JUMPDEST PUSH2 0x12D8 PUSH8 0x4A81AD981A858FBC PUSH1 0xC0 SHL PUSH2 0x1C05 JUMP JUMPDEST PUSH2 0x12EC PUSH8 0x8DE9FCD34A15EE9E PUSH1 0xC0 SHL PUSH2 0x1C05 JUMP JUMPDEST PUSH2 0x1300 PUSH8 0xFD498B5B3DFB1582 PUSH1 0xC0 SHL PUSH2 0x1C05 JUMP JUMPDEST PUSH1 0x0 DUP1 PUSH2 0x130D DUP13 DUP13 PUSH2 0x26F7 JUMP JUMPDEST SWAP2 POP SWAP2 POP PUSH2 0x1325 PUSH8 0xBEDAC171748A51DE PUSH1 0xC0 SHL PUSH2 0x1C05 JUMP JUMPDEST PUSH2 0x1330 DUP11 DUP4 DUP4 PUSH2 0x27E9 JUMP JUMPDEST DUP1 SWAP6 POP DUP2 SWAP7 POP POP POP PUSH2 0x134C PUSH8 0x51B5A9E0D538CEAF PUSH1 0xC0 SHL PUSH2 0x1C05 JUMP JUMPDEST PUSH2 0x1360 PUSH8 0xC919313BB5655B09 PUSH1 0xC0 SHL PUSH2 0x1C05 JUMP JUMPDEST PUSH2 0x1374 PUSH8 0x743BD3307A463437 PUSH1 0xC0 SHL PUSH2 0x1C05 JUMP JUMPDEST DUP9 DUP6 LT ISZERO DUP1 ISZERO PUSH2 0x1384 JUMPI POP DUP8 DUP5 LT ISZERO JUMPDEST PUSH2 0x13C3 JUMPI PUSH1 0x40 MLOAD PUSH32 0x8C379A000000000000000000000000000000000000000000000000000000000 DUP2 MSTORE PUSH1 0x4 ADD PUSH2 0x13BA SWAP1 PUSH2 0x42D1 JUMP JUMPDEST PUSH1 0x40 MLOAD DUP1 SWAP2 SUB SWAP1 REVERT JUMPDEST PUSH2 0x13D7 PUSH8 0xDD08A1826382D3F8 PUSH1 0xC0 SHL PUSH2 0x1C05 JUMP JUMPDEST PUSH2 0x13EB PUSH8 0xD0D1AC9BD3D80FB PUSH1 0xC0 SHL PUSH2 0x1C05 JUMP JUMPDEST DUP5 PUSH1 0x7 PUSH1 0x0 DUP15 PUSH20 0xFFFFFFFFFFFFFFFFFFFFFFFFFFFFFFFFFFFFFFFF AND PUSH20 0xFFFFFFFFFFFFFFFFFFFFFFFFFFFFFFFFFFFFFFFF AND DUP2 MSTORE PUSH1 0x20 ADD SWAP1 DUP2 MSTORE PUSH1 0x20 ADD PUSH1 0x0 KECCAK256 PUSH1 0x0 DUP3 DUP3 SLOAD PUSH2 0x143A SWAP2 SWAP1 PUSH2 0x4101 JUMP JUMPDEST SWAP3 POP POP DUP2 SWAP1 SSTORE POP PUSH2 0x1455 PUSH8 0x98469A49CBC834EE PUSH1 0xC0 SHL PUSH2 0x1C05 JUMP JUMPDEST DUP4 PUSH1 0x7 PUSH1 0x0 DUP14 PUSH20 0xFFFFFFFFFFFFFFFFFFFFFFFFFFFFFFFFFFFFFFFF AND PUSH20 0xFFFFFFFFFFFFFFFFFFFFFFFFFFFFFFFFFFFFFFFF AND DUP2 MSTORE PUSH1 0x20 ADD SWAP1 DUP2 MSTORE PUSH1 0x20 ADD PUSH1 0x0 KECCAK256 PUSH1 0x0 DUP3 DUP3 SLOAD PUSH2 0x14A4 SWAP2 SWAP1 PUSH2 0x4101 JUMP JUMPDEST SWAP3 POP POP DUP2 SWAP1 SSTORE POP PUSH2 0x14BF PUSH8 0x428225E9F782EAFA PUSH1 0xC0 SHL PUSH2 0x1C05 JUMP JUMPDEST PUSH2 0x14D3 PUSH8 0xBA736FD60738059D PUSH1 0xC0 SHL PUSH2 0x1C05 JUMP JUMPDEST PUSH2 0x14DC DUP11 PUSH2 0xDBC JUMP JUMPDEST PUSH2 0x14F0 PUSH8 0x936E679119B639B3 PUSH1 0xC0 SHL PUSH2 0x1C05 JUMP JUMPDEST PUSH2 0x1504 PUSH8 0x204DB7FC20B7B165 PUSH1 0xC0 SHL PUSH2 0x1C05 JUMP JUMPDEST PUSH2 0x150F DUP13 DUP9 DUP8 PUSH2 0x23CA JUMP JUMPDEST PUSH2 0x1523 PUSH8 0x5C3BA6CE9DC9A2DD PUSH1 0xC0 SHL PUSH2 0x1C05 JUMP JUMPDEST PUSH2 0x1537 PUSH8 0x3853C22CF84B24FB PUSH1 0xC0 SHL PUSH2 0x1C05 JUMP JUMPDEST PUSH2 0x1542 DUP12 DUP9 DUP7 PUSH2 0x23CA JUMP JUMPDEST PUSH2 0x1556 PUSH8 0x5B1337609B7FCFEA PUSH1 0xC0 SHL PUSH2 0x1C05 JUMP JUMPDEST PUSH2 0x156A PUSH8 0xAAD6CC282EF96AD7 PUSH1 0xC0 SHL PUSH2 0x1C05 JUMP JUMPDEST DUP11 PUSH20 0xFFFFFFFFFFFFFFFFFFFFFFFFFFFFFFFFFFFFFFFF AND DUP13 PUSH20 0xFFFFFFFFFFFFFFFFFFFFFFFFFFFFFFFFFFFFFFFF AND CALLER PUSH20 0xFFFFFFFFFFFFFFFFFFFFFFFFFFFFFFFFFFFFFFFF AND PUSH32 0xD765E08EEF31C0983ECCA03ECD166297AC485ECD5DD69E291C848F0A020333C1 DUP9 DUP9 DUP16 PUSH1 0x40 MLOAD PUSH2 0x15E2 SWAP4 SWAP3 SWAP2 SWAP1 PUSH2 0x3E28 JUMP JUMPDEST PUSH1 0x40 MLOAD DUP1 SWAP2 SUB SWAP1 LOG4 PUSH2 0x15FE PUSH8 0x4448D952572F209C PUSH1 0xC0 SHL PUSH2 0x1C05 JUMP JUMPDEST PUSH2 0x1612 PUSH8 0x238611C007E046A PUSH1 0xC0 SHL PUSH2 0x1C05 JUMP JUMPDEST POP POP PUSH2 0x161C PUSH2 0x251E JUMP JUMPDEST POP SWAP8 POP SWAP8 SWAP6 POP POP POP POP POP POP JUMP JUMPDEST PUSH1 0x0 PUSH1 0x1 PUSH1 0x0 DUP5 PUSH20 0xFFFFFFFFFFFFFFFFFFFFFFFFFFFFFFFFFFFFFFFF AND PUSH20 0xFFFFFFFFFFFFFFFFFFFFFFFFFFFFFFFFFFFFFFFF AND DUP2 MSTORE PUSH1 0x20 ADD SWAP1 DUP2 MSTORE PUSH1 0x20 ADD PUSH1 0x0 KECCAK256 PUSH1 0x0 DUP4 PUSH20 0xFFFFFFFFFFFFFFFFFFFFFFFFFFFFFFFFFFFFFFFF AND PUSH20 0xFFFFFFFFFFFFFFFFFFFFFFFFFFFFFFFFFFFFFFFF AND DUP2 MSTORE PUSH1 0x20 ADD SWAP1 DUP2 MSTORE PUSH1 0x20 ADD PUSH1 0x0 KECCAK256 SLOAD SWAP1 POP SWAP3 SWAP2 POP POP JUMP JUMPDEST PUSH1 0x0 DUP1 PUSH1 0x0 PUSH2 0x16C9 PUSH8 0x2AEB0E4828D10EA6 PUSH1 0xC0 SHL PUSH2 0x1C05 JUMP JUMPDEST DUP4 PUSH2 0x16DE PUSH8 0x98BEEF8724399C0B PUSH1 0xC0 SHL PUSH2 0x1C05 JUMP JUMPDEST PUSH2 0x16F2 PUSH8 0x167CF81A3ED20FE8 PUSH1 0xC0 SHL PUSH2 0x1C05 JUMP JUMPDEST PUSH2 0x1706 PUSH8 0xD0B9DA5569CD7354 PUSH1 0xC0 SHL PUSH2 0x1C05 JUMP JUMPDEST PUSH2 0x171A PUSH8 0x3C9E9AFDE64C6E8 PUSH1 0xC0 SHL PUSH2 0x1C05 JUMP JUMPDEST TIMESTAMP DUP2 GT PUSH2 0x175C JUMPI PUSH1 0x40 MLOAD PUSH32 0x8C379A000000000000000000000000000000000000000000000000000000000 DUP2 MSTORE PUSH1 0x4 ADD PUSH2 0x1753 SWAP1 PUSH2 0x3F0B JUMP JUMPDEST PUSH1 0x40 MLOAD DUP1 SWAP2 SUB SWAP1 REVERT JUMPDEST PUSH2 0x1770 PUSH8 0xD8A33ED4DBB4E576 PUSH1 0xC0 SHL PUSH2 0x1C05 JUMP JUMPDEST PUSH2 0x1784 PUSH8 0x83F53AB5CCFA685F PUSH1 0xC0 SHL PUSH2 0x1C05 JUMP JUMPDEST PUSH2 0x1798 PUSH8 0x7071FEB4FB41FA66 PUSH1 0xC0 SHL PUSH2 0x1C05 JUMP JUMPDEST PUSH2 0x17AC PUSH8 0x9C1E916D9CB9FAED PUSH1 0xC0 SHL PUSH2 0x1C05 JUMP JUMPDEST PUSH2 0x17B4 PUSH2 0x1FA3 JUMP JUMPDEST PUSH2 0x17C8 PUSH8 0x725F315703B182F6 PUSH1 0xC0 SHL PUSH2 0x1C05 JUMP JUMPDEST PUSH2 0x17DC PUSH8 0x6A15C3D53AAC6A73 PUSH1 0xC0 SHL PUSH2 0x1C05 JUMP JUMPDEST PUSH2 0x17F0 PUSH8 0x6D1FE4C8AF6AE05E PUSH1 0xC0 SHL PUSH2 0x1C05 JUMP JUMPDEST PUSH2 0x1804 PUSH8 0x53232977FF841D00 PUSH1 0xC0 SHL PUSH2 0x1C05 JUMP JUMPDEST PUSH2 0x1818 PUSH8 0x4952862E8AB1D54B PUSH1 0xC0 SHL PUSH2 0x1C05 JUMP JUMPDEST DUP11 PUSH20 0xFFFFFFFFFFFFFFFFFFFFFFFFFFFFFFFFFFFFFFFF AND DUP13 PUSH20 0xFFFFFFFFFFFFFFFFFFFFFFFFFFFFFFFFFFFFFFFF AND SUB PUSH2 0x1886 JUMPI PUSH1 0x40 MLOAD PUSH32 0x8C379A000000000000000000000000000000000000000000000000000000000 DUP2 MSTORE PUSH1 0x4 ADD PUSH2 0x187D SWAP1 PUSH2 0x433D JUMP JUMPDEST PUSH1 0x40 MLOAD DUP1 SWAP2 SUB SWAP1 REVERT JUMPDEST PUSH2 0x189A PUSH8 0xC561340D15A80B94 PUSH1 0xC0 SHL PUSH2 0x1C05 JUMP JUMPDEST PUSH2 0x18AE PUSH8 0xA511ED25A7FCAA28 PUSH1 0xC0 SHL PUSH2 0x1C05 JUMP JUMPDEST PUSH2 0x18C2 PUSH8 0x6B1D20E5FD4BB7BF PUSH1 0xC0 SHL PUSH2 0x1C05 JUMP JUMPDEST PUSH1 0x0 DUP1 PUSH2 0x18CF DUP15 DUP15 PUSH2 0x26F7 JUMP JUMPDEST SWAP2 POP SWAP2 POP PUSH2 0x18E7 PUSH8 0xBDE5A7A6ADBE37F9 PUSH1 0xC0 SHL PUSH2 0x1C05 JUMP JUMPDEST PUSH2 0x18F5 DUP13 DUP13 DUP13 DUP13 DUP7 DUP7 PUSH2 0x29B2 JUMP JUMPDEST DUP1 SWAP7 POP DUP2 SWAP8 POP POP POP PUSH2 0x1911 PUSH8 0xAC0A0C465814509A PUSH1 0xC0 SHL PUSH2 0x1C05 JUMP JUMPDEST PUSH2 0x1925 PUSH8 0x75C634CA425C4EB2 PUSH1 0xC0 SHL PUSH2 0x1C05 JUMP JUMPDEST PUSH2 0x1939 PUSH8 0x8D81472B94CBFE75 PUSH1 0xC0 SHL PUSH2 0x1C05 JUMP JUMPDEST PUSH1 0x0 DUP7 EQ ISZERO DUP1 ISZERO PUSH2 0x194B JUMPI POP PUSH1 0x0 DUP6 EQ ISZERO JUMPDEST PUSH2 0x198A JUMPI PUSH1 0x40 MLOAD PUSH32 0x8C379A000000000000000000000000000000000000000000000000000000000 DUP2 MSTORE PUSH1 0x4 ADD PUSH2 0x1981 SWAP1 PUSH2 0x43A9 JUMP JUMPDEST PUSH1 0x40 MLOAD DUP1 SWAP2 SUB SWAP1 REVERT JUMPDEST PUSH2 0x199E PUSH8 0x136767281410F152 PUSH1 0xC0 SHL PUSH2 0x1C05 JUMP JUMPDEST PUSH2 0x19B2 PUSH8 0x5942FF0D494F58DB PUSH1 0xC0 SHL PUSH2 0x1C05 JUMP JUMPDEST PUSH2 0x19C6 PUSH8 0xA42B03FC1A35930 PUSH1 0xC0 SHL PUSH2 0x1C05 JUMP JUMPDEST PUSH2 0x19D2 DUP15 CALLER ADDRESS DUP10 PUSH2 0x2273 JUMP JUMPDEST PUSH2 0x19E6 PUSH8 0x8CAB5E0326CF64F7 PUSH1 0xC0 SHL PUSH2 0x1C05 JUMP JUMPDEST PUSH2 0x19FA PUSH8 0x9D35B12D5CC1A5B9 PUSH1 0xC0 SHL PUSH2 0x1C05 JUMP JUMPDEST PUSH2 0x1A06 DUP14 CALLER ADDRESS DUP9 PUSH2 0x2273 JUMP JUMPDEST PUSH2 0x1A1A PUSH8 0xB3F924AB9A43C423 PUSH1 0xC0 SHL PUSH2 0x1C05 JUMP JUMPDEST PUSH2 0x1A2E PUSH8 0x4F20008D8EA82D7B PUSH1 0xC0 SHL PUSH2 0x1C05 JUMP JUMPDEST PUSH2 0x1A3A DUP15 DUP15 DUP9 DUP9 PUSH2 0x2D39 JUMP JUMPDEST PUSH2 0x1A4E PUSH8 0xA54308CFEA5FDDB PUSH1 0xC0 SHL PUSH2 0x1C05 JUMP JUMPDEST PUSH2 0x1A62 DUP15 DUP15 DUP9 DUP9 PUSH2 0x1A5D PUSH2 0x57A JUMP JUMPDEST PUSH2 0x2E27 JUMP JUMPDEST SWAP4 POP PUSH2 0x1A78 PUSH8 0x3BD768B91244CCAB PUSH1 0xC0 SHL PUSH2 0x1C05 JUMP JUMPDEST PUSH2 0x1A8C PUSH8 0x5E76122687780E3F PUSH1 0xC0 SHL PUSH2 0x1C05 JUMP JUMPDEST PUSH2 0x1A96 DUP9 DUP6 PUSH2 0x2F23 JUMP JUMPDEST PUSH2 0x1AAA PUSH8 0xA1BA306CA82CA0A5 PUSH1 0xC0 SHL PUSH2 0x1C05 JUMP JUMPDEST PUSH2 0x1ABE PUSH8 0x806F4B1E584E7660 PUSH1 0xC0 SHL PUSH2 0x1C05 JUMP JUMPDEST DUP13 PUSH20 0xFFFFFFFFFFFFFFFFFFFFFFFFFFFFFFFFFFFFFFFF AND DUP15 PUSH20 0xFFFFFFFFFFFFFFFFFFFFFFFFFFFFFFFFFFFFFFFF AND CALLER PUSH20 0xFFFFFFFFFFFFFFFFFFFFFFFFFFFFFFFFFFFFFFFF AND PUSH32 0x43C967B388D3A4CCAD3F7AB80167852E322E5A3FDE9893F530252281B2AE8B70 DUP10 DUP10 DUP10 PUSH1 0x40 MLOAD PUSH2 0x1B36 SWAP4 SWAP3 SWAP2 SWAP1 PUSH2 0x3E28 JUMP JUMPDEST PUSH1 0x40 MLOAD DUP1 SWAP2 SUB SWAP1 LOG4 PUSH2 0x1B52 PUSH8 0xF8F2A17B6C99FE79 PUSH1 0xC0 SHL PUSH2 0x1C05 JUMP JUMPDEST PUSH2 0x1B66 PUSH8 0x57423A21C82A2694 PUSH1 0xC0 SHL PUSH2 0x1C05 JUMP JUMPDEST POP POP PUSH2 0x1B70 PUSH2 0x251E JUMP JUMPDEST POP SWAP9 POP SWAP9 POP SWAP9 SWAP6 POP POP POP POP POP POP JUMP JUMPDEST PUSH2 0x1B87 PUSH2 0x25AA JUMP JUMPDEST PUSH1 0x0 PUSH20 0xFFFFFFFFFFFFFFFFFFFFFFFFFFFFFFFFFFFFFFFF AND DUP2 PUSH20 0xFFFFFFFFFFFFFFFFFFFFFFFFFFFFFFFFFFFFFFFF AND SUB PUSH2 0x1BF9 JUMPI PUSH1 0x0 PUSH1 0x40 MLOAD PUSH32 0x1E4FBDF700000000000000000000000000000000000000000000000000000000 DUP2 MSTORE PUSH1 0x4 ADD PUSH2 0x1BF0 SWAP2 SWAP1 PUSH2 0x3C4C JUMP JUMPDEST PUSH1 0x40 MLOAD DUP1 SWAP2 SUB SWAP1 REVERT JUMPDEST PUSH2 0x1C02 DUP2 PUSH2 0x2631 JUMP JUMPDEST POP JUMP JUMPDEST POP JUMP JUMPDEST PUSH1 0x0 PUSH2 0x1C1E PUSH8 0xA17D8778F775DB33 PUSH1 0xC0 SHL PUSH2 0x1C05 JUMP JUMPDEST DUP3 DUP3 PUSH2 0x1C34 PUSH8 0x3798D119FAFFCFEB PUSH1 0xC0 SHL PUSH2 0x1C05 JUMP JUMPDEST PUSH2 0x1C48 PUSH8 0xF83BD4A8B9ABD927 PUSH1 0xC0 SHL PUSH2 0x1C05 JUMP JUMPDEST PUSH2 0x1C5C PUSH8 0x6F58D80F285BD633 PUSH1 0xC0 SHL PUSH2 0x1C05 JUMP JUMPDEST PUSH2 0x1C70 PUSH8 0x4C4413935B09E129 PUSH1 0xC0 SHL PUSH2 0x1C05 JUMP JUMPDEST PUSH1 0x0 DUP3 GT DUP1 ISZERO PUSH2 0x1C80 JUMPI POP PUSH1 0x0 DUP2 GT JUMPDEST PUSH2 0x1CBF JUMPI PUSH1 0x40 MLOAD PUSH32 0x8C379A000000000000000000000000000000000000000000000000000000000 DUP2 MSTORE PUSH1 0x4 ADD PUSH2 0x1CB6 SWAP1 PUSH2 0x4415 JUMP JUMPDEST PUSH1 0x40 MLOAD DUP1 SWAP2 SUB SWAP1 REVERT JUMPDEST PUSH2 0x1CD3 PUSH8 0x9BE85B8866CE5408 PUSH1 0xC0 SHL PUSH2 0x1C05 JUMP JUMPDEST PUSH2 0x1CE7 PUSH8 0x278AD0793E397D85 PUSH1 0xC0 SHL PUSH2 0x1C05 JUMP JUMPDEST PUSH2 0x1CFB PUSH8 0xCA175E44C68B4255 PUSH1 0xC0 SHL PUSH2 0x1C05 JUMP JUMPDEST PUSH2 0x1D0F PUSH8 0x246824D5445DBEC2 PUSH1 0xC0 SHL PUSH2 0x1C05 JUMP JUMPDEST PUSH2 0x1D23 PUSH8 0x9EADE68A218C8910 PUSH1 0xC0 SHL PUSH2 0x1C05 JUMP JUMPDEST PUSH2 0x1D37 PUSH8 0x5F872059C81CB703 PUSH1 0xC0 SHL PUSH2 0x1C05 JUMP JUMPDEST PUSH2 0x1D4B PUSH8 0x21A55E31DBCF8622 PUSH1 0xC0 SHL PUSH2 0x1C05 JUMP JUMPDEST PUSH1 0x0 DUP7 GT PUSH2 0x1D8E JUMPI PUSH1 0x40 MLOAD PUSH32 0x8C379A000000000000000000000000000000000000000000000000000000000 DUP2 MSTORE PUSH1 0x4 ADD PUSH2 0x1D85 SWAP1 PUSH2 0x4481 JUMP JUMPDEST PUSH1 0x40 MLOAD DUP1 SWAP2 SUB SWAP1 REVERT JUMPDEST PUSH2 0x1DA2 PUSH8 0xC8BA52FB97348935 PUSH1 0xC0 SHL PUSH2 0x1C05 JUMP JUMPDEST PUSH2 0x1DB6 PUSH8 0xD79FF5E2FC0EE663 PUSH1 0xC0 SHL PUSH2 0x1C05 JUMP JUMPDEST DUP5 DUP5 DUP8 PUSH2 0x1DC3 SWAP2 SWAP1 PUSH2 0x41E3 JUMP JUMPDEST PUSH2 0x1DCD SWAP2 SWAP1 PUSH2 0x4254 JUMP JUMPDEST SWAP3 POP PUSH2 0x1DE3 PUSH8 0x2C7899B591559413 PUSH1 0xC0 SHL PUSH2 0x1C05 JUMP JUMPDEST PUSH2 0x1DF7 PUSH8 0x7B3F28DE916E0DAC PUSH1 0xC0 SHL PUSH2 0x1C05 JUMP JUMPDEST POP POP SWAP4 SWAP3 POP POP POP JUMP JUMPDEST PUSH1 0x0 CALLER SWAP1 POP SWAP1 JUMP JUMPDEST PUSH2 0x1E15 DUP4 DUP4 DUP4 PUSH1 0x1 PUSH2 0x2FA5 JUMP JUMPDEST POP POP POP JUMP JUMPDEST PUSH1 0x0 PUSH2 0x1E26 DUP5 DUP5 PUSH2 0x1629 JUMP JUMPDEST SWAP1 POP PUSH32 0xFFFFFFFFFFFFFFFFFFFFFFFFFFFFFFFFFFFFFFFFFFFFFFFFFFFFFFFFFFFFFFFF DUP2 LT ISZERO PUSH2 0x1EA9 JUMPI DUP2 DUP2 LT ISZERO PUSH2 0x1E99 JUMPI DUP3 DUP2 DUP4 PUSH1 0x40 MLOAD PUSH32 0xFB8F41B200000000000000000000000000000000000000000000000000000000 DUP2 MSTORE PUSH1 0x4 ADD PUSH2 0x1E90 SWAP4 SWAP3 SWAP2 SWAP1 PUSH2 0x44A1 JUMP JUMPDEST PUSH1 0x40 MLOAD DUP1 SWAP2 SUB SWAP1 REVERT JUMPDEST PUSH2 0x1EA8 DUP5 DUP5 DUP5 DUP5 SUB PUSH1 0x0 PUSH2 0x2FA5 JUMP JUMPDEST JUMPDEST POP POP POP POP JUMP JUMPDEST PUSH1 0x0 PUSH20 0xFFFFFFFFFFFFFFFFFFFFFFFFFFFFFFFFFFFFFFFF AND DUP4 PUSH20 0xFFFFFFFFFFFFFFFFFFFFFFFFFFFFFFFFFFFFFFFF AND SUB PUSH2 0x1F21 JUMPI PUSH1 0x0 PUSH1 0x40 MLOAD PUSH32 0x96C6FD1E00000000000000000000000000000000000000000000000000000000 DUP2 MSTORE PUSH1 0x4 ADD PUSH2 0x1F18 SWAP2 SWAP1 PUSH2 0x3C4C JUMP JUMPDEST PUSH1 0x40 MLOAD DUP1 SWAP2 SUB SWAP1 REVERT JUMPDEST PUSH1 0x0 PUSH20 0xFFFFFFFFFFFFFFFFFFFFFFFFFFFFFFFFFFFFFFFF AND DUP3 PUSH20 0xFFFFFFFFFFFFFFFFFFFFFFFFFFFFFFFFFFFFFFFF AND SUB PUSH2 0x1F93 JUMPI PUSH1 0x0 PUSH1 0x40 MLOAD PUSH32 0xEC442F0500000000000000000000000000000000000000000000000000000000 DUP2 MSTORE PUSH1 0x4 ADD PUSH2 0x1F8A SWAP2 SWAP1 PUSH2 0x3C4C JUMP JUMPDEST PUSH1 0x40 MLOAD DUP1 SWAP2 SUB SWAP1 REVERT JUMPDEST PUSH2 0x1F9E DUP4 DUP4 DUP4 PUSH2 0x317C JUMP JUMPDEST POP POP POP JUMP JUMPDEST PUSH1 0x2 PUSH1 0x5 SLOAD SUB PUSH2 0x1FDF JUMPI PUSH1 0x40 MLOAD PUSH32 0x3EE5AEB500000000000000000000000000000000000000000000000000000000 DUP2 MSTORE PUSH1 0x4 ADD PUSH1 0x40 MLOAD DUP1 SWAP2 SUB SWAP1 REVERT JUMPDEST PUSH1 0x2 PUSH1 0x5 DUP2 SWAP1 SSTORE POP JUMP JUMPDEST PUSH1 0x60 PUSH2 0x1FFF PUSH8 0xB3AE5609FCD77635 PUSH1 0xC0 SHL PUSH2 0x1C05 JUMP JUMPDEST DUP2 PUSH2 0x2014 PUSH8 0x7F3EBF4141A62A84 PUSH1 0xC0 SHL PUSH2 0x1C05 JUMP JUMPDEST PUSH2 0x2028 PUSH8 0x6A3CC7CCD4B4099A PUSH1 0xC0 SHL PUSH2 0x1C05 JUMP JUMPDEST PUSH2 0x203C PUSH8 0x72ADA1136CFB181 PUSH1 0xC0 SHL PUSH2 0x1C05 JUMP JUMPDEST PUSH2 0x2050 PUSH8 0x9D893B3DE856F295 PUSH1 0xC0 SHL PUSH2 0x1C05 JUMP JUMPDEST PUSH1 0x2 DUP2 MLOAD EQ PUSH2 0x2094 JUMPI PUSH1 0x40 MLOAD PUSH32 0x8C379A000000000000000000000000000000000000000000000000000000000 DUP2 MSTORE PUSH1 0x4 ADD PUSH2 0x208B SWAP1 PUSH2 0x3F77 JUMP JUMPDEST PUSH1 0x40 MLOAD DUP1 SWAP2 SUB SWAP1 REVERT JUMPDEST PUSH2 0x20A8 PUSH8 0x4FB131068698A1F8 PUSH1 0xC0 SHL PUSH2 0x1C05 JUMP JUMPDEST PUSH2 0x20BC PUSH8 0x1F40DD99A27CB28C PUSH1 0xC0 SHL PUSH2 0x1C05 JUMP JUMPDEST PUSH2 0x20D0 PUSH8 0xF8D6849695E7CD65 PUSH1 0xC0 SHL PUSH2 0x1C05 JUMP JUMPDEST PUSH2 0x20E4 PUSH8 0xCDF4587BD984D87C PUSH1 0xC0 SHL PUSH2 0x1C05 JUMP JUMPDEST PUSH2 0x20F8 PUSH8 0x4B4CFBEF3B636EC3 PUSH1 0xC0 SHL PUSH2 0x1C05 JUMP JUMPDEST DUP3 MLOAD PUSH8 0xFFFFFFFFFFFFFFFF DUP2 GT ISZERO PUSH2 0x2113 JUMPI PUSH2 0x2112 PUSH2 0x44D8 JUMP JUMPDEST JUMPDEST PUSH1 0x40 MLOAD SWAP1 DUP1 DUP3 MSTORE DUP1 PUSH1 0x20 MUL PUSH1 0x20 ADD DUP3 ADD PUSH1 0x40 MSTORE DUP1 ISZERO PUSH2 0x2141 JUMPI DUP2 PUSH1 0x20 ADD PUSH1 0x20 DUP3 MUL DUP1 CALLDATASIZE DUP4 CALLDATACOPY DUP1 DUP3 ADD SWAP2 POP POP SWAP1 POP JUMPDEST POP SWAP2 POP PUSH2 0x2158 PUSH8 0x74E9A46BA7553F23 PUSH1 0xC0 SHL PUSH2 0x1C05 JUMP JUMPDEST DUP4 DUP3 PUSH1 0x0 DUP2 MLOAD DUP2 LT PUSH2 0x216D JUMPI PUSH2 0x216C PUSH2 0x3F97 JUMP JUMPDEST JUMPDEST PUSH1 0x20 MUL PUSH1 0x20 ADD ADD DUP2 DUP2 MSTORE POP POP PUSH2 0x218D PUSH8 0x1A8432194771992C PUSH1 0xC0 SHL PUSH2 0x1C05 JUMP JUMPDEST PUSH2 0x21A1 PUSH8 0x54A907154853F5D3 PUSH1 0xC0 SHL PUSH2 0x1C05 JUMP JUMPDEST PUSH1 0x0 DUP1 PUSH2 0x21E4 DUP6 PUSH1 0x0 DUP2 MLOAD DUP2 LT PUSH2 0x21BB JUMPI PUSH2 0x21BA PUSH2 0x3F97 JUMP JUMPDEST JUMPDEST PUSH1 0x20 MUL PUSH1 0x20 ADD ADD MLOAD DUP7 PUSH1 0x1 DUP2 MLOAD DUP2 LT PUSH2 0x21D7 JUMPI PUSH2 0x21D6 PUSH2 0x3F97 JUMP JUMPDEST JUMPDEST PUSH1 0x20 MUL PUSH1 0x20 ADD ADD MLOAD PUSH2 0x26F7 JUMP JUMPDEST SWAP2 POP SWAP2 POP PUSH2 0x21FC PUSH8 0x1D09E982A19DE5C4 PUSH1 0xC0 SHL PUSH2 0x1C05 JUMP JUMPDEST PUSH2 0x2222 DUP5 PUSH1 0x0 DUP2 MLOAD DUP2 LT PUSH2 0x2213 JUMPI PUSH2 0x2212 PUSH2 0x3F97 JUMP JUMPDEST JUMPDEST PUSH1 0x20 MUL PUSH1 0x20 ADD ADD MLOAD DUP4 DUP4 PUSH2 0x1C08 JUMP JUMPDEST DUP5 PUSH1 0x1 DUP2 MLOAD DUP2 LT PUSH2 0x2236 JUMPI PUSH2 0x2235 PUSH2 0x3F97 JUMP JUMPDEST JUMPDEST PUSH1 0x20 MUL PUSH1 0x20 ADD ADD DUP2 DUP2 MSTORE POP POP PUSH2 0x2256 PUSH8 0xB5F4BABFD8E52232 PUSH1 0xC0 SHL PUSH2 0x1C05 JUMP JUMPDEST PUSH2 0x226A PUSH8 0xC45BD7CEF8C51C64 PUSH1 0xC0 SHL PUSH2 0x1C05 JUMP JUMPDEST POP POP POP SWAP3 SWAP2 POP POP JUMP JUMPDEST PUSH2 0x2287 PUSH8 0x1A411C6F9507963B PUSH1 0xC0 SHL PUSH2 0x1C05 JUMP JUMPDEST PUSH2 0x229B PUSH8 0xB248F97F9AAFD9C1 PUSH1 0xC0 SHL PUSH2 0x1C05 JUMP JUMPDEST PUSH2 0x22AF PUSH8 0x837E896497660CA PUSH1 0xC0 SHL PUSH2 0x1C05 JUMP JUMPDEST PUSH1 0x0 DUP5 PUSH20 0xFFFFFFFFFFFFFFFFFFFFFFFFFFFFFFFFFFFFFFFF AND PUSH4 0x23B872DD DUP6 DUP6 DUP6 PUSH1 0x40 MLOAD DUP5 PUSH4 0xFFFFFFFF AND PUSH1 0xE0 SHL DUP2 MSTORE PUSH1 0x4 ADD PUSH2 0x22EE SWAP4 SWAP3 SWAP2 SWAP1 PUSH2 0x4507 JUMP JUMPDEST PUSH1 0x20 PUSH1 0x40 MLOAD DUP1 DUP4 SUB DUP2 PUSH1 0x0 DUP8 GAS CALL ISZERO DUP1 ISZERO PUSH2 0x230D JUMPI RETURNDATASIZE PUSH1 0x0 DUP1 RETURNDATACOPY RETURNDATASIZE PUSH1 0x0 REVERT JUMPDEST POP POP POP POP PUSH1 0x40 MLOAD RETURNDATASIZE PUSH1 0x1F NOT PUSH1 0x1F DUP3 ADD AND DUP3 ADD DUP1 PUSH1 0x40 MSTORE POP DUP2 ADD SWAP1 PUSH2 0x2331 SWAP2 SWAP1 PUSH2 0x456A JUMP JUMPDEST SWAP1 POP PUSH2 0x2347 PUSH8 0xA72C1DE98A3E10E9 PUSH1 0xC0 SHL PUSH2 0x1C05 JUMP JUMPDEST PUSH2 0x235B PUSH8 0xF64AB210E9E907FA PUSH1 0xC0 SHL PUSH2 0x1C05 JUMP JUMPDEST PUSH2 0x236F PUSH8 0x7A634688DEC64E1D PUSH1 0xC0 SHL PUSH2 0x1C05 JUMP JUMPDEST DUP1 PUSH2 0x23AF JUMPI PUSH1 0x40 MLOAD PUSH32 0x8C379A000000000000000000000000000000000000000000000000000000000 DUP2 MSTORE PUSH1 0x4 ADD PUSH2 0x23A6 SWAP1 PUSH2 0x45E3 JUMP JUMPDEST PUSH1 0x40 MLOAD DUP1 SWAP2 SUB SWAP1 REVERT JUMPDEST PUSH2 0x23C3 PUSH8 0x61081932B446B622 PUSH1 0xC0 SHL PUSH2 0x1C05 JUMP JUMPDEST POP POP POP POP POP JUMP JUMPDEST PUSH2 0x23DE PUSH8 0x916E04CCAAC4A64 PUSH1 0xC0 SHL PUSH2 0x1C05 JUMP JUMPDEST PUSH2 0x23F2 PUSH8 0xEE9B4D885AE7875C PUSH1 0xC0 SHL PUSH2 0x1C05 JUMP JUMPDEST PUSH2 0x2406 PUSH8 0x2F8A80FBFDE38A88 PUSH1 0xC0 SHL PUSH2 0x1C05 JUMP JUMPDEST PUSH1 0x0 DUP4 PUSH20 0xFFFFFFFFFFFFFFFFFFFFFFFFFFFFFFFFFFFFFFFF AND PUSH4 0xA9059CBB DUP5 DUP5 PUSH1 0x40 MLOAD DUP4 PUSH4 0xFFFFFFFF AND PUSH1 0xE0 SHL DUP2 MSTORE PUSH1 0x4 ADD PUSH2 0x2443 SWAP3 SWAP2 SWAP1 PUSH2 0x4603 JUMP JUMPDEST PUSH1 0x20 PUSH1 0x40 MLOAD DUP1 DUP4 SUB DUP2 PUSH1 0x0 DUP8 GAS CALL ISZERO DUP1 ISZERO PUSH2 0x2462 JUMPI RETURNDATASIZE PUSH1 0x0 DUP1 RETURNDATACOPY RETURNDATASIZE PUSH1 0x0 REVERT JUMPDEST POP POP POP POP PUSH1 0x40 MLOAD RETURNDATASIZE PUSH1 0x1F NOT PUSH1 0x1F DUP3 ADD AND DUP3 ADD DUP1 PUSH1 0x40 MSTORE POP DUP2 ADD SWAP1 PUSH2 0x2486 SWAP2 SWAP1 PUSH2 0x456A JUMP JUMPDEST SWAP1 POP PUSH2 0x249C PUSH8 0x4D18D06B093E2734 PUSH1 0xC0 SHL PUSH2 0x1C05 JUMP JUMPDEST PUSH2 0x24B0 PUSH8 0x97E32177A7486B0E PUSH1 0xC0 SHL PUSH2 0x1C05 JUMP JUMPDEST PUSH2 0x24C4 PUSH8 0x85566F06335473F0 PUSH1 0xC0 SHL PUSH2 0x1C05 JUMP JUMPDEST DUP1 PUSH2 0x2504 JUMPI PUSH1 0x40 MLOAD PUSH32 0x8C379A000000000000000000000000000000000000000000000000000000000 DUP2 MSTORE PUSH1 0x4 ADD PUSH2 0x24FB SWAP1 PUSH2 0x45E3 JUMP JUMPDEST PUSH1 0x40 MLOAD DUP1 SWAP2 SUB SWAP1 REVERT JUMPDEST PUSH2 0x2518 PUSH8 0x9EA8EB6A82379D04 PUSH1 0xC0 SHL PUSH2 0x1C05 JUMP JUMPDEST POP POP POP POP JUMP JUMPDEST PUSH1 0x1 PUSH1 0x5 DUP2 SWAP1 SSTORE POP JUMP JUMPDEST PUSH1 0x0 PUSH20 0xFFFFFFFFFFFFFFFFFFFFFFFFFFFFFFFFFFFFFFFF AND DUP3 PUSH20 0xFFFFFFFFFFFFFFFFFFFFFFFFFFFFFFFFFFFFFFFF AND SUB PUSH2 0x259A JUMPI PUSH1 0x0 PUSH1 0x40 MLOAD PUSH32 0x96C6FD1E00000000000000000000000000000000000000000000000000000000 DUP2 MSTORE PUSH1 0x4 ADD PUSH2 0x2591 SWAP2 SWAP1 PUSH2 0x3C4C JUMP JUMPDEST PUSH1 0x40 MLOAD DUP1 SWAP2 SUB SWAP1 REVERT JUMPDEST PUSH2 0x25A6 DUP3 PUSH1 0x0 DUP4 PUSH2 0x317C JUMP JUMPDEST POP POP JUMP JUMPDEST PUSH2 0x25B2 PUSH2 0x1E00 JUMP JUMPDEST PUSH20 0xFFFFFFFFFFFFFFFFFFFFFFFFFFFFFFFFFFFFFFFF AND PUSH2 0x25D0 PUSH2 0xE4C JUMP JUMPDEST PUSH20 0xFFFFFFFFFFFFFFFFFFFFFFFFFFFFFFFFFFFFFFFF AND EQ PUSH2 0x262F JUMPI PUSH2 0x25F3 PUSH2 0x1E00 JUMP JUMPDEST PUSH1 0x40 MLOAD PUSH32 0x118CDAA700000000000000000000000000000000000000000000000000000000 DUP2 MSTORE PUSH1 0x4 ADD PUSH2 0x2626 SWAP2 SWAP1 PUSH2 0x3C4C JUMP JUMPDEST PUSH1 0x40 MLOAD DUP1 SWAP2 SUB SWAP1 REVERT JUMPDEST JUMP JUMPDEST PUSH1 0x0 PUSH1 0x6 PUSH1 0x0 SWAP1 SLOAD SWAP1 PUSH2 0x100 EXP SWAP1 DIV PUSH20 0xFFFFFFFFFFFFFFFFFFFFFFFFFFFFFFFFFFFFFFFF AND SWAP1 POP DUP2 PUSH1 0x6 PUSH1 0x0 PUSH2 0x100 EXP DUP2 SLOAD DUP2 PUSH20 0xFFFFFFFFFFFFFFFFFFFFFFFFFFFFFFFFFFFFFFFF MUL NOT AND SWAP1 DUP4 PUSH20 0xFFFFFFFFFFFFFFFFFFFFFFFFFFFFFFFFFFFFFFFF AND MUL OR SWAP1 SSTORE POP DUP2 PUSH20 0xFFFFFFFFFFFFFFFFFFFFFFFFFFFFFFFFFFFFFFFF AND DUP2 PUSH20 0xFFFFFFFFFFFFFFFFFFFFFFFFFFFFFFFFFFFFFFFF AND PUSH32 0x8BE0079C531659141344CD1FD0A4F28419497F9722A3DAAFE3B4186F6B6457E0 PUSH1 0x40 MLOAD PUSH1 0x40 MLOAD DUP1 SWAP2 SUB SWAP1 LOG3 POP POP JUMP JUMPDEST PUSH1 0x0 DUP1 PUSH2 0x270E PUSH8 0x229DF968B0921FBD PUSH1 0xC0 SHL PUSH2 0x1C05 JUMP JUMPDEST PUSH2 0x2722 PUSH8 0x92813401921FFF03 PUSH1 0xC0 SHL PUSH2 0x1C05 JUMP JUMPDEST PUSH1 0x7 PUSH1 0x0 DUP6 PUSH20 0xFFFFFFFFFFFFFFFFFFFFFFFFFFFFFFFFFFFFFFFF AND PUSH20 0xFFFFFFFFFFFFFFFFFFFFFFFFFFFFFFFFFFFFFFFF AND DUP2 MSTORE PUSH1 0x20 ADD SWAP1 DUP2 MSTORE PUSH1 0x20 ADD PUSH1 0x0 KECCAK256 SLOAD SWAP2 POP PUSH2 0x2778 PUSH8 0xBA4CB43791568F85 PUSH1 0xC0 SHL PUSH2 0x1C05 JUMP JUMPDEST PUSH1 0x7 PUSH1 0x0 DUP5 PUSH20 0xFFFFFFFFFFFFFFFFFFFFFFFFFFFFFFFFFFFFFFFF AND PUSH20 0xFFFFFFFFFFFFFFFFFFFFFFFFFFFFFFFFFFFFFFFF AND DUP2 MSTORE PUSH1 0x20 ADD SWAP1 DUP2 MSTORE PUSH1 0x20 ADD PUSH1 0x0 KECCAK256 SLOAD SWAP1 POP PUSH2 0x27CE PUSH8 0xEB084ABB294157A3 PUSH1 0xC0 SHL PUSH2 0x1C05 JUMP JUMPDEST PUSH2 0x27E2 PUSH8 0x88032756139F09C7 PUSH1 0xC0 SHL PUSH2 0x1C05 JUMP JUMPDEST SWAP3 POP SWAP3 SWAP1 POP JUMP JUMPDEST PUSH1 0x0 DUP1 PUSH2 0x2800 PUSH8 0x2389F6D72FB97732 PUSH1 0xC0 SHL PUSH2 0x1C05 JUMP JUMPDEST DUP4 DUP4 PUSH2 0x2816 PUSH8 0x3798D119FAFFCFEB PUSH1 0xC0 SHL PUSH2 0x1C05 JUMP JUMPDEST PUSH2 0x282A PUSH8 0xF83BD4A8B9ABD927 PUSH1 0xC0 SHL PUSH2 0x1C05 JUMP JUMPDEST PUSH2 0x283E PUSH8 0x6F58D80F285BD633 PUSH1 0xC0 SHL PUSH2 0x1C05 JUMP JUMPDEST PUSH2 0x2852 PUSH8 0x4C4413935B09E129 PUSH1 0xC0 SHL PUSH2 0x1C05 JUMP JUMPDEST PUSH1 0x0 DUP3 GT DUP1 ISZERO PUSH2 0x2862 JUMPI POP PUSH1 0x0 DUP2 GT JUMPDEST PUSH2 0x28A1 JUMPI PUSH1 0x40 MLOAD PUSH32 0x8C379A000000000000000000000000000000000000000000000000000000000 DUP2 MSTORE PUSH1 0x4 ADD PUSH2 0x2898 SWAP1 PUSH2 0x4415 JUMP JUMPDEST PUSH1 0x40 MLOAD DUP1 SWAP2 SUB SWAP1 REVERT JUMPDEST PUSH2 0x28B5 PUSH8 0x9BE85B8866CE5408 PUSH1 0xC0 SHL PUSH2 0x1C05 JUMP JUMPDEST PUSH2 0x28C9 PUSH8 0x278AD0793E397D85 PUSH1 0xC0 SHL PUSH2 0x1C05 JUMP JUMPDEST PUSH2 0x28DD PUSH8 0xF8F543283B7B1EBA PUSH1 0xC0 SHL PUSH2 0x1C05 JUMP JUMPDEST PUSH2 0x28F1 PUSH8 0xBD13413597166DDF PUSH1 0xC0 SHL PUSH2 0x1C05 JUMP JUMPDEST PUSH2 0x2905 PUSH8 0x4C41BD7BC7D841C5 PUSH1 0xC0 SHL PUSH2 0x1C05 JUMP JUMPDEST PUSH2 0x2919 PUSH8 0x14FEB8AB553475F PUSH1 0xC0 SHL PUSH2 0x1C05 JUMP JUMPDEST PUSH1 0x0 PUSH2 0x2923 PUSH2 0x57A JUMP JUMPDEST SWAP1 POP PUSH2 0x2939 PUSH8 0x57C8882179285BD9 PUSH1 0xC0 SHL PUSH2 0x1C05 JUMP JUMPDEST DUP1 DUP8 DUP10 PUSH2 0x2946 SWAP2 SWAP1 PUSH2 0x41E3 JUMP JUMPDEST PUSH2 0x2950 SWAP2 SWAP1 PUSH2 0x4254 JUMP JUMPDEST SWAP5 POP PUSH2 0x2966 PUSH8 0x7733D06353F9DEB5 PUSH1 0xC0 SHL PUSH2 0x1C05 JUMP JUMPDEST DUP1 DUP7 DUP10 PUSH2 0x2973 SWAP2 SWAP1 PUSH2 0x41E3 JUMP JUMPDEST PUSH2 0x297D SWAP2 SWAP1 PUSH2 0x4254 JUMP JUMPDEST SWAP4 POP PUSH2 0x2993 PUSH8 0x30C320DD4FAFE518 PUSH1 0xC0 SHL PUSH2 0x1C05 JUMP JUMPDEST PUSH2 0x29A7 PUSH8 0x7F4DCCD95031AA0 PUSH1 0xC0 SHL PUSH2 0x1C05 JUMP JUMPDEST POP POP POP SWAP4 POP SWAP4 SWAP2 POP POP JUMP JUMPDEST PUSH1 0x0 DUP1 PUSH2 0x29C9 PUSH8 0x992BB06846FED28F PUSH1 0xC0 SHL PUSH2 0x1C05 JUMP JUMPDEST PUSH2 0x29DD PUSH8 0x860E2936E302CAAE PUSH1 0xC0 SHL PUSH2 0x1C05 JUMP JUMPDEST PUSH2 0x29F1 PUSH8 0x6F0C43A3935570D5 PUSH1 0xC0 SHL PUSH2 0x1C05 JUMP JUMPDEST PUSH1 0x0 PUSH2 0x2A07 PUSH8 0xD993AC161953B4DC PUSH1 0xC0 SHL PUSH2 0x1C05 JUMP JUMPDEST PUSH2 0x2A1B PUSH8 0x9D52261A2CCF7C5D PUSH1 0xC0 SHL PUSH2 0x1C05 JUMP JUMPDEST PUSH1 0x0 PUSH2 0x2A31 PUSH8 0x6F13025084CFFB1 PUSH1 0xC0 SHL PUSH2 0x1C05 JUMP JUMPDEST PUSH2 0x2A45 PUSH8 0x53F1E06EDFC98CDF PUSH1 0xC0 SHL PUSH2 0x1C05 JUMP JUMPDEST PUSH1 0x0 DUP7 EQ DUP1 ISZERO PUSH2 0x2A55 JUMPI POP PUSH1 0x0 DUP6 EQ JUMPDEST ISZERO PUSH2 0x2A91 JUMPI PUSH2 0x2A6E PUSH8 0x6F3D9A105E131105 PUSH1 0xC0 SHL PUSH2 0x1C05 JUMP JUMPDEST PUSH2 0x2A82 PUSH8 0xB20CD6F46003D3D7 PUSH1 0xC0 SHL PUSH2 0x1C05 JUMP JUMPDEST DUP10 DUP10 DUP1 SWAP5 POP DUP2 SWAP6 POP POP POP PUSH2 0x2D04 JUMP JUMPDEST PUSH2 0x2AA5 PUSH8 0xF7DF6BC3444A3768 PUSH1 0xC0 SHL PUSH2 0x1C05 JUMP JUMPDEST PUSH2 0x2AB9 PUSH8 0x894AB39BE5AD1FB4 PUSH1 0xC0 SHL PUSH2 0x1C05 JUMP JUMPDEST PUSH2 0x2AC4 DUP11 DUP8 DUP8 PUSH2 0x1C08 JUMP JUMPDEST SWAP1 POP PUSH2 0x2ADA PUSH8 0x8C11120B09FA142C PUSH1 0xC0 SHL PUSH2 0x1C05 JUMP JUMPDEST PUSH2 0x2AEE PUSH8 0xC6DCC0989E62CFC8 PUSH1 0xC0 SHL PUSH2 0x1C05 JUMP JUMPDEST DUP9 DUP2 GT PUSH2 0x2BBF JUMPI PUSH2 0x2B09 PUSH8 0x2C7C15981D6B6997 PUSH1 0xC0 SHL PUSH2 0x1C05 JUMP JUMPDEST PUSH2 0x2B1D PUSH8 0x5B3C74D65C259D30 PUSH1 0xC0 SHL PUSH2 0x1C05 JUMP JUMPDEST PUSH2 0x2B31 PUSH8 0xB26E40A38532BB9B PUSH1 0xC0 SHL PUSH2 0x1C05 JUMP JUMPDEST PUSH2 0x2B45 PUSH8 0x1B2DD8AA00458900 PUSH1 0xC0 SHL PUSH2 0x1C05 JUMP JUMPDEST DUP7 DUP2 LT ISZERO PUSH2 0x2B88 JUMPI PUSH1 0x40 MLOAD PUSH32 0x8C379A000000000000000000000000000000000000000000000000000000000 DUP2 MSTORE PUSH1 0x4 ADD PUSH2 0x2B7F SWAP1 PUSH2 0x4678 JUMP JUMPDEST PUSH1 0x40 MLOAD DUP1 SWAP2 SUB SWAP1 REVERT JUMPDEST PUSH2 0x2B9C PUSH8 0xF3468D403617DE4B PUSH1 0xC0 SHL PUSH2 0x1C05 JUMP JUMPDEST PUSH2 0x2BB0 PUSH8 0x36E63E4E38205FE4 PUSH1 0xC0 SHL PUSH2 0x1C05 JUMP JUMPDEST DUP10 DUP2 DUP1 SWAP5 POP DUP2 SWAP6 POP POP POP PUSH2 0x2D03 JUMP JUMPDEST PUSH2 0x2BD3 PUSH8 0x12FEE7324AAA9C09 PUSH1 0xC0 SHL PUSH2 0x1C05 JUMP JUMPDEST PUSH2 0x2BE7 PUSH8 0x523DF4F5420DBA58 PUSH1 0xC0 SHL PUSH2 0x1C05 JUMP JUMPDEST PUSH2 0x2BF2 DUP10 DUP7 DUP9 PUSH2 0x1C08 JUMP JUMPDEST SWAP2 POP PUSH2 0x2C08 PUSH8 0xDF2EB3EBAB6918F5 PUSH1 0xC0 SHL PUSH2 0x1C05 JUMP JUMPDEST PUSH2 0x2C1C PUSH8 0x86578B0BCC4CEDBF PUSH1 0xC0 SHL PUSH2 0x1C05 JUMP JUMPDEST DUP10 DUP3 GT PUSH2 0x2CED JUMPI PUSH2 0x2C37 PUSH8 0x5A1ED0CE21669773 PUSH1 0xC0 SHL PUSH2 0x1C05 JUMP JUMPDEST PUSH2 0x2C4B PUSH8 0x346F21C3F71FE6A5 PUSH1 0xC0 SHL PUSH2 0x1C05 JUMP JUMPDEST PUSH2 0x2C5F PUSH8 0xC51DB4323462B668 PUSH1 0xC0 SHL PUSH2 0x1C05 JUMP JUMPDEST PUSH2 0x2C73 PUSH8 0x4011C9E209BA6605 PUSH1 0xC0 SHL PUSH2 0x1C05 JUMP JUMPDEST DUP8 DUP3 LT ISZERO PUSH2 0x2CB6 JUMPI PUSH1 0x40 MLOAD PUSH32 0x8C379A000000000000000000000000000000000000000000000000000000000 DUP2 MSTORE PUSH1 0x4 ADD PUSH2 0x2CAD SWAP1 PUSH2 0x46E4 JUMP JUMPDEST PUSH1 0x40 MLOAD DUP1 SWAP2 SUB SWAP1 REVERT JUMPDEST PUSH2 0x2CCA PUSH8 0x4DBE750BE309B856 PUSH1 0xC0 SHL PUSH2 0x1C05 JUMP JUMPDEST PUSH2 0x2CDE PUSH8 0xD26CE3DBCD76E772 PUSH1 0xC0 SHL PUSH2 0x1C05 JUMP JUMPDEST DUP2 DUP10 DUP1 SWAP5 POP DUP2 SWAP6 POP POP POP PUSH2 0x2D02 JUMP JUMPDEST PUSH2 0x2D01 PUSH8 0x394ABA989D2DD804 PUSH1 0xC0 SHL PUSH2 0x1C05 JUMP JUMPDEST JUMPDEST JUMPDEST JUMPDEST PUSH2 0x2D18 PUSH8 0xE1E2992E0A6B6A4A PUSH1 0xC0 SHL PUSH2 0x1C05 JUMP JUMPDEST PUSH2 0x2D2C PUSH8 0xB01B2FA3E074EFD1 PUSH1 0xC0 SHL PUSH2 0x1C05 JUMP JUMPDEST POP POP SWAP7 POP SWAP7 SWAP5 POP POP POP POP POP JUMP JUMPDEST PUSH2 0x2D4D PUSH8 0x58E6DDBF3C24D114 PUSH1 0xC0 SHL PUSH2 0x1C05 JUMP JUMPDEST PUSH2 0x2D61 PUSH8 0xAEDF52E31F026904 PUSH1 0xC0 SHL PUSH2 0x1C05 JUMP JUMPDEST DUP2 PUSH1 0x7 PUSH1 0x0 DUP7 PUSH20 0xFFFFFFFFFFFFFFFFFFFFFFFFFFFFFFFFFFFFFFFF AND PUSH20 0xFFFFFFFFFFFFFFFFFFFFFFFFFFFFFFFFFFFFFFFF AND DUP2 MSTORE PUSH1 0x20 ADD SWAP1 DUP2 MSTORE PUSH1 0x20 ADD PUSH1 0x0 KECCAK256 PUSH1 0x0 DUP3 DUP3 SLOAD PUSH2 0x2DB0 SWAP2 SWAP1 PUSH2 0x40CD JUMP JUMPDEST SWAP3 POP POP DUP2 SWAP1 SSTORE POP PUSH2 0x2DCB PUSH8 0xAE42B729EE45E62D PUSH1 0xC0 SHL PUSH2 0x1C05 JUMP JUMPDEST DUP1 PUSH1 0x7 PUSH1 0x0 DUP6 PUSH20 0xFFFFFFFFFFFFFFFFFFFFFFFFFFFFFFFFFFFFFFFF AND PUSH20 0xFFFFFFFFFFFFFFFFFFFFFFFFFFFFFFFFFFFFFFFF AND DUP2 MSTORE PUSH1 0x20 ADD SWAP1 DUP2 MSTORE PUSH1 0x20 ADD PUSH1 0x0 KECCAK256 PUSH1 0x0 DUP3 DUP3 SLOAD PUSH2 0x2E1A SWAP2 SWAP1 PUSH2 0x40CD JUMP JUMPDEST SWAP3 POP POP DUP2 SWAP1 SSTORE POP POP POP POP POP JUMP JUMPDEST PUSH1 0x0 PUSH2 0x2E3D PUSH8 0xA37FD826B40D9D30 PUSH1 0xC0 SHL PUSH2 0x1C05 JUMP JUMPDEST PUSH2 0x2E51 PUSH8 0x29AC3DD800244108 PUSH1 0xC0 SHL PUSH2 0x1C05 JUMP JUMPDEST PUSH2 0x2E65 PUSH8 0x97F90B63A6C5AEEA PUSH1 0xC0 SHL PUSH2 0x1C05 JUMP JUMPDEST PUSH1 0x0 DUP3 SUB PUSH2 0x2EB0 JUMPI PUSH2 0x2E81 PUSH8 0xE000F9BF292129E PUSH1 0xC0 SHL PUSH2 0x1C05 JUMP JUMPDEST PUSH2 0x2E95 PUSH8 0xA89907DEE0B1ECFF PUSH1 0xC0 SHL PUSH2 0x1C05 JUMP JUMPDEST PUSH2 0x2EA9 DUP4 DUP6 PUSH2 0x2EA4 SWAP2 SWAP1 PUSH2 0x41E3 JUMP JUMPDEST PUSH2 0x33A1 JUMP JUMPDEST SWAP1 POP PUSH2 0x2EF2 JUMP JUMPDEST PUSH2 0x2EC4 PUSH8 0x5B5E758128EDD914 PUSH1 0xC0 SHL PUSH2 0x1C05 JUMP JUMPDEST PUSH2 0x2ED8 PUSH8 0x59D119F553DD8966 PUSH1 0xC0 SHL PUSH2 0x1C05 JUMP JUMPDEST DUP2 PUSH2 0x2EE5 DUP8 DUP8 DUP8 DUP8 PUSH2 0x3560 JUMP JUMPDEST PUSH2 0x2EEF SWAP2 SWAP1 PUSH2 0x41E3 JUMP JUMPDEST SWAP1 POP JUMPDEST PUSH2 0x2F06 PUSH8 0x68F1A021433C33C3 PUSH1 0xC0 SHL PUSH2 0x1C05 JUMP JUMPDEST PUSH2 0x2F1A PUSH8 0x7AC920647948B6A2 PUSH1 0xC0 SHL PUSH2 0x1C05 JUMP JUMPDEST SWAP6 SWAP5 POP POP POP POP POP JUMP JUMPDEST PUSH1 0x0 PUSH20 0xFFFFFFFFFFFFFFFFFFFFFFFFFFFFFFFFFFFFFFFF AND DUP3 PUSH20 0xFFFFFFFFFFFFFFFFFFFFFFFFFFFFFFFFFFFFFFFF AND SUB PUSH2 0x2F95 JUMPI PUSH1 0x0 PUSH1 0x40 MLOAD PUSH32 0xEC442F0500000000000000000000000000000000000000000000000000000000 DUP2 MSTORE PUSH1 0x4 ADD PUSH2 0x2F8C SWAP2 SWAP1 PUSH2 0x3C4C JUMP JUMPDEST PUSH1 0x40 MLOAD DUP1 SWAP2 SUB SWAP1 REVERT JUMPDEST PUSH2 0x2FA1 PUSH1 0x0 DUP4 DUP4 PUSH2 0x317C JUMP JUMPDEST POP POP JUMP JUMPDEST PUSH1 0x0 PUSH20 0xFFFFFFFFFFFFFFFFFFFFFFFFFFFFFFFFFFFFFFFF AND DUP5 PUSH20 0xFFFFFFFFFFFFFFFFFFFFFFFFFFFFFFFFFFFFFFFF AND SUB PUSH2 0x3017 JUMPI PUSH1 0x0 PUSH1 0x40 MLOAD PUSH32 0xE602DF0500000000000000000000000000000000000000000000000000000000 DUP2 MSTORE PUSH1 0x4 ADD PUSH2 0x300E SWAP2 SWAP1 PUSH2 0x3C4C JUMP JUMPDEST PUSH1 0x40 MLOAD DUP1 SWAP2 SUB SWAP1 REVERT JUMPDEST PUSH1 0x0 PUSH20 0xFFFFFFFFFFFFFFFFFFFFFFFFFFFFFFFFFFFFFFFF AND DUP4 PUSH20 0xFFFFFFFFFFFFFFFFFFFFFFFFFFFFFFFFFFFFFFFF AND SUB PUSH2 0x3089 JUMPI PUSH1 0x0 PUSH1 0x40 MLOAD PUSH32 0x94280D6200000000000000000000000000000000000000000000000000000000 DUP2 MSTORE PUSH1 0x4 ADD PUSH2 0x3080 SWAP2 SWAP1 PUSH2 0x3C4C JUMP JUMPDEST PUSH1 0x40 MLOAD DUP1 SWAP2 SUB SWAP1 REVERT JUMPDEST DUP2 PUSH1 0x1 PUSH1 0x0 DUP7 PUSH20 0xFFFFFFFFFFFFFFFFFFFFFFFFFFFFFFFFFFFFFFFF AND PUSH20 0xFFFFFFFFFFFFFFFFFFFFFFFFFFFFFFFFFFFFFFFF AND DUP2 MSTORE PUSH1 0x20 ADD SWAP1 DUP2 MSTORE PUSH1 0x20 ADD PUSH1 0x0 KECCAK256 PUSH1 0x0 DUP6 PUSH20 0xFFFFFFFFFFFFFFFFFFFFFFFFFFFFFFFFFFFFFFFF AND PUSH20 0xFFFFFFFFFFFFFFFFFFFFFFFFFFFFFFFFFFFFFFFF AND DUP2 MSTORE PUSH1 0x20 ADD SWAP1 DUP2 MSTORE PUSH1 0x20 ADD PUSH1 0x0 KECCAK256 DUP2 SWAP1 SSTORE POP DUP1 ISZERO PUSH2 0x3176 JUMPI DUP3 PUSH20 0xFFFFFFFFFFFFFFFFFFFFFFFFFFFFFFFFFFFFFFFF AND DUP5 PUSH20 0xFFFFFFFFFFFFFFFFFFFFFFFFFFFFFFFFFFFFFFFF AND PUSH32 0x8C5BE1E5EBEC7D5BD14F71427D1E84F3DD0314C0F7B2291E5B200AC8C7C3B925 DUP5 PUSH1 0x40 MLOAD PUSH2 0x316D SWAP2 SWAP1 PUSH2 0x37D9 JUMP JUMPDEST PUSH1 0x40 MLOAD DUP1 SWAP2 SUB SWAP1 LOG3 JUMPDEST POP POP POP POP JUMP JUMPDEST PUSH1 0x0 PUSH20 0xFFFFFFFFFFFFFFFFFFFFFFFFFFFFFFFFFFFFFFFF AND DUP4 PUSH20 0xFFFFFFFFFFFFFFFFFFFFFFFFFFFFFFFFFFFFFFFF AND SUB PUSH2 0x31CE JUMPI DUP1 PUSH1 0x2 PUSH1 0x0 DUP3 DUP3 SLOAD PUSH2 0x31C2 SWAP2 SWAP1 PUSH2 0x40CD JUMP JUMPDEST SWAP3 POP POP DUP2 SWAP1 SSTORE POP PUSH2 0x32A1 JUMP JUMPDEST PUSH1 0x0 DUP1 PUSH1 0x0 DUP6 PUSH20 0xFFFFFFFFFFFFFFFFFFFFFFFFFFFFFFFFFFFFFFFF AND PUSH20 0xFFFFFFFFFFFFFFFFFFFFFFFFFFFFFFFFFFFFFFFF AND DUP2 MSTORE PUSH1 0x20 ADD SWAP1 DUP2 MSTORE PUSH1 0x20 ADD PUSH1 0x0 KECCAK256 SLOAD SWAP1 POP DUP2 DUP2 LT ISZERO PUSH2 0x325A JUMPI DUP4 DUP2 DUP4 PUSH1 0x40 MLOAD PUSH32 0xE450D38C00000000000000000000000000000000000000000000000000000000 DUP2 MSTORE PUSH1 0x4 ADD PUSH2 0x3251 SWAP4 SWAP3 SWAP2 SWAP1 PUSH2 0x44A1 JUMP JUMPDEST PUSH1 0x40 MLOAD DUP1 SWAP2 SUB SWAP1 REVERT JUMPDEST DUP2 DUP2 SUB PUSH1 0x0 DUP1 DUP7 PUSH20 0xFFFFFFFFFFFFFFFFFFFFFFFFFFFFFFFFFFFFFFFF AND PUSH20 0xFFFFFFFFFFFFFFFFFFFFFFFFFFFFFFFFFFFFFFFF AND DUP2 MSTORE PUSH1 0x20 ADD SWAP1 DUP2 MSTORE PUSH1 0x20 ADD PUSH1 0x0 KECCAK256 DUP2 SWAP1 SSTORE POP POP JUMPDEST PUSH1 0x0 PUSH20 0xFFFFFFFFFFFFFFFFFFFFFFFFFFFFFFFFFFFFFFFF AND DUP3 PUSH20 0xFFFFFFFFFFFFFFFFFFFFFFFFFFFFFFFFFFFFFFFF AND SUB PUSH2 0x32EA JUMPI DUP1 PUSH1 0x2 PUSH1 0x0 DUP3 DUP3 SLOAD SUB SWAP3 POP POP DUP2 SWAP1 SSTORE POP PUSH2 0x3337 JUMP JUMPDEST DUP1 PUSH1 0x0 DUP1 DUP5 PUSH20 0xFFFFFFFFFFFFFFFFFFFFFFFFFFFFFFFFFFFFFFFF AND PUSH20 0xFFFFFFFFFFFFFFFFFFFFFFFFFFFFFFFFFFFFFFFF AND DUP2 MSTORE PUSH1 0x20 ADD SWAP1 DUP2 MSTORE PUSH1 0x20 ADD PUSH1 0x0 KECCAK256 PUSH1 0x0 DUP3 DUP3 SLOAD ADD SWAP3 POP POP DUP2 SWAP1 SSTORE POP JUMPDEST DUP2 PUSH20 0xFFFFFFFFFFFFFFFFFFFFFFFFFFFFFFFFFFFFFFFF AND DUP4 PUSH20 0xFFFFFFFFFFFFFFFFFFFFFFFFFFFFFFFFFFFFFFFF AND PUSH32 0xDDF252AD1BE2C89B69C2B068FC378DAA952BA7F163C4A11628F55A4DF523B3EF DUP4 PUSH1 0x40 MLOAD PUSH2 0x3394 SWAP2 SWAP1 PUSH2 0x37D9 JUMP JUMPDEST PUSH1 0x40 MLOAD DUP1 SWAP2 SUB SWAP1 LOG3 POP POP POP JUMP JUMPDEST PUSH1 0x0 PUSH2 0x33B7 PUSH8 0xC188C6B1C85AAF04 PUSH1 0xC0 SHL PUSH2 0x1C05 JUMP JUMPDEST PUSH2 0x33CB PUSH8 0xC6FC23B6B13EFB61 PUSH1 0xC0 SHL PUSH2 0x1C05 JUMP JUMPDEST PUSH2 0x33DF PUSH8 0xD388B5CF1FF656B0 PUSH1 0xC0 SHL PUSH2 0x1C05 JUMP JUMPDEST PUSH1 0x3 DUP3 GT ISZERO PUSH2 0x34E4 JUMPI PUSH2 0x33FC PUSH8 0xABF6B794E0522796 PUSH1 0xC0 SHL PUSH2 0x1C05 JUMP JUMPDEST PUSH2 0x3410 PUSH8 0x442817DBD61E87A4 PUSH1 0xC0 SHL PUSH2 0x1C05 JUMP JUMPDEST DUP2 SWAP1 POP PUSH2 0x3427 PUSH8 0x76F008F2BFBEDD9 PUSH1 0xC0 SHL PUSH2 0x1C05 JUMP JUMPDEST PUSH2 0x343B PUSH8 0x892941BDC0934112 PUSH1 0xC0 SHL PUSH2 0x1C05 JUMP JUMPDEST PUSH1 0x0 PUSH1 0x1 PUSH1 0x2 DUP5 PUSH2 0x344C SWAP2 SWAP1 PUSH2 0x4254 JUMP JUMPDEST PUSH2 0x3456 SWAP2 SWAP1 PUSH2 0x40CD JUMP JUMPDEST SWAP1 POP PUSH2 0x346C PUSH8 0x28FB85F33E6DD365 PUSH1 0xC0 SHL PUSH2 0x1C05 JUMP JUMPDEST PUSH2 0x3480 PUSH8 0x2F0ED1CCC13A5451 PUSH1 0xC0 SHL PUSH2 0x1C05 JUMP JUMPDEST JUMPDEST DUP2 DUP2 LT ISZERO PUSH2 0x34DE JUMPI PUSH2 0x349D PUSH8 0x4C687AD7FE850EAF PUSH1 0xC0 SHL PUSH2 0x1C05 JUMP JUMPDEST DUP1 SWAP2 POP PUSH2 0x34B4 PUSH8 0xC799FF0ABADF68F PUSH1 0xC0 SHL PUSH2 0x1C05 JUMP JUMPDEST PUSH1 0x2 DUP2 DUP3 DUP6 PUSH2 0x34C3 SWAP2 SWAP1 PUSH2 0x4254 JUMP JUMPDEST PUSH2 0x34CD SWAP2 SWAP1 PUSH2 0x40CD JUMP JUMPDEST PUSH2 0x34D7 SWAP2 SWAP1 PUSH2 0x4254 JUMP JUMPDEST SWAP1 POP PUSH2 0x3481 JUMP JUMPDEST POP PUSH2 0x355B JUMP JUMPDEST PUSH2 0x34F8 PUSH8 0xD2103044C7F43CDF PUSH1 0xC0 SHL PUSH2 0x1C05 JUMP JUMPDEST PUSH2 0x350C PUSH8 0x9E94C64DB3FAA815 PUSH1 0xC0 SHL PUSH2 0x1C05 JUMP JUMPDEST PUSH1 0x0 DUP3 EQ PUSH2 0x3545 JUMPI PUSH2 0x3528 PUSH8 0x2F0AD733493CE362 PUSH1 0xC0 SHL PUSH2 0x1C05 JUMP JUMPDEST PUSH2 0x353C PUSH8 0xB2FDBC85B9EDEDC5 PUSH1 0xC0 SHL PUSH2 0x1C05 JUMP JUMPDEST PUSH1 0x1 SWAP1 POP PUSH2 0x355A JUMP JUMPDEST PUSH2 0x3559 PUSH8 0xAC163A0DA8A72BE6 PUSH1 0xC0 SHL PUSH2 0x1C05 JUMP JUMPDEST JUMPDEST JUMPDEST SWAP2 SWAP1 POP JUMP JUMPDEST PUSH1 0x0 PUSH2 0x3576 PUSH8 0x71E570F1C6D57C1A PUSH1 0xC0 SHL PUSH2 0x1C05 JUMP JUMPDEST PUSH2 0x358A PUSH8 0xFE213A0335551351 PUSH1 0xC0 SHL PUSH2 0x1C05 JUMP JUMPDEST PUSH2 0x359E PUSH8 0xBC2A36190A859F14 PUSH1 0xC0 SHL PUSH2 0x1C05 JUMP JUMPDEST PUSH1 0x0 DUP1 PUSH2 0x35AB DUP8 DUP8 PUSH2 0x26F7 JUMP JUMPDEST SWAP2 POP SWAP2 POP PUSH2 0x35C3 PUSH8 0x149D83B0E3D4FFA4 PUSH1 0xC0 SHL PUSH2 0x1C05 JUMP JUMPDEST PUSH1 0x0 DUP3 EQ DUP1 PUSH2 0x35E2 JUMPI POP PUSH2 0x35E1 PUSH8 0x1CE728C6864E1B4E PUSH1 0xC0 SHL PUSH2 0x3725 JUMP JUMPDEST JUMPDEST DUP1 ISZERO PUSH2 0x35FE JUMPI POP PUSH2 0x35FD PUSH8 0x4166F41802C7DBD7 PUSH1 0xC0 SHL PUSH2 0x372C JUMP JUMPDEST JUMPDEST PUSH2 0x3608 JUMPI DUP2 PUSH2 0x360B JUMP JUMPDEST PUSH1 0x1 JUMPDEST SWAP2 POP PUSH2 0x3621 PUSH8 0xCDEDA41770EAD2D3 PUSH1 0xC0 SHL PUSH2 0x1C05 JUMP JUMPDEST PUSH1 0x0 DUP2 EQ DUP1 PUSH2 0x3640 JUMPI POP PUSH2 0x363F PUSH8 0xE9EBF47B38C08CE1 PUSH1 0xC0 SHL PUSH2 0x3725 JUMP JUMPDEST JUMPDEST DUP1 ISZERO PUSH2 0x365C JUMPI POP PUSH2 0x365B PUSH8 0x759CC84A67554035 PUSH1 0xC0 SHL PUSH2 0x372C JUMP JUMPDEST JUMPDEST PUSH2 0x3666 JUMPI DUP1 PUSH2 0x3669 JUMP JUMPDEST PUSH1 0x1 JUMPDEST SWAP1 POP PUSH2 0x367F PUSH8 0xF0CF54DCC85D2406 PUSH1 0xC0 SHL PUSH2 0x1C05 JUMP JUMPDEST DUP1 DUP5 PUSH2 0x368B SWAP2 SWAP1 PUSH2 0x4254 JUMP JUMPDEST DUP3 DUP7 PUSH2 0x3697 SWAP2 SWAP1 PUSH2 0x4254 JUMP JUMPDEST LT DUP1 PUSH2 0x36B3 JUMPI POP PUSH2 0x36B2 PUSH8 0xE394A4770DA7B3A PUSH1 0xC0 SHL PUSH2 0x3725 JUMP JUMPDEST JUMPDEST DUP1 ISZERO PUSH2 0x36CF JUMPI POP PUSH2 0x36CE PUSH8 0x44182AAFA387F82D PUSH1 0xC0 SHL PUSH2 0x372C JUMP JUMPDEST JUMPDEST PUSH2 0x36E4 JUMPI DUP1 DUP5 PUSH2 0x36DF SWAP2 SWAP1 PUSH2 0x4254 JUMP JUMPDEST PUSH2 0x36F1 JUMP JUMPDEST DUP2 DUP6 PUSH2 0x36F0 SWAP2 SWAP1 PUSH2 0x4254 JUMP JUMPDEST JUMPDEST SWAP3 POP PUSH2 0x3707 PUSH8 0x711FC4B654AD68D1 PUSH1 0xC0 SHL PUSH2 0x1C05 JUMP JUMPDEST PUSH2 0x371B PUSH8 0xDE090170BDCD7708 PUSH1 0xC0 SHL PUSH2 0x1C05 JUMP JUMPDEST POP POP SWAP5 SWAP4 POP POP POP POP JUMP JUMPDEST PUSH1 0x0 SWAP2 SWAP1 POP JUMP JUMPDEST PUSH1 0x0 PUSH1 0x1 SWAP1 POP SWAP2 SWAP1 POP JUMP JUMPDEST PUSH1 0x0 DUP1 REVERT JUMPDEST PUSH1 0x0 DUP1 REVERT JUMPDEST PUSH1 0x0 DUP2 SWAP1 POP SWAP2 SWAP1 POP JUMP JUMPDEST PUSH2 0x3754 DUP2 PUSH2 0x3741 JUMP JUMPDEST DUP2 EQ PUSH2 0x375F JUMPI PUSH1 0x0 DUP1 REVERT JUMPDEST POP JUMP JUMPDEST PUSH1 0x0 DUP2 CALLDATALOAD SWAP1 POP PUSH2 0x3771 DUP2 PUSH2 0x374B JUMP JUMPDEST SWAP3 SWAP2 POP POP JUMP JUMPDEST PUSH1 0x0 DUP1 PUSH1 0x0 PUSH1 0x60 DUP5 DUP7 SUB SLT ISZERO PUSH2 0x3790 JUMPI PUSH2 0x378F PUSH2 0x3737 JUMP JUMPDEST JUMPDEST PUSH1 0x0 PUSH2 0x379E DUP7 DUP3 DUP8 ADD PUSH2 0x3762 JUMP JUMPDEST SWAP4 POP POP PUSH1 0x20 PUSH2 0x37AF DUP7 DUP3 DUP8 ADD PUSH2 0x3762 JUMP JUMPDEST SWAP3 POP POP PUSH1 0x40 PUSH2 0x37C0 DUP7 DUP3 DUP8 ADD PUSH2 0x3762 JUMP JUMPDEST SWAP2 POP POP SWAP3 POP SWAP3 POP SWAP3 JUMP JUMPDEST PUSH2 0x37D3 DUP2 PUSH2 0x3741 JUMP JUMPDEST DUP3 MSTORE POP POP JUMP JUMPDEST PUSH1 0x0 PUSH1 0x20 DUP3 ADD SWAP1 POP PUSH2 0x37EE PUSH1 0x0 DUP4 ADD DUP5 PUSH2 0x37CA JUMP JUMPDEST SWAP3 SWAP2 POP POP JUMP JUMPDEST PUSH1 0x0 DUP2 MLOAD SWAP1 POP SWAP2 SWAP1 POP JUMP JUMPDEST PUSH1 0x0 DUP3 DUP3 MSTORE PUSH1 0x20 DUP3 ADD SWAP1 POP SWAP3 SWAP2 POP POP JUMP JUMPDEST PUSH1 0x0 JUMPDEST DUP4 DUP2 LT ISZERO PUSH2 0x382E JUMPI DUP1 DUP3 ADD MLOAD DUP2 DUP5 ADD MSTORE PUSH1 0x20 DUP2 ADD SWAP1 POP PUSH2 0x3813 JUMP JUMPDEST PUSH1 0x0 DUP5 DUP5 ADD MSTORE POP POP POP POP JUMP JUMPDEST PUSH1 0x0 PUSH1 0x1F NOT PUSH1 0x1F DUP4 ADD AND SWAP1 POP SWAP2 SWAP1 POP JUMP JUMPDEST PUSH1 0x0 PUSH2 0x3856 DUP3 PUSH2 0x37F4 JUMP JUMPDEST PUSH2 0x3860 DUP2 DUP6 PUSH2 0x37FF JUMP JUMPDEST SWAP4 POP PUSH2 0x3870 DUP2 DUP6 PUSH1 0x20 DUP7 ADD PUSH2 0x3810 JUMP JUMPDEST PUSH2 0x3879 DUP2 PUSH2 0x383A JUMP JUMPDEST DUP5 ADD SWAP2 POP POP SWAP3 SWAP2 POP POP JUMP JUMPDEST PUSH1 0x0 PUSH1 0x20 DUP3 ADD SWAP1 POP DUP2 DUP2 SUB PUSH1 0x0 DUP4 ADD MSTORE PUSH2 0x389E DUP2 DUP5 PUSH2 0x384B JUMP JUMPDEST SWAP1 POP SWAP3 SWAP2 POP POP JUMP JUMPDEST PUSH1 0x0 PUSH20 0xFFFFFFFFFFFFFFFFFFFFFFFFFFFFFFFFFFFFFFFF DUP3 AND SWAP1 POP SWAP2 SWAP1 POP JUMP JUMPDEST PUSH1 0x0 PUSH2 0x38D1 DUP3 PUSH2 0x38A6 JUMP JUMPDEST SWAP1 POP SWAP2 SWAP1 POP JUMP JUMPDEST PUSH2 0x38E1 DUP2 PUSH2 0x38C6 JUMP JUMPDEST DUP2 EQ PUSH2 0x38EC JUMPI PUSH1 0x0 DUP1 REVERT JUMPDEST POP JUMP JUMPDEST PUSH1 0x0 DUP2 CALLDATALOAD SWAP1 POP PUSH2 0x38FE DUP2 PUSH2 0x38D8 JUMP JUMPDEST SWAP3 SWAP2 POP POP JUMP JUMPDEST PUSH1 0x0 DUP1 PUSH1 0x40 DUP4 DUP6 SUB SLT ISZERO PUSH2 0x391B JUMPI PUSH2 0x391A PUSH2 0x3737 JUMP JUMPDEST JUMPDEST PUSH1 0x0 PUSH2 0x3929 DUP6 DUP3 DUP7 ADD PUSH2 0x38EF JUMP JUMPDEST SWAP3 POP POP PUSH1 0x20 PUSH2 0x393A DUP6 DUP3 DUP7 ADD PUSH2 0x3762 JUMP JUMPDEST SWAP2 POP POP SWAP3 POP SWAP3 SWAP1 POP JUMP JUMPDEST PUSH1 0x0 DUP2 ISZERO ISZERO SWAP1 POP SWAP2 SWAP1 POP JUMP JUMPDEST PUSH2 0x3959 DUP2 PUSH2 0x3944 JUMP JUMPDEST DUP3 MSTORE POP POP JUMP JUMPDEST PUSH1 0x0 PUSH1 0x20 DUP3 ADD SWAP1 POP PUSH2 0x3974 PUSH1 0x0 DUP4 ADD DUP5 PUSH2 0x3950 JUMP JUMPDEST SWAP3 SWAP2 POP POP JUMP JUMPDEST PUSH1 0x0 DUP1 PUSH1 0x0 PUSH1 0x60 DUP5 DUP7 SUB SLT ISZERO PUSH2 0x3993 JUMPI PUSH2 0x3992 PUSH2 0x3737 JUMP JUMPDEST JUMPDEST PUSH1 0x0 PUSH2 0x39A1 DUP7 DUP3 DUP8 ADD PUSH2 0x38EF JUMP JUMPDEST SWAP4 POP POP PUSH1 0x20 PUSH2 0x39B2 DUP7 DUP3 DUP8 ADD PUSH2 0x38EF JUMP JUMPDEST SWAP3 POP POP PUSH1 0x40 PUSH2 0x39C3 DUP7 DUP3 DUP8 ADD PUSH2 0x3762 JUMP JUMPDEST SWAP2 POP POP SWAP3 POP SWAP3 POP SWAP3 JUMP JUMPDEST PUSH1 0x0 PUSH1 0xFF DUP3 AND SWAP1 POP SWAP2 SWAP1 POP JUMP JUMPDEST PUSH2 0x39E3 DUP2 PUSH2 0x39CD JUMP JUMPDEST DUP3 MSTORE POP POP JUMP JUMPDEST PUSH1 0x0 PUSH1 0x20 DUP3 ADD SWAP1 POP PUSH2 0x39FE PUSH1 0x0 DUP4 ADD DUP5 PUSH2 0x39DA JUMP JUMPDEST SWAP3 SWAP2 POP POP JUMP JUMPDEST PUSH1 0x0 DUP1 REVERT JUMPDEST PUSH1 0x0 DUP1 REVERT JUMPDEST PUSH1 0x0 DUP1 REVERT JUMPDEST PUSH1 0x0 DUP1 DUP4 PUSH1 0x1F DUP5 ADD SLT PUSH2 0x3A29 JUMPI PUSH2 0x3A28 PUSH2 0x3A04 JUMP JUMPDEST JUMPDEST DUP3 CALLDATALOAD SWAP1 POP PUSH8 0xFFFFFFFFFFFFFFFF DUP2 GT ISZERO PUSH2 0x3A46 JUMPI PUSH2 0x3A45 PUSH2 0x3A09 JUMP JUMPDEST JUMPDEST PUSH1 0x20 DUP4 ADD SWAP2 POP DUP4 PUSH1 0x20 DUP3 MUL DUP4 ADD GT ISZERO PUSH2 0x3A62 JUMPI PUSH2 0x3A61 PUSH2 0x3A0E JUMP JUMPDEST JUMPDEST SWAP3 POP SWAP3 SWAP1 POP JUMP JUMPDEST PUSH1 0x0 DUP1 PUSH1 0x0 DUP1 PUSH1 0x0 DUP1 PUSH1 0xA0 DUP8 DUP10 SUB SLT ISZERO PUSH2 0x3A86 JUMPI PUSH2 0x3A85 PUSH2 0x3737 JUMP JUMPDEST JUMPDEST PUSH1 0x0 PUSH2 0x3A94 DUP10 DUP3 DUP11 ADD PUSH2 0x3762 JUMP JUMPDEST SWAP7 POP POP PUSH1 0x20 PUSH2 0x3AA5 DUP10 DUP3 DUP11 ADD PUSH2 0x3762 JUMP JUMPDEST SWAP6 POP POP PUSH1 0x40 DUP8 ADD CALLDATALOAD PUSH8 0xFFFFFFFFFFFFFFFF DUP2 GT ISZERO PUSH2 0x3AC6 JUMPI PUSH2 0x3AC5 PUSH2 0x373C JUMP JUMPDEST JUMPDEST PUSH2 0x3AD2 DUP10 DUP3 DUP11 ADD PUSH2 0x3A13 JUMP JUMPDEST SWAP5 POP SWAP5 POP POP PUSH1 0x60 PUSH2 0x3AE5 DUP10 DUP3 DUP11 ADD PUSH2 0x38EF JUMP JUMPDEST SWAP3 POP POP PUSH1 0x80 PUSH2 0x3AF6 DUP10 DUP3 DUP11 ADD PUSH2 0x3762 JUMP JUMPDEST SWAP2 POP POP SWAP3 SWAP6 POP SWAP3 SWAP6 POP SWAP3 SWAP6 JUMP JUMPDEST PUSH1 0x0 DUP2 MLOAD SWAP1 POP SWAP2 SWAP1 POP JUMP JUMPDEST PUSH1 0x0 DUP3 DUP3 MSTORE PUSH1 0x20 DUP3 ADD SWAP1 POP SWAP3 SWAP2 POP POP JUMP JUMPDEST PUSH1 0x0 DUP2 SWAP1 POP PUSH1 0x20 DUP3 ADD SWAP1 POP SWAP2 SWAP1 POP JUMP JUMPDEST PUSH2 0x3B38 DUP2 PUSH2 0x3741 JUMP JUMPDEST DUP3 MSTORE POP POP JUMP JUMPDEST PUSH1 0x0 PUSH2 0x3B4A DUP4 DUP4 PUSH2 0x3B2F JUMP JUMPDEST PUSH1 0x20 DUP4 ADD SWAP1 POP SWAP3 SWAP2 POP POP JUMP JUMPDEST PUSH1 0x0 PUSH1 0x20 DUP3 ADD SWAP1 POP SWAP2 SWAP1 POP JUMP JUMPDEST PUSH1 0x0 PUSH2 0x3B6E DUP3 PUSH2 0x3B03 JUMP JUMPDEST PUSH2 0x3B78 DUP2 DUP6 PUSH2 0x3B0E JUMP JUMPDEST SWAP4 POP PUSH2 0x3B83 DUP4 PUSH2 0x3B1F JUMP JUMPDEST DUP1 PUSH1 0x0 JUMPDEST DUP4 DUP2 LT ISZERO PUSH2 0x3BB4 JUMPI DUP2 MLOAD PUSH2 0x3B9B DUP9 DUP3 PUSH2 0x3B3E JUMP JUMPDEST SWAP8 POP PUSH2 0x3BA6 DUP4 PUSH2 0x3B56 JUMP JUMPDEST SWAP3 POP POP PUSH1 0x1 DUP2 ADD SWAP1 POP PUSH2 0x3B87 JUMP JUMPDEST POP DUP6 SWAP4 POP POP POP POP SWAP3 SWAP2 POP POP JUMP JUMPDEST PUSH1 0x0 PUSH1 0x20 DUP3 ADD SWAP1 POP DUP2 DUP2 SUB PUSH1 0x0 DUP4 ADD MSTORE PUSH2 0x3BDB DUP2 DUP5 PUSH2 0x3B63 JUMP JUMPDEST SWAP1 POP SWAP3 SWAP2 POP POP JUMP JUMPDEST PUSH1 0x0 PUSH1 0x20 DUP3 DUP5 SUB SLT ISZERO PUSH2 0x3BF9 JUMPI PUSH2 0x3BF8 PUSH2 0x3737 JUMP JUMPDEST JUMPDEST PUSH1 0x0 PUSH2 0x3C07 DUP5 DUP3 DUP6 ADD PUSH2 0x3762 JUMP JUMPDEST SWAP2 POP POP SWAP3 SWAP2 POP POP JUMP JUMPDEST PUSH1 0x0 PUSH1 0x20 DUP3 DUP5 SUB SLT ISZERO PUSH2 0x3C26 JUMPI PUSH2 0x3C25 PUSH2 0x3737 JUMP JUMPDEST JUMPDEST PUSH1 0x0 PUSH2 0x3C34 DUP5 DUP3 DUP6 ADD PUSH2 0x38EF JUMP JUMPDEST SWAP2 POP POP SWAP3 SWAP2 POP POP JUMP JUMPDEST PUSH2 0x3C46 DUP2 PUSH2 0x38C6 JUMP JUMPDEST DUP3 MSTORE POP POP JUMP JUMPDEST PUSH1 0x0 PUSH1 0x20 DUP3 ADD SWAP1 POP PUSH2 0x3C61 PUSH1 0x0 DUP4 ADD DUP5 PUSH2 0x3C3D JUMP JUMPDEST SWAP3 SWAP2 POP POP JUMP JUMPDEST PUSH1 0x0 DUP1 PUSH1 0x40 DUP4 DUP6 SUB SLT ISZERO PUSH2 0x3C7E JUMPI PUSH2 0x3C7D PUSH2 0x3737 JUMP JUMPDEST JUMPDEST PUSH1 0x0 PUSH2 0x3C8C DUP6 DUP3 DUP7 ADD PUSH2 0x38EF JUMP JUMPDEST SWAP3 POP POP PUSH1 0x20 PUSH2 0x3C9D DUP6 DUP3 DUP7 ADD PUSH2 0x38EF JUMP JUMPDEST SWAP2 POP POP SWAP3 POP SWAP3 SWAP1 POP JUMP JUMPDEST PUSH1 0x0 DUP1 PUSH1 0x0 DUP1 PUSH1 0x0 DUP1 PUSH1 0x0 PUSH1 0xE0 DUP9 DUP11 SUB SLT ISZERO PUSH2 0x3CC6 JUMPI PUSH2 0x3CC5 PUSH2 0x3737 JUMP JUMPDEST JUMPDEST PUSH1 0x0 PUSH2 0x3CD4 DUP11 DUP3 DUP12 ADD PUSH2 0x38EF JUMP JUMPDEST SWAP8 POP POP PUSH1 0x20 PUSH2 0x3CE5 DUP11 DUP3 DUP12 ADD PUSH2 0x38EF JUMP JUMPDEST SWAP7 POP POP PUSH1 0x40 PUSH2 0x3CF6 DUP11 DUP3 DUP12 ADD PUSH2 0x3762 JUMP JUMPDEST SWAP6 POP POP PUSH1 0x60 PUSH2 0x3D07 DUP11 DUP3 DUP12 ADD PUSH2 0x3762 JUMP JUMPDEST SWAP5 POP POP PUSH1 0x80 PUSH2 0x3D18 DUP11 DUP3 DUP12 ADD PUSH2 0x3762 JUMP JUMPDEST SWAP4 POP POP PUSH1 0xA0 PUSH2 0x3D29 DUP11 DUP3 DUP12 ADD PUSH2 0x38EF JUMP JUMPDEST SWAP3 POP POP PUSH1 0xC0 PUSH2 0x3D3A DUP11 DUP3 DUP12 ADD PUSH2 0x3762 JUMP JUMPDEST SWAP2 POP POP SWAP3 SWAP6 SWAP9 SWAP2 SWAP5 SWAP8 POP SWAP3 SWAP6 POP JUMP JUMPDEST PUSH1 0x0 PUSH1 0x40 DUP3 ADD SWAP1 POP PUSH2 0x3D5E PUSH1 0x0 DUP4 ADD DUP6 PUSH2 0x37CA JUMP JUMPDEST PUSH2 0x3D6B PUSH1 0x20 DUP4 ADD DUP5 PUSH2 0x37CA JUMP JUMPDEST SWAP4 SWAP3 POP POP POP JUMP JUMPDEST PUSH1 0x0 DUP1 PUSH1 0x0 DUP1 PUSH1 0x0 DUP1 PUSH1 0x0 DUP1 PUSH2 0x100 DUP10 DUP12 SUB SLT ISZERO PUSH2 0x3D93 JUMPI PUSH2 0x3D92 PUSH2 0x3737 JUMP JUMPDEST JUMPDEST PUSH1 0x0 PUSH2 0x3DA1 DUP12 DUP3 DUP13 ADD PUSH2 0x38EF JUMP JUMPDEST SWAP9 POP POP PUSH1 0x20 PUSH2 0x3DB2 DUP12 DUP3 DUP13 ADD PUSH2 0x38EF JUMP JUMPDEST SWAP8 POP POP PUSH1 0x40 PUSH2 0x3DC3 DUP12 DUP3 DUP13 ADD PUSH2 0x3762 JUMP JUMPDEST SWAP7 POP POP PUSH1 0x60 PUSH2 0x3DD4 DUP12 DUP3 DUP13 ADD PUSH2 0x3762 JUMP JUMPDEST SWAP6 POP POP PUSH1 0x80 PUSH2 0x3DE5 DUP12 DUP3 DUP13 ADD PUSH2 0x3762 JUMP JUMPDEST SWAP5 POP POP PUSH1 0xA0 PUSH2 0x3DF6 DUP12 DUP3 DUP13 ADD PUSH2 0x3762 JUMP JUMPDEST SWAP4 POP POP PUSH1 0xC0 PUSH2 0x3E07 DUP12 DUP3 DUP13 ADD PUSH2 0x38EF JUMP JUMPDEST SWAP3 POP POP PUSH1 0xE0 PUSH2 0x3E18 DUP12 DUP3 DUP13 ADD PUSH2 0x3762 JUMP JUMPDEST SWAP2 POP POP SWAP3 SWAP6 SWAP9 POP SWAP3 SWAP6 SWAP9 SWAP1 SWAP4 SWAP7 POP JUMP JUMPDEST PUSH1 0x0 PUSH1 0x60 DUP3 ADD SWAP1 POP PUSH2 0x3E3D PUSH1 0x0 DUP4 ADD DUP7 PUSH2 0x37CA JUMP JUMPDEST PUSH2 0x3E4A PUSH1 0x20 DUP4 ADD DUP6 PUSH2 0x37CA JUMP JUMPDEST PUSH2 0x3E57 PUSH1 0x40 DUP4 ADD DUP5 PUSH2 0x37CA JUMP JUMPDEST SWAP5 SWAP4 POP POP POP POP JUMP JUMPDEST PUSH32 0x4E487B7100000000000000000000000000000000000000000000000000000000 PUSH1 0x0 MSTORE PUSH1 0x22 PUSH1 0x4 MSTORE PUSH1 0x24 PUSH1 0x0 REVERT JUMPDEST PUSH1 0x0 PUSH1 0x2 DUP3 DIV SWAP1 POP PUSH1 0x1 DUP3 AND DUP1 PUSH2 0x3EA6 JUMPI PUSH1 0x7F DUP3 AND SWAP2 POP JUMPDEST PUSH1 0x20 DUP3 LT DUP2 SUB PUSH2 0x3EB9 JUMPI PUSH2 0x3EB8 PUSH2 0x3E5F JUMP JUMPDEST JUMPDEST POP SWAP2 SWAP1 POP JUMP JUMPDEST PUSH32 0x53537761703A20446561646C696E6520726561636865642E0000000000000000 PUSH1 0x0 DUP3 ADD MSTORE POP JUMP JUMPDEST PUSH1 0x0 PUSH2 0x3EF5 PUSH1 0x18 DUP4 PUSH2 0x37FF JUMP JUMPDEST SWAP2 POP PUSH2 0x3F00 DUP3 PUSH2 0x3EBF JUMP JUMPDEST PUSH1 0x20 DUP3 ADD SWAP1 POP SWAP2 SWAP1 POP JUMP JUMPDEST PUSH1 0x0 PUSH1 0x20 DUP3 ADD SWAP1 POP DUP2 DUP2 SUB PUSH1 0x0 DUP4 ADD MSTORE PUSH2 0x3F24 DUP2 PUSH2 0x3EE8 JUMP JUMPDEST SWAP1 POP SWAP2 SWAP1 POP JUMP JUMPDEST PUSH32 0x53537761703A204E6F20746F6B656E732073656C65637465642E000000000000 PUSH1 0x0 DUP3 ADD MSTORE POP JUMP JUMPDEST PUSH1 0x0 PUSH2 0x3F61 PUSH1 0x1A DUP4 PUSH2 0x37FF JUMP JUMPDEST SWAP2 POP PUSH2 0x3F6C DUP3 PUSH2 0x3F2B JUMP JUMPDEST PUSH1 0x20 DUP3 ADD SWAP1 POP SWAP2 SWAP1 POP JUMP JUMPDEST PUSH1 0x0 PUSH1 0x20 DUP3 ADD SWAP1 POP DUP2 DUP2 SUB PUSH1 0x0 DUP4 ADD MSTORE PUSH2 0x3F90 DUP2 PUSH2 0x3F54 JUMP JUMPDEST SWAP1 POP SWAP2 SWAP1 POP JUMP JUMPDEST PUSH32 0x4E487B7100000000000000000000000000000000000000000000000000000000 PUSH1 0x0 MSTORE PUSH1 0x32 PUSH1 0x4 MSTORE PUSH1 0x24 PUSH1 0x0 REVERT JUMPDEST PUSH32 0x53537761703A2053616D6520746F6B656E732E00000000000000000000000000 PUSH1 0x0 DUP3 ADD MSTORE POP JUMP JUMPDEST PUSH1 0x0 PUSH2 0x3FFC PUSH1 0x13 DUP4 PUSH2 0x37FF JUMP JUMPDEST SWAP2 POP PUSH2 0x4007 DUP3 PUSH2 0x3FC6 JUMP JUMPDEST PUSH1 0x20 DUP3 ADD SWAP1 POP SWAP2 SWAP1 POP JUMP JUMPDEST PUSH1 0x0 PUSH1 0x20 DUP3 ADD SWAP1 POP DUP2 DUP2 SUB PUSH1 0x0 DUP4 ADD MSTORE PUSH2 0x402B DUP2 PUSH2 0x3FEF JUMP JUMPDEST SWAP1 POP SWAP2 SWAP1 POP JUMP JUMPDEST PUSH32 0x53537761703A205472616E736665722063616E63656C6C65642E000000000000 PUSH1 0x0 DUP3 ADD MSTORE POP JUMP JUMPDEST PUSH1 0x0 PUSH2 0x4068 PUSH1 0x1A DUP4 PUSH2 0x37FF JUMP JUMPDEST SWAP2 POP PUSH2 0x4073 DUP3 PUSH2 0x4032 JUMP JUMPDEST PUSH1 0x20 DUP3 ADD SWAP1 POP SWAP2 SWAP1 POP JUMP JUMPDEST PUSH1 0x0 PUSH1 0x20 DUP3 ADD SWAP1 POP DUP2 DUP2 SUB PUSH1 0x0 DUP4 ADD MSTORE PUSH2 0x4097 DUP2 PUSH2 0x405B JUMP JUMPDEST SWAP1 POP SWAP2 SWAP1 POP JUMP JUMPDEST PUSH32 0x4E487B7100000000000000000000000000000000000000000000000000000000 PUSH1 0x0 MSTORE PUSH1 0x11 PUSH1 0x4 MSTORE PUSH1 0x24 PUSH1 0x0 REVERT JUMPDEST PUSH1 0x0 PUSH2 0x40D8 DUP3 PUSH2 0x3741 JUMP JUMPDEST SWAP2 POP PUSH2 0x40E3 DUP4 PUSH2 0x3741 JUMP JUMPDEST SWAP3 POP DUP3 DUP3 ADD SWAP1 POP DUP1 DUP3 GT ISZERO PUSH2 0x40FB JUMPI PUSH2 0x40FA PUSH2 0x409E JUMP JUMPDEST JUMPDEST SWAP3 SWAP2 POP POP JUMP JUMPDEST PUSH1 0x0 PUSH2 0x410C DUP3 PUSH2 0x3741 JUMP JUMPDEST SWAP2 POP PUSH2 0x4117 DUP4 PUSH2 0x3741 JUMP JUMPDEST SWAP3 POP DUP3 DUP3 SUB SWAP1 POP DUP2 DUP2 GT ISZERO PUSH2 0x412F JUMPI PUSH2 0x412E PUSH2 0x409E JUMP JUMPDEST JUMPDEST SWAP3 SWAP2 POP POP JUMP JUMPDEST PUSH1 0x0 DUP2 MLOAD SWAP1 POP PUSH2 0x4144 DUP2 PUSH2 0x374B JUMP JUMPDEST SWAP3 SWAP2 POP POP JUMP JUMPDEST PUSH1 0x0 PUSH1 0x20 DUP3 DUP5 SUB SLT ISZERO PUSH2 0x4160 JUMPI PUSH2 0x415F PUSH2 0x3737 JUMP JUMPDEST JUMPDEST PUSH1 0x0 PUSH2 0x416E DUP5 DUP3 DUP6 ADD PUSH2 0x4135 JUMP JUMPDEST SWAP2 POP POP SWAP3 SWAP2 POP POP JUMP JUMPDEST PUSH32 0x53537761703A204C69717569646974792E000000000000000000000000000000 PUSH1 0x0 DUP3 ADD MSTORE POP JUMP JUMPDEST PUSH1 0x0 PUSH2 0x41AD PUSH1 0x11 DUP4 PUSH2 0x37FF JUMP JUMPDEST SWAP2 POP PUSH2 0x41B8 DUP3 PUSH2 0x4177 JUMP JUMPDEST PUSH1 0x20 DUP3 ADD SWAP1 POP SWAP2 SWAP1 POP JUMP JUMPDEST PUSH1 0x0 PUSH1 0x20 DUP3 ADD SWAP1 POP DUP2 DUP2 SUB PUSH1 0x0 DUP4 ADD MSTORE PUSH2 0x41DC DUP2 PUSH2 0x41A0 JUMP JUMPDEST SWAP1 POP SWAP2 SWAP1 POP JUMP JUMPDEST PUSH1 0x0 PUSH2 0x41EE DUP3 PUSH2 0x3741 JUMP JUMPDEST SWAP2 POP PUSH2 0x41F9 DUP4 PUSH2 0x3741 JUMP JUMPDEST SWAP3 POP DUP3 DUP3 MUL PUSH2 0x4207 DUP2 PUSH2 0x3741 JUMP JUMPDEST SWAP2 POP DUP3 DUP3 DIV DUP5 EQ DUP4 ISZERO OR PUSH2 0x421E JUMPI PUSH2 0x421D PUSH2 0x409E JUMP JUMPDEST JUMPDEST POP SWAP3 SWAP2 POP POP JUMP JUMPDEST PUSH32 0x4E487B7100000000000000000000000000000000000000000000000000000000 PUSH1 0x0 MSTORE PUSH1 0x12 PUSH1 0x4 MSTORE PUSH1 0x24 PUSH1 0x0 REVERT JUMPDEST PUSH1 0x0 PUSH2 0x425F DUP3 PUSH2 0x3741 JUMP JUMPDEST SWAP2 POP PUSH2 0x426A DUP4 PUSH2 0x3741 JUMP JUMPDEST SWAP3 POP DUP3 PUSH2 0x427A JUMPI PUSH2 0x4279 PUSH2 0x4225 JUMP JUMPDEST JUMPDEST DUP3 DUP3 DIV SWAP1 POP SWAP3 SWAP2 POP POP JUMP JUMPDEST PUSH32 0x53537761703A2042616C616E63652E0000000000000000000000000000000000 PUSH1 0x0 DUP3 ADD MSTORE POP JUMP JUMPDEST PUSH1 0x0 PUSH2 0x42BB PUSH1 0xF DUP4 PUSH2 0x37FF JUMP JUMPDEST SWAP2 POP PUSH2 0x42C6 DUP3 PUSH2 0x4285 JUMP JUMPDEST PUSH1 0x20 DUP3 ADD SWAP1 POP SWAP2 SWAP1 POP JUMP JUMPDEST PUSH1 0x0 PUSH1 0x20 DUP3 ADD SWAP1 POP DUP2 DUP2 SUB PUSH1 0x0 DUP4 ADD MSTORE PUSH2 0x42EA DUP2 PUSH2 0x42AE JUMP JUMPDEST SWAP1 POP SWAP2 SWAP1 POP JUMP JUMPDEST PUSH32 0x53537761703A2053616D6520546F6B656E730000000000000000000000000000 PUSH1 0x0 DUP3 ADD MSTORE POP JUMP JUMPDEST PUSH1 0x0 PUSH2 0x4327 PUSH1 0x12 DUP4 PUSH2 0x37FF JUMP JUMPDEST SWAP2 POP PUSH2 0x4332 DUP3 PUSH2 0x42F1 JUMP JUMPDEST PUSH1 0x20 DUP3 ADD SWAP1 POP SWAP2 SWAP1 POP JUMP JUMPDEST PUSH1 0x0 PUSH1 0x20 DUP3 ADD SWAP1 POP DUP2 DUP2 SUB PUSH1 0x0 DUP4 ADD MSTORE PUSH2 0x4356 DUP2 PUSH2 0x431A JUMP JUMPDEST SWAP1 POP SWAP2 SWAP1 POP JUMP JUMPDEST PUSH32 0x53537761703A20416D6F756E7473000000000000000000000000000000000000 PUSH1 0x0 DUP3 ADD MSTORE POP JUMP JUMPDEST PUSH1 0x0 PUSH2 0x4393 PUSH1 0xE DUP4 PUSH2 0x37FF JUMP JUMPDEST SWAP2 POP PUSH2 0x439E DUP3 PUSH2 0x435D JUMP JUMPDEST PUSH1 0x20 DUP3 ADD SWAP1 POP SWAP2 SWAP1 POP JUMP JUMPDEST PUSH1 0x0 PUSH1 0x20 DUP3 ADD SWAP1 POP DUP2 DUP2 SUB PUSH1 0x0 DUP4 ADD MSTORE PUSH2 0x43C2 DUP2 PUSH2 0x4386 JUMP JUMPDEST SWAP1 POP SWAP2 SWAP1 POP JUMP JUMPDEST PUSH32 0x53537761703A204E6F7420456E6F756768204C69717569646974790000000000 PUSH1 0x0 DUP3 ADD MSTORE POP JUMP JUMPDEST PUSH1 0x0 PUSH2 0x43FF PUSH1 0x1B DUP4 PUSH2 0x37FF JUMP JUMPDEST SWAP2 POP PUSH2 0x440A DUP3 PUSH2 0x43C9 JUMP JUMPDEST PUSH1 0x20 DUP3 ADD SWAP1 POP SWAP2 SWAP1 POP JUMP JUMPDEST PUSH1 0x0 PUSH1 0x20 DUP3 ADD SWAP1 POP DUP2 DUP2 SUB PUSH1 0x0 DUP4 ADD MSTORE PUSH2 0x442E DUP2 PUSH2 0x43F2 JUMP JUMPDEST SWAP1 POP SWAP2 SWAP1 POP JUMP JUMPDEST PUSH32 0x53537761703A20496E73756666696369656E7420616D6F756E742E0000000000 PUSH1 0x0 DUP3 ADD MSTORE POP JUMP JUMPDEST PUSH1 0x0 PUSH2 0x446B PUSH1 0x1B DUP4 PUSH2 0x37FF JUMP JUMPDEST SWAP2 POP PUSH2 0x4476 DUP3 PUSH2 0x4435 JUMP JUMPDEST PUSH1 0x20 DUP3 ADD SWAP1 POP SWAP2 SWAP1 POP JUMP JUMPDEST PUSH1 0x0 PUSH1 0x20 DUP3 ADD SWAP1 POP DUP2 DUP2 SUB PUSH1 0x0 DUP4 ADD MSTORE PUSH2 0x449A DUP2 PUSH2 0x445E JUMP JUMPDEST SWAP1 POP SWAP2 SWAP1 POP JUMP JUMPDEST PUSH1 0x0 PUSH1 0x60 DUP3 ADD SWAP1 POP PUSH2 0x44B6 PUSH1 0x0 DUP4 ADD DUP7 PUSH2 0x3C3D JUMP JUMPDEST PUSH2 0x44C3 PUSH1 0x20 DUP4 ADD DUP6 PUSH2 0x37CA JUMP JUMPDEST PUSH2 0x44D0 PUSH1 0x40 DUP4 ADD DUP5 PUSH2 0x37CA JUMP JUMPDEST SWAP5 SWAP4 POP POP POP POP JUMP JUMPDEST PUSH32 0x4E487B7100000000000000000000000000000000000000000000000000000000 PUSH1 0x0 MSTORE PUSH1 0x41 PUSH1 0x4 MSTORE PUSH1 0x24 PUSH1 0x0 REVERT JUMPDEST PUSH1 0x0 PUSH1 0x60 DUP3 ADD SWAP1 POP PUSH2 0x451C PUSH1 0x0 DUP4 ADD DUP7 PUSH2 0x3C3D JUMP JUMPDEST PUSH2 0x4529 PUSH1 0x20 DUP4 ADD DUP6 PUSH2 0x3C3D JUMP JUMPDEST PUSH2 0x4536 PUSH1 0x40 DUP4 ADD DUP5 PUSH2 0x37CA JUMP JUMPDEST SWAP5 SWAP4 POP POP POP POP JUMP JUMPDEST PUSH2 0x4547 DUP2 PUSH2 0x3944 JUMP JUMPDEST DUP2 EQ PUSH2 0x4552 JUMPI PUSH1 0x0 DUP1 REVERT JUMPDEST POP JUMP JUMPDEST PUSH1 0x0 DUP2 MLOAD SWAP1 POP PUSH2 0x4564 DUP2 PUSH2 0x453E JUMP JUMPDEST SWAP3 SWAP2 POP POP JUMP JUMPDEST PUSH1 0x0 PUSH1 0x20 DUP3 DUP5 SUB SLT ISZERO PUSH2 0x4580 JUMPI PUSH2 0x457F PUSH2 0x3737 JUMP JUMPDEST JUMPDEST PUSH1 0x0 PUSH2 0x458E DUP5 DUP3 DUP6 ADD PUSH2 0x4555 JUMP JUMPDEST SWAP2 POP POP SWAP3 SWAP2 POP POP JUMP JUMPDEST PUSH32 0x53537761703A205472616E73666572206661696C656421000000000000000000 PUSH1 0x0 DUP3 ADD MSTORE POP JUMP JUMPDEST PUSH1 0x0 PUSH2 0x45CD PUSH1 0x17 DUP4 PUSH2 0x37FF JUMP JUMPDEST SWAP2 POP PUSH2 0x45D8 DUP3 PUSH2 0x4597 JUMP JUMPDEST PUSH1 0x20 DUP3 ADD SWAP1 POP SWAP2 SWAP1 POP JUMP JUMPDEST PUSH1 0x0 PUSH1 0x20 DUP3 ADD SWAP1 POP DUP2 DUP2 SUB PUSH1 0x0 DUP4 ADD MSTORE PUSH2 0x45FC DUP2 PUSH2 0x45C0 JUMP JUMPDEST SWAP1 POP SWAP2 SWAP1 POP JUMP JUMPDEST PUSH1 0x0 PUSH1 0x40 DUP3 ADD SWAP1 POP PUSH2 0x4618 PUSH1 0x0 DUP4 ADD DUP6 PUSH2 0x3C3D JUMP JUMPDEST PUSH2 0x4625 PUSH1 0x20 DUP4 ADD DUP5 PUSH2 0x37CA JUMP JUMPDEST SWAP4 SWAP3 POP POP POP JUMP JUMPDEST PUSH32 0x53537761703A20422042616C616E63652E000000000000000000000000000000 PUSH1 0x0 DUP3 ADD MSTORE POP JUMP JUMPDEST PUSH1 0x0 PUSH2 0x4662 PUSH1 0x11 DUP4 PUSH2 0x37FF JUMP JUMPDEST SWAP2 POP PUSH2 0x466D DUP3 PUSH2 0x462C JUMP JUMPDEST PUSH1 0x20 DUP3 ADD SWAP1 POP SWAP2 SWAP1 POP JUMP JUMPDEST PUSH1 0x0 PUSH1 0x20 DUP3 ADD SWAP1 POP DUP2 DUP2 SUB PUSH1 0x0 DUP4 ADD MSTORE PUSH2 0x4691 DUP2 PUSH2 0x4655 JUMP JUMPDEST SWAP1 POP SWAP2 SWAP1 POP JUMP JUMPDEST PUSH32 0x53537761703A20412042616C616E63652E000000000000000000000000000000 PUSH1 0x0 DUP3 ADD MSTORE POP JUMP JUMPDEST PUSH1 0x0 PUSH2 0x46CE PUSH1 0x11 DUP4 PUSH2 0x37FF JUMP JUMPDEST SWAP2 POP PUSH2 0x46D9 DUP3 PUSH2 0x4698 JUMP JUMPDEST PUSH1 0x20 DUP3 ADD SWAP1 POP SWAP2 SWAP1 POP JUMP JUMPDEST PUSH1 0x0 PUSH1 0x20 DUP3 ADD SWAP1 POP DUP2 DUP2 SUB PUSH1 0x0 DUP4 ADD MSTORE PUSH2 0x46FD DUP2 PUSH2 0x46C1 JUMP JUMPDEST SWAP1 POP SWAP2 SWAP1 POP JUMP INVALID LOG2 PUSH5 0x6970667358 0x22 SLT KECCAK256 PUSH21 0xE472D6D7F4C5A86FD4EA6D5CE055D9BD4BD0196C65 DUP3 DUP7 CREATE PUSH29 0xAE5B6F74D79E64736F6C634300081C0033000000000000000000000000 "},"methodIdentifiers":{"addLiquidity(address,address,uint256,uint256,uint256,uint256,address,uint256)":"e8e33700","allowance(address,address)":"dd62ed3e","approve(address,uint256)":"095ea7b3","balanceOf(address)":"70a08231","burn(uint256)":"42966c68","burnFrom(address,uint256)":"79cc6790","decimals()":"313ce567","getAmountOut(uint256,uint256,uint256)":"054d50d4","getPrice(address,address)":"ac41865a","name()":"06fdde03","owner()":"8da5cb5b","removeLiquidity(address,address,uint256,uint256,uint256,address,uint256)":"baa2abde","renounceOwnership()":"715018a6","reserveOf(address)":"9fa77b20","swapExactTokensForTokens(uint256,uint256,address[],address,uint256)":"38ed1739","symbol()":"95d89b41","syncReserve(address)":"a4eef28a","totalSupply()":"18160ddd","transfer(address,uint256)":"a9059cbb","transferFrom(address,address,uint256)":"23b872dd","transferOwnership(address)":"f2fde38b"}}}}}