{"contracts/SimpleSwap.sol":{"SimpleSwap":{"abi":[{"inputs":[],"stateMutability":"nonpayable","type":"constructor"},{"inputs":[{"internalType":"address","name":"spender","type":"address"},{"internalType":"uint256","name":"allowance","type":"uint256"},{"internalType":"uint256","name":"needed","type":"uint256"}],"name":"ERC20InsufficientAllowance","type":"error"},{"inputs":[{"internalType":"address","name":"sender","type":"address"},{"internalType":"uint256","name":"balance","type":"uint256"},{"internalType":"uint256","name":"needed","type":"uint256"}],"name":"ERC20InsufficientBalance","type":"error"},{"inputs":[{"internalType":"address","name":"approver","type":"address"}],"name":"ERC20InvalidApprover","type":"error"},{"inputs":[{"internalType":"address","name":"receiver","type":"address"}],"name":"ERC20InvalidReceiver","type":"error"},{"inputs":[{"internalType":"address","name":"sender","type":"address"}],"name":"ERC20InvalidSender","type":"error"},{"inputs":[{"internalType":"address","name":"spender","type":"address"}],"name":"ERC20InvalidSpender","type":"error"},{"inputs":[{"internalType":"address","name":"owner","type":"address"}],"name":"OwnableInvalidOwner","type":"error"},{"inputs":[{"internalType":"address","name":"account","type":"address"}],"name":"OwnableUnauthorizedAccount","type":"error"},{"inputs":[],"name":"ReentrancyGuardReentrantCall","type":"error"},{"anonymous":false,"inputs":[{"indexed":true,"internalType":"address","name":"owner","type":"address"},{"indexed":true,"internalType":"address","name":"spender","type":"address"},{"indexed":false,"internalType":"uint256","name":"value","type":"uint256"}],"name":"Approval","type":"event"},{"anonymous":false,"inputs":[{"indexed":true,"internalType":"address","name":"provider","type":"address"},{"indexed":true,"internalType":"address","name":"tokenA","type":"address"},{"indexed":true,"internalType":"address","name":"tokenB","type":"address"},{"indexed":false,"internalType":"uint256","name":"amountA","type":"uint256"},{"indexed":false,"internalType":"uint256","name":"amountB","type":"uint256"},{"indexed":false,"internalType":"uint256","name":"liquidity","type":"uint256"}],"name":"LiquidityAdded","type":"event"},{"anonymous":false,"inputs":[{"indexed":true,"internalType":"address","name":"provider","type":"address"},{"indexed":true,"internalType":"address","name":"tokenA","type":"address"},{"indexed":true,"internalType":"address","name":"tokenB","type":"address"},{"indexed":false,"internalType":"uint256","name":"amountA","type":"uint256"},{"indexed":false,"internalType":"uint256","name":"amountB","type":"uint256"},{"indexed":false,"internalType":"uint256","name":"liquidity","type":"uint256"}],"name":"LiquidityRemoved","type":"event"},{"anonymous":false,"inputs":[{"indexed":true,"internalType":"address","name":"previousOwner","type":"address"},{"indexed":true,"internalType":"address","name":"newOwner","type":"address"}],"name":"OwnershipTransferred","type":"event"},{"anonymous":false,"inputs":[{"indexed":true,"internalType":"address","name":"trader","type":"address"},{"indexed":true,"internalType":"address","name":"tokenIn","type":"address"},{"indexed":true,"internalType":"address","name":"tokenOut","type":"address"},{"indexed":false,"internalType":"uint256","name":"amountIn","type":"uint256"},{"indexed":false,"internalType":"uint256","name":"amountOut","type":"uint256"}],"name":"TokenSwapped","type":"event"},{"anonymous":false,"inputs":[{"indexed":true,"internalType":"address","name":"from","type":"address"},{"indexed":true,"internalType":"address","name":"to","type":"address"},{"indexed":false,"internalType":"uint256","name":"value","type":"uint256"}],"name":"Transfer","type":"event"},{"inputs":[{"internalType":"address","name":"tokenA","type":"address"},{"internalType":"address","name":"tokenB","type":"address"},{"internalType":"uint256","name":"amountADesired","type":"uint256"},{"internalType":"uint256","name":"amountBDesired","type":"uint256"},{"internalType":"uint256","name":"amountAMin","type":"uint256"},{"internalType":"uint256","name":"amountBMin","type":"uint256"},{"internalType":"address","name":"to","type":"address"},{"internalType":"uint256","name":"deadline","type":"uint256"}],"name":"addLiquidity","outputs":[{"internalType":"uint256","name":"amountA","type":"uint256"},{"internalType":"uint256","name":"amountB","type":"uint256"},{"internalType":"uint256","name":"liquidity","type":"uint256"}],"stateMutability":"nonpayable","type":"function"},{"inputs":[{"internalType":"address","name":"owner","type":"address"},{"internalType":"address","name":"spender","type":"address"}],"name":"allowance","outputs":[{"internalType":"uint256","name":"","type":"uint256"}],"stateMutability":"view","type":"function"},{"inputs":[{"internalType":"address","name":"spender","type":"address"},{"internalType":"uint256","name":"value","type":"uint256"}],"name":"approve","outputs":[{"internalType":"bool","name":"","type":"bool"}],"stateMutability":"nonpayable","type":"function"},{"inputs":[{"internalType":"address","name":"account","type":"address"}],"name":"balanceOf","outputs":[{"internalType":"uint256","name":"","type":"uint256"}],"stateMutability":"view","type":"function"},{"inputs":[{"internalType":"uint256","name":"value","type":"uint256"}],"name":"burn","outputs":[],"stateMutability":"nonpayable","type":"function"},{"inputs":[{"internalType":"address","name":"account","type":"address"},{"internalType":"uint256","name":"value","type":"uint256"}],"name":"burnFrom","outputs":[],"stateMutability":"nonpayable","type":"function"},{"inputs":[],"name":"decimals","outputs":[{"internalType":"uint8","name":"","type":"uint8"}],"stateMutability":"view","type":"function"},{"inputs":[{"internalType":"uint256","name":"amountIn","type":"uint256"},{"internalType":"uint256","name":"reserveIn","type":"uint256"},{"internalType":"uint256","name":"reserveOut","type":"uint256"}],"name":"getAmountOut","outputs":[{"internalType":"uint256","name":"amountOut","type":"uint256"}],"stateMutability":"pure","type":"function"},{"inputs":[{"internalType":"address","name":"tokenA","type":"address"},{"internalType":"address","name":"tokenB","type":"address"}],"name":"getPrice","outputs":[{"internalType":"uint256","name":"price","type":"uint256"}],"stateMutability":"view","type":"function"},{"inputs":[],"name":"name","outputs":[{"internalType":"string","name":"","type":"string"}],"stateMutability":"view","type":"function"},{"inputs":[],"name":"owner","outputs":[{"internalType":"address","name":"","type":"address"}],"stateMutability":"view","type":"function"},{"inputs":[{"internalType":"address","name":"tokenA","type":"address"},{"internalType":"address","name":"tokenB","type":"address"},{"internalType":"uint256","name":"liquidity","type":"uint256"},{"internalType":"uint256","name":"amountAMin","type":"uint256"},{"internalType":"uint256","name":"amountBMin","type":"uint256"},{"internalType":"address","name":"to","type":"address"},{"internalType":"uint256","name":"deadline","type":"uint256"}],"name":"removeLiquidity","outputs":[{"internalType":"uint256","name":"amountA","type":"uint256"},{"internalType":"uint256","name":"amountB","type":"uint256"}],"stateMutability":"nonpayable","type":"function"},{"inputs":[],"name":"renounceOwnership","outputs":[],"stateMutability":"nonpayable","type":"function"},{"inputs":[{"internalType":"address","name":"","type":"address"}],"name":"reserveOf","outputs":[{"internalType":"uint256","name":"","type":"uint256"}],"stateMutability":"view","type":"function"},{"inputs":[{"internalType":"uint256","name":"amountIn","type":"uint256"},{"internalType":"uint256","name":"amountOutMin","type":"uint256"},{"internalType":"address[]","name":"path","type":"address[]"},{"internalType":"address","name":"to","type":"address"},{"internalType":"uint256","name":"deadline","type":"uint256"}],"name":"swapExactTokensForTokens","outputs":[{"internalType":"uint256[]","name":"amounts","type":"uint256[]"}],"stateMutability":"nonpayable","type":"function"},{"inputs":[],"name":"symbol","outputs":[{"internalType":"string","name":"","type":"string"}],"stateMutability":"view","type":"function"},{"inputs":[{"internalType":"address","name":"token","type":"address"}],"name":"syncReserve","outputs":[],"stateMutability":"nonpayable","type":"function"},{"inputs":[],"name":"totalSupply","outputs":[{"internalType":"uint256","name":"","type":"uint256"}],"stateMutability":"view","type":"function"},{"inputs":[{"internalType":"address","name":"to","type":"address"},{"internalType":"uint256","name":"value","type":"uint256"}],"name":"transfer","outputs":[{"internalType":"bool","name":"","type":"bool"}],"stateMutability":"nonpayable","type":"function"},{"inputs":[{"internalType":"address","name":"from","type":"address"},{"internalType":"address","name":"to","type":"address"},{"internalType":"uint256","name":"value","type":"uint256"}],"name":"transferFrom","outputs":[{"internalType":"bool","name":"","type":"bool"}],"stateMutability":"nonpayable","type":"function"},{"inputs":[{"internalType":"address","name":"newOwner","type":"address"}],"name":"transferOwnership","outputs":[],"stateMutability":"nonpayable","type":"function"}],"evm":{"bytecode":{"linkReferences":{},"object":"608060405234801561001057600080fd5b50336040518060400160405280600b81526020017f53696d706c6520537761700000000000000000000000000000000000000000008152506040518060400160405280600481526020017f5353575000000000000000000000000000000000000000000000000000000000815250816003908161008d9190610462565b50806004908161009d9190610462565b5050506001600581905550600073ffffffffffffffffffffffffffffffffffffffff168173ffffffffffffffffffffffffffffffffffffffff160361011a5760006040517f1e4fbdf70000000000000000000000000000000000000000000000000000000081526004016101119190610575565b60405180910390fd5b6101298161014960201b60201c565b506101446788032756139f09c760c01b61020f60201b60201c565b610590565b6000600660009054906101000a900473ffffffffffffffffffffffffffffffffffffffff16905081600660006101000a81548173ffffffffffffffffffffffffffffffffffffffff021916908373ffffffffffffffffffffffffffffffffffffffff1602179055508173ffffffffffffffffffffffffffffffffffffffff168173ffffffffffffffffffffffffffffffffffffffff167f8be0079c531659141344cd1fd0a4f28419497f9722a3daafe3b4186f6b6457e060405160405180910390a35050565b50565b600081519050919050565b7f4e487b7100000000000000000000000000000000000000000000000000000000600052604160045260246000fd5b7f4e487b7100000000000000000000000000000000000000000000000000000000600052602260045260246000fd5b6000600282049050600182168061029357607f821691505b6020821081036102a6576102a561024c565b5b50919050565b60008190508160005260206000209050919050565b60006020601f8301049050919050565b600082821b905092915050565b60006008830261030e7fffffffffffffffffffffffffffffffffffffffffffffffffffffffffffffffff826102d1565b61031886836102d1565b95508019841693508086168417925050509392505050565b6000819050919050565b6000819050919050565b600061035f61035a61035584610330565b61033a565b610330565b9050919050565b6000819050919050565b61037983610344565b61038d61038582610366565b8484546102de565b825550505050565b600090565b6103a2610395565b6103ad818484610370565b505050565b5b818110156103d1576103c660008261039a565b6001810190506103b3565b5050565b601f821115610416576103e7816102ac565b6103f0846102c1565b810160208510156103ff578190505b61041361040b856102c1565b8301826103b2565b50505b505050565b600082821c905092915050565b60006104396000198460080261041b565b1980831691505092915050565b60006104528383610428565b9150826002028217905092915050565b61046b82610212565b67ffffffffffffffff8111156104845761048361021d565b5b61048e825461027b565b6104998282856103d5565b600060209050601f8311600181146104cc57600084156104ba578287015190505b6104c48582610446565b86555061052c565b601f1984166104da866102ac565b60005b82811015610502578489015182556001820191506020850194506020810190506104dd565b8683101561051f578489015161051b601f891682610428565b8355505b6001600288020188555050505b505050505050565b600073ffffffffffffffffffffffffffffffffffffffff82169050919050565b600061055f82610534565b9050919050565b61056f81610554565b82525050565b600060208201905061058a6000830184610566565b92915050565b6146288061059f6000396000f3fe608060405234801561001057600080fd5b50600436106101375760003560e01c806379cc6790116100b8578063a9059cbb1161007c578063a9059cbb14610350578063ac41865a14610380578063baa2abde146103b0578063dd62ed3e146103e1578063e8e3370014610411578063f2fde38b1461044357610137565b806379cc6790146102ac5780638da5cb5b146102c857806395d89b41146102e65780639fa77b2014610304578063a4eef28a1461033457610137565b8063313ce567116100ff578063313ce5671461020857806338ed17391461022657806342966c681461025657806370a0823114610272578063715018a6146102a257610137565b8063054d50d41461013c57806306fdde031461016c578063095ea7b31461018a57806318160ddd146101ba57806323b872dd146101d8575b600080fd5b61015660048036038101906101519190613665565b61045f565b60405161016391906136c7565b60405180910390f35b6101746104c5565b6040516101819190613772565b60405180910390f35b6101a4600480360381019061019f91906137f2565b610557565b6040516101b1919061384d565b60405180910390f35b6101c261057a565b6040516101cf91906136c7565b60405180910390f35b6101f260048036038101906101ed9190613868565b610584565b6040516101ff919061384d565b60405180910390f35b6102106105b3565b60405161021d91906138d7565b60405180910390f35b610240600480360381019061023b9190613957565b6105bc565b60405161024d9190613aaf565b60405180910390f35b610270600480360381019061026b9190613ad1565b610dbc565b005b61028c60048036038101906102879190613afe565b610dd0565b60405161029991906136c7565b60405180910390f35b6102aa610e18565b005b6102c660048036038101906102c191906137f2565b610e2c565b005b6102d0610e4c565b6040516102dd9190613b3a565b60405180910390f35b6102ee610e76565b6040516102fb9190613772565b60405180910390f35b61031e60048036038101906103199190613afe565b610f08565b60405161032b91906136c7565b60405180910390f35b61034e60048036038101906103499190613afe565b610f20565b005b61036a600480360381019061036591906137f2565b611038565b604051610377919061384d565b60405180910390f35b61039a60048036038101906103959190613b55565b61105b565b6040516103a791906136c7565b60405180910390f35b6103ca60048036038101906103c59190613b95565b6111ae565b6040516103d8929190613c37565b60405180910390f35b6103fb60048036038101906103f69190613b55565b611629565b60405161040891906136c7565b60405180910390f35b61042b60048036038101906104269190613c60565b6116b0565b60405161043a93929190613d16565b60405180910390f35b61045d60048036038101906104589190613afe565b611ade565b005b60006104756795ae8bf06f87aa3060c01b611b64565b610489672799301b696b2a1a60c01b611b64565b610494848484611b67565b90506104aa67883f27bd6f56d3e660c01b611b64565b6104be67ac1efd23a87d40f060c01b611b64565b9392505050565b6060600380546104d490613d7c565b80601f016020809104026020016040519081016040528092919081815260200182805461050090613d7c565b801561054d5780601f106105225761010080835404028352916020019161054d565b820191906000526020600020905b81548152906001019060200180831161053057829003601f168201915b5050505050905090565b600080610562611d5f565b905061056f818585611d67565b600191505092915050565b6000600254905090565b60008061058f611d5f565b905061059c858285611d79565b6105a7858585611e0e565b60019150509392505050565b60006012905090565b60606105d26745d2c814478c038c60c01b611b64565b816105e7676f58d80f285bd63360c01b611b64565b6105fb674c4413935b09e12960c01b611b64565b61060f679be85b8866ce540860c01b611b64565b61062367278ad0793e397d8560c01b611b64565b428111610665576040517f08c379a000000000000000000000000000000000000000000000000000000000815260040161065c90613df9565b60405180910390fd5b610679677f3ebf4141a62a8460c01b611b64565b61068d676a3cc7ccd4b4099a60c01b611b64565b6106a16773f4be26ebd7abf660c01b611b64565b6106b567aba439ef7e7d745360c01b611b64565b858580806020026020016040519081016040528093929190818152602001838360200280828437600081840152601f19601f8201169050808301925050505050505061070b67aedf52e31f02690460c01b611b64565b61071f67ae42b729ee45e62d60c01b611b64565b61073367229df968b0921fbd60c01b611b64565b6107476792813401921fff0360c01b611b64565b600281511461078b576040517f08c379a000000000000000000000000000000000000000000000000000000000815260040161078290613e65565b60405180910390fd5b61079f67ba4cb43791568f8560c01b611b64565b6107b367eb084abb294157a360c01b611b64565b6107c7673d43063a835cafa460c01b611b64565b6107db679aeb5b1e3964785a60c01b611b64565b6107e3611f02565b6107f7671490e0bb82ac413660c01b611b64565b61080b6724ed8e1c6503d81160c01b611b64565b61081f670ea33943eb491b5260c01b611b64565b610833677f2dc2619a2f04e060c01b611b64565b610847676dc23ed0452137bd60c01b611b64565b8686600181811061085b5761085a613e85565b5b90506020020160208101906108709190613afe565b73ffffffffffffffffffffffffffffffffffffffff168787600081811061089a57610899613e85565b5b90506020020160208101906108af9190613afe565b73ffffffffffffffffffffffffffffffffffffffff1603610905576040517f08c379a00000000000000000000000000000000000000000000000000000000081526004016108fc90613f00565b60405180910390fd5b610919671bdfcd19652093bf60c01b611b64565b61092d67182ca3c7e0b5514460c01b611b64565b61097889888880806020026020016040519081016040528093929190818152602001838360200280828437600081840152601f19601f82011690508083019250505050505050611f48565b925061098e67b71d2271851c397a60c01b611b64565b6109a2671c9d4afa06b12dec60c01b611b64565b6109b667881e8d07fdec9c0960c01b611b64565b87836001815181106109cb576109ca613e85565b5b60200260200101511015610a14576040517f08c379a0000000000000000000000000000000000000000000000000000000008152600401610a0b90613f6c565b60405180910390fd5b610a2867ee5e31714bcc546760c01b611b64565b610a3c676a798b807e3c81ae60c01b611b64565b610a5067411ae2597ff2701660c01b611b64565b610a8487876000818110610a6757610a66613e85565b5b9050602002016020810190610a7c9190613afe565b33308c6121d2565b610a98678ac7eae7795200c360c01b611b64565b610aac670cbc9e593839d09a60c01b611b64565b610afa87876001818110610ac357610ac2613e85565b5b9050602002016020810190610ad89190613afe565b8685600181518110610aed57610aec613e85565b5b6020026020010151612329565b610b0e673b47f44eb10e807960c01b611b64565b82600081518110610b2257610b21613e85565b5b60200260200101516007600089896000818110610b4257610b41613e85565b5b9050602002016020810190610b579190613afe565b73ffffffffffffffffffffffffffffffffffffffff1673ffffffffffffffffffffffffffffffffffffffff1681526020019081526020016000206000828254610ba09190613fbb565b92505081905550610bbb67b3b87980748dbd0360c01b611b64565b82600181518110610bcf57610bce613e85565b5b60200260200101516007600089896001818110610bef57610bee613e85565b5b9050602002016020810190610c049190613afe565b73ffffffffffffffffffffffffffffffffffffffff1673ffffffffffffffffffffffffffffffffffffffff1681526020019081526020016000206000828254610c4d9190613fef565b92505081905550610c686770c1adc3a3192cbc60c01b611b64565b610c7c67172855709e7eff8e60c01b611b64565b86866001818110610c9057610c8f613e85565b5b9050602002016020810190610ca59190613afe565b73ffffffffffffffffffffffffffffffffffffffff1687876000818110610ccf57610cce613e85565b5b9050602002016020810190610ce49190613afe565b73ffffffffffffffffffffffffffffffffffffffff163373ffffffffffffffffffffffffffffffffffffffff167fd36cc53ba71bc76a3db3364981f5296dd4ca5eba0e8c89874f2170515bd20d2486600081518110610d4657610d45613e85565b5b602002602001015187600181518110610d6257610d61613e85565b5b6020026020010151604051610d78929190613c37565b60405180910390a4610d9467bf736dbc69a6358d60c01b611b64565b610da86715ec6c042811d4c760c01b611b64565b610db061247d565b50509695505050505050565b610dcd610dc7611d5f565b82612487565b50565b60008060008373ffffffffffffffffffffffffffffffffffffffff1673ffffffffffffffffffffffffffffffffffffffff168152602001908152602001600020549050919050565b610e20612509565b610e2a6000612590565b565b610e3e82610e38611d5f565b83611d79565b610e488282612487565b5050565b6000600660009054906101000a900473ffffffffffffffffffffffffffffffffffffffff16905090565b606060048054610e8590613d7c565b80601f0160208091040260200160405190810160405280929190818152602001828054610eb190613d7c565b8015610efe5780601f10610ed357610100808354040283529160200191610efe565b820191906000526020600020905b815481529060010190602001808311610ee157829003601f168201915b5050505050905090565b60076020528060005260406000206000915090505481565b610f346739ce43d2ba47895d60c01b611b64565b610f3c612509565b610f50670d707e6768882feb60c01b611b64565b610f6467d6899708a0e953d460c01b611b64565b610f78672e2126e45edae97360c01b611b64565b8073ffffffffffffffffffffffffffffffffffffffff166370a08231306040518263ffffffff1660e01b8152600401610fb19190613b3a565b602060405180830381865afa158015610fce573d6000803e3d6000fd5b505050506040513d601f19601f82011682018060405250810190610ff29190614038565b600760008373ffffffffffffffffffffffffffffffffffffffff1673ffffffffffffffffffffffffffffffffffffffff1681526020019081526020016000208190555050565b600080611043611d5f565b9050611050818585611e0e565b600191505092915050565b600061107167b0d61d3a736879dc60c01b611b64565b61108567f8aa75485206d0b560c01b611b64565b61109967fe1c6f104274306c60c01b611b64565b6000806110a68585612656565b915091506110be673c40924e97f5983b60c01b611b64565b6110d2670e684e4b24a07ac260c01b611b64565b6110e6677ef4551155b86a2a60c01b611b64565b6000821180156110f65750600081115b611135576040517f08c379a000000000000000000000000000000000000000000000000000000000815260040161112c906140b1565b60405180910390fd5b61114967d83a7d2d4c19007c60c01b611b64565b61115d67329eac3237681fea60c01b611b64565b81670de0b6b3a76400008261117291906140d1565b61117c9190614142565b925061119267659a319b48d1597860c01b611b64565b6111a66740c0f2efa0a1202060c01b611b64565b505092915050565b6000806111c567441f5fee5aecace060c01b611b64565b826111da676f58d80f285bd63360c01b611b64565b6111ee674c4413935b09e12960c01b611b64565b611202679be85b8866ce540860c01b611b64565b61121667278ad0793e397d8560c01b611b64565b428111611258576040517f08c379a000000000000000000000000000000000000000000000000000000000815260040161124f90613df9565b60405180910390fd5b61126c677f3ebf4141a62a8460c01b611b64565b611280676a3cc7ccd4b4099a60c01b611b64565b611294677487db176f0d3d5e60c01b611b64565b6112a8676021b281f2bd623760c01b611b64565b6112b0611f02565b6112c467b8d309cbb052264060c01b611b64565b6112d8674a81ad981a858fbc60c01b611b64565b6112ec678de9fcd34a15ee9e60c01b611b64565b61130067fd498b5b3dfb158260c01b611b64565b60008061130d8c8c612656565b9150915061132567bedac171748a51de60c01b611b64565b6113308a8383612748565b809550819650505061134c6751b5a9e0d538ceaf60c01b611b64565b61136067c919313bb5655b0960c01b611b64565b61137467743bd3307a46343760c01b611b64565b8885101580156113845750878410155b6113c3576040517f08c379a00000000000000000000000000000000000000000000000000000000081526004016113ba906141bf565b60405180910390fd5b6113d767dd08a1826382d3f860c01b611b64565b6113eb670d0d1ac9bd3d80fb60c01b611b64565b84600760008e73ffffffffffffffffffffffffffffffffffffffff1673ffffffffffffffffffffffffffffffffffffffff168152602001908152602001600020600082825461143a9190613fef565b925050819055506114556798469a49cbc834ee60c01b611b64565b83600760008d73ffffffffffffffffffffffffffffffffffffffff1673ffffffffffffffffffffffffffffffffffffffff16815260200190815260200160002060008282546114a49190613fef565b925050819055506114bf67428225e9f782eafa60c01b611b64565b6114d367ba736fd60738059d60c01b611b64565b6114dc8a610dbc565b6114f067936e679119b639b360c01b611b64565b61150467204db7fc20b7b16560c01b611b64565b61150f8c8887612329565b611523675c3ba6ce9dc9a2dd60c01b611b64565b611537673853c22cf84b24fb60c01b611b64565b6115428b8886612329565b611556675b1337609b7fcfea60c01b611b64565b61156a67aad6cc282ef96ad760c01b611b64565b8a73ffffffffffffffffffffffffffffffffffffffff168c73ffffffffffffffffffffffffffffffffffffffff163373ffffffffffffffffffffffffffffffffffffffff167fd765e08eef31c0983ecca03ecd166297ac485ecd5dd69e291c848f0a020333c188888f6040516115e293929190613d16565b60405180910390a46115fe674448d952572f209c60c01b611b64565b611612670238611c007e046a60c01b611b64565b505061161c61247d565b5097509795505050505050565b6000600160008473ffffffffffffffffffffffffffffffffffffffff1673ffffffffffffffffffffffffffffffffffffffff16815260200190815260200160002060008373ffffffffffffffffffffffffffffffffffffffff1673ffffffffffffffffffffffffffffffffffffffff16815260200190815260200160002054905092915050565b60008060006116c967d90abcbc14591bb260c01b611b64565b836116de676f58d80f285bd63360c01b611b64565b6116f2674c4413935b09e12960c01b611b64565b611706679be85b8866ce540860c01b611b64565b61171a67278ad0793e397d8560c01b611b64565b42811161175c576040517f08c379a000000000000000000000000000000000000000000000000000000000815260040161175390613df9565b60405180910390fd5b611770677f3ebf4141a62a8460c01b611b64565b611784676a3cc7ccd4b4099a60c01b611b64565b61179867e10be893a56b4a9f60c01b611b64565b6117ac67325fdde2be4bc1d660c01b611b64565b6117b4611f02565b6117c8673db0e24ff7de74e360c01b611b64565b6117dc67c561340d15a80b9460c01b611b64565b6117f067a511ed25a7fcaa2860c01b611b64565b611804676b1d20e5fd4bb7bf60c01b611b64565b61181867bde5a7a6adbe37f960c01b611b64565b8a73ffffffffffffffffffffffffffffffffffffffff168c73ffffffffffffffffffffffffffffffffffffffff1603611886576040517f08c379a000000000000000000000000000000000000000000000000000000000815260040161187d9061422b565b60405180910390fd5b61189a67ac0a0c465814509a60c01b611b64565b6118ae6775c634ca425c4eb260c01b611b64565b6118c2678d81472b94cbfe7560c01b611b64565b6000806118cf8e8e612656565b915091506118e767136767281410f15260c01b611b64565b6118f58c8c8c8c8686612911565b8096508197505050611911675942ff0d494f58db60c01b611b64565b611925670a42b03fc1a3593060c01b611b64565b6119318e3330896121d2565b611945678cab5e0326cf64f760c01b611b64565b611959679d35b12d5cc1a5b960c01b611b64565b6119658d3330886121d2565b61197967b3f924ab9a43c42360c01b611b64565b61198d674f20008d8ea82d7b60c01b611b64565b6119998e8e8888612cfa565b6119ad670a54308cfea5fddb60c01b611b64565b6119c18e8e88886119bc61057a565b612de8565b93506119d7673bd768b91244ccab60c01b611b64565b6119eb675e76122687780e3f60c01b611b64565b6119f58885612fd6565b611a0967a1ba306ca82ca0a560c01b611b64565b611a1d67806f4b1e584e766060c01b611b64565b8c73ffffffffffffffffffffffffffffffffffffffff168e73ffffffffffffffffffffffffffffffffffffffff163373ffffffffffffffffffffffffffffffffffffffff167f43c967b388d3a4ccad3f7ab80167852e322e5a3fde9893f530252281b2ae8b70898989604051611a9593929190613d16565b60405180910390a4611ab167f8f2a17b6c99fe7960c01b611b64565b611ac56757423a21c82a269460c01b611b64565b5050611acf61247d565b50985098509895505050505050565b611ae6612509565b600073ffffffffffffffffffffffffffffffffffffffff168173ffffffffffffffffffffffffffffffffffffffff1603611b585760006040517f1e4fbdf7000000000000000000000000000000000000000000000000000000008152600401611b4f9190613b3a565b60405180910390fd5b611b6181612590565b50565b50565b6000611b7d675a631bad22b333c560c01b611b64565b8282611b9367072ada1136cfb18160c01b611b64565b611ba7679d893b3de856f29560c01b611b64565b611bbb674fb131068698a1f860c01b611b64565b611bcf671f40dd99a27cb28c60c01b611b64565b600082118015611bdf5750600081115b611c1e576040517f08c379a0000000000000000000000000000000000000000000000000000000008152600401611c1590614297565b60405180910390fd5b611c326799983bfc3728d84860c01b611b64565b611c466758e6ddbf3c24d11460c01b611b64565b611c5a67a8cdd560eccce90060c01b611b64565b611c6e675f872059c81cb70360c01b611b64565b611c826721a55e31dbcf862260c01b611b64565b611c9667c8ba52fb9734893560c01b611b64565b611caa67d79ff5e2fc0ee66360c01b611b64565b60008611611ced576040517f08c379a0000000000000000000000000000000000000000000000000000000008152600401611ce490614303565b60405180910390fd5b611d01672c7899b59155941360c01b611b64565b611d15677b3f28de916e0dac60c01b611b64565b848487611d2291906140d1565b611d2c9190614142565b9250611d4267992bb06846fed28f60c01b611b64565b611d5667860e2936e302caae60c01b611b64565b50509392505050565b600033905090565b611d748383836001613058565b505050565b6000611d858484611629565b90507fffffffffffffffffffffffffffffffffffffffffffffffffffffffffffffffff811015611e085781811015611df8578281836040517ffb8f41b2000000000000000000000000000000000000000000000000000000008152600401611def93929190614323565b60405180910390fd5b611e0784848484036000613058565b5b50505050565b600073ffffffffffffffffffffffffffffffffffffffff168373ffffffffffffffffffffffffffffffffffffffff1603611e805760006040517f96c6fd1e000000000000000000000000000000000000000000000000000000008152600401611e779190613b3a565b60405180910390fd5b600073ffffffffffffffffffffffffffffffffffffffff168273ffffffffffffffffffffffffffffffffffffffff1603611ef25760006040517fec442f05000000000000000000000000000000000000000000000000000000008152600401611ee99190613b3a565b60405180910390fd5b611efd83838361322f565b505050565b600260055403611f3e576040517f3ee5aeb500000000000000000000000000000000000000000000000000000000815260040160405180910390fd5b6002600581905550565b6060611f5e671e6150fb9f64dd9860c01b611b64565b81611f7367aedf52e31f02690460c01b611b64565b611f8767ae42b729ee45e62d60c01b611b64565b611f9b67229df968b0921fbd60c01b611b64565b611faf6792813401921fff0360c01b611b64565b6002815114611ff3576040517f08c379a0000000000000000000000000000000000000000000000000000000008152600401611fea90613e65565b60405180910390fd5b61200767ba4cb43791568f8560c01b611b64565b61201b67eb084abb294157a360c01b611b64565b61202f672127ccdc6499dbeb60c01b611b64565b61204367cdf4587bd984d87c60c01b611b64565b612057674b4cfbef3b636ec360c01b611b64565b825167ffffffffffffffff8111156120725761207161435a565b5b6040519080825280602002602001820160405280156120a05781602001602082028036833780820191505090505b5091506120b76774e9a46ba7553f2360c01b611b64565b83826000815181106120cc576120cb613e85565b5b6020026020010181815250506120ec671a8432194771992c60c01b611b64565b6121006754a907154853f5d360c01b611b64565b6000806121438560008151811061211a57612119613e85565b5b60200260200101518660018151811061213657612135613e85565b5b6020026020010151612656565b9150915061215b671d09e982a19de5c460c01b611b64565b6121818460008151811061217257612171613e85565b5b60200260200101518383611b67565b8460018151811061219557612194613e85565b5b6020026020010181815250506121b567b5f4babfd8e5223260c01b611b64565b6121c967c45bd7cef8c51c6460c01b611b64565b50505092915050565b6121e667ee9b4d885ae7875c60c01b611b64565b6121fa672f8a80fbfde38a8860c01b611b64565b61220e674d18d06b093e273460c01b611b64565b60008473ffffffffffffffffffffffffffffffffffffffff166323b872dd8585856040518463ffffffff1660e01b815260040161224d93929190614389565b6020604051808303816000875af115801561226c573d6000803e3d6000fd5b505050506040513d601f19601f8201168201806040525081019061229091906143ec565b90506122a66797e32177a7486b0e60c01b611b64565b6122ba6785566f06335473f060c01b611b64565b6122ce679ea8eb6a82379d0460c01b611b64565b8061230e576040517f08c379a000000000000000000000000000000000000000000000000000000000815260040161230590614465565b60405180910390fd5b61232267c188c6b1c85aaf0460c01b611b64565b5050505050565b61233d67c6fc23b6b13efb6160c01b611b64565b61235167d388b5cf1ff656b060c01b611b64565b61236567abf6b794e052279660c01b611b64565b60008373ffffffffffffffffffffffffffffffffffffffff1663a9059cbb84846040518363ffffffff1660e01b81526004016123a2929190614485565b6020604051808303816000875af11580156123c1573d6000803e3d6000fd5b505050506040513d601f19601f820116820180604052508101906123e591906143ec565b90506123fb67442817dbd61e87a460c01b611b64565b61240f67076f008f2bfbedd960c01b611b64565b61242367892941bdc093411260c01b611b64565b80612463576040517f08c379a000000000000000000000000000000000000000000000000000000000815260040161245a90614465565b60405180910390fd5b6124776728fb85f33e6dd36560c01b611b64565b50505050565b6001600581905550565b600073ffffffffffffffffffffffffffffffffffffffff168273ffffffffffffffffffffffffffffffffffffffff16036124f95760006040517f96c6fd1e0000000000000000000000000000000000000000000000000000000081526004016124f09190613b3a565b60405180910390fd5b6125058260008361322f565b5050565b612511611d5f565b73ffffffffffffffffffffffffffffffffffffffff1661252f610e4c565b73ffffffffffffffffffffffffffffffffffffffff161461258e57612552611d5f565b6040517f118cdaa70000000000000000000000000000000000000000000000000000000081526004016125859190613b3a565b60405180910390fd5b565b6000600660009054906101000a900473ffffffffffffffffffffffffffffffffffffffff16905081600660006101000a81548173ffffffffffffffffffffffffffffffffffffffff021916908373ffffffffffffffffffffffffffffffffffffffff1602179055508173ffffffffffffffffffffffffffffffffffffffff168173ffffffffffffffffffffffffffffffffffffffff167f8be0079c531659141344cd1fd0a4f28419497f9722a3daafe3b4186f6b6457e060405160405180910390a35050565b60008061266d67a72c1de98a3e10e960c01b611b64565b61268167f64ab210e9e907fa60c01b611b64565b600760008573ffffffffffffffffffffffffffffffffffffffff1673ffffffffffffffffffffffffffffffffffffffff1681526020019081526020016000205491506126d7677a634688dec64e1d60c01b611b64565b600760008473ffffffffffffffffffffffffffffffffffffffff1673ffffffffffffffffffffffffffffffffffffffff16815260200190815260200160002054905061272d6761081932b446b62260c01b611b64565b612741670916e04ccaac4a6460c01b611b64565b9250929050565b60008061275f67a91a5b30177a253760c01b611b64565b838361277567072ada1136cfb18160c01b611b64565b612789679d893b3de856f29560c01b611b64565b61279d674fb131068698a1f860c01b611b64565b6127b1671f40dd99a27cb28c60c01b611b64565b6000821180156127c15750600081115b612800576040517f08c379a00000000000000000000000000000000000000000000000000000000081526004016127f790614297565b60405180910390fd5b6128146799983bfc3728d84860c01b611b64565b6128286758e6ddbf3c24d11460c01b611b64565b61283c67517b94ecb31195e060c01b611b64565b61285067bd13413597166ddf60c01b611b64565b612864674c41bd7bc7d841c560c01b611b64565b61287867014feb8ab553475f60c01b611b64565b600061288261057a565b90506128986757c8882179285bd960c01b611b64565b8087896128a591906140d1565b6128af9190614142565b94506128c5677733d06353f9deb560c01b611b64565b8086896128d291906140d1565b6128dc9190614142565b93506128f26730c320dd4fafe51860c01b611b64565b6129066707f4dccd95031aa060c01b611b64565b505050935093915050565b600080612928676f0c43a3935570d560c01b611b64565b61293c67d993ac161953b4dc60c01b611b64565b612950679d52261a2ccf7c5d60c01b611b64565b60006129666706f13025084cffb160c01b611b64565b61297a6753f1e06edfc98cdf60c01b611b64565b6000612990676f3d9a105e13110560c01b611b64565b6129a467b20cd6f46003d3d760c01b611b64565b6000861480156129b45750600085145b156129f0576129cd67f7df6bc3444a376860c01b611b64565b6129e167894ab39be5ad1fb460c01b611b64565b89898094508195505050612cc5565b612a04678c11120b09fa142c60c01b611b64565b612a1867c6dcc0989e62cfc860c01b611b64565b612a238a8787611b67565b9050612a39672c7c15981d6b699760c01b611b64565b612a4d675b3c74d65c259d3060c01b611b64565b888111612b1e57612a6867b26e40a38532bb9b60c01b611b64565b612a7c671b2dd8aa0045890060c01b611b64565b612a9067f3468d403617de4b60c01b611b64565b612aa46736e63e4e38205fe460c01b611b64565b86811015612ae7576040517f08c379a0000000000000000000000000000000000000000000000000000000008152600401612ade906144fa565b60405180910390fd5b612afb6712fee7324aaa9c0960c01b611b64565b612b0f67523df4f5420dba5860c01b611b64565b89818094508195505050612cc4565b612b3267df2eb3ebab6918f560c01b611b64565b612b466786578b0bcc4cedbf60c01b611b64565b612b51898688611b67565b9150612b67675a1ed0ce2166977360c01b611b64565b612b7b67346f21c3f71fe6a560c01b611b64565b898211612c4c57612b9667c51db4323462b66860c01b611b64565b612baa674011c9e209ba660560c01b611b64565b612bbe674dbe750be309b85660c01b611b64565b612bd267d26ce3dbcd76e77260c01b611b64565b87821015612c15576040517f08c379a0000000000000000000000000000000000000000000000000000000008152600401612c0c90614566565b60405180910390fd5b612c2967394aba989d2dd80460c01b611b64565b612c3d67e1e2992e0a6b6a4a60c01b611b64565b81898094508195505050612cc3565b612c6067b01b2fa3e074efd160c01b611b64565b612c746736eeb157222375be60c01b611b64565b612c8867bba30cc30b8feb0c60c01b611b64565b6040517f08c379a0000000000000000000000000000000000000000000000000000000008152600401612cba906145d2565b60405180910390fd5b5b5b612cd96731129ac87a809b3d60c01b611b64565b612ced674c2ebdbb398c1e8560c01b611b64565b5050965096945050505050565b612d0e671a411c6f9507963b60c01b611b64565b612d2267b248f97f9aafd9c160c01b611b64565b81600760008673ffffffffffffffffffffffffffffffffffffffff1673ffffffffffffffffffffffffffffffffffffffff1681526020019081526020016000206000828254612d719190613fbb565b92505081905550612d8c670837e896497660ca60c01b611b64565b80600760008573ffffffffffffffffffffffffffffffffffffffff1673ffffffffffffffffffffffffffffffffffffffff1681526020019081526020016000206000828254612ddb9190613fbb565b9250508190555050505050565b6000612dfe67759cc84a6755403560c01b611b64565b612e1267f0cf54dcc85d240660c01b611b64565b612e26670e394a4770da7b3a60c01b611b64565b60008203612e7157612e426744182aafa387f82d60c01b611b64565b612e5667711fc4b654ad68d160c01b611b64565b612e6a8385612e6591906140d1565b613454565b9050612fa5565b612e8567de090170bdcd770860c01b611b64565b612e9967a37fd826b40d9d3060c01b611b64565b612ead6729ac3dd80024410860c01b611b64565b600080612eba8888612656565b91509150612ed26797f90b63a6c5aeea60c01b611b64565b612ee6670e000f9bf292129e60c01b611b64565b6000828588612ef591906140d1565b612eff9190614142565b9050612f1567a89907dee0b1ecff60c01b611b64565b612f29675b5e758128edd91460c01b611b64565b6000828688612f3891906140d1565b612f429190614142565b9050612f586759d119f553dd896660c01b611b64565b80821080612f765750612f756768f1a021433c33c360c01b613613565b5b8015612f925750612f91677ac920647948b6a260c01b61361a565b5b612f9c5780612f9e565b815b9450505050505b612fb967b17de76458c8b50660c01b611b64565b612fcd6745486584d73dde2960c01b611b64565b95945050505050565b600073ffffffffffffffffffffffffffffffffffffffff168273ffffffffffffffffffffffffffffffffffffffff16036130485760006040517fec442f0500000000000000000000000000000000000000000000000000000000815260040161303f9190613b3a565b60405180910390fd5b6130546000838361322f565b5050565b600073ffffffffffffffffffffffffffffffffffffffff168473ffffffffffffffffffffffffffffffffffffffff16036130ca5760006040517fe602df050000000000000000000000000000000000000000000000000000000081526004016130c19190613b3a565b60405180910390fd5b600073ffffffffffffffffffffffffffffffffffffffff168373ffffffffffffffffffffffffffffffffffffffff160361313c5760006040517f94280d620000000000000000000000000000000000000000000000000000000081526004016131339190613b3a565b60405180910390fd5b81600160008673ffffffffffffffffffffffffffffffffffffffff1673ffffffffffffffffffffffffffffffffffffffff16815260200190815260200160002060008573ffffffffffffffffffffffffffffffffffffffff1673ffffffffffffffffffffffffffffffffffffffff168152602001908152602001600020819055508015613229578273ffffffffffffffffffffffffffffffffffffffff168473ffffffffffffffffffffffffffffffffffffffff167f8c5be1e5ebec7d5bd14f71427d1e84f3dd0314c0f7b2291e5b200ac8c7c3b9258460405161322091906136c7565b60405180910390a35b50505050565b600073ffffffffffffffffffffffffffffffffffffffff168373ffffffffffffffffffffffffffffffffffffffff16036132815780600260008282546132759190613fbb565b92505081905550613354565b60008060008573ffffffffffffffffffffffffffffffffffffffff1673ffffffffffffffffffffffffffffffffffffffff1681526020019081526020016000205490508181101561330d578381836040517fe450d38c00000000000000000000000000000000000000000000000000000000815260040161330493929190614323565b60405180910390fd5b8181036000808673ffffffffffffffffffffffffffffffffffffffff1673ffffffffffffffffffffffffffffffffffffffff16815260200190815260200160002081905550505b600073ffffffffffffffffffffffffffffffffffffffff168273ffffffffffffffffffffffffffffffffffffffff160361339d57806002600082825403925050819055506133ea565b806000808473ffffffffffffffffffffffffffffffffffffffff1673ffffffffffffffffffffffffffffffffffffffff168152602001908152602001600020600082825401925050819055505b8173ffffffffffffffffffffffffffffffffffffffff168373ffffffffffffffffffffffffffffffffffffffff167fddf252ad1be2c89b69c2b068fc378daa952ba7f163c4a11628f55a4df523b3ef8360405161344791906136c7565b60405180910390a3505050565b600061346a672f0ed1ccc13a545160c01b611b64565b61347e674c687ad7fe850eaf60c01b611b64565b613492670c799ff0abadf68f60c01b611b64565b6003821115613597576134af67d2103044c7f43cdf60c01b611b64565b6134c3679e94c64db3faa81560c01b611b64565b8190506134da672f0ad733493ce36260c01b611b64565b6134ee67b2fdbc85b9ededc560c01b611b64565b600060016002846134ff9190614142565b6135099190613fbb565b905061351f67ac163a0da8a72be660c01b611b64565b6135336771e570f1c6d57c1a60c01b611b64565b5b818110156135915761355067fe213a033555135160c01b611b64565b80915061356767bc2a36190a859f1460c01b611b64565b60028182856135769190614142565b6135809190613fbb565b61358a9190614142565b9050613534565b5061360e565b6135ab67149d83b0e3d4ffa460c01b611b64565b6135bf671ce728c6864e1b4e60c01b611b64565b600082146135f8576135db674166f41802c7dbd760c01b611b64565b6135ef67cdeda41770ead2d360c01b611b64565b6001905061360d565b61360c67e9ebf47b38c08ce160c01b611b64565b5b5b919050565b6000919050565b600060019050919050565b600080fd5b600080fd5b6000819050919050565b6136428161362f565b811461364d57600080fd5b50565b60008135905061365f81613639565b92915050565b60008060006060848603121561367e5761367d613625565b5b600061368c86828701613650565b935050602061369d86828701613650565b92505060406136ae86828701613650565b9150509250925092565b6136c18161362f565b82525050565b60006020820190506136dc60008301846136b8565b92915050565b600081519050919050565b600082825260208201905092915050565b60005b8381101561371c578082015181840152602081019050613701565b60008484015250505050565b6000601f19601f8301169050919050565b6000613744826136e2565b61374e81856136ed565b935061375e8185602086016136fe565b61376781613728565b840191505092915050565b6000602082019050818103600083015261378c8184613739565b905092915050565b600073ffffffffffffffffffffffffffffffffffffffff82169050919050565b60006137bf82613794565b9050919050565b6137cf816137b4565b81146137da57600080fd5b50565b6000813590506137ec816137c6565b92915050565b6000806040838503121561380957613808613625565b5b6000613817858286016137dd565b925050602061382885828601613650565b9150509250929050565b60008115159050919050565b61384781613832565b82525050565b6000602082019050613862600083018461383e565b92915050565b60008060006060848603121561388157613880613625565b5b600061388f868287016137dd565b93505060206138a0868287016137dd565b92505060406138b186828701613650565b9150509250925092565b600060ff82169050919050565b6138d1816138bb565b82525050565b60006020820190506138ec60008301846138c8565b92915050565b600080fd5b600080fd5b600080fd5b60008083601f840112613917576139166138f2565b5b8235905067ffffffffffffffff811115613934576139336138f7565b5b6020830191508360208202830111156139505761394f6138fc565b5b9250929050565b60008060008060008060a0878903121561397457613973613625565b5b600061398289828a01613650565b965050602061399389828a01613650565b955050604087013567ffffffffffffffff8111156139b4576139b361362a565b5b6139c089828a01613901565b945094505060606139d389828a016137dd565b92505060806139e489828a01613650565b9150509295509295509295565b600081519050919050565b600082825260208201905092915050565b6000819050602082019050919050565b613a268161362f565b82525050565b6000613a388383613a1d565b60208301905092915050565b6000602082019050919050565b6000613a5c826139f1565b613a6681856139fc565b9350613a7183613a0d565b8060005b83811015613aa2578151613a898882613a2c565b9750613a9483613a44565b925050600181019050613a75565b5085935050505092915050565b60006020820190508181036000830152613ac98184613a51565b905092915050565b600060208284031215613ae757613ae6613625565b5b6000613af584828501613650565b91505092915050565b600060208284031215613b1457613b13613625565b5b6000613b22848285016137dd565b91505092915050565b613b34816137b4565b82525050565b6000602082019050613b4f6000830184613b2b565b92915050565b60008060408385031215613b6c57613b6b613625565b5b6000613b7a858286016137dd565b9250506020613b8b858286016137dd565b9150509250929050565b600080600080600080600060e0888a031215613bb457613bb3613625565b5b6000613bc28a828b016137dd565b9750506020613bd38a828b016137dd565b9650506040613be48a828b01613650565b9550506060613bf58a828b01613650565b9450506080613c068a828b01613650565b93505060a0613c178a828b016137dd565b92505060c0613c288a828b01613650565b91505092959891949750929550565b6000604082019050613c4c60008301856136b8565b613c5960208301846136b8565b9392505050565b600080600080600080600080610100898b031215613c8157613c80613625565b5b6000613c8f8b828c016137dd565b9850506020613ca08b828c016137dd565b9750506040613cb18b828c01613650565b9650506060613cc28b828c01613650565b9550506080613cd38b828c01613650565b94505060a0613ce48b828c01613650565b93505060c0613cf58b828c016137dd565b92505060e0613d068b828c01613650565b9150509295985092959890939650565b6000606082019050613d2b60008301866136b8565b613d3860208301856136b8565b613d4560408301846136b8565b949350505050565b7f4e487b7100000000000000000000000000000000000000000000000000000000600052602260045260246000fd5b60006002820490506001821680613d9457607f821691505b602082108103613da757613da6613d4d565b5b50919050565b7f53537761703a20446561646c696e6520726561636865642e0000000000000000600082015250565b6000613de36018836136ed565b9150613dee82613dad565b602082019050919050565b60006020820190508181036000830152613e1281613dd6565b9050919050565b7f53537761703a204e6f20746f6b656e732073656c65637465642e000000000000600082015250565b6000613e4f601a836136ed565b9150613e5a82613e19565b602082019050919050565b60006020820190508181036000830152613e7e81613e42565b9050919050565b7f4e487b7100000000000000000000000000000000000000000000000000000000600052603260045260246000fd5b7f53537761703a2053616d6520746f6b656e732e00000000000000000000000000600082015250565b6000613eea6013836136ed565b9150613ef582613eb4565b602082019050919050565b60006020820190508181036000830152613f1981613edd565b9050919050565b7f53537761703a205472616e736665722063616e63656c6c65642e000000000000600082015250565b6000613f56601a836136ed565b9150613f6182613f20565b602082019050919050565b60006020820190508181036000830152613f8581613f49565b9050919050565b7f4e487b7100000000000000000000000000000000000000000000000000000000600052601160045260246000fd5b6000613fc68261362f565b9150613fd18361362f565b9250828201905080821115613fe957613fe8613f8c565b5b92915050565b6000613ffa8261362f565b91506140058361362f565b925082820390508181111561401d5761401c613f8c565b5b92915050565b60008151905061403281613639565b92915050565b60006020828403121561404e5761404d613625565b5b600061405c84828501614023565b91505092915050565b7f53537761703a204c69717569646974792e000000000000000000000000000000600082015250565b600061409b6011836136ed565b91506140a682614065565b602082019050919050565b600060208201905081810360008301526140ca8161408e565b9050919050565b60006140dc8261362f565b91506140e78361362f565b92508282026140f58161362f565b9150828204841483151761410c5761410b613f8c565b5b5092915050565b7f4e487b7100000000000000000000000000000000000000000000000000000000600052601260045260246000fd5b600061414d8261362f565b91506141588361362f565b92508261416857614167614113565b5b828204905092915050565b7f53537761703a2042616c616e63652e0000000000000000000000000000000000600082015250565b60006141a9600f836136ed565b91506141b482614173565b602082019050919050565b600060208201905081810360008301526141d88161419c565b9050919050565b7f53537761703a2053616d6520546f6b656e730000000000000000000000000000600082015250565b60006142156012836136ed565b9150614220826141df565b602082019050919050565b6000602082019050818103600083015261424481614208565b9050919050565b7f53537761703a204e6f7420456e6f756768204c69717569646974790000000000600082015250565b6000614281601b836136ed565b915061428c8261424b565b602082019050919050565b600060208201905081810360008301526142b081614274565b9050919050565b7f53537761703a20496e73756666696369656e7420616d6f756e742e0000000000600082015250565b60006142ed601b836136ed565b91506142f8826142b7565b602082019050919050565b6000602082019050818103600083015261431c816142e0565b9050919050565b60006060820190506143386000830186613b2b565b61434560208301856136b8565b61435260408301846136b8565b949350505050565b7f4e487b7100000000000000000000000000000000000000000000000000000000600052604160045260246000fd5b600060608201905061439e6000830186613b2b565b6143ab6020830185613b2b565b6143b860408301846136b8565b949350505050565b6143c981613832565b81146143d457600080fd5b50565b6000815190506143e6816143c0565b92915050565b60006020828403121561440257614401613625565b5b6000614410848285016143d7565b91505092915050565b7f53537761703a205472616e73666572206661696c656421000000000000000000600082015250565b600061444f6017836136ed565b915061445a82614419565b602082019050919050565b6000602082019050818103600083015261447e81614442565b9050919050565b600060408201905061449a6000830185613b2b565b6144a760208301846136b8565b9392505050565b7f53537761703a20422042616c616e63652e000000000000000000000000000000600082015250565b60006144e46011836136ed565b91506144ef826144ae565b602082019050919050565b60006020820190508181036000830152614513816144d7565b9050919050565b7f53537761703a20412042616c616e63652e000000000000000000000000000000600082015250565b60006145506011836136ed565b915061455b8261451a565b602082019050919050565b6000602082019050818103600083015261457f81614543565b9050919050565b7f53537761703a20746f6b656e20726174696f0000000000000000000000000000600082015250565b60006145bc6012836136ed565b91506145c782614586565b602082019050919050565b600060208201905081810360008301526145eb816145af565b905091905056fea2646970667358221220be9f3f55b9563732e52ab186bb60bf210d79ba304ab22370e6ba7bc62a580f4664736f6c634300081c0033","opcodes":"PUSH1 0x80 PUSH1 0x40 MSTORE CALLVALUE DUP1 ISZERO PUSH2 0x10 JUMPI PUSH1 0x0 DUP1 REVERT JUMPDEST POP CALLER PUSH1 0x40 MLOAD DUP1 PUSH1 0x40 ADD PUSH1 0x40 MSTORE DUP1 PUSH1 0xB DUP2 MSTORE PUSH1 0x20 ADD PUSH32 0x53696D706C652053776170000000000000000000000000000000000000000000 DUP2 MSTORE POP PUSH1 0x40 MLOAD DUP1 PUSH1 0x40 ADD PUSH1 0x40 MSTORE DUP1 PUSH1 0x4 DUP2 MSTORE PUSH1 0x20 ADD PUSH32 0x5353575000000000000000000000000000000000000000000000000000000000 DUP2 MSTORE POP DUP2 PUSH1 0x3 SWAP1 DUP2 PUSH2 0x8D SWAP2 SWAP1 PUSH2 0x462 JUMP JUMPDEST POP DUP1 PUSH1 0x4 SWAP1 DUP2 PUSH2 0x9D SWAP2 SWAP1 PUSH2 0x462 JUMP JUMPDEST POP POP POP PUSH1 0x1 PUSH1 0x5 DUP2 SWAP1 SSTORE POP PUSH1 0x0 PUSH20 0xFFFFFFFFFFFFFFFFFFFFFFFFFFFFFFFFFFFFFFFF AND DUP2 PUSH20 0xFFFFFFFFFFFFFFFFFFFFFFFFFFFFFFFFFFFFFFFF AND SUB PUSH2 0x11A JUMPI PUSH1 0x0 PUSH1 0x40 MLOAD PUSH32 0x1E4FBDF700000000000000000000000000000000000000000000000000000000 DUP2 MSTORE PUSH1 0x4 ADD PUSH2 0x111 SWAP2 SWAP1 PUSH2 0x575 JUMP JUMPDEST PUSH1 0x40 MLOAD DUP1 SWAP2 SUB SWAP1 REVERT JUMPDEST PUSH2 0x129 DUP2 PUSH2 0x149 PUSH1 0x20 SHL PUSH1 0x20 SHR JUMP JUMPDEST POP PUSH2 0x144 PUSH8 0x88032756139F09C7 PUSH1 0xC0 SHL PUSH2 0x20F PUSH1 0x20 SHL PUSH1 0x20 SHR JUMP JUMPDEST PUSH2 0x590 JUMP JUMPDEST PUSH1 0x0 PUSH1 0x6 PUSH1 0x0 SWAP1 SLOAD SWAP1 PUSH2 0x100 EXP SWAP1 DIV PUSH20 0xFFFFFFFFFFFFFFFFFFFFFFFFFFFFFFFFFFFFFFFF AND SWAP1 POP DUP2 PUSH1 0x6 PUSH1 0x0 PUSH2 0x100 EXP DUP2 SLOAD DUP2 PUSH20 0xFFFFFFFFFFFFFFFFFFFFFFFFFFFFFFFFFFFFFFFF MUL NOT AND SWAP1 DUP4 PUSH20 0xFFFFFFFFFFFFFFFFFFFFFFFFFFFFFFFFFFFFFFFF AND MUL OR SWAP1 SSTORE POP DUP2 PUSH20 0xFFFFFFFFFFFFFFFFFFFFFFFFFFFFFFFFFFFFFFFF AND DUP2 PUSH20 0xFFFFFFFFFFFFFFFFFFFFFFFFFFFFFFFFFFFFFFFF AND PUSH32 0x8BE0079C531659141344CD1FD0A4F28419497F9722A3DAAFE3B4186F6B6457E0 PUSH1 0x40 MLOAD PUSH1 0x40 MLOAD DUP1 SWAP2 SUB SWAP1 LOG3 POP POP JUMP JUMPDEST POP JUMP JUMPDEST PUSH1 0x0 DUP2 MLOAD SWAP1 POP SWAP2 SWAP1 POP JUMP JUMPDEST PUSH32 0x4E487B7100000000000000000000000000000000000000000000000000000000 PUSH1 0x0 MSTORE PUSH1 0x41 PUSH1 0x4 MSTORE PUSH1 0x24 PUSH1 0x0 REVERT JUMPDEST PUSH32 0x4E487B7100000000000000000000000000000000000000000000000000000000 PUSH1 0x0 MSTORE PUSH1 0x22 PUSH1 0x4 MSTORE PUSH1 0x24 PUSH1 0x0 REVERT JUMPDEST PUSH1 0x0 PUSH1 0x2 DUP3 DIV SWAP1 POP PUSH1 0x1 DUP3 AND DUP1 PUSH2 0x293 JUMPI PUSH1 0x7F DUP3 AND SWAP2 POP JUMPDEST PUSH1 0x20 DUP3 LT DUP2 SUB PUSH2 0x2A6 JUMPI PUSH2 0x2A5 PUSH2 0x24C JUMP JUMPDEST JUMPDEST POP SWAP2 SWAP1 POP JUMP JUMPDEST PUSH1 0x0 DUP2 SWAP1 POP DUP2 PUSH1 0x0 MSTORE PUSH1 0x20 PUSH1 0x0 KECCAK256 SWAP1 POP SWAP2 SWAP1 POP JUMP JUMPDEST PUSH1 0x0 PUSH1 0x20 PUSH1 0x1F DUP4 ADD DIV SWAP1 POP SWAP2 SWAP1 POP JUMP JUMPDEST PUSH1 0x0 DUP3 DUP3 SHL SWAP1 POP SWAP3 SWAP2 POP POP JUMP JUMPDEST PUSH1 0x0 PUSH1 0x8 DUP4 MUL PUSH2 0x30E PUSH32 0xFFFFFFFFFFFFFFFFFFFFFFFFFFFFFFFFFFFFFFFFFFFFFFFFFFFFFFFFFFFFFFFF DUP3 PUSH2 0x2D1 JUMP JUMPDEST PUSH2 0x318 DUP7 DUP4 PUSH2 0x2D1 JUMP JUMPDEST SWAP6 POP DUP1 NOT DUP5 AND SWAP4 POP DUP1 DUP7 AND DUP5 OR SWAP3 POP POP POP SWAP4 SWAP3 POP POP POP JUMP JUMPDEST PUSH1 0x0 DUP2 SWAP1 POP SWAP2 SWAP1 POP JUMP JUMPDEST PUSH1 0x0 DUP2 SWAP1 POP SWAP2 SWAP1 POP JUMP JUMPDEST PUSH1 0x0 PUSH2 0x35F PUSH2 0x35A PUSH2 0x355 DUP5 PUSH2 0x330 JUMP JUMPDEST PUSH2 0x33A JUMP JUMPDEST PUSH2 0x330 JUMP JUMPDEST SWAP1 POP SWAP2 SWAP1 POP JUMP JUMPDEST PUSH1 0x0 DUP2 SWAP1 POP SWAP2 SWAP1 POP JUMP JUMPDEST PUSH2 0x379 DUP4 PUSH2 0x344 JUMP JUMPDEST PUSH2 0x38D PUSH2 0x385 DUP3 PUSH2 0x366 JUMP JUMPDEST DUP5 DUP5 SLOAD PUSH2 0x2DE JUMP JUMPDEST DUP3 SSTORE POP POP POP POP JUMP JUMPDEST PUSH1 0x0 SWAP1 JUMP JUMPDEST PUSH2 0x3A2 PUSH2 0x395 JUMP JUMPDEST PUSH2 0x3AD DUP2 DUP5 DUP5 PUSH2 0x370 JUMP JUMPDEST POP POP POP JUMP JUMPDEST JUMPDEST DUP2 DUP2 LT ISZERO PUSH2 0x3D1 JUMPI PUSH2 0x3C6 PUSH1 0x0 DUP3 PUSH2 0x39A JUMP JUMPDEST PUSH1 0x1 DUP2 ADD SWAP1 POP PUSH2 0x3B3 JUMP JUMPDEST POP POP JUMP JUMPDEST PUSH1 0x1F DUP3 GT ISZERO PUSH2 0x416 JUMPI PUSH2 0x3E7 DUP2 PUSH2 0x2AC JUMP JUMPDEST PUSH2 0x3F0 DUP5 PUSH2 0x2C1 JUMP JUMPDEST DUP2 ADD PUSH1 0x20 DUP6 LT ISZERO PUSH2 0x3FF JUMPI DUP2 SWAP1 POP JUMPDEST PUSH2 0x413 PUSH2 0x40B DUP6 PUSH2 0x2C1 JUMP JUMPDEST DUP4 ADD DUP3 PUSH2 0x3B2 JUMP JUMPDEST POP POP JUMPDEST POP POP POP JUMP JUMPDEST PUSH1 0x0 DUP3 DUP3 SHR SWAP1 POP SWAP3 SWAP2 POP POP JUMP JUMPDEST PUSH1 0x0 PUSH2 0x439 PUSH1 0x0 NOT DUP5 PUSH1 0x8 MUL PUSH2 0x41B JUMP JUMPDEST NOT DUP1 DUP4 AND SWAP2 POP POP SWAP3 SWAP2 POP POP JUMP JUMPDEST PUSH1 0x0 PUSH2 0x452 DUP4 DUP4 PUSH2 0x428 JUMP JUMPDEST SWAP2 POP DUP3 PUSH1 0x2 MUL DUP3 OR SWAP1 POP SWAP3 SWAP2 POP POP JUMP JUMPDEST PUSH2 0x46B DUP3 PUSH2 0x212 JUMP JUMPDEST PUSH8 0xFFFFFFFFFFFFFFFF DUP2 GT ISZERO PUSH2 0x484 JUMPI PUSH2 0x483 PUSH2 0x21D JUMP JUMPDEST JUMPDEST PUSH2 0x48E DUP3 SLOAD PUSH2 0x27B JUMP JUMPDEST PUSH2 0x499 DUP3 DUP3 DUP6 PUSH2 0x3D5 JUMP JUMPDEST PUSH1 0x0 PUSH1 0x20 SWAP1 POP PUSH1 0x1F DUP4 GT PUSH1 0x1 DUP2 EQ PUSH2 0x4CC JUMPI PUSH1 0x0 DUP5 ISZERO PUSH2 0x4BA JUMPI DUP3 DUP8 ADD MLOAD SWAP1 POP JUMPDEST PUSH2 0x4C4 DUP6 DUP3 PUSH2 0x446 JUMP JUMPDEST DUP7 SSTORE POP PUSH2 0x52C JUMP JUMPDEST PUSH1 0x1F NOT DUP5 AND PUSH2 0x4DA DUP7 PUSH2 0x2AC JUMP JUMPDEST PUSH1 0x0 JUMPDEST DUP3 DUP2 LT ISZERO PUSH2 0x502 JUMPI DUP5 DUP10 ADD MLOAD DUP3 SSTORE PUSH1 0x1 DUP3 ADD SWAP2 POP PUSH1 0x20 DUP6 ADD SWAP5 POP PUSH1 0x20 DUP2 ADD SWAP1 POP PUSH2 0x4DD JUMP JUMPDEST DUP7 DUP4 LT ISZERO PUSH2 0x51F JUMPI DUP5 DUP10 ADD MLOAD PUSH2 0x51B PUSH1 0x1F DUP10 AND DUP3 PUSH2 0x428 JUMP JUMPDEST DUP4 SSTORE POP JUMPDEST PUSH1 0x1 PUSH1 0x2 DUP9 MUL ADD DUP9 SSTORE POP POP POP JUMPDEST POP POP POP POP POP POP JUMP JUMPDEST PUSH1 0x0 PUSH20 0xFFFFFFFFFFFFFFFFFFFFFFFFFFFFFFFFFFFFFFFF DUP3 AND SWAP1 POP SWAP2 SWAP1 POP JUMP JUMPDEST PUSH1 0x0 PUSH2 0x55F DUP3 PUSH2 0x534 JUMP JUMPDEST SWAP1 POP SWAP2 SWAP1 POP JUMP JUMPDEST PUSH2 0x56F DUP2 PUSH2 0x554 JUMP JUMPDEST DUP3 MSTORE POP POP JUMP JUMPDEST PUSH1 0x0 PUSH1 0x20 DUP3 ADD SWAP1 POP PUSH2 0x58A PUSH1 0x0 DUP4 ADD DUP5 PUSH2 0x566 JUMP JUMPDEST SWAP3 SWAP2 POP POP JUMP JUMPDEST PUSH2 0x4628 DUP1 PUSH2 0x59F PUSH1 0x0 CODECOPY PUSH1 0x0 RETURN INVALID PUSH1 0x80 PUSH1 0x40 MSTORE CALLVALUE DUP1 ISZERO PUSH2 0x10 JUMPI PUSH1 0x0 DUP1 REVERT JUMPDEST POP PUSH1 0x4 CALLDATASIZE LT PUSH2 0x137 JUMPI PUSH1 0x0 CALLDATALOAD PUSH1 0xE0 SHR DUP1 PUSH4 0x79CC6790 GT PUSH2 0xB8 JUMPI DUP1 PUSH4 0xA9059CBB GT PUSH2 0x7C JUMPI DUP1 PUSH4 0xA9059CBB EQ PUSH2 0x350 JUMPI DUP1 PUSH4 0xAC41865A EQ PUSH2 0x380 JUMPI DUP1 PUSH4 0xBAA2ABDE EQ PUSH2 0x3B0 JUMPI DUP1 PUSH4 0xDD62ED3E EQ PUSH2 0x3E1 JUMPI DUP1 PUSH4 0xE8E33700 EQ PUSH2 0x411 JUMPI DUP1 PUSH4 0xF2FDE38B EQ PUSH2 0x443 JUMPI PUSH2 0x137 JUMP JUMPDEST DUP1 PUSH4 0x79CC6790 EQ PUSH2 0x2AC JUMPI DUP1 PUSH4 0x8DA5CB5B EQ PUSH2 0x2C8 JUMPI DUP1 PUSH4 0x95D89B41 EQ PUSH2 0x2E6 JUMPI DUP1 PUSH4 0x9FA77B20 EQ PUSH2 0x304 JUMPI DUP1 PUSH4 0xA4EEF28A EQ PUSH2 0x334 JUMPI PUSH2 0x137 JUMP JUMPDEST DUP1 PUSH4 0x313CE567 GT PUSH2 0xFF JUMPI DUP1 PUSH4 0x313CE567 EQ PUSH2 0x208 JUMPI DUP1 PUSH4 0x38ED1739 EQ PUSH2 0x226 JUMPI DUP1 PUSH4 0x42966C68 EQ PUSH2 0x256 JUMPI DUP1 PUSH4 0x70A08231 EQ PUSH2 0x272 JUMPI DUP1 PUSH4 0x715018A6 EQ PUSH2 0x2A2 JUMPI PUSH2 0x137 JUMP JUMPDEST DUP1 PUSH4 0x54D50D4 EQ PUSH2 0x13C JUMPI DUP1 PUSH4 0x6FDDE03 EQ PUSH2 0x16C JUMPI DUP1 PUSH4 0x95EA7B3 EQ PUSH2 0x18A JUMPI DUP1 PUSH4 0x18160DDD EQ PUSH2 0x1BA JUMPI DUP1 PUSH4 0x23B872DD EQ PUSH2 0x1D8 JUMPI JUMPDEST PUSH1 0x0 DUP1 REVERT JUMPDEST PUSH2 0x156 PUSH1 0x4 DUP1 CALLDATASIZE SUB DUP2 ADD SWAP1 PUSH2 0x151 SWAP2 SWAP1 PUSH2 0x3665 JUMP JUMPDEST PUSH2 0x45F JUMP JUMPDEST PUSH1 0x40 MLOAD PUSH2 0x163 SWAP2 SWAP1 PUSH2 0x36C7 JUMP JUMPDEST PUSH1 0x40 MLOAD DUP1 SWAP2 SUB SWAP1 RETURN JUMPDEST PUSH2 0x174 PUSH2 0x4C5 JUMP JUMPDEST PUSH1 0x40 MLOAD PUSH2 0x181 SWAP2 SWAP1 PUSH2 0x3772 JUMP JUMPDEST PUSH1 0x40 MLOAD DUP1 SWAP2 SUB SWAP1 RETURN JUMPDEST PUSH2 0x1A4 PUSH1 0x4 DUP1 CALLDATASIZE SUB DUP2 ADD SWAP1 PUSH2 0x19F SWAP2 SWAP1 PUSH2 0x37F2 JUMP JUMPDEST PUSH2 0x557 JUMP JUMPDEST PUSH1 0x40 MLOAD PUSH2 0x1B1 SWAP2 SWAP1 PUSH2 0x384D JUMP JUMPDEST PUSH1 0x40 MLOAD DUP1 SWAP2 SUB SWAP1 RETURN JUMPDEST PUSH2 0x1C2 PUSH2 0x57A JUMP JUMPDEST PUSH1 0x40 MLOAD PUSH2 0x1CF SWAP2 SWAP1 PUSH2 0x36C7 JUMP JUMPDEST PUSH1 0x40 MLOAD DUP1 SWAP2 SUB SWAP1 RETURN JUMPDEST PUSH2 0x1F2 PUSH1 0x4 DUP1 CALLDATASIZE SUB DUP2 ADD SWAP1 PUSH2 0x1ED SWAP2 SWAP1 PUSH2 0x3868 JUMP JUMPDEST PUSH2 0x584 JUMP JUMPDEST PUSH1 0x40 MLOAD PUSH2 0x1FF SWAP2 SWAP1 PUSH2 0x384D JUMP JUMPDEST PUSH1 0x40 MLOAD DUP1 SWAP2 SUB SWAP1 RETURN JUMPDEST PUSH2 0x210 PUSH2 0x5B3 JUMP JUMPDEST PUSH1 0x40 MLOAD PUSH2 0x21D SWAP2 SWAP1 PUSH2 0x38D7 JUMP JUMPDEST PUSH1 0x40 MLOAD DUP1 SWAP2 SUB SWAP1 RETURN JUMPDEST PUSH2 0x240 PUSH1 0x4 DUP1 CALLDATASIZE SUB DUP2 ADD SWAP1 PUSH2 0x23B SWAP2 SWAP1 PUSH2 0x3957 JUMP JUMPDEST PUSH2 0x5BC JUMP JUMPDEST PUSH1 0x40 MLOAD PUSH2 0x24D SWAP2 SWAP1 PUSH2 0x3AAF JUMP JUMPDEST PUSH1 0x40 MLOAD DUP1 SWAP2 SUB SWAP1 RETURN JUMPDEST PUSH2 0x270 PUSH1 0x4 DUP1 CALLDATASIZE SUB DUP2 ADD SWAP1 PUSH2 0x26B SWAP2 SWAP1 PUSH2 0x3AD1 JUMP JUMPDEST PUSH2 0xDBC JUMP JUMPDEST STOP JUMPDEST PUSH2 0x28C PUSH1 0x4 DUP1 CALLDATASIZE SUB DUP2 ADD SWAP1 PUSH2 0x287 SWAP2 SWAP1 PUSH2 0x3AFE JUMP JUMPDEST PUSH2 0xDD0 JUMP JUMPDEST PUSH1 0x40 MLOAD PUSH2 0x299 SWAP2 SWAP1 PUSH2 0x36C7 JUMP JUMPDEST PUSH1 0x40 MLOAD DUP1 SWAP2 SUB SWAP1 RETURN JUMPDEST PUSH2 0x2AA PUSH2 0xE18 JUMP JUMPDEST STOP JUMPDEST PUSH2 0x2C6 PUSH1 0x4 DUP1 CALLDATASIZE SUB DUP2 ADD SWAP1 PUSH2 0x2C1 SWAP2 SWAP1 PUSH2 0x37F2 JUMP JUMPDEST PUSH2 0xE2C JUMP JUMPDEST STOP JUMPDEST PUSH2 0x2D0 PUSH2 0xE4C JUMP JUMPDEST PUSH1 0x40 MLOAD PUSH2 0x2DD SWAP2 SWAP1 PUSH2 0x3B3A JUMP JUMPDEST PUSH1 0x40 MLOAD DUP1 SWAP2 SUB SWAP1 RETURN JUMPDEST PUSH2 0x2EE PUSH2 0xE76 JUMP JUMPDEST PUSH1 0x40 MLOAD PUSH2 0x2FB SWAP2 SWAP1 PUSH2 0x3772 JUMP JUMPDEST PUSH1 0x40 MLOAD DUP1 SWAP2 SUB SWAP1 RETURN JUMPDEST PUSH2 0x31E PUSH1 0x4 DUP1 CALLDATASIZE SUB DUP2 ADD SWAP1 PUSH2 0x319 SWAP2 SWAP1 PUSH2 0x3AFE JUMP JUMPDEST PUSH2 0xF08 JUMP JUMPDEST PUSH1 0x40 MLOAD PUSH2 0x32B SWAP2 SWAP1 PUSH2 0x36C7 JUMP JUMPDEST PUSH1 0x40 MLOAD DUP1 SWAP2 SUB SWAP1 RETURN JUMPDEST PUSH2 0x34E PUSH1 0x4 DUP1 CALLDATASIZE SUB DUP2 ADD SWAP1 PUSH2 0x349 SWAP2 SWAP1 PUSH2 0x3AFE JUMP JUMPDEST PUSH2 0xF20 JUMP JUMPDEST STOP JUMPDEST PUSH2 0x36A PUSH1 0x4 DUP1 CALLDATASIZE SUB DUP2 ADD SWAP1 PUSH2 0x365 SWAP2 SWAP1 PUSH2 0x37F2 JUMP JUMPDEST PUSH2 0x1038 JUMP JUMPDEST PUSH1 0x40 MLOAD PUSH2 0x377 SWAP2 SWAP1 PUSH2 0x384D JUMP JUMPDEST PUSH1 0x40 MLOAD DUP1 SWAP2 SUB SWAP1 RETURN JUMPDEST PUSH2 0x39A PUSH1 0x4 DUP1 CALLDATASIZE SUB DUP2 ADD SWAP1 PUSH2 0x395 SWAP2 SWAP1 PUSH2 0x3B55 JUMP JUMPDEST PUSH2 0x105B JUMP JUMPDEST PUSH1 0x40 MLOAD PUSH2 0x3A7 SWAP2 SWAP1 PUSH2 0x36C7 JUMP JUMPDEST PUSH1 0x40 MLOAD DUP1 SWAP2 SUB SWAP1 RETURN JUMPDEST PUSH2 0x3CA PUSH1 0x4 DUP1 CALLDATASIZE SUB DUP2 ADD SWAP1 PUSH2 0x3C5 SWAP2 SWAP1 PUSH2 0x3B95 JUMP JUMPDEST PUSH2 0x11AE JUMP JUMPDEST PUSH1 0x40 MLOAD PUSH2 0x3D8 SWAP3 SWAP2 SWAP1 PUSH2 0x3C37 JUMP JUMPDEST PUSH1 0x40 MLOAD DUP1 SWAP2 SUB SWAP1 RETURN JUMPDEST PUSH2 0x3FB PUSH1 0x4 DUP1 CALLDATASIZE SUB DUP2 ADD SWAP1 PUSH2 0x3F6 SWAP2 SWAP1 PUSH2 0x3B55 JUMP JUMPDEST PUSH2 0x1629 JUMP JUMPDEST PUSH1 0x40 MLOAD PUSH2 0x408 SWAP2 SWAP1 PUSH2 0x36C7 JUMP JUMPDEST PUSH1 0x40 MLOAD DUP1 SWAP2 SUB SWAP1 RETURN JUMPDEST PUSH2 0x42B PUSH1 0x4 DUP1 CALLDATASIZE SUB DUP2 ADD SWAP1 PUSH2 0x426 SWAP2 SWAP1 PUSH2 0x3C60 JUMP JUMPDEST PUSH2 0x16B0 JUMP JUMPDEST PUSH1 0x40 MLOAD PUSH2 0x43A SWAP4 SWAP3 SWAP2 SWAP1 PUSH2 0x3D16 JUMP JUMPDEST PUSH1 0x40 MLOAD DUP1 SWAP2 SUB SWAP1 RETURN JUMPDEST PUSH2 0x45D PUSH1 0x4 DUP1 CALLDATASIZE SUB DUP2 ADD SWAP1 PUSH2 0x458 SWAP2 SWAP1 PUSH2 0x3AFE JUMP JUMPDEST PUSH2 0x1ADE JUMP JUMPDEST STOP JUMPDEST PUSH1 0x0 PUSH2 0x475 PUSH8 0x95AE8BF06F87AA30 PUSH1 0xC0 SHL PUSH2 0x1B64 JUMP JUMPDEST PUSH2 0x489 PUSH8 0x2799301B696B2A1A PUSH1 0xC0 SHL PUSH2 0x1B64 JUMP JUMPDEST PUSH2 0x494 DUP5 DUP5 DUP5 PUSH2 0x1B67 JUMP JUMPDEST SWAP1 POP PUSH2 0x4AA PUSH8 0x883F27BD6F56D3E6 PUSH1 0xC0 SHL PUSH2 0x1B64 JUMP JUMPDEST PUSH2 0x4BE PUSH8 0xAC1EFD23A87D40F0 PUSH1 0xC0 SHL PUSH2 0x1B64 JUMP JUMPDEST SWAP4 SWAP3 POP POP POP JUMP JUMPDEST PUSH1 0x60 PUSH1 0x3 DUP1 SLOAD PUSH2 0x4D4 SWAP1 PUSH2 0x3D7C JUMP JUMPDEST DUP1 PUSH1 0x1F ADD PUSH1 0x20 DUP1 SWAP2 DIV MUL PUSH1 0x20 ADD PUSH1 0x40 MLOAD SWAP1 DUP2 ADD PUSH1 0x40 MSTORE DUP1 SWAP3 SWAP2 SWAP1 DUP2 DUP2 MSTORE PUSH1 0x20 ADD DUP3 DUP1 SLOAD PUSH2 0x500 SWAP1 PUSH2 0x3D7C JUMP JUMPDEST DUP1 ISZERO PUSH2 0x54D JUMPI DUP1 PUSH1 0x1F LT PUSH2 0x522 JUMPI PUSH2 0x100 DUP1 DUP4 SLOAD DIV MUL DUP4 MSTORE SWAP2 PUSH1 0x20 ADD SWAP2 PUSH2 0x54D JUMP JUMPDEST DUP3 ADD SWAP2 SWAP1 PUSH1 0x0 MSTORE PUSH1 0x20 PUSH1 0x0 KECCAK256 SWAP1 JUMPDEST DUP2 SLOAD DUP2 MSTORE SWAP1 PUSH1 0x1 ADD SWAP1 PUSH1 0x20 ADD DUP1 DUP4 GT PUSH2 0x530 JUMPI DUP3 SWAP1 SUB PUSH1 0x1F AND DUP3 ADD SWAP2 JUMPDEST POP POP POP POP POP SWAP1 POP SWAP1 JUMP JUMPDEST PUSH1 0x0 DUP1 PUSH2 0x562 PUSH2 0x1D5F JUMP JUMPDEST SWAP1 POP PUSH2 0x56F DUP2 DUP6 DUP6 PUSH2 0x1D67 JUMP JUMPDEST PUSH1 0x1 SWAP2 POP POP SWAP3 SWAP2 POP POP JUMP JUMPDEST PUSH1 0x0 PUSH1 0x2 SLOAD SWAP1 POP SWAP1 JUMP JUMPDEST PUSH1 0x0 DUP1 PUSH2 0x58F PUSH2 0x1D5F JUMP JUMPDEST SWAP1 POP PUSH2 0x59C DUP6 DUP3 DUP6 PUSH2 0x1D79 JUMP JUMPDEST PUSH2 0x5A7 DUP6 DUP6 DUP6 PUSH2 0x1E0E JUMP JUMPDEST PUSH1 0x1 SWAP2 POP POP SWAP4 SWAP3 POP POP POP JUMP JUMPDEST PUSH1 0x0 PUSH1 0x12 SWAP1 POP SWAP1 JUMP JUMPDEST PUSH1 0x60 PUSH2 0x5D2 PUSH8 0x45D2C814478C038C PUSH1 0xC0 SHL PUSH2 0x1B64 JUMP JUMPDEST DUP2 PUSH2 0x5E7 PUSH8 0x6F58D80F285BD633 PUSH1 0xC0 SHL PUSH2 0x1B64 JUMP JUMPDEST PUSH2 0x5FB PUSH8 0x4C4413935B09E129 PUSH1 0xC0 SHL PUSH2 0x1B64 JUMP JUMPDEST PUSH2 0x60F PUSH8 0x9BE85B8866CE5408 PUSH1 0xC0 SHL PUSH2 0x1B64 JUMP JUMPDEST PUSH2 0x623 PUSH8 0x278AD0793E397D85 PUSH1 0xC0 SHL PUSH2 0x1B64 JUMP JUMPDEST TIMESTAMP DUP2 GT PUSH2 0x665 JUMPI PUSH1 0x40 MLOAD PUSH32 0x8C379A000000000000000000000000000000000000000000000000000000000 DUP2 MSTORE PUSH1 0x4 ADD PUSH2 0x65C SWAP1 PUSH2 0x3DF9 JUMP JUMPDEST PUSH1 0x40 MLOAD DUP1 SWAP2 SUB SWAP1 REVERT JUMPDEST PUSH2 0x679 PUSH8 0x7F3EBF4141A62A84 PUSH1 0xC0 SHL PUSH2 0x1B64 JUMP JUMPDEST PUSH2 0x68D PUSH8 0x6A3CC7CCD4B4099A PUSH1 0xC0 SHL PUSH2 0x1B64 JUMP JUMPDEST PUSH2 0x6A1 PUSH8 0x73F4BE26EBD7ABF6 PUSH1 0xC0 SHL PUSH2 0x1B64 JUMP JUMPDEST PUSH2 0x6B5 PUSH8 0xABA439EF7E7D7453 PUSH1 0xC0 SHL PUSH2 0x1B64 JUMP JUMPDEST DUP6 DUP6 DUP1 DUP1 PUSH1 0x20 MUL PUSH1 0x20 ADD PUSH1 0x40 MLOAD SWAP1 DUP2 ADD PUSH1 0x40 MSTORE DUP1 SWAP4 SWAP3 SWAP2 SWAP1 DUP2 DUP2 MSTORE PUSH1 0x20 ADD DUP4 DUP4 PUSH1 0x20 MUL DUP1 DUP3 DUP5 CALLDATACOPY PUSH1 0x0 DUP2 DUP5 ADD MSTORE PUSH1 0x1F NOT PUSH1 0x1F DUP3 ADD AND SWAP1 POP DUP1 DUP4 ADD SWAP3 POP POP POP POP POP POP POP PUSH2 0x70B PUSH8 0xAEDF52E31F026904 PUSH1 0xC0 SHL PUSH2 0x1B64 JUMP JUMPDEST PUSH2 0x71F PUSH8 0xAE42B729EE45E62D PUSH1 0xC0 SHL PUSH2 0x1B64 JUMP JUMPDEST PUSH2 0x733 PUSH8 0x229DF968B0921FBD PUSH1 0xC0 SHL PUSH2 0x1B64 JUMP JUMPDEST PUSH2 0x747 PUSH8 0x92813401921FFF03 PUSH1 0xC0 SHL PUSH2 0x1B64 JUMP JUMPDEST PUSH1 0x2 DUP2 MLOAD EQ PUSH2 0x78B JUMPI PUSH1 0x40 MLOAD PUSH32 0x8C379A000000000000000000000000000000000000000000000000000000000 DUP2 MSTORE PUSH1 0x4 ADD PUSH2 0x782 SWAP1 PUSH2 0x3E65 JUMP JUMPDEST PUSH1 0x40 MLOAD DUP1 SWAP2 SUB SWAP1 REVERT JUMPDEST PUSH2 0x79F PUSH8 0xBA4CB43791568F85 PUSH1 0xC0 SHL PUSH2 0x1B64 JUMP JUMPDEST PUSH2 0x7B3 PUSH8 0xEB084ABB294157A3 PUSH1 0xC0 SHL PUSH2 0x1B64 JUMP JUMPDEST PUSH2 0x7C7 PUSH8 0x3D43063A835CAFA4 PUSH1 0xC0 SHL PUSH2 0x1B64 JUMP JUMPDEST PUSH2 0x7DB PUSH8 0x9AEB5B1E3964785A PUSH1 0xC0 SHL PUSH2 0x1B64 JUMP JUMPDEST PUSH2 0x7E3 PUSH2 0x1F02 JUMP JUMPDEST PUSH2 0x7F7 PUSH8 0x1490E0BB82AC4136 PUSH1 0xC0 SHL PUSH2 0x1B64 JUMP JUMPDEST PUSH2 0x80B PUSH8 0x24ED8E1C6503D811 PUSH1 0xC0 SHL PUSH2 0x1B64 JUMP JUMPDEST PUSH2 0x81F PUSH8 0xEA33943EB491B52 PUSH1 0xC0 SHL PUSH2 0x1B64 JUMP JUMPDEST PUSH2 0x833 PUSH8 0x7F2DC2619A2F04E0 PUSH1 0xC0 SHL PUSH2 0x1B64 JUMP JUMPDEST PUSH2 0x847 PUSH8 0x6DC23ED0452137BD PUSH1 0xC0 SHL PUSH2 0x1B64 JUMP JUMPDEST DUP7 DUP7 PUSH1 0x1 DUP2 DUP2 LT PUSH2 0x85B JUMPI PUSH2 0x85A PUSH2 0x3E85 JUMP JUMPDEST JUMPDEST SWAP1 POP PUSH1 0x20 MUL ADD PUSH1 0x20 DUP2 ADD SWAP1 PUSH2 0x870 SWAP2 SWAP1 PUSH2 0x3AFE JUMP JUMPDEST PUSH20 0xFFFFFFFFFFFFFFFFFFFFFFFFFFFFFFFFFFFFFFFF AND DUP8 DUP8 PUSH1 0x0 DUP2 DUP2 LT PUSH2 0x89A JUMPI PUSH2 0x899 PUSH2 0x3E85 JUMP JUMPDEST JUMPDEST SWAP1 POP PUSH1 0x20 MUL ADD PUSH1 0x20 DUP2 ADD SWAP1 PUSH2 0x8AF SWAP2 SWAP1 PUSH2 0x3AFE JUMP JUMPDEST PUSH20 0xFFFFFFFFFFFFFFFFFFFFFFFFFFFFFFFFFFFFFFFF AND SUB PUSH2 0x905 JUMPI PUSH1 0x40 MLOAD PUSH32 0x8C379A000000000000000000000000000000000000000000000000000000000 DUP2 MSTORE PUSH1 0x4 ADD PUSH2 0x8FC SWAP1 PUSH2 0x3F00 JUMP JUMPDEST PUSH1 0x40 MLOAD DUP1 SWAP2 SUB SWAP1 REVERT JUMPDEST PUSH2 0x919 PUSH8 0x1BDFCD19652093BF PUSH1 0xC0 SHL PUSH2 0x1B64 JUMP JUMPDEST PUSH2 0x92D PUSH8 0x182CA3C7E0B55144 PUSH1 0xC0 SHL PUSH2 0x1B64 JUMP JUMPDEST PUSH2 0x978 DUP10 DUP9 DUP9 DUP1 DUP1 PUSH1 0x20 MUL PUSH1 0x20 ADD PUSH1 0x40 MLOAD SWAP1 DUP2 ADD PUSH1 0x40 MSTORE DUP1 SWAP4 SWAP3 SWAP2 SWAP1 DUP2 DUP2 MSTORE PUSH1 0x20 ADD DUP4 DUP4 PUSH1 0x20 MUL DUP1 DUP3 DUP5 CALLDATACOPY PUSH1 0x0 DUP2 DUP5 ADD MSTORE PUSH1 0x1F NOT PUSH1 0x1F DUP3 ADD AND SWAP1 POP DUP1 DUP4 ADD SWAP3 POP POP POP POP POP POP POP PUSH2 0x1F48 JUMP JUMPDEST SWAP3 POP PUSH2 0x98E PUSH8 0xB71D2271851C397A PUSH1 0xC0 SHL PUSH2 0x1B64 JUMP JUMPDEST PUSH2 0x9A2 PUSH8 0x1C9D4AFA06B12DEC PUSH1 0xC0 SHL PUSH2 0x1B64 JUMP JUMPDEST PUSH2 0x9B6 PUSH8 0x881E8D07FDEC9C09 PUSH1 0xC0 SHL PUSH2 0x1B64 JUMP JUMPDEST DUP8 DUP4 PUSH1 0x1 DUP2 MLOAD DUP2 LT PUSH2 0x9CB JUMPI PUSH2 0x9CA PUSH2 0x3E85 JUMP JUMPDEST JUMPDEST PUSH1 0x20 MUL PUSH1 0x20 ADD ADD MLOAD LT ISZERO PUSH2 0xA14 JUMPI PUSH1 0x40 MLOAD PUSH32 0x8C379A000000000000000000000000000000000000000000000000000000000 DUP2 MSTORE PUSH1 0x4 ADD PUSH2 0xA0B SWAP1 PUSH2 0x3F6C JUMP JUMPDEST PUSH1 0x40 MLOAD DUP1 SWAP2 SUB SWAP1 REVERT JUMPDEST PUSH2 0xA28 PUSH8 0xEE5E31714BCC5467 PUSH1 0xC0 SHL PUSH2 0x1B64 JUMP JUMPDEST PUSH2 0xA3C PUSH8 0x6A798B807E3C81AE PUSH1 0xC0 SHL PUSH2 0x1B64 JUMP JUMPDEST PUSH2 0xA50 PUSH8 0x411AE2597FF27016 PUSH1 0xC0 SHL PUSH2 0x1B64 JUMP JUMPDEST PUSH2 0xA84 DUP8 DUP8 PUSH1 0x0 DUP2 DUP2 LT PUSH2 0xA67 JUMPI PUSH2 0xA66 PUSH2 0x3E85 JUMP JUMPDEST JUMPDEST SWAP1 POP PUSH1 0x20 MUL ADD PUSH1 0x20 DUP2 ADD SWAP1 PUSH2 0xA7C SWAP2 SWAP1 PUSH2 0x3AFE JUMP JUMPDEST CALLER ADDRESS DUP13 PUSH2 0x21D2 JUMP JUMPDEST PUSH2 0xA98 PUSH8 0x8AC7EAE7795200C3 PUSH1 0xC0 SHL PUSH2 0x1B64 JUMP JUMPDEST PUSH2 0xAAC PUSH8 0xCBC9E593839D09A PUSH1 0xC0 SHL PUSH2 0x1B64 JUMP JUMPDEST PUSH2 0xAFA DUP8 DUP8 PUSH1 0x1 DUP2 DUP2 LT PUSH2 0xAC3 JUMPI PUSH2 0xAC2 PUSH2 0x3E85 JUMP JUMPDEST JUMPDEST SWAP1 POP PUSH1 0x20 MUL ADD PUSH1 0x20 DUP2 ADD SWAP1 PUSH2 0xAD8 SWAP2 SWAP1 PUSH2 0x3AFE JUMP JUMPDEST DUP7 DUP6 PUSH1 0x1 DUP2 MLOAD DUP2 LT PUSH2 0xAED JUMPI PUSH2 0xAEC PUSH2 0x3E85 JUMP JUMPDEST JUMPDEST PUSH1 0x20 MUL PUSH1 0x20 ADD ADD MLOAD PUSH2 0x2329 JUMP JUMPDEST PUSH2 0xB0E PUSH8 0x3B47F44EB10E8079 PUSH1 0xC0 SHL PUSH2 0x1B64 JUMP JUMPDEST DUP3 PUSH1 0x0 DUP2 MLOAD DUP2 LT PUSH2 0xB22 JUMPI PUSH2 0xB21 PUSH2 0x3E85 JUMP JUMPDEST JUMPDEST PUSH1 0x20 MUL PUSH1 0x20 ADD ADD MLOAD PUSH1 0x7 PUSH1 0x0 DUP10 DUP10 PUSH1 0x0 DUP2 DUP2 LT PUSH2 0xB42 JUMPI PUSH2 0xB41 PUSH2 0x3E85 JUMP JUMPDEST JUMPDEST SWAP1 POP PUSH1 0x20 MUL ADD PUSH1 0x20 DUP2 ADD SWAP1 PUSH2 0xB57 SWAP2 SWAP1 PUSH2 0x3AFE JUMP JUMPDEST PUSH20 0xFFFFFFFFFFFFFFFFFFFFFFFFFFFFFFFFFFFFFFFF AND PUSH20 0xFFFFFFFFFFFFFFFFFFFFFFFFFFFFFFFFFFFFFFFF AND DUP2 MSTORE PUSH1 0x20 ADD SWAP1 DUP2 MSTORE PUSH1 0x20 ADD PUSH1 0x0 KECCAK256 PUSH1 0x0 DUP3 DUP3 SLOAD PUSH2 0xBA0 SWAP2 SWAP1 PUSH2 0x3FBB JUMP JUMPDEST SWAP3 POP POP DUP2 SWAP1 SSTORE POP PUSH2 0xBBB PUSH8 0xB3B87980748DBD03 PUSH1 0xC0 SHL PUSH2 0x1B64 JUMP JUMPDEST DUP3 PUSH1 0x1 DUP2 MLOAD DUP2 LT PUSH2 0xBCF JUMPI PUSH2 0xBCE PUSH2 0x3E85 JUMP JUMPDEST JUMPDEST PUSH1 0x20 MUL PUSH1 0x20 ADD ADD MLOAD PUSH1 0x7 PUSH1 0x0 DUP10 DUP10 PUSH1 0x1 DUP2 DUP2 LT PUSH2 0xBEF JUMPI PUSH2 0xBEE PUSH2 0x3E85 JUMP JUMPDEST JUMPDEST SWAP1 POP PUSH1 0x20 MUL ADD PUSH1 0x20 DUP2 ADD SWAP1 PUSH2 0xC04 SWAP2 SWAP1 PUSH2 0x3AFE JUMP JUMPDEST PUSH20 0xFFFFFFFFFFFFFFFFFFFFFFFFFFFFFFFFFFFFFFFF AND PUSH20 0xFFFFFFFFFFFFFFFFFFFFFFFFFFFFFFFFFFFFFFFF AND DUP2 MSTORE PUSH1 0x20 ADD SWAP1 DUP2 MSTORE PUSH1 0x20 ADD PUSH1 0x0 KECCAK256 PUSH1 0x0 DUP3 DUP3 SLOAD PUSH2 0xC4D SWAP2 SWAP1 PUSH2 0x3FEF JUMP JUMPDEST SWAP3 POP POP DUP2 SWAP1 SSTORE POP PUSH2 0xC68 PUSH8 0x70C1ADC3A3192CBC PUSH1 0xC0 SHL PUSH2 0x1B64 JUMP JUMPDEST PUSH2 0xC7C PUSH8 0x172855709E7EFF8E PUSH1 0xC0 SHL PUSH2 0x1B64 JUMP JUMPDEST DUP7 DUP7 PUSH1 0x1 DUP2 DUP2 LT PUSH2 0xC90 JUMPI PUSH2 0xC8F PUSH2 0x3E85 JUMP JUMPDEST JUMPDEST SWAP1 POP PUSH1 0x20 MUL ADD PUSH1 0x20 DUP2 ADD SWAP1 PUSH2 0xCA5 SWAP2 SWAP1 PUSH2 0x3AFE JUMP JUMPDEST PUSH20 0xFFFFFFFFFFFFFFFFFFFFFFFFFFFFFFFFFFFFFFFF AND DUP8 DUP8 PUSH1 0x0 DUP2 DUP2 LT PUSH2 0xCCF JUMPI PUSH2 0xCCE PUSH2 0x3E85 JUMP JUMPDEST JUMPDEST SWAP1 POP PUSH1 0x20 MUL ADD PUSH1 0x20 DUP2 ADD SWAP1 PUSH2 0xCE4 SWAP2 SWAP1 PUSH2 0x3AFE JUMP JUMPDEST PUSH20 0xFFFFFFFFFFFFFFFFFFFFFFFFFFFFFFFFFFFFFFFF AND CALLER PUSH20 0xFFFFFFFFFFFFFFFFFFFFFFFFFFFFFFFFFFFFFFFF AND PUSH32 0xD36CC53BA71BC76A3DB3364981F5296DD4CA5EBA0E8C89874F2170515BD20D24 DUP7 PUSH1 0x0 DUP2 MLOAD DUP2 LT PUSH2 0xD46 JUMPI PUSH2 0xD45 PUSH2 0x3E85 JUMP JUMPDEST JUMPDEST PUSH1 0x20 MUL PUSH1 0x20 ADD ADD MLOAD DUP8 PUSH1 0x1 DUP2 MLOAD DUP2 LT PUSH2 0xD62 JUMPI PUSH2 0xD61 PUSH2 0x3E85 JUMP JUMPDEST JUMPDEST PUSH1 0x20 MUL PUSH1 0x20 ADD ADD MLOAD PUSH1 0x40 MLOAD PUSH2 0xD78 SWAP3 SWAP2 SWAP1 PUSH2 0x3C37 JUMP JUMPDEST PUSH1 0x40 MLOAD DUP1 SWAP2 SUB SWAP1 LOG4 PUSH2 0xD94 PUSH8 0xBF736DBC69A6358D PUSH1 0xC0 SHL PUSH2 0x1B64 JUMP JUMPDEST PUSH2 0xDA8 PUSH8 0x15EC6C042811D4C7 PUSH1 0xC0 SHL PUSH2 0x1B64 JUMP JUMPDEST PUSH2 0xDB0 PUSH2 0x247D JUMP JUMPDEST POP POP SWAP7 SWAP6 POP POP POP POP POP POP JUMP JUMPDEST PUSH2 0xDCD PUSH2 0xDC7 PUSH2 0x1D5F JUMP JUMPDEST DUP3 PUSH2 0x2487 JUMP JUMPDEST POP JUMP JUMPDEST PUSH1 0x0 DUP1 PUSH1 0x0 DUP4 PUSH20 0xFFFFFFFFFFFFFFFFFFFFFFFFFFFFFFFFFFFFFFFF AND PUSH20 0xFFFFFFFFFFFFFFFFFFFFFFFFFFFFFFFFFFFFFFFF AND DUP2 MSTORE PUSH1 0x20 ADD SWAP1 DUP2 MSTORE PUSH1 0x20 ADD PUSH1 0x0 KECCAK256 SLOAD SWAP1 POP SWAP2 SWAP1 POP JUMP JUMPDEST PUSH2 0xE20 PUSH2 0x2509 JUMP JUMPDEST PUSH2 0xE2A PUSH1 0x0 PUSH2 0x2590 JUMP JUMPDEST JUMP JUMPDEST PUSH2 0xE3E DUP3 PUSH2 0xE38 PUSH2 0x1D5F JUMP JUMPDEST DUP4 PUSH2 0x1D79 JUMP JUMPDEST PUSH2 0xE48 DUP3 DUP3 PUSH2 0x2487 JUMP JUMPDEST POP POP JUMP JUMPDEST PUSH1 0x0 PUSH1 0x6 PUSH1 0x0 SWAP1 SLOAD SWAP1 PUSH2 0x100 EXP SWAP1 DIV PUSH20 0xFFFFFFFFFFFFFFFFFFFFFFFFFFFFFFFFFFFFFFFF AND SWAP1 POP SWAP1 JUMP JUMPDEST PUSH1 0x60 PUSH1 0x4 DUP1 SLOAD PUSH2 0xE85 SWAP1 PUSH2 0x3D7C JUMP JUMPDEST DUP1 PUSH1 0x1F ADD PUSH1 0x20 DUP1 SWAP2 DIV MUL PUSH1 0x20 ADD PUSH1 0x40 MLOAD SWAP1 DUP2 ADD PUSH1 0x40 MSTORE DUP1 SWAP3 SWAP2 SWAP1 DUP2 DUP2 MSTORE PUSH1 0x20 ADD DUP3 DUP1 SLOAD PUSH2 0xEB1 SWAP1 PUSH2 0x3D7C JUMP JUMPDEST DUP1 ISZERO PUSH2 0xEFE JUMPI DUP1 PUSH1 0x1F LT PUSH2 0xED3 JUMPI PUSH2 0x100 DUP1 DUP4 SLOAD DIV MUL DUP4 MSTORE SWAP2 PUSH1 0x20 ADD SWAP2 PUSH2 0xEFE JUMP JUMPDEST DUP3 ADD SWAP2 SWAP1 PUSH1 0x0 MSTORE PUSH1 0x20 PUSH1 0x0 KECCAK256 SWAP1 JUMPDEST DUP2 SLOAD DUP2 MSTORE SWAP1 PUSH1 0x1 ADD SWAP1 PUSH1 0x20 ADD DUP1 DUP4 GT PUSH2 0xEE1 JUMPI DUP3 SWAP1 SUB PUSH1 0x1F AND DUP3 ADD SWAP2 JUMPDEST POP POP POP POP POP SWAP1 POP SWAP1 JUMP JUMPDEST PUSH1 0x7 PUSH1 0x20 MSTORE DUP1 PUSH1 0x0 MSTORE PUSH1 0x40 PUSH1 0x0 KECCAK256 PUSH1 0x0 SWAP2 POP SWAP1 POP SLOAD DUP2 JUMP JUMPDEST PUSH2 0xF34 PUSH8 0x39CE43D2BA47895D PUSH1 0xC0 SHL PUSH2 0x1B64 JUMP JUMPDEST PUSH2 0xF3C PUSH2 0x2509 JUMP JUMPDEST PUSH2 0xF50 PUSH8 0xD707E6768882FEB PUSH1 0xC0 SHL PUSH2 0x1B64 JUMP JUMPDEST PUSH2 0xF64 PUSH8 0xD6899708A0E953D4 PUSH1 0xC0 SHL PUSH2 0x1B64 JUMP JUMPDEST PUSH2 0xF78 PUSH8 0x2E2126E45EDAE973 PUSH1 0xC0 SHL PUSH2 0x1B64 JUMP JUMPDEST DUP1 PUSH20 0xFFFFFFFFFFFFFFFFFFFFFFFFFFFFFFFFFFFFFFFF AND PUSH4 0x70A08231 ADDRESS PUSH1 0x40 MLOAD DUP3 PUSH4 0xFFFFFFFF AND PUSH1 0xE0 SHL DUP2 MSTORE PUSH1 0x4 ADD PUSH2 0xFB1 SWAP2 SWAP1 PUSH2 0x3B3A JUMP JUMPDEST PUSH1 0x20 PUSH1 0x40 MLOAD DUP1 DUP4 SUB DUP2 DUP7 GAS STATICCALL ISZERO DUP1 ISZERO PUSH2 0xFCE JUMPI RETURNDATASIZE PUSH1 0x0 DUP1 RETURNDATACOPY RETURNDATASIZE PUSH1 0x0 REVERT JUMPDEST POP POP POP POP PUSH1 0x40 MLOAD RETURNDATASIZE PUSH1 0x1F NOT PUSH1 0x1F DUP3 ADD AND DUP3 ADD DUP1 PUSH1 0x40 MSTORE POP DUP2 ADD SWAP1 PUSH2 0xFF2 SWAP2 SWAP1 PUSH2 0x4038 JUMP JUMPDEST PUSH1 0x7 PUSH1 0x0 DUP4 PUSH20 0xFFFFFFFFFFFFFFFFFFFFFFFFFFFFFFFFFFFFFFFF AND PUSH20 0xFFFFFFFFFFFFFFFFFFFFFFFFFFFFFFFFFFFFFFFF AND DUP2 MSTORE PUSH1 0x20 ADD SWAP1 DUP2 MSTORE PUSH1 0x20 ADD PUSH1 0x0 KECCAK256 DUP2 SWAP1 SSTORE POP POP JUMP JUMPDEST PUSH1 0x0 DUP1 PUSH2 0x1043 PUSH2 0x1D5F JUMP JUMPDEST SWAP1 POP PUSH2 0x1050 DUP2 DUP6 DUP6 PUSH2 0x1E0E JUMP JUMPDEST PUSH1 0x1 SWAP2 POP POP SWAP3 SWAP2 POP POP JUMP JUMPDEST PUSH1 0x0 PUSH2 0x1071 PUSH8 0xB0D61D3A736879DC PUSH1 0xC0 SHL PUSH2 0x1B64 JUMP JUMPDEST PUSH2 0x1085 PUSH8 0xF8AA75485206D0B5 PUSH1 0xC0 SHL PUSH2 0x1B64 JUMP JUMPDEST PUSH2 0x1099 PUSH8 0xFE1C6F104274306C PUSH1 0xC0 SHL PUSH2 0x1B64 JUMP JUMPDEST PUSH1 0x0 DUP1 PUSH2 0x10A6 DUP6 DUP6 PUSH2 0x2656 JUMP JUMPDEST SWAP2 POP SWAP2 POP PUSH2 0x10BE PUSH8 0x3C40924E97F5983B PUSH1 0xC0 SHL PUSH2 0x1B64 JUMP JUMPDEST PUSH2 0x10D2 PUSH8 0xE684E4B24A07AC2 PUSH1 0xC0 SHL PUSH2 0x1B64 JUMP JUMPDEST PUSH2 0x10E6 PUSH8 0x7EF4551155B86A2A PUSH1 0xC0 SHL PUSH2 0x1B64 JUMP JUMPDEST PUSH1 0x0 DUP3 GT DUP1 ISZERO PUSH2 0x10F6 JUMPI POP PUSH1 0x0 DUP2 GT JUMPDEST PUSH2 0x1135 JUMPI PUSH1 0x40 MLOAD PUSH32 0x8C379A000000000000000000000000000000000000000000000000000000000 DUP2 MSTORE PUSH1 0x4 ADD PUSH2 0x112C SWAP1 PUSH2 0x40B1 JUMP JUMPDEST PUSH1 0x40 MLOAD DUP1 SWAP2 SUB SWAP1 REVERT JUMPDEST PUSH2 0x1149 PUSH8 0xD83A7D2D4C19007C PUSH1 0xC0 SHL PUSH2 0x1B64 JUMP JUMPDEST PUSH2 0x115D PUSH8 0x329EAC3237681FEA PUSH1 0xC0 SHL PUSH2 0x1B64 JUMP JUMPDEST DUP2 PUSH8 0xDE0B6B3A7640000 DUP3 PUSH2 0x1172 SWAP2 SWAP1 PUSH2 0x40D1 JUMP JUMPDEST PUSH2 0x117C SWAP2 SWAP1 PUSH2 0x4142 JUMP JUMPDEST SWAP3 POP PUSH2 0x1192 PUSH8 0x659A319B48D15978 PUSH1 0xC0 SHL PUSH2 0x1B64 JUMP JUMPDEST PUSH2 0x11A6 PUSH8 0x40C0F2EFA0A12020 PUSH1 0xC0 SHL PUSH2 0x1B64 JUMP JUMPDEST POP POP SWAP3 SWAP2 POP POP JUMP JUMPDEST PUSH1 0x0 DUP1 PUSH2 0x11C5 PUSH8 0x441F5FEE5AECACE0 PUSH1 0xC0 SHL PUSH2 0x1B64 JUMP JUMPDEST DUP3 PUSH2 0x11DA PUSH8 0x6F58D80F285BD633 PUSH1 0xC0 SHL PUSH2 0x1B64 JUMP JUMPDEST PUSH2 0x11EE PUSH8 0x4C4413935B09E129 PUSH1 0xC0 SHL PUSH2 0x1B64 JUMP JUMPDEST PUSH2 0x1202 PUSH8 0x9BE85B8866CE5408 PUSH1 0xC0 SHL PUSH2 0x1B64 JUMP JUMPDEST PUSH2 0x1216 PUSH8 0x278AD0793E397D85 PUSH1 0xC0 SHL PUSH2 0x1B64 JUMP JUMPDEST TIMESTAMP DUP2 GT PUSH2 0x1258 JUMPI PUSH1 0x40 MLOAD PUSH32 0x8C379A000000000000000000000000000000000000000000000000000000000 DUP2 MSTORE PUSH1 0x4 ADD PUSH2 0x124F SWAP1 PUSH2 0x3DF9 JUMP JUMPDEST PUSH1 0x40 MLOAD DUP1 SWAP2 SUB SWAP1 REVERT JUMPDEST PUSH2 0x126C PUSH8 0x7F3EBF4141A62A84 PUSH1 0xC0 SHL PUSH2 0x1B64 JUMP JUMPDEST PUSH2 0x1280 PUSH8 0x6A3CC7CCD4B4099A PUSH1 0xC0 SHL PUSH2 0x1B64 JUMP JUMPDEST PUSH2 0x1294 PUSH8 0x7487DB176F0D3D5E PUSH1 0xC0 SHL PUSH2 0x1B64 JUMP JUMPDEST PUSH2 0x12A8 PUSH8 0x6021B281F2BD6237 PUSH1 0xC0 SHL PUSH2 0x1B64 JUMP JUMPDEST PUSH2 0x12B0 PUSH2 0x1F02 JUMP JUMPDEST PUSH2 0x12C4 PUSH8 0xB8D309CBB0522640 PUSH1 0xC0 SHL PUSH2 0x1B64 JUMP JUMPDEST PUSH2 0x12D8 PUSH8 0x4A81AD981A858FBC PUSH1 0xC0 SHL PUSH2 0x1B64 JUMP JUMPDEST PUSH2 0x12EC PUSH8 0x8DE9FCD34A15EE9E PUSH1 0xC0 SHL PUSH2 0x1B64 JUMP JUMPDEST PUSH2 0x1300 PUSH8 0xFD498B5B3DFB1582 PUSH1 0xC0 SHL PUSH2 0x1B64 JUMP JUMPDEST PUSH1 0x0 DUP1 PUSH2 0x130D DUP13 DUP13 PUSH2 0x2656 JUMP JUMPDEST SWAP2 POP SWAP2 POP PUSH2 0x1325 PUSH8 0xBEDAC171748A51DE PUSH1 0xC0 SHL PUSH2 0x1B64 JUMP JUMPDEST PUSH2 0x1330 DUP11 DUP4 DUP4 PUSH2 0x2748 JUMP JUMPDEST DUP1 SWAP6 POP DUP2 SWAP7 POP POP POP PUSH2 0x134C PUSH8 0x51B5A9E0D538CEAF PUSH1 0xC0 SHL PUSH2 0x1B64 JUMP JUMPDEST PUSH2 0x1360 PUSH8 0xC919313BB5655B09 PUSH1 0xC0 SHL PUSH2 0x1B64 JUMP JUMPDEST PUSH2 0x1374 PUSH8 0x743BD3307A463437 PUSH1 0xC0 SHL PUSH2 0x1B64 JUMP JUMPDEST DUP9 DUP6 LT ISZERO DUP1 ISZERO PUSH2 0x1384 JUMPI POP DUP8 DUP5 LT ISZERO JUMPDEST PUSH2 0x13C3 JUMPI PUSH1 0x40 MLOAD PUSH32 0x8C379A000000000000000000000000000000000000000000000000000000000 DUP2 MSTORE PUSH1 0x4 ADD PUSH2 0x13BA SWAP1 PUSH2 0x41BF JUMP JUMPDEST PUSH1 0x40 MLOAD DUP1 SWAP2 SUB SWAP1 REVERT JUMPDEST PUSH2 0x13D7 PUSH8 0xDD08A1826382D3F8 PUSH1 0xC0 SHL PUSH2 0x1B64 JUMP JUMPDEST PUSH2 0x13EB PUSH8 0xD0D1AC9BD3D80FB PUSH1 0xC0 SHL PUSH2 0x1B64 JUMP JUMPDEST DUP5 PUSH1 0x7 PUSH1 0x0 DUP15 PUSH20 0xFFFFFFFFFFFFFFFFFFFFFFFFFFFFFFFFFFFFFFFF AND PUSH20 0xFFFFFFFFFFFFFFFFFFFFFFFFFFFFFFFFFFFFFFFF AND DUP2 MSTORE PUSH1 0x20 ADD SWAP1 DUP2 MSTORE PUSH1 0x20 ADD PUSH1 0x0 KECCAK256 PUSH1 0x0 DUP3 DUP3 SLOAD PUSH2 0x143A SWAP2 SWAP1 PUSH2 0x3FEF JUMP JUMPDEST SWAP3 POP POP DUP2 SWAP1 SSTORE POP PUSH2 0x1455 PUSH8 0x98469A49CBC834EE PUSH1 0xC0 SHL PUSH2 0x1B64 JUMP JUMPDEST DUP4 PUSH1 0x7 PUSH1 0x0 DUP14 PUSH20 0xFFFFFFFFFFFFFFFFFFFFFFFFFFFFFFFFFFFFFFFF AND PUSH20 0xFFFFFFFFFFFFFFFFFFFFFFFFFFFFFFFFFFFFFFFF AND DUP2 MSTORE PUSH1 0x20 ADD SWAP1 DUP2 MSTORE PUSH1 0x20 ADD PUSH1 0x0 KECCAK256 PUSH1 0x0 DUP3 DUP3 SLOAD PUSH2 0x14A4 SWAP2 SWAP1 PUSH2 0x3FEF JUMP JUMPDEST SWAP3 POP POP DUP2 SWAP1 SSTORE POP PUSH2 0x14BF PUSH8 0x428225E9F782EAFA PUSH1 0xC0 SHL PUSH2 0x1B64 JUMP JUMPDEST PUSH2 0x14D3 PUSH8 0xBA736FD60738059D PUSH1 0xC0 SHL PUSH2 0x1B64 JUMP JUMPDEST PUSH2 0x14DC DUP11 PUSH2 0xDBC JUMP JUMPDEST PUSH2 0x14F0 PUSH8 0x936E679119B639B3 PUSH1 0xC0 SHL PUSH2 0x1B64 JUMP JUMPDEST PUSH2 0x1504 PUSH8 0x204DB7FC20B7B165 PUSH1 0xC0 SHL PUSH2 0x1B64 JUMP JUMPDEST PUSH2 0x150F DUP13 DUP9 DUP8 PUSH2 0x2329 JUMP JUMPDEST PUSH2 0x1523 PUSH8 0x5C3BA6CE9DC9A2DD PUSH1 0xC0 SHL PUSH2 0x1B64 JUMP JUMPDEST PUSH2 0x1537 PUSH8 0x3853C22CF84B24FB PUSH1 0xC0 SHL PUSH2 0x1B64 JUMP JUMPDEST PUSH2 0x1542 DUP12 DUP9 DUP7 PUSH2 0x2329 JUMP JUMPDEST PUSH2 0x1556 PUSH8 0x5B1337609B7FCFEA PUSH1 0xC0 SHL PUSH2 0x1B64 JUMP JUMPDEST PUSH2 0x156A PUSH8 0xAAD6CC282EF96AD7 PUSH1 0xC0 SHL PUSH2 0x1B64 JUMP JUMPDEST DUP11 PUSH20 0xFFFFFFFFFFFFFFFFFFFFFFFFFFFFFFFFFFFFFFFF AND DUP13 PUSH20 0xFFFFFFFFFFFFFFFFFFFFFFFFFFFFFFFFFFFFFFFF AND CALLER PUSH20 0xFFFFFFFFFFFFFFFFFFFFFFFFFFFFFFFFFFFFFFFF AND PUSH32 0xD765E08EEF31C0983ECCA03ECD166297AC485ECD5DD69E291C848F0A020333C1 DUP9 DUP9 DUP16 PUSH1 0x40 MLOAD PUSH2 0x15E2 SWAP4 SWAP3 SWAP2 SWAP1 PUSH2 0x3D16 JUMP JUMPDEST PUSH1 0x40 MLOAD DUP1 SWAP2 SUB SWAP1 LOG4 PUSH2 0x15FE PUSH8 0x4448D952572F209C PUSH1 0xC0 SHL PUSH2 0x1B64 JUMP JUMPDEST PUSH2 0x1612 PUSH8 0x238611C007E046A PUSH1 0xC0 SHL PUSH2 0x1B64 JUMP JUMPDEST POP POP PUSH2 0x161C PUSH2 0x247D JUMP JUMPDEST POP SWAP8 POP SWAP8 SWAP6 POP POP POP POP POP POP JUMP JUMPDEST PUSH1 0x0 PUSH1 0x1 PUSH1 0x0 DUP5 PUSH20 0xFFFFFFFFFFFFFFFFFFFFFFFFFFFFFFFFFFFFFFFF AND PUSH20 0xFFFFFFFFFFFFFFFFFFFFFFFFFFFFFFFFFFFFFFFF AND DUP2 MSTORE PUSH1 0x20 ADD SWAP1 DUP2 MSTORE PUSH1 0x20 ADD PUSH1 0x0 KECCAK256 PUSH1 0x0 DUP4 PUSH20 0xFFFFFFFFFFFFFFFFFFFFFFFFFFFFFFFFFFFFFFFF AND PUSH20 0xFFFFFFFFFFFFFFFFFFFFFFFFFFFFFFFFFFFFFFFF AND DUP2 MSTORE PUSH1 0x20 ADD SWAP1 DUP2 MSTORE PUSH1 0x20 ADD PUSH1 0x0 KECCAK256 SLOAD SWAP1 POP SWAP3 SWAP2 POP POP JUMP JUMPDEST PUSH1 0x0 DUP1 PUSH1 0x0 PUSH2 0x16C9 PUSH8 0xD90ABCBC14591BB2 PUSH1 0xC0 SHL PUSH2 0x1B64 JUMP JUMPDEST DUP4 PUSH2 0x16DE PUSH8 0x6F58D80F285BD633 PUSH1 0xC0 SHL PUSH2 0x1B64 JUMP JUMPDEST PUSH2 0x16F2 PUSH8 0x4C4413935B09E129 PUSH1 0xC0 SHL PUSH2 0x1B64 JUMP JUMPDEST PUSH2 0x1706 PUSH8 0x9BE85B8866CE5408 PUSH1 0xC0 SHL PUSH2 0x1B64 JUMP JUMPDEST PUSH2 0x171A PUSH8 0x278AD0793E397D85 PUSH1 0xC0 SHL PUSH2 0x1B64 JUMP JUMPDEST TIMESTAMP DUP2 GT PUSH2 0x175C JUMPI PUSH1 0x40 MLOAD PUSH32 0x8C379A000000000000000000000000000000000000000000000000000000000 DUP2 MSTORE PUSH1 0x4 ADD PUSH2 0x1753 SWAP1 PUSH2 0x3DF9 JUMP JUMPDEST PUSH1 0x40 MLOAD DUP1 SWAP2 SUB SWAP1 REVERT JUMPDEST PUSH2 0x1770 PUSH8 0x7F3EBF4141A62A84 PUSH1 0xC0 SHL PUSH2 0x1B64 JUMP JUMPDEST PUSH2 0x1784 PUSH8 0x6A3CC7CCD4B4099A PUSH1 0xC0 SHL PUSH2 0x1B64 JUMP JUMPDEST PUSH2 0x1798 PUSH8 0xE10BE893A56B4A9F PUSH1 0xC0 SHL PUSH2 0x1B64 JUMP JUMPDEST PUSH2 0x17AC PUSH8 0x325FDDE2BE4BC1D6 PUSH1 0xC0 SHL PUSH2 0x1B64 JUMP JUMPDEST PUSH2 0x17B4 PUSH2 0x1F02 JUMP JUMPDEST PUSH2 0x17C8 PUSH8 0x3DB0E24FF7DE74E3 PUSH1 0xC0 SHL PUSH2 0x1B64 JUMP JUMPDEST PUSH2 0x17DC PUSH8 0xC561340D15A80B94 PUSH1 0xC0 SHL PUSH2 0x1B64 JUMP JUMPDEST PUSH2 0x17F0 PUSH8 0xA511ED25A7FCAA28 PUSH1 0xC0 SHL PUSH2 0x1B64 JUMP JUMPDEST PUSH2 0x1804 PUSH8 0x6B1D20E5FD4BB7BF PUSH1 0xC0 SHL PUSH2 0x1B64 JUMP JUMPDEST PUSH2 0x1818 PUSH8 0xBDE5A7A6ADBE37F9 PUSH1 0xC0 SHL PUSH2 0x1B64 JUMP JUMPDEST DUP11 PUSH20 0xFFFFFFFFFFFFFFFFFFFFFFFFFFFFFFFFFFFFFFFF AND DUP13 PUSH20 0xFFFFFFFFFFFFFFFFFFFFFFFFFFFFFFFFFFFFFFFF AND SUB PUSH2 0x1886 JUMPI PUSH1 0x40 MLOAD PUSH32 0x8C379A000000000000000000000000000000000000000000000000000000000 DUP2 MSTORE PUSH1 0x4 ADD PUSH2 0x187D SWAP1 PUSH2 0x422B JUMP JUMPDEST PUSH1 0x40 MLOAD DUP1 SWAP2 SUB SWAP1 REVERT JUMPDEST PUSH2 0x189A PUSH8 0xAC0A0C465814509A PUSH1 0xC0 SHL PUSH2 0x1B64 JUMP JUMPDEST PUSH2 0x18AE PUSH8 0x75C634CA425C4EB2 PUSH1 0xC0 SHL PUSH2 0x1B64 JUMP JUMPDEST PUSH2 0x18C2 PUSH8 0x8D81472B94CBFE75 PUSH1 0xC0 SHL PUSH2 0x1B64 JUMP JUMPDEST PUSH1 0x0 DUP1 PUSH2 0x18CF DUP15 DUP15 PUSH2 0x2656 JUMP JUMPDEST SWAP2 POP SWAP2 POP PUSH2 0x18E7 PUSH8 0x136767281410F152 PUSH1 0xC0 SHL PUSH2 0x1B64 JUMP JUMPDEST PUSH2 0x18F5 DUP13 DUP13 DUP13 DUP13 DUP7 DUP7 PUSH2 0x2911 JUMP JUMPDEST DUP1 SWAP7 POP DUP2 SWAP8 POP POP POP PUSH2 0x1911 PUSH8 0x5942FF0D494F58DB PUSH1 0xC0 SHL PUSH2 0x1B64 JUMP JUMPDEST PUSH2 0x1925 PUSH8 0xA42B03FC1A35930 PUSH1 0xC0 SHL PUSH2 0x1B64 JUMP JUMPDEST PUSH2 0x1931 DUP15 CALLER ADDRESS DUP10 PUSH2 0x21D2 JUMP JUMPDEST PUSH2 0x1945 PUSH8 0x8CAB5E0326CF64F7 PUSH1 0xC0 SHL PUSH2 0x1B64 JUMP JUMPDEST PUSH2 0x1959 PUSH8 0x9D35B12D5CC1A5B9 PUSH1 0xC0 SHL PUSH2 0x1B64 JUMP JUMPDEST PUSH2 0x1965 DUP14 CALLER ADDRESS DUP9 PUSH2 0x21D2 JUMP JUMPDEST PUSH2 0x1979 PUSH8 0xB3F924AB9A43C423 PUSH1 0xC0 SHL PUSH2 0x1B64 JUMP JUMPDEST PUSH2 0x198D PUSH8 0x4F20008D8EA82D7B PUSH1 0xC0 SHL PUSH2 0x1B64 JUMP JUMPDEST PUSH2 0x1999 DUP15 DUP15 DUP9 DUP9 PUSH2 0x2CFA JUMP JUMPDEST PUSH2 0x19AD PUSH8 0xA54308CFEA5FDDB PUSH1 0xC0 SHL PUSH2 0x1B64 JUMP JUMPDEST PUSH2 0x19C1 DUP15 DUP15 DUP9 DUP9 PUSH2 0x19BC PUSH2 0x57A JUMP JUMPDEST PUSH2 0x2DE8 JUMP JUMPDEST SWAP4 POP PUSH2 0x19D7 PUSH8 0x3BD768B91244CCAB PUSH1 0xC0 SHL PUSH2 0x1B64 JUMP JUMPDEST PUSH2 0x19EB PUSH8 0x5E76122687780E3F PUSH1 0xC0 SHL PUSH2 0x1B64 JUMP JUMPDEST PUSH2 0x19F5 DUP9 DUP6 PUSH2 0x2FD6 JUMP JUMPDEST PUSH2 0x1A09 PUSH8 0xA1BA306CA82CA0A5 PUSH1 0xC0 SHL PUSH2 0x1B64 JUMP JUMPDEST PUSH2 0x1A1D PUSH8 0x806F4B1E584E7660 PUSH1 0xC0 SHL PUSH2 0x1B64 JUMP JUMPDEST DUP13 PUSH20 0xFFFFFFFFFFFFFFFFFFFFFFFFFFFFFFFFFFFFFFFF AND DUP15 PUSH20 0xFFFFFFFFFFFFFFFFFFFFFFFFFFFFFFFFFFFFFFFF AND CALLER PUSH20 0xFFFFFFFFFFFFFFFFFFFFFFFFFFFFFFFFFFFFFFFF AND PUSH32 0x43C967B388D3A4CCAD3F7AB80167852E322E5A3FDE9893F530252281B2AE8B70 DUP10 DUP10 DUP10 PUSH1 0x40 MLOAD PUSH2 0x1A95 SWAP4 SWAP3 SWAP2 SWAP1 PUSH2 0x3D16 JUMP JUMPDEST PUSH1 0x40 MLOAD DUP1 SWAP2 SUB SWAP1 LOG4 PUSH2 0x1AB1 PUSH8 0xF8F2A17B6C99FE79 PUSH1 0xC0 SHL PUSH2 0x1B64 JUMP JUMPDEST PUSH2 0x1AC5 PUSH8 0x57423A21C82A2694 PUSH1 0xC0 SHL PUSH2 0x1B64 JUMP JUMPDEST POP POP PUSH2 0x1ACF PUSH2 0x247D JUMP JUMPDEST POP SWAP9 POP SWAP9 POP SWAP9 SWAP6 POP POP POP POP POP POP JUMP JUMPDEST PUSH2 0x1AE6 PUSH2 0x2509 JUMP JUMPDEST PUSH1 0x0 PUSH20 0xFFFFFFFFFFFFFFFFFFFFFFFFFFFFFFFFFFFFFFFF AND DUP2 PUSH20 0xFFFFFFFFFFFFFFFFFFFFFFFFFFFFFFFFFFFFFFFF AND SUB PUSH2 0x1B58 JUMPI PUSH1 0x0 PUSH1 0x40 MLOAD PUSH32 0x1E4FBDF700000000000000000000000000000000000000000000000000000000 DUP2 MSTORE PUSH1 0x4 ADD PUSH2 0x1B4F SWAP2 SWAP1 PUSH2 0x3B3A JUMP JUMPDEST PUSH1 0x40 MLOAD DUP1 SWAP2 SUB SWAP1 REVERT JUMPDEST PUSH2 0x1B61 DUP2 PUSH2 0x2590 JUMP JUMPDEST POP JUMP JUMPDEST POP JUMP JUMPDEST PUSH1 0x0 PUSH2 0x1B7D PUSH8 0x5A631BAD22B333C5 PUSH1 0xC0 SHL PUSH2 0x1B64 JUMP JUMPDEST DUP3 DUP3 PUSH2 0x1B93 PUSH8 0x72ADA1136CFB181 PUSH1 0xC0 SHL PUSH2 0x1B64 JUMP JUMPDEST PUSH2 0x1BA7 PUSH8 0x9D893B3DE856F295 PUSH1 0xC0 SHL PUSH2 0x1B64 JUMP JUMPDEST PUSH2 0x1BBB PUSH8 0x4FB131068698A1F8 PUSH1 0xC0 SHL PUSH2 0x1B64 JUMP JUMPDEST PUSH2 0x1BCF PUSH8 0x1F40DD99A27CB28C PUSH1 0xC0 SHL PUSH2 0x1B64 JUMP JUMPDEST PUSH1 0x0 DUP3 GT DUP1 ISZERO PUSH2 0x1BDF JUMPI POP PUSH1 0x0 DUP2 GT JUMPDEST PUSH2 0x1C1E JUMPI PUSH1 0x40 MLOAD PUSH32 0x8C379A000000000000000000000000000000000000000000000000000000000 DUP2 MSTORE PUSH1 0x4 ADD PUSH2 0x1C15 SWAP1 PUSH2 0x4297 JUMP JUMPDEST PUSH1 0x40 MLOAD DUP1 SWAP2 SUB SWAP1 REVERT JUMPDEST PUSH2 0x1C32 PUSH8 0x99983BFC3728D848 PUSH1 0xC0 SHL PUSH2 0x1B64 JUMP JUMPDEST PUSH2 0x1C46 PUSH8 0x58E6DDBF3C24D114 PUSH1 0xC0 SHL PUSH2 0x1B64 JUMP JUMPDEST PUSH2 0x1C5A PUSH8 0xA8CDD560ECCCE900 PUSH1 0xC0 SHL PUSH2 0x1B64 JUMP JUMPDEST PUSH2 0x1C6E PUSH8 0x5F872059C81CB703 PUSH1 0xC0 SHL PUSH2 0x1B64 JUMP JUMPDEST PUSH2 0x1C82 PUSH8 0x21A55E31DBCF8622 PUSH1 0xC0 SHL PUSH2 0x1B64 JUMP JUMPDEST PUSH2 0x1C96 PUSH8 0xC8BA52FB97348935 PUSH1 0xC0 SHL PUSH2 0x1B64 JUMP JUMPDEST PUSH2 0x1CAA PUSH8 0xD79FF5E2FC0EE663 PUSH1 0xC0 SHL PUSH2 0x1B64 JUMP JUMPDEST PUSH1 0x0 DUP7 GT PUSH2 0x1CED JUMPI PUSH1 0x40 MLOAD PUSH32 0x8C379A000000000000000000000000000000000000000000000000000000000 DUP2 MSTORE PUSH1 0x4 ADD PUSH2 0x1CE4 SWAP1 PUSH2 0x4303 JUMP JUMPDEST PUSH1 0x40 MLOAD DUP1 SWAP2 SUB SWAP1 REVERT JUMPDEST PUSH2 0x1D01 PUSH8 0x2C7899B591559413 PUSH1 0xC0 SHL PUSH2 0x1B64 JUMP JUMPDEST PUSH2 0x1D15 PUSH8 0x7B3F28DE916E0DAC PUSH1 0xC0 SHL PUSH2 0x1B64 JUMP JUMPDEST DUP5 DUP5 DUP8 PUSH2 0x1D22 SWAP2 SWAP1 PUSH2 0x40D1 JUMP JUMPDEST PUSH2 0x1D2C SWAP2 SWAP1 PUSH2 0x4142 JUMP JUMPDEST SWAP3 POP PUSH2 0x1D42 PUSH8 0x992BB06846FED28F PUSH1 0xC0 SHL PUSH2 0x1B64 JUMP JUMPDEST PUSH2 0x1D56 PUSH8 0x860E2936E302CAAE PUSH1 0xC0 SHL PUSH2 0x1B64 JUMP JUMPDEST POP POP SWAP4 SWAP3 POP POP POP JUMP JUMPDEST PUSH1 0x0 CALLER SWAP1 POP SWAP1 JUMP JUMPDEST PUSH2 0x1D74 DUP4 DUP4 DUP4 PUSH1 0x1 PUSH2 0x3058 JUMP JUMPDEST POP POP POP JUMP JUMPDEST PUSH1 0x0 PUSH2 0x1D85 DUP5 DUP5 PUSH2 0x1629 JUMP JUMPDEST SWAP1 POP PUSH32 0xFFFFFFFFFFFFFFFFFFFFFFFFFFFFFFFFFFFFFFFFFFFFFFFFFFFFFFFFFFFFFFFF DUP2 LT ISZERO PUSH2 0x1E08 JUMPI DUP2 DUP2 LT ISZERO PUSH2 0x1DF8 JUMPI DUP3 DUP2 DUP4 PUSH1 0x40 MLOAD PUSH32 0xFB8F41B200000000000000000000000000000000000000000000000000000000 DUP2 MSTORE PUSH1 0x4 ADD PUSH2 0x1DEF SWAP4 SWAP3 SWAP2 SWAP1 PUSH2 0x4323 JUMP JUMPDEST PUSH1 0x40 MLOAD DUP1 SWAP2 SUB SWAP1 REVERT JUMPDEST PUSH2 0x1E07 DUP5 DUP5 DUP5 DUP5 SUB PUSH1 0x0 PUSH2 0x3058 JUMP JUMPDEST JUMPDEST POP POP POP POP JUMP JUMPDEST PUSH1 0x0 PUSH20 0xFFFFFFFFFFFFFFFFFFFFFFFFFFFFFFFFFFFFFFFF AND DUP4 PUSH20 0xFFFFFFFFFFFFFFFFFFFFFFFFFFFFFFFFFFFFFFFF AND SUB PUSH2 0x1E80 JUMPI PUSH1 0x0 PUSH1 0x40 MLOAD PUSH32 0x96C6FD1E00000000000000000000000000000000000000000000000000000000 DUP2 MSTORE PUSH1 0x4 ADD PUSH2 0x1E77 SWAP2 SWAP1 PUSH2 0x3B3A JUMP JUMPDEST PUSH1 0x40 MLOAD DUP1 SWAP2 SUB SWAP1 REVERT JUMPDEST PUSH1 0x0 PUSH20 0xFFFFFFFFFFFFFFFFFFFFFFFFFFFFFFFFFFFFFFFF AND DUP3 PUSH20 0xFFFFFFFFFFFFFFFFFFFFFFFFFFFFFFFFFFFFFFFF AND SUB PUSH2 0x1EF2 JUMPI PUSH1 0x0 PUSH1 0x40 MLOAD PUSH32 0xEC442F0500000000000000000000000000000000000000000000000000000000 DUP2 MSTORE PUSH1 0x4 ADD PUSH2 0x1EE9 SWAP2 SWAP1 PUSH2 0x3B3A JUMP JUMPDEST PUSH1 0x40 MLOAD DUP1 SWAP2 SUB SWAP1 REVERT JUMPDEST PUSH2 0x1EFD DUP4 DUP4 DUP4 PUSH2 0x322F JUMP JUMPDEST POP POP POP JUMP JUMPDEST PUSH1 0x2 PUSH1 0x5 SLOAD SUB PUSH2 0x1F3E JUMPI PUSH1 0x40 MLOAD PUSH32 0x3EE5AEB500000000000000000000000000000000000000000000000000000000 DUP2 MSTORE PUSH1 0x4 ADD PUSH1 0x40 MLOAD DUP1 SWAP2 SUB SWAP1 REVERT JUMPDEST PUSH1 0x2 PUSH1 0x5 DUP2 SWAP1 SSTORE POP JUMP JUMPDEST PUSH1 0x60 PUSH2 0x1F5E PUSH8 0x1E6150FB9F64DD98 PUSH1 0xC0 SHL PUSH2 0x1B64 JUMP JUMPDEST DUP2 PUSH2 0x1F73 PUSH8 0xAEDF52E31F026904 PUSH1 0xC0 SHL PUSH2 0x1B64 JUMP JUMPDEST PUSH2 0x1F87 PUSH8 0xAE42B729EE45E62D PUSH1 0xC0 SHL PUSH2 0x1B64 JUMP JUMPDEST PUSH2 0x1F9B PUSH8 0x229DF968B0921FBD PUSH1 0xC0 SHL PUSH2 0x1B64 JUMP JUMPDEST PUSH2 0x1FAF PUSH8 0x92813401921FFF03 PUSH1 0xC0 SHL PUSH2 0x1B64 JUMP JUMPDEST PUSH1 0x2 DUP2 MLOAD EQ PUSH2 0x1FF3 JUMPI PUSH1 0x40 MLOAD PUSH32 0x8C379A000000000000000000000000000000000000000000000000000000000 DUP2 MSTORE PUSH1 0x4 ADD PUSH2 0x1FEA SWAP1 PUSH2 0x3E65 JUMP JUMPDEST PUSH1 0x40 MLOAD DUP1 SWAP2 SUB SWAP1 REVERT JUMPDEST PUSH2 0x2007 PUSH8 0xBA4CB43791568F85 PUSH1 0xC0 SHL PUSH2 0x1B64 JUMP JUMPDEST PUSH2 0x201B PUSH8 0xEB084ABB294157A3 PUSH1 0xC0 SHL PUSH2 0x1B64 JUMP JUMPDEST PUSH2 0x202F PUSH8 0x2127CCDC6499DBEB PUSH1 0xC0 SHL PUSH2 0x1B64 JUMP JUMPDEST PUSH2 0x2043 PUSH8 0xCDF4587BD984D87C PUSH1 0xC0 SHL PUSH2 0x1B64 JUMP JUMPDEST PUSH2 0x2057 PUSH8 0x4B4CFBEF3B636EC3 PUSH1 0xC0 SHL PUSH2 0x1B64 JUMP JUMPDEST DUP3 MLOAD PUSH8 0xFFFFFFFFFFFFFFFF DUP2 GT ISZERO PUSH2 0x2072 JUMPI PUSH2 0x2071 PUSH2 0x435A JUMP JUMPDEST JUMPDEST PUSH1 0x40 MLOAD SWAP1 DUP1 DUP3 MSTORE DUP1 PUSH1 0x20 MUL PUSH1 0x20 ADD DUP3 ADD PUSH1 0x40 MSTORE DUP1 ISZERO PUSH2 0x20A0 JUMPI DUP2 PUSH1 0x20 ADD PUSH1 0x20 DUP3 MUL DUP1 CALLDATASIZE DUP4 CALLDATACOPY DUP1 DUP3 ADD SWAP2 POP POP SWAP1 POP JUMPDEST POP SWAP2 POP PUSH2 0x20B7 PUSH8 0x74E9A46BA7553F23 PUSH1 0xC0 SHL PUSH2 0x1B64 JUMP JUMPDEST DUP4 DUP3 PUSH1 0x0 DUP2 MLOAD DUP2 LT PUSH2 0x20CC JUMPI PUSH2 0x20CB PUSH2 0x3E85 JUMP JUMPDEST JUMPDEST PUSH1 0x20 MUL PUSH1 0x20 ADD ADD DUP2 DUP2 MSTORE POP POP PUSH2 0x20EC PUSH8 0x1A8432194771992C PUSH1 0xC0 SHL PUSH2 0x1B64 JUMP JUMPDEST PUSH2 0x2100 PUSH8 0x54A907154853F5D3 PUSH1 0xC0 SHL PUSH2 0x1B64 JUMP JUMPDEST PUSH1 0x0 DUP1 PUSH2 0x2143 DUP6 PUSH1 0x0 DUP2 MLOAD DUP2 LT PUSH2 0x211A JUMPI PUSH2 0x2119 PUSH2 0x3E85 JUMP JUMPDEST JUMPDEST PUSH1 0x20 MUL PUSH1 0x20 ADD ADD MLOAD DUP7 PUSH1 0x1 DUP2 MLOAD DUP2 LT PUSH2 0x2136 JUMPI PUSH2 0x2135 PUSH2 0x3E85 JUMP JUMPDEST JUMPDEST PUSH1 0x20 MUL PUSH1 0x20 ADD ADD MLOAD PUSH2 0x2656 JUMP JUMPDEST SWAP2 POP SWAP2 POP PUSH2 0x215B PUSH8 0x1D09E982A19DE5C4 PUSH1 0xC0 SHL PUSH2 0x1B64 JUMP JUMPDEST PUSH2 0x2181 DUP5 PUSH1 0x0 DUP2 MLOAD DUP2 LT PUSH2 0x2172 JUMPI PUSH2 0x2171 PUSH2 0x3E85 JUMP JUMPDEST JUMPDEST PUSH1 0x20 MUL PUSH1 0x20 ADD ADD MLOAD DUP4 DUP4 PUSH2 0x1B67 JUMP JUMPDEST DUP5 PUSH1 0x1 DUP2 MLOAD DUP2 LT PUSH2 0x2195 JUMPI PUSH2 0x2194 PUSH2 0x3E85 JUMP JUMPDEST JUMPDEST PUSH1 0x20 MUL PUSH1 0x20 ADD ADD DUP2 DUP2 MSTORE POP POP PUSH2 0x21B5 PUSH8 0xB5F4BABFD8E52232 PUSH1 0xC0 SHL PUSH2 0x1B64 JUMP JUMPDEST PUSH2 0x21C9 PUSH8 0xC45BD7CEF8C51C64 PUSH1 0xC0 SHL PUSH2 0x1B64 JUMP JUMPDEST POP POP POP SWAP3 SWAP2 POP POP JUMP JUMPDEST PUSH2 0x21E6 PUSH8 0xEE9B4D885AE7875C PUSH1 0xC0 SHL PUSH2 0x1B64 JUMP JUMPDEST PUSH2 0x21FA PUSH8 0x2F8A80FBFDE38A88 PUSH1 0xC0 SHL PUSH2 0x1B64 JUMP JUMPDEST PUSH2 0x220E PUSH8 0x4D18D06B093E2734 PUSH1 0xC0 SHL PUSH2 0x1B64 JUMP JUMPDEST PUSH1 0x0 DUP5 PUSH20 0xFFFFFFFFFFFFFFFFFFFFFFFFFFFFFFFFFFFFFFFF AND PUSH4 0x23B872DD DUP6 DUP6 DUP6 PUSH1 0x40 MLOAD DUP5 PUSH4 0xFFFFFFFF AND PUSH1 0xE0 SHL DUP2 MSTORE PUSH1 0x4 ADD PUSH2 0x224D SWAP4 SWAP3 SWAP2 SWAP1 PUSH2 0x4389 JUMP JUMPDEST PUSH1 0x20 PUSH1 0x40 MLOAD DUP1 DUP4 SUB DUP2 PUSH1 0x0 DUP8 GAS CALL ISZERO DUP1 ISZERO PUSH2 0x226C JUMPI RETURNDATASIZE PUSH1 0x0 DUP1 RETURNDATACOPY RETURNDATASIZE PUSH1 0x0 REVERT JUMPDEST POP POP POP POP PUSH1 0x40 MLOAD RETURNDATASIZE PUSH1 0x1F NOT PUSH1 0x1F DUP3 ADD AND DUP3 ADD DUP1 PUSH1 0x40 MSTORE POP DUP2 ADD SWAP1 PUSH2 0x2290 SWAP2 SWAP1 PUSH2 0x43EC JUMP JUMPDEST SWAP1 POP PUSH2 0x22A6 PUSH8 0x97E32177A7486B0E PUSH1 0xC0 SHL PUSH2 0x1B64 JUMP JUMPDEST PUSH2 0x22BA PUSH8 0x85566F06335473F0 PUSH1 0xC0 SHL PUSH2 0x1B64 JUMP JUMPDEST PUSH2 0x22CE PUSH8 0x9EA8EB6A82379D04 PUSH1 0xC0 SHL PUSH2 0x1B64 JUMP JUMPDEST DUP1 PUSH2 0x230E JUMPI PUSH1 0x40 MLOAD PUSH32 0x8C379A000000000000000000000000000000000000000000000000000000000 DUP2 MSTORE PUSH1 0x4 ADD PUSH2 0x2305 SWAP1 PUSH2 0x4465 JUMP JUMPDEST PUSH1 0x40 MLOAD DUP1 SWAP2 SUB SWAP1 REVERT JUMPDEST PUSH2 0x2322 PUSH8 0xC188C6B1C85AAF04 PUSH1 0xC0 SHL PUSH2 0x1B64 JUMP JUMPDEST POP POP POP POP POP JUMP JUMPDEST PUSH2 0x233D PUSH8 0xC6FC23B6B13EFB61 PUSH1 0xC0 SHL PUSH2 0x1B64 JUMP JUMPDEST PUSH2 0x2351 PUSH8 0xD388B5CF1FF656B0 PUSH1 0xC0 SHL PUSH2 0x1B64 JUMP JUMPDEST PUSH2 0x2365 PUSH8 0xABF6B794E0522796 PUSH1 0xC0 SHL PUSH2 0x1B64 JUMP JUMPDEST PUSH1 0x0 DUP4 PUSH20 0xFFFFFFFFFFFFFFFFFFFFFFFFFFFFFFFFFFFFFFFF AND PUSH4 0xA9059CBB DUP5 DUP5 PUSH1 0x40 MLOAD DUP4 PUSH4 0xFFFFFFFF AND PUSH1 0xE0 SHL DUP2 MSTORE PUSH1 0x4 ADD PUSH2 0x23A2 SWAP3 SWAP2 SWAP1 PUSH2 0x4485 JUMP JUMPDEST PUSH1 0x20 PUSH1 0x40 MLOAD DUP1 DUP4 SUB DUP2 PUSH1 0x0 DUP8 GAS CALL ISZERO DUP1 ISZERO PUSH2 0x23C1 JUMPI RETURNDATASIZE PUSH1 0x0 DUP1 RETURNDATACOPY RETURNDATASIZE PUSH1 0x0 REVERT JUMPDEST POP POP POP POP PUSH1 0x40 MLOAD RETURNDATASIZE PUSH1 0x1F NOT PUSH1 0x1F DUP3 ADD AND DUP3 ADD DUP1 PUSH1 0x40 MSTORE POP DUP2 ADD SWAP1 PUSH2 0x23E5 SWAP2 SWAP1 PUSH2 0x43EC JUMP JUMPDEST SWAP1 POP PUSH2 0x23FB PUSH8 0x442817DBD61E87A4 PUSH1 0xC0 SHL PUSH2 0x1B64 JUMP JUMPDEST PUSH2 0x240F PUSH8 0x76F008F2BFBEDD9 PUSH1 0xC0 SHL PUSH2 0x1B64 JUMP JUMPDEST PUSH2 0x2423 PUSH8 0x892941BDC0934112 PUSH1 0xC0 SHL PUSH2 0x1B64 JUMP JUMPDEST DUP1 PUSH2 0x2463 JUMPI PUSH1 0x40 MLOAD PUSH32 0x8C379A000000000000000000000000000000000000000000000000000000000 DUP2 MSTORE PUSH1 0x4 ADD PUSH2 0x245A SWAP1 PUSH2 0x4465 JUMP JUMPDEST PUSH1 0x40 MLOAD DUP1 SWAP2 SUB SWAP1 REVERT JUMPDEST PUSH2 0x2477 PUSH8 0x28FB85F33E6DD365 PUSH1 0xC0 SHL PUSH2 0x1B64 JUMP JUMPDEST POP POP POP POP JUMP JUMPDEST PUSH1 0x1 PUSH1 0x5 DUP2 SWAP1 SSTORE POP JUMP JUMPDEST PUSH1 0x0 PUSH20 0xFFFFFFFFFFFFFFFFFFFFFFFFFFFFFFFFFFFFFFFF AND DUP3 PUSH20 0xFFFFFFFFFFFFFFFFFFFFFFFFFFFFFFFFFFFFFFFF AND SUB PUSH2 0x24F9 JUMPI PUSH1 0x0 PUSH1 0x40 MLOAD PUSH32 0x96C6FD1E00000000000000000000000000000000000000000000000000000000 DUP2 MSTORE PUSH1 0x4 ADD PUSH2 0x24F0 SWAP2 SWAP1 PUSH2 0x3B3A JUMP JUMPDEST PUSH1 0x40 MLOAD DUP1 SWAP2 SUB SWAP1 REVERT JUMPDEST PUSH2 0x2505 DUP3 PUSH1 0x0 DUP4 PUSH2 0x322F JUMP JUMPDEST POP POP JUMP JUMPDEST PUSH2 0x2511 PUSH2 0x1D5F JUMP JUMPDEST PUSH20 0xFFFFFFFFFFFFFFFFFFFFFFFFFFFFFFFFFFFFFFFF AND PUSH2 0x252F PUSH2 0xE4C JUMP JUMPDEST PUSH20 0xFFFFFFFFFFFFFFFFFFFFFFFFFFFFFFFFFFFFFFFF AND EQ PUSH2 0x258E JUMPI PUSH2 0x2552 PUSH2 0x1D5F JUMP JUMPDEST PUSH1 0x40 MLOAD PUSH32 0x118CDAA700000000000000000000000000000000000000000000000000000000 DUP2 MSTORE PUSH1 0x4 ADD PUSH2 0x2585 SWAP2 SWAP1 PUSH2 0x3B3A JUMP JUMPDEST PUSH1 0x40 MLOAD DUP1 SWAP2 SUB SWAP1 REVERT JUMPDEST JUMP JUMPDEST PUSH1 0x0 PUSH1 0x6 PUSH1 0x0 SWAP1 SLOAD SWAP1 PUSH2 0x100 EXP SWAP1 DIV PUSH20 0xFFFFFFFFFFFFFFFFFFFFFFFFFFFFFFFFFFFFFFFF AND SWAP1 POP DUP2 PUSH1 0x6 PUSH1 0x0 PUSH2 0x100 EXP DUP2 SLOAD DUP2 PUSH20 0xFFFFFFFFFFFFFFFFFFFFFFFFFFFFFFFFFFFFFFFF MUL NOT AND SWAP1 DUP4 PUSH20 0xFFFFFFFFFFFFFFFFFFFFFFFFFFFFFFFFFFFFFFFF AND MUL OR SWAP1 SSTORE POP DUP2 PUSH20 0xFFFFFFFFFFFFFFFFFFFFFFFFFFFFFFFFFFFFFFFF AND DUP2 PUSH20 0xFFFFFFFFFFFFFFFFFFFFFFFFFFFFFFFFFFFFFFFF AND PUSH32 0x8BE0079C531659141344CD1FD0A4F28419497F9722A3DAAFE3B4186F6B6457E0 PUSH1 0x40 MLOAD PUSH1 0x40 MLOAD DUP1 SWAP2 SUB SWAP1 LOG3 POP POP JUMP JUMPDEST PUSH1 0x0 DUP1 PUSH2 0x266D PUSH8 0xA72C1DE98A3E10E9 PUSH1 0xC0 SHL PUSH2 0x1B64 JUMP JUMPDEST PUSH2 0x2681 PUSH8 0xF64AB210E9E907FA PUSH1 0xC0 SHL PUSH2 0x1B64 JUMP JUMPDEST PUSH1 0x7 PUSH1 0x0 DUP6 PUSH20 0xFFFFFFFFFFFFFFFFFFFFFFFFFFFFFFFFFFFFFFFF AND PUSH20 0xFFFFFFFFFFFFFFFFFFFFFFFFFFFFFFFFFFFFFFFF AND DUP2 MSTORE PUSH1 0x20 ADD SWAP1 DUP2 MSTORE PUSH1 0x20 ADD PUSH1 0x0 KECCAK256 SLOAD SWAP2 POP PUSH2 0x26D7 PUSH8 0x7A634688DEC64E1D PUSH1 0xC0 SHL PUSH2 0x1B64 JUMP JUMPDEST PUSH1 0x7 PUSH1 0x0 DUP5 PUSH20 0xFFFFFFFFFFFFFFFFFFFFFFFFFFFFFFFFFFFFFFFF AND PUSH20 0xFFFFFFFFFFFFFFFFFFFFFFFFFFFFFFFFFFFFFFFF AND DUP2 MSTORE PUSH1 0x20 ADD SWAP1 DUP2 MSTORE PUSH1 0x20 ADD PUSH1 0x0 KECCAK256 SLOAD SWAP1 POP PUSH2 0x272D PUSH8 0x61081932B446B622 PUSH1 0xC0 SHL PUSH2 0x1B64 JUMP JUMPDEST PUSH2 0x2741 PUSH8 0x916E04CCAAC4A64 PUSH1 0xC0 SHL PUSH2 0x1B64 JUMP JUMPDEST SWAP3 POP SWAP3 SWAP1 POP JUMP JUMPDEST PUSH1 0x0 DUP1 PUSH2 0x275F PUSH8 0xA91A5B30177A2537 PUSH1 0xC0 SHL PUSH2 0x1B64 JUMP JUMPDEST DUP4 DUP4 PUSH2 0x2775 PUSH8 0x72ADA1136CFB181 PUSH1 0xC0 SHL PUSH2 0x1B64 JUMP JUMPDEST PUSH2 0x2789 PUSH8 0x9D893B3DE856F295 PUSH1 0xC0 SHL PUSH2 0x1B64 JUMP JUMPDEST PUSH2 0x279D PUSH8 0x4FB131068698A1F8 PUSH1 0xC0 SHL PUSH2 0x1B64 JUMP JUMPDEST PUSH2 0x27B1 PUSH8 0x1F40DD99A27CB28C PUSH1 0xC0 SHL PUSH2 0x1B64 JUMP JUMPDEST PUSH1 0x0 DUP3 GT DUP1 ISZERO PUSH2 0x27C1 JUMPI POP PUSH1 0x0 DUP2 GT JUMPDEST PUSH2 0x2800 JUMPI PUSH1 0x40 MLOAD PUSH32 0x8C379A000000000000000000000000000000000000000000000000000000000 DUP2 MSTORE PUSH1 0x4 ADD PUSH2 0x27F7 SWAP1 PUSH2 0x4297 JUMP JUMPDEST PUSH1 0x40 MLOAD DUP1 SWAP2 SUB SWAP1 REVERT JUMPDEST PUSH2 0x2814 PUSH8 0x99983BFC3728D848 PUSH1 0xC0 SHL PUSH2 0x1B64 JUMP JUMPDEST PUSH2 0x2828 PUSH8 0x58E6DDBF3C24D114 PUSH1 0xC0 SHL PUSH2 0x1B64 JUMP JUMPDEST PUSH2 0x283C PUSH8 0x517B94ECB31195E0 PUSH1 0xC0 SHL PUSH2 0x1B64 JUMP JUMPDEST PUSH2 0x2850 PUSH8 0xBD13413597166DDF PUSH1 0xC0 SHL PUSH2 0x1B64 JUMP JUMPDEST PUSH2 0x2864 PUSH8 0x4C41BD7BC7D841C5 PUSH1 0xC0 SHL PUSH2 0x1B64 JUMP JUMPDEST PUSH2 0x2878 PUSH8 0x14FEB8AB553475F PUSH1 0xC0 SHL PUSH2 0x1B64 JUMP JUMPDEST PUSH1 0x0 PUSH2 0x2882 PUSH2 0x57A JUMP JUMPDEST SWAP1 POP PUSH2 0x2898 PUSH8 0x57C8882179285BD9 PUSH1 0xC0 SHL PUSH2 0x1B64 JUMP JUMPDEST DUP1 DUP8 DUP10 PUSH2 0x28A5 SWAP2 SWAP1 PUSH2 0x40D1 JUMP JUMPDEST PUSH2 0x28AF SWAP2 SWAP1 PUSH2 0x4142 JUMP JUMPDEST SWAP5 POP PUSH2 0x28C5 PUSH8 0x7733D06353F9DEB5 PUSH1 0xC0 SHL PUSH2 0x1B64 JUMP JUMPDEST DUP1 DUP7 DUP10 PUSH2 0x28D2 SWAP2 SWAP1 PUSH2 0x40D1 JUMP JUMPDEST PUSH2 0x28DC SWAP2 SWAP1 PUSH2 0x4142 JUMP JUMPDEST SWAP4 POP PUSH2 0x28F2 PUSH8 0x30C320DD4FAFE518 PUSH1 0xC0 SHL PUSH2 0x1B64 JUMP JUMPDEST PUSH2 0x2906 PUSH8 0x7F4DCCD95031AA0 PUSH1 0xC0 SHL PUSH2 0x1B64 JUMP JUMPDEST POP POP POP SWAP4 POP SWAP4 SWAP2 POP POP JUMP JUMPDEST PUSH1 0x0 DUP1 PUSH2 0x2928 PUSH8 0x6F0C43A3935570D5 PUSH1 0xC0 SHL PUSH2 0x1B64 JUMP JUMPDEST PUSH2 0x293C PUSH8 0xD993AC161953B4DC PUSH1 0xC0 SHL PUSH2 0x1B64 JUMP JUMPDEST PUSH2 0x2950 PUSH8 0x9D52261A2CCF7C5D PUSH1 0xC0 SHL PUSH2 0x1B64 JUMP JUMPDEST PUSH1 0x0 PUSH2 0x2966 PUSH8 0x6F13025084CFFB1 PUSH1 0xC0 SHL PUSH2 0x1B64 JUMP JUMPDEST PUSH2 0x297A PUSH8 0x53F1E06EDFC98CDF PUSH1 0xC0 SHL PUSH2 0x1B64 JUMP JUMPDEST PUSH1 0x0 PUSH2 0x2990 PUSH8 0x6F3D9A105E131105 PUSH1 0xC0 SHL PUSH2 0x1B64 JUMP JUMPDEST PUSH2 0x29A4 PUSH8 0xB20CD6F46003D3D7 PUSH1 0xC0 SHL PUSH2 0x1B64 JUMP JUMPDEST PUSH1 0x0 DUP7 EQ DUP1 ISZERO PUSH2 0x29B4 JUMPI POP PUSH1 0x0 DUP6 EQ JUMPDEST ISZERO PUSH2 0x29F0 JUMPI PUSH2 0x29CD PUSH8 0xF7DF6BC3444A3768 PUSH1 0xC0 SHL PUSH2 0x1B64 JUMP JUMPDEST PUSH2 0x29E1 PUSH8 0x894AB39BE5AD1FB4 PUSH1 0xC0 SHL PUSH2 0x1B64 JUMP JUMPDEST DUP10 DUP10 DUP1 SWAP5 POP DUP2 SWAP6 POP POP POP PUSH2 0x2CC5 JUMP JUMPDEST PUSH2 0x2A04 PUSH8 0x8C11120B09FA142C PUSH1 0xC0 SHL PUSH2 0x1B64 JUMP JUMPDEST PUSH2 0x2A18 PUSH8 0xC6DCC0989E62CFC8 PUSH1 0xC0 SHL PUSH2 0x1B64 JUMP JUMPDEST PUSH2 0x2A23 DUP11 DUP8 DUP8 PUSH2 0x1B67 JUMP JUMPDEST SWAP1 POP PUSH2 0x2A39 PUSH8 0x2C7C15981D6B6997 PUSH1 0xC0 SHL PUSH2 0x1B64 JUMP JUMPDEST PUSH2 0x2A4D PUSH8 0x5B3C74D65C259D30 PUSH1 0xC0 SHL PUSH2 0x1B64 JUMP JUMPDEST DUP9 DUP2 GT PUSH2 0x2B1E JUMPI PUSH2 0x2A68 PUSH8 0xB26E40A38532BB9B PUSH1 0xC0 SHL PUSH2 0x1B64 JUMP JUMPDEST PUSH2 0x2A7C PUSH8 0x1B2DD8AA00458900 PUSH1 0xC0 SHL PUSH2 0x1B64 JUMP JUMPDEST PUSH2 0x2A90 PUSH8 0xF3468D403617DE4B PUSH1 0xC0 SHL PUSH2 0x1B64 JUMP JUMPDEST PUSH2 0x2AA4 PUSH8 0x36E63E4E38205FE4 PUSH1 0xC0 SHL PUSH2 0x1B64 JUMP JUMPDEST DUP7 DUP2 LT ISZERO PUSH2 0x2AE7 JUMPI PUSH1 0x40 MLOAD PUSH32 0x8C379A000000000000000000000000000000000000000000000000000000000 DUP2 MSTORE PUSH1 0x4 ADD PUSH2 0x2ADE SWAP1 PUSH2 0x44FA JUMP JUMPDEST PUSH1 0x40 MLOAD DUP1 SWAP2 SUB SWAP1 REVERT JUMPDEST PUSH2 0x2AFB PUSH8 0x12FEE7324AAA9C09 PUSH1 0xC0 SHL PUSH2 0x1B64 JUMP JUMPDEST PUSH2 0x2B0F PUSH8 0x523DF4F5420DBA58 PUSH1 0xC0 SHL PUSH2 0x1B64 JUMP JUMPDEST DUP10 DUP2 DUP1 SWAP5 POP DUP2 SWAP6 POP POP POP PUSH2 0x2CC4 JUMP JUMPDEST PUSH2 0x2B32 PUSH8 0xDF2EB3EBAB6918F5 PUSH1 0xC0 SHL PUSH2 0x1B64 JUMP JUMPDEST PUSH2 0x2B46 PUSH8 0x86578B0BCC4CEDBF PUSH1 0xC0 SHL PUSH2 0x1B64 JUMP JUMPDEST PUSH2 0x2B51 DUP10 DUP7 DUP9 PUSH2 0x1B67 JUMP JUMPDEST SWAP2 POP PUSH2 0x2B67 PUSH8 0x5A1ED0CE21669773 PUSH1 0xC0 SHL PUSH2 0x1B64 JUMP JUMPDEST PUSH2 0x2B7B PUSH8 0x346F21C3F71FE6A5 PUSH1 0xC0 SHL PUSH2 0x1B64 JUMP JUMPDEST DUP10 DUP3 GT PUSH2 0x2C4C JUMPI PUSH2 0x2B96 PUSH8 0xC51DB4323462B668 PUSH1 0xC0 SHL PUSH2 0x1B64 JUMP JUMPDEST PUSH2 0x2BAA PUSH8 0x4011C9E209BA6605 PUSH1 0xC0 SHL PUSH2 0x1B64 JUMP JUMPDEST PUSH2 0x2BBE PUSH8 0x4DBE750BE309B856 PUSH1 0xC0 SHL PUSH2 0x1B64 JUMP JUMPDEST PUSH2 0x2BD2 PUSH8 0xD26CE3DBCD76E772 PUSH1 0xC0 SHL PUSH2 0x1B64 JUMP JUMPDEST DUP8 DUP3 LT ISZERO PUSH2 0x2C15 JUMPI PUSH1 0x40 MLOAD PUSH32 0x8C379A000000000000000000000000000000000000000000000000000000000 DUP2 MSTORE PUSH1 0x4 ADD PUSH2 0x2C0C SWAP1 PUSH2 0x4566 JUMP JUMPDEST PUSH1 0x40 MLOAD DUP1 SWAP2 SUB SWAP1 REVERT JUMPDEST PUSH2 0x2C29 PUSH8 0x394ABA989D2DD804 PUSH1 0xC0 SHL PUSH2 0x1B64 JUMP JUMPDEST PUSH2 0x2C3D PUSH8 0xE1E2992E0A6B6A4A PUSH1 0xC0 SHL PUSH2 0x1B64 JUMP JUMPDEST DUP2 DUP10 DUP1 SWAP5 POP DUP2 SWAP6 POP POP POP PUSH2 0x2CC3 JUMP JUMPDEST PUSH2 0x2C60 PUSH8 0xB01B2FA3E074EFD1 PUSH1 0xC0 SHL PUSH2 0x1B64 JUMP JUMPDEST PUSH2 0x2C74 PUSH8 0x36EEB157222375BE PUSH1 0xC0 SHL PUSH2 0x1B64 JUMP JUMPDEST PUSH2 0x2C88 PUSH8 0xBBA30CC30B8FEB0C PUSH1 0xC0 SHL PUSH2 0x1B64 JUMP JUMPDEST PUSH1 0x40 MLOAD PUSH32 0x8C379A000000000000000000000000000000000000000000000000000000000 DUP2 MSTORE PUSH1 0x4 ADD PUSH2 0x2CBA SWAP1 PUSH2 0x45D2 JUMP JUMPDEST PUSH1 0x40 MLOAD DUP1 SWAP2 SUB SWAP1 REVERT JUMPDEST JUMPDEST JUMPDEST PUSH2 0x2CD9 PUSH8 0x31129AC87A809B3D PUSH1 0xC0 SHL PUSH2 0x1B64 JUMP JUMPDEST PUSH2 0x2CED PUSH8 0x4C2EBDBB398C1E85 PUSH1 0xC0 SHL PUSH2 0x1B64 JUMP JUMPDEST POP POP SWAP7 POP SWAP7 SWAP5 POP POP POP POP POP JUMP JUMPDEST PUSH2 0x2D0E PUSH8 0x1A411C6F9507963B PUSH1 0xC0 SHL PUSH2 0x1B64 JUMP JUMPDEST PUSH2 0x2D22 PUSH8 0xB248F97F9AAFD9C1 PUSH1 0xC0 SHL PUSH2 0x1B64 JUMP JUMPDEST DUP2 PUSH1 0x7 PUSH1 0x0 DUP7 PUSH20 0xFFFFFFFFFFFFFFFFFFFFFFFFFFFFFFFFFFFFFFFF AND PUSH20 0xFFFFFFFFFFFFFFFFFFFFFFFFFFFFFFFFFFFFFFFF AND DUP2 MSTORE PUSH1 0x20 ADD SWAP1 DUP2 MSTORE PUSH1 0x20 ADD PUSH1 0x0 KECCAK256 PUSH1 0x0 DUP3 DUP3 SLOAD PUSH2 0x2D71 SWAP2 SWAP1 PUSH2 0x3FBB JUMP JUMPDEST SWAP3 POP POP DUP2 SWAP1 SSTORE POP PUSH2 0x2D8C PUSH8 0x837E896497660CA PUSH1 0xC0 SHL PUSH2 0x1B64 JUMP JUMPDEST DUP1 PUSH1 0x7 PUSH1 0x0 DUP6 PUSH20 0xFFFFFFFFFFFFFFFFFFFFFFFFFFFFFFFFFFFFFFFF AND PUSH20 0xFFFFFFFFFFFFFFFFFFFFFFFFFFFFFFFFFFFFFFFF AND DUP2 MSTORE PUSH1 0x20 ADD SWAP1 DUP2 MSTORE PUSH1 0x20 ADD PUSH1 0x0 KECCAK256 PUSH1 0x0 DUP3 DUP3 SLOAD PUSH2 0x2DDB SWAP2 SWAP1 PUSH2 0x3FBB JUMP JUMPDEST SWAP3 POP POP DUP2 SWAP1 SSTORE POP POP POP POP POP JUMP JUMPDEST PUSH1 0x0 PUSH2 0x2DFE PUSH8 0x759CC84A67554035 PUSH1 0xC0 SHL PUSH2 0x1B64 JUMP JUMPDEST PUSH2 0x2E12 PUSH8 0xF0CF54DCC85D2406 PUSH1 0xC0 SHL PUSH2 0x1B64 JUMP JUMPDEST PUSH2 0x2E26 PUSH8 0xE394A4770DA7B3A PUSH1 0xC0 SHL PUSH2 0x1B64 JUMP JUMPDEST PUSH1 0x0 DUP3 SUB PUSH2 0x2E71 JUMPI PUSH2 0x2E42 PUSH8 0x44182AAFA387F82D PUSH1 0xC0 SHL PUSH2 0x1B64 JUMP JUMPDEST PUSH2 0x2E56 PUSH8 0x711FC4B654AD68D1 PUSH1 0xC0 SHL PUSH2 0x1B64 JUMP JUMPDEST PUSH2 0x2E6A DUP4 DUP6 PUSH2 0x2E65 SWAP2 SWAP1 PUSH2 0x40D1 JUMP JUMPDEST PUSH2 0x3454 JUMP JUMPDEST SWAP1 POP PUSH2 0x2FA5 JUMP JUMPDEST PUSH2 0x2E85 PUSH8 0xDE090170BDCD7708 PUSH1 0xC0 SHL PUSH2 0x1B64 JUMP JUMPDEST PUSH2 0x2E99 PUSH8 0xA37FD826B40D9D30 PUSH1 0xC0 SHL PUSH2 0x1B64 JUMP JUMPDEST PUSH2 0x2EAD PUSH8 0x29AC3DD800244108 PUSH1 0xC0 SHL PUSH2 0x1B64 JUMP JUMPDEST PUSH1 0x0 DUP1 PUSH2 0x2EBA DUP9 DUP9 PUSH2 0x2656 JUMP JUMPDEST SWAP2 POP SWAP2 POP PUSH2 0x2ED2 PUSH8 0x97F90B63A6C5AEEA PUSH1 0xC0 SHL PUSH2 0x1B64 JUMP JUMPDEST PUSH2 0x2EE6 PUSH8 0xE000F9BF292129E PUSH1 0xC0 SHL PUSH2 0x1B64 JUMP JUMPDEST PUSH1 0x0 DUP3 DUP6 DUP9 PUSH2 0x2EF5 SWAP2 SWAP1 PUSH2 0x40D1 JUMP JUMPDEST PUSH2 0x2EFF SWAP2 SWAP1 PUSH2 0x4142 JUMP JUMPDEST SWAP1 POP PUSH2 0x2F15 PUSH8 0xA89907DEE0B1ECFF PUSH1 0xC0 SHL PUSH2 0x1B64 JUMP JUMPDEST PUSH2 0x2F29 PUSH8 0x5B5E758128EDD914 PUSH1 0xC0 SHL PUSH2 0x1B64 JUMP JUMPDEST PUSH1 0x0 DUP3 DUP7 DUP9 PUSH2 0x2F38 SWAP2 SWAP1 PUSH2 0x40D1 JUMP JUMPDEST PUSH2 0x2F42 SWAP2 SWAP1 PUSH2 0x4142 JUMP JUMPDEST SWAP1 POP PUSH2 0x2F58 PUSH8 0x59D119F553DD8966 PUSH1 0xC0 SHL PUSH2 0x1B64 JUMP JUMPDEST DUP1 DUP3 LT DUP1 PUSH2 0x2F76 JUMPI POP PUSH2 0x2F75 PUSH8 0x68F1A021433C33C3 PUSH1 0xC0 SHL PUSH2 0x3613 JUMP JUMPDEST JUMPDEST DUP1 ISZERO PUSH2 0x2F92 JUMPI POP PUSH2 0x2F91 PUSH8 0x7AC920647948B6A2 PUSH1 0xC0 SHL PUSH2 0x361A JUMP JUMPDEST JUMPDEST PUSH2 0x2F9C JUMPI DUP1 PUSH2 0x2F9E JUMP JUMPDEST DUP2 JUMPDEST SWAP5 POP POP POP POP POP JUMPDEST PUSH2 0x2FB9 PUSH8 0xB17DE76458C8B506 PUSH1 0xC0 SHL PUSH2 0x1B64 JUMP JUMPDEST PUSH2 0x2FCD PUSH8 0x45486584D73DDE29 PUSH1 0xC0 SHL PUSH2 0x1B64 JUMP JUMPDEST SWAP6 SWAP5 POP POP POP POP POP JUMP JUMPDEST PUSH1 0x0 PUSH20 0xFFFFFFFFFFFFFFFFFFFFFFFFFFFFFFFFFFFFFFFF AND DUP3 PUSH20 0xFFFFFFFFFFFFFFFFFFFFFFFFFFFFFFFFFFFFFFFF AND SUB PUSH2 0x3048 JUMPI PUSH1 0x0 PUSH1 0x40 MLOAD PUSH32 0xEC442F0500000000000000000000000000000000000000000000000000000000 DUP2 MSTORE PUSH1 0x4 ADD PUSH2 0x303F SWAP2 SWAP1 PUSH2 0x3B3A JUMP JUMPDEST PUSH1 0x40 MLOAD DUP1 SWAP2 SUB SWAP1 REVERT JUMPDEST PUSH2 0x3054 PUSH1 0x0 DUP4 DUP4 PUSH2 0x322F JUMP JUMPDEST POP POP JUMP JUMPDEST PUSH1 0x0 PUSH20 0xFFFFFFFFFFFFFFFFFFFFFFFFFFFFFFFFFFFFFFFF AND DUP5 PUSH20 0xFFFFFFFFFFFFFFFFFFFFFFFFFFFFFFFFFFFFFFFF AND SUB PUSH2 0x30CA JUMPI PUSH1 0x0 PUSH1 0x40 MLOAD PUSH32 0xE602DF0500000000000000000000000000000000000000000000000000000000 DUP2 MSTORE PUSH1 0x4 ADD PUSH2 0x30C1 SWAP2 SWAP1 PUSH2 0x3B3A JUMP JUMPDEST PUSH1 0x40 MLOAD DUP1 SWAP2 SUB SWAP1 REVERT JUMPDEST PUSH1 0x0 PUSH20 0xFFFFFFFFFFFFFFFFFFFFFFFFFFFFFFFFFFFFFFFF AND DUP4 PUSH20 0xFFFFFFFFFFFFFFFFFFFFFFFFFFFFFFFFFFFFFFFF AND SUB PUSH2 0x313C JUMPI PUSH1 0x0 PUSH1 0x40 MLOAD PUSH32 0x94280D6200000000000000000000000000000000000000000000000000000000 DUP2 MSTORE PUSH1 0x4 ADD PUSH2 0x3133 SWAP2 SWAP1 PUSH2 0x3B3A JUMP JUMPDEST PUSH1 0x40 MLOAD DUP1 SWAP2 SUB SWAP1 REVERT JUMPDEST DUP2 PUSH1 0x1 PUSH1 0x0 DUP7 PUSH20 0xFFFFFFFFFFFFFFFFFFFFFFFFFFFFFFFFFFFFFFFF AND PUSH20 0xFFFFFFFFFFFFFFFFFFFFFFFFFFFFFFFFFFFFFFFF AND DUP2 MSTORE PUSH1 0x20 ADD SWAP1 DUP2 MSTORE PUSH1 0x20 ADD PUSH1 0x0 KECCAK256 PUSH1 0x0 DUP6 PUSH20 0xFFFFFFFFFFFFFFFFFFFFFFFFFFFFFFFFFFFFFFFF AND PUSH20 0xFFFFFFFFFFFFFFFFFFFFFFFFFFFFFFFFFFFFFFFF AND DUP2 MSTORE PUSH1 0x20 ADD SWAP1 DUP2 MSTORE PUSH1 0x20 ADD PUSH1 0x0 KECCAK256 DUP2 SWAP1 SSTORE POP DUP1 ISZERO PUSH2 0x3229 JUMPI DUP3 PUSH20 0xFFFFFFFFFFFFFFFFFFFFFFFFFFFFFFFFFFFFFFFF AND DUP5 PUSH20 0xFFFFFFFFFFFFFFFFFFFFFFFFFFFFFFFFFFFFFFFF AND PUSH32 0x8C5BE1E5EBEC7D5BD14F71427D1E84F3DD0314C0F7B2291E5B200AC8C7C3B925 DUP5 PUSH1 0x40 MLOAD PUSH2 0x3220 SWAP2 SWAP1 PUSH2 0x36C7 JUMP JUMPDEST PUSH1 0x40 MLOAD DUP1 SWAP2 SUB SWAP1 LOG3 JUMPDEST POP POP POP POP JUMP JUMPDEST PUSH1 0x0 PUSH20 0xFFFFFFFFFFFFFFFFFFFFFFFFFFFFFFFFFFFFFFFF AND DUP4 PUSH20 0xFFFFFFFFFFFFFFFFFFFFFFFFFFFFFFFFFFFFFFFF AND SUB PUSH2 0x3281 JUMPI DUP1 PUSH1 0x2 PUSH1 0x0 DUP3 DUP3 SLOAD PUSH2 0x3275 SWAP2 SWAP1 PUSH2 0x3FBB JUMP JUMPDEST SWAP3 POP POP DUP2 SWAP1 SSTORE POP PUSH2 0x3354 JUMP JUMPDEST PUSH1 0x0 DUP1 PUSH1 0x0 DUP6 PUSH20 0xFFFFFFFFFFFFFFFFFFFFFFFFFFFFFFFFFFFFFFFF AND PUSH20 0xFFFFFFFFFFFFFFFFFFFFFFFFFFFFFFFFFFFFFFFF AND DUP2 MSTORE PUSH1 0x20 ADD SWAP1 DUP2 MSTORE PUSH1 0x20 ADD PUSH1 0x0 KECCAK256 SLOAD SWAP1 POP DUP2 DUP2 LT ISZERO PUSH2 0x330D JUMPI DUP4 DUP2 DUP4 PUSH1 0x40 MLOAD PUSH32 0xE450D38C00000000000000000000000000000000000000000000000000000000 DUP2 MSTORE PUSH1 0x4 ADD PUSH2 0x3304 SWAP4 SWAP3 SWAP2 SWAP1 PUSH2 0x4323 JUMP JUMPDEST PUSH1 0x40 MLOAD DUP1 SWAP2 SUB SWAP1 REVERT JUMPDEST DUP2 DUP2 SUB PUSH1 0x0 DUP1 DUP7 PUSH20 0xFFFFFFFFFFFFFFFFFFFFFFFFFFFFFFFFFFFFFFFF AND PUSH20 0xFFFFFFFFFFFFFFFFFFFFFFFFFFFFFFFFFFFFFFFF AND DUP2 MSTORE PUSH1 0x20 ADD SWAP1 DUP2 MSTORE PUSH1 0x20 ADD PUSH1 0x0 KECCAK256 DUP2 SWAP1 SSTORE POP POP JUMPDEST PUSH1 0x0 PUSH20 0xFFFFFFFFFFFFFFFFFFFFFFFFFFFFFFFFFFFFFFFF AND DUP3 PUSH20 0xFFFFFFFFFFFFFFFFFFFFFFFFFFFFFFFFFFFFFFFF AND SUB PUSH2 0x339D JUMPI DUP1 PUSH1 0x2 PUSH1 0x0 DUP3 DUP3 SLOAD SUB SWAP3 POP POP DUP2 SWAP1 SSTORE POP PUSH2 0x33EA JUMP JUMPDEST DUP1 PUSH1 0x0 DUP1 DUP5 PUSH20 0xFFFFFFFFFFFFFFFFFFFFFFFFFFFFFFFFFFFFFFFF AND PUSH20 0xFFFFFFFFFFFFFFFFFFFFFFFFFFFFFFFFFFFFFFFF AND DUP2 MSTORE PUSH1 0x20 ADD SWAP1 DUP2 MSTORE PUSH1 0x20 ADD PUSH1 0x0 KECCAK256 PUSH1 0x0 DUP3 DUP3 SLOAD ADD SWAP3 POP POP DUP2 SWAP1 SSTORE POP JUMPDEST DUP2 PUSH20 0xFFFFFFFFFFFFFFFFFFFFFFFFFFFFFFFFFFFFFFFF AND DUP4 PUSH20 0xFFFFFFFFFFFFFFFFFFFFFFFFFFFFFFFFFFFFFFFF AND PUSH32 0xDDF252AD1BE2C89B69C2B068FC378DAA952BA7F163C4A11628F55A4DF523B3EF DUP4 PUSH1 0x40 MLOAD PUSH2 0x3447 SWAP2 SWAP1 PUSH2 0x36C7 JUMP JUMPDEST PUSH1 0x40 MLOAD DUP1 SWAP2 SUB SWAP1 LOG3 POP POP POP JUMP JUMPDEST PUSH1 0x0 PUSH2 0x346A PUSH8 0x2F0ED1CCC13A5451 PUSH1 0xC0 SHL PUSH2 0x1B64 JUMP JUMPDEST PUSH2 0x347E PUSH8 0x4C687AD7FE850EAF PUSH1 0xC0 SHL PUSH2 0x1B64 JUMP JUMPDEST PUSH2 0x3492 PUSH8 0xC799FF0ABADF68F PUSH1 0xC0 SHL PUSH2 0x1B64 JUMP JUMPDEST PUSH1 0x3 DUP3 GT ISZERO PUSH2 0x3597 JUMPI PUSH2 0x34AF PUSH8 0xD2103044C7F43CDF PUSH1 0xC0 SHL PUSH2 0x1B64 JUMP JUMPDEST PUSH2 0x34C3 PUSH8 0x9E94C64DB3FAA815 PUSH1 0xC0 SHL PUSH2 0x1B64 JUMP JUMPDEST DUP2 SWAP1 POP PUSH2 0x34DA PUSH8 0x2F0AD733493CE362 PUSH1 0xC0 SHL PUSH2 0x1B64 JUMP JUMPDEST PUSH2 0x34EE PUSH8 0xB2FDBC85B9EDEDC5 PUSH1 0xC0 SHL PUSH2 0x1B64 JUMP JUMPDEST PUSH1 0x0 PUSH1 0x1 PUSH1 0x2 DUP5 PUSH2 0x34FF SWAP2 SWAP1 PUSH2 0x4142 JUMP JUMPDEST PUSH2 0x3509 SWAP2 SWAP1 PUSH2 0x3FBB JUMP JUMPDEST SWAP1 POP PUSH2 0x351F PUSH8 0xAC163A0DA8A72BE6 PUSH1 0xC0 SHL PUSH2 0x1B64 JUMP JUMPDEST PUSH2 0x3533 PUSH8 0x71E570F1C6D57C1A PUSH1 0xC0 SHL PUSH2 0x1B64 JUMP JUMPDEST JUMPDEST DUP2 DUP2 LT ISZERO PUSH2 0x3591 JUMPI PUSH2 0x3550 PUSH8 0xFE213A0335551351 PUSH1 0xC0 SHL PUSH2 0x1B64 JUMP JUMPDEST DUP1 SWAP2 POP PUSH2 0x3567 PUSH8 0xBC2A36190A859F14 PUSH1 0xC0 SHL PUSH2 0x1B64 JUMP JUMPDEST PUSH1 0x2 DUP2 DUP3 DUP6 PUSH2 0x3576 SWAP2 SWAP1 PUSH2 0x4142 JUMP JUMPDEST PUSH2 0x3580 SWAP2 SWAP1 PUSH2 0x3FBB JUMP JUMPDEST PUSH2 0x358A SWAP2 SWAP1 PUSH2 0x4142 JUMP JUMPDEST SWAP1 POP PUSH2 0x3534 JUMP JUMPDEST POP PUSH2 0x360E JUMP JUMPDEST PUSH2 0x35AB PUSH8 0x149D83B0E3D4FFA4 PUSH1 0xC0 SHL PUSH2 0x1B64 JUMP JUMPDEST PUSH2 0x35BF PUSH8 0x1CE728C6864E1B4E PUSH1 0xC0 SHL PUSH2 0x1B64 JUMP JUMPDEST PUSH1 0x0 DUP3 EQ PUSH2 0x35F8 JUMPI PUSH2 0x35DB PUSH8 0x4166F41802C7DBD7 PUSH1 0xC0 SHL PUSH2 0x1B64 JUMP JUMPDEST PUSH2 0x35EF PUSH8 0xCDEDA41770EAD2D3 PUSH1 0xC0 SHL PUSH2 0x1B64 JUMP JUMPDEST PUSH1 0x1 SWAP1 POP PUSH2 0x360D JUMP JUMPDEST PUSH2 0x360C PUSH8 0xE9EBF47B38C08CE1 PUSH1 0xC0 SHL PUSH2 0x1B64 JUMP JUMPDEST JUMPDEST JUMPDEST SWAP2 SWAP1 POP JUMP JUMPDEST PUSH1 0x0 SWAP2 SWAP1 POP JUMP JUMPDEST PUSH1 0x0 PUSH1 0x1 SWAP1 POP SWAP2 SWAP1 POP JUMP JUMPDEST PUSH1 0x0 DUP1 REVERT JUMPDEST PUSH1 0x0 DUP1 REVERT JUMPDEST PUSH1 0x0 DUP2 SWAP1 POP SWAP2 SWAP1 POP JUMP JUMPDEST PUSH2 0x3642 DUP2 PUSH2 0x362F JUMP JUMPDEST DUP2 EQ PUSH2 0x364D JUMPI PUSH1 0x0 DUP1 REVERT JUMPDEST POP JUMP JUMPDEST PUSH1 0x0 DUP2 CALLDATALOAD SWAP1 POP PUSH2 0x365F DUP2 PUSH2 0x3639 JUMP JUMPDEST SWAP3 SWAP2 POP POP JUMP JUMPDEST PUSH1 0x0 DUP1 PUSH1 0x0 PUSH1 0x60 DUP5 DUP7 SUB SLT ISZERO PUSH2 0x367E JUMPI PUSH2 0x367D PUSH2 0x3625 JUMP JUMPDEST JUMPDEST PUSH1 0x0 PUSH2 0x368C DUP7 DUP3 DUP8 ADD PUSH2 0x3650 JUMP JUMPDEST SWAP4 POP POP PUSH1 0x20 PUSH2 0x369D DUP7 DUP3 DUP8 ADD PUSH2 0x3650 JUMP JUMPDEST SWAP3 POP POP PUSH1 0x40 PUSH2 0x36AE DUP7 DUP3 DUP8 ADD PUSH2 0x3650 JUMP JUMPDEST SWAP2 POP POP SWAP3 POP SWAP3 POP SWAP3 JUMP JUMPDEST PUSH2 0x36C1 DUP2 PUSH2 0x362F JUMP JUMPDEST DUP3 MSTORE POP POP JUMP JUMPDEST PUSH1 0x0 PUSH1 0x20 DUP3 ADD SWAP1 POP PUSH2 0x36DC PUSH1 0x0 DUP4 ADD DUP5 PUSH2 0x36B8 JUMP JUMPDEST SWAP3 SWAP2 POP POP JUMP JUMPDEST PUSH1 0x0 DUP2 MLOAD SWAP1 POP SWAP2 SWAP1 POP JUMP JUMPDEST PUSH1 0x0 DUP3 DUP3 MSTORE PUSH1 0x20 DUP3 ADD SWAP1 POP SWAP3 SWAP2 POP POP JUMP JUMPDEST PUSH1 0x0 JUMPDEST DUP4 DUP2 LT ISZERO PUSH2 0x371C JUMPI DUP1 DUP3 ADD MLOAD DUP2 DUP5 ADD MSTORE PUSH1 0x20 DUP2 ADD SWAP1 POP PUSH2 0x3701 JUMP JUMPDEST PUSH1 0x0 DUP5 DUP5 ADD MSTORE POP POP POP POP JUMP JUMPDEST PUSH1 0x0 PUSH1 0x1F NOT PUSH1 0x1F DUP4 ADD AND SWAP1 POP SWAP2 SWAP1 POP JUMP JUMPDEST PUSH1 0x0 PUSH2 0x3744 DUP3 PUSH2 0x36E2 JUMP JUMPDEST PUSH2 0x374E DUP2 DUP6 PUSH2 0x36ED JUMP JUMPDEST SWAP4 POP PUSH2 0x375E DUP2 DUP6 PUSH1 0x20 DUP7 ADD PUSH2 0x36FE JUMP JUMPDEST PUSH2 0x3767 DUP2 PUSH2 0x3728 JUMP JUMPDEST DUP5 ADD SWAP2 POP POP SWAP3 SWAP2 POP POP JUMP JUMPDEST PUSH1 0x0 PUSH1 0x20 DUP3 ADD SWAP1 POP DUP2 DUP2 SUB PUSH1 0x0 DUP4 ADD MSTORE PUSH2 0x378C DUP2 DUP5 PUSH2 0x3739 JUMP JUMPDEST SWAP1 POP SWAP3 SWAP2 POP POP JUMP JUMPDEST PUSH1 0x0 PUSH20 0xFFFFFFFFFFFFFFFFFFFFFFFFFFFFFFFFFFFFFFFF DUP3 AND SWAP1 POP SWAP2 SWAP1 POP JUMP JUMPDEST PUSH1 0x0 PUSH2 0x37BF DUP3 PUSH2 0x3794 JUMP JUMPDEST SWAP1 POP SWAP2 SWAP1 POP JUMP JUMPDEST PUSH2 0x37CF DUP2 PUSH2 0x37B4 JUMP JUMPDEST DUP2 EQ PUSH2 0x37DA JUMPI PUSH1 0x0 DUP1 REVERT JUMPDEST POP JUMP JUMPDEST PUSH1 0x0 DUP2 CALLDATALOAD SWAP1 POP PUSH2 0x37EC DUP2 PUSH2 0x37C6 JUMP JUMPDEST SWAP3 SWAP2 POP POP JUMP JUMPDEST PUSH1 0x0 DUP1 PUSH1 0x40 DUP4 DUP6 SUB SLT ISZERO PUSH2 0x3809 JUMPI PUSH2 0x3808 PUSH2 0x3625 JUMP JUMPDEST JUMPDEST PUSH1 0x0 PUSH2 0x3817 DUP6 DUP3 DUP7 ADD PUSH2 0x37DD JUMP JUMPDEST SWAP3 POP POP PUSH1 0x20 PUSH2 0x3828 DUP6 DUP3 DUP7 ADD PUSH2 0x3650 JUMP JUMPDEST SWAP2 POP POP SWAP3 POP SWAP3 SWAP1 POP JUMP JUMPDEST PUSH1 0x0 DUP2 ISZERO ISZERO SWAP1 POP SWAP2 SWAP1 POP JUMP JUMPDEST PUSH2 0x3847 DUP2 PUSH2 0x3832 JUMP JUMPDEST DUP3 MSTORE POP POP JUMP JUMPDEST PUSH1 0x0 PUSH1 0x20 DUP3 ADD SWAP1 POP PUSH2 0x3862 PUSH1 0x0 DUP4 ADD DUP5 PUSH2 0x383E JUMP JUMPDEST SWAP3 SWAP2 POP POP JUMP JUMPDEST PUSH1 0x0 DUP1 PUSH1 0x0 PUSH1 0x60 DUP5 DUP7 SUB SLT ISZERO PUSH2 0x3881 JUMPI PUSH2 0x3880 PUSH2 0x3625 JUMP JUMPDEST JUMPDEST PUSH1 0x0 PUSH2 0x388F DUP7 DUP3 DUP8 ADD PUSH2 0x37DD JUMP JUMPDEST SWAP4 POP POP PUSH1 0x20 PUSH2 0x38A0 DUP7 DUP3 DUP8 ADD PUSH2 0x37DD JUMP JUMPDEST SWAP3 POP POP PUSH1 0x40 PUSH2 0x38B1 DUP7 DUP3 DUP8 ADD PUSH2 0x3650 JUMP JUMPDEST SWAP2 POP POP SWAP3 POP SWAP3 POP SWAP3 JUMP JUMPDEST PUSH1 0x0 PUSH1 0xFF DUP3 AND SWAP1 POP SWAP2 SWAP1 POP JUMP JUMPDEST PUSH2 0x38D1 DUP2 PUSH2 0x38BB JUMP JUMPDEST DUP3 MSTORE POP POP JUMP JUMPDEST PUSH1 0x0 PUSH1 0x20 DUP3 ADD SWAP1 POP PUSH2 0x38EC PUSH1 0x0 DUP4 ADD DUP5 PUSH2 0x38C8 JUMP JUMPDEST SWAP3 SWAP2 POP POP JUMP JUMPDEST PUSH1 0x0 DUP1 REVERT JUMPDEST PUSH1 0x0 DUP1 REVERT JUMPDEST PUSH1 0x0 DUP1 REVERT JUMPDEST PUSH1 0x0 DUP1 DUP4 PUSH1 0x1F DUP5 ADD SLT PUSH2 0x3917 JUMPI PUSH2 0x3916 PUSH2 0x38F2 JUMP JUMPDEST JUMPDEST DUP3 CALLDATALOAD SWAP1 POP PUSH8 0xFFFFFFFFFFFFFFFF DUP2 GT ISZERO PUSH2 0x3934 JUMPI PUSH2 0x3933 PUSH2 0x38F7 JUMP JUMPDEST JUMPDEST PUSH1 0x20 DUP4 ADD SWAP2 POP DUP4 PUSH1 0x20 DUP3 MUL DUP4 ADD GT ISZERO PUSH2 0x3950 JUMPI PUSH2 0x394F PUSH2 0x38FC JUMP JUMPDEST JUMPDEST SWAP3 POP SWAP3 SWAP1 POP JUMP JUMPDEST PUSH1 0x0 DUP1 PUSH1 0x0 DUP1 PUSH1 0x0 DUP1 PUSH1 0xA0 DUP8 DUP10 SUB SLT ISZERO PUSH2 0x3974 JUMPI PUSH2 0x3973 PUSH2 0x3625 JUMP JUMPDEST JUMPDEST PUSH1 0x0 PUSH2 0x3982 DUP10 DUP3 DUP11 ADD PUSH2 0x3650 JUMP JUMPDEST SWAP7 POP POP PUSH1 0x20 PUSH2 0x3993 DUP10 DUP3 DUP11 ADD PUSH2 0x3650 JUMP JUMPDEST SWAP6 POP POP PUSH1 0x40 DUP8 ADD CALLDATALOAD PUSH8 0xFFFFFFFFFFFFFFFF DUP2 GT ISZERO PUSH2 0x39B4 JUMPI PUSH2 0x39B3 PUSH2 0x362A JUMP JUMPDEST JUMPDEST PUSH2 0x39C0 DUP10 DUP3 DUP11 ADD PUSH2 0x3901 JUMP JUMPDEST SWAP5 POP SWAP5 POP POP PUSH1 0x60 PUSH2 0x39D3 DUP10 DUP3 DUP11 ADD PUSH2 0x37DD JUMP JUMPDEST SWAP3 POP POP PUSH1 0x80 PUSH2 0x39E4 DUP10 DUP3 DUP11 ADD PUSH2 0x3650 JUMP JUMPDEST SWAP2 POP POP SWAP3 SWAP6 POP SWAP3 SWAP6 POP SWAP3 SWAP6 JUMP JUMPDEST PUSH1 0x0 DUP2 MLOAD SWAP1 POP SWAP2 SWAP1 POP JUMP JUMPDEST PUSH1 0x0 DUP3 DUP3 MSTORE PUSH1 0x20 DUP3 ADD SWAP1 POP SWAP3 SWAP2 POP POP JUMP JUMPDEST PUSH1 0x0 DUP2 SWAP1 POP PUSH1 0x20 DUP3 ADD SWAP1 POP SWAP2 SWAP1 POP JUMP JUMPDEST PUSH2 0x3A26 DUP2 PUSH2 0x362F JUMP JUMPDEST DUP3 MSTORE POP POP JUMP JUMPDEST PUSH1 0x0 PUSH2 0x3A38 DUP4 DUP4 PUSH2 0x3A1D JUMP JUMPDEST PUSH1 0x20 DUP4 ADD SWAP1 POP SWAP3 SWAP2 POP POP JUMP JUMPDEST PUSH1 0x0 PUSH1 0x20 DUP3 ADD SWAP1 POP SWAP2 SWAP1 POP JUMP JUMPDEST PUSH1 0x0 PUSH2 0x3A5C DUP3 PUSH2 0x39F1 JUMP JUMPDEST PUSH2 0x3A66 DUP2 DUP6 PUSH2 0x39FC JUMP JUMPDEST SWAP4 POP PUSH2 0x3A71 DUP4 PUSH2 0x3A0D JUMP JUMPDEST DUP1 PUSH1 0x0 JUMPDEST DUP4 DUP2 LT ISZERO PUSH2 0x3AA2 JUMPI DUP2 MLOAD PUSH2 0x3A89 DUP9 DUP3 PUSH2 0x3A2C JUMP JUMPDEST SWAP8 POP PUSH2 0x3A94 DUP4 PUSH2 0x3A44 JUMP JUMPDEST SWAP3 POP POP PUSH1 0x1 DUP2 ADD SWAP1 POP PUSH2 0x3A75 JUMP JUMPDEST POP DUP6 SWAP4 POP POP POP POP SWAP3 SWAP2 POP POP JUMP JUMPDEST PUSH1 0x0 PUSH1 0x20 DUP3 ADD SWAP1 POP DUP2 DUP2 SUB PUSH1 0x0 DUP4 ADD MSTORE PUSH2 0x3AC9 DUP2 DUP5 PUSH2 0x3A51 JUMP JUMPDEST SWAP1 POP SWAP3 SWAP2 POP POP JUMP JUMPDEST PUSH1 0x0 PUSH1 0x20 DUP3 DUP5 SUB SLT ISZERO PUSH2 0x3AE7 JUMPI PUSH2 0x3AE6 PUSH2 0x3625 JUMP JUMPDEST JUMPDEST PUSH1 0x0 PUSH2 0x3AF5 DUP5 DUP3 DUP6 ADD PUSH2 0x3650 JUMP JUMPDEST SWAP2 POP POP SWAP3 SWAP2 POP POP JUMP JUMPDEST PUSH1 0x0 PUSH1 0x20 DUP3 DUP5 SUB SLT ISZERO PUSH2 0x3B14 JUMPI PUSH2 0x3B13 PUSH2 0x3625 JUMP JUMPDEST JUMPDEST PUSH1 0x0 PUSH2 0x3B22 DUP5 DUP3 DUP6 ADD PUSH2 0x37DD JUMP JUMPDEST SWAP2 POP POP SWAP3 SWAP2 POP POP JUMP JUMPDEST PUSH2 0x3B34 DUP2 PUSH2 0x37B4 JUMP JUMPDEST DUP3 MSTORE POP POP JUMP JUMPDEST PUSH1 0x0 PUSH1 0x20 DUP3 ADD SWAP1 POP PUSH2 0x3B4F PUSH1 0x0 DUP4 ADD DUP5 PUSH2 0x3B2B JUMP JUMPDEST SWAP3 SWAP2 POP POP JUMP JUMPDEST PUSH1 0x0 DUP1 PUSH1 0x40 DUP4 DUP6 SUB SLT ISZERO PUSH2 0x3B6C JUMPI PUSH2 0x3B6B PUSH2 0x3625 JUMP JUMPDEST JUMPDEST PUSH1 0x0 PUSH2 0x3B7A DUP6 DUP3 DUP7 ADD PUSH2 0x37DD JUMP JUMPDEST SWAP3 POP POP PUSH1 0x20 PUSH2 0x3B8B DUP6 DUP3 DUP7 ADD PUSH2 0x37DD JUMP JUMPDEST SWAP2 POP POP SWAP3 POP SWAP3 SWAP1 POP JUMP JUMPDEST PUSH1 0x0 DUP1 PUSH1 0x0 DUP1 PUSH1 0x0 DUP1 PUSH1 0x0 PUSH1 0xE0 DUP9 DUP11 SUB SLT ISZERO PUSH2 0x3BB4 JUMPI PUSH2 0x3BB3 PUSH2 0x3625 JUMP JUMPDEST JUMPDEST PUSH1 0x0 PUSH2 0x3BC2 DUP11 DUP3 DUP12 ADD PUSH2 0x37DD JUMP JUMPDEST SWAP8 POP POP PUSH1 0x20 PUSH2 0x3BD3 DUP11 DUP3 DUP12 ADD PUSH2 0x37DD JUMP JUMPDEST SWAP7 POP POP PUSH1 0x40 PUSH2 0x3BE4 DUP11 DUP3 DUP12 ADD PUSH2 0x3650 JUMP JUMPDEST SWAP6 POP POP PUSH1 0x60 PUSH2 0x3BF5 DUP11 DUP3 DUP12 ADD PUSH2 0x3650 JUMP JUMPDEST SWAP5 POP POP PUSH1 0x80 PUSH2 0x3C06 DUP11 DUP3 DUP12 ADD PUSH2 0x3650 JUMP JUMPDEST SWAP4 POP POP PUSH1 0xA0 PUSH2 0x3C17 DUP11 DUP3 DUP12 ADD PUSH2 0x37DD JUMP JUMPDEST SWAP3 POP POP PUSH1 0xC0 PUSH2 0x3C28 DUP11 DUP3 DUP12 ADD PUSH2 0x3650 JUMP JUMPDEST SWAP2 POP POP SWAP3 SWAP6 SWAP9 SWAP2 SWAP5 SWAP8 POP SWAP3 SWAP6 POP JUMP JUMPDEST PUSH1 0x0 PUSH1 0x40 DUP3 ADD SWAP1 POP PUSH2 0x3C4C PUSH1 0x0 DUP4 ADD DUP6 PUSH2 0x36B8 JUMP JUMPDEST PUSH2 0x3C59 PUSH1 0x20 DUP4 ADD DUP5 PUSH2 0x36B8 JUMP JUMPDEST SWAP4 SWAP3 POP POP POP JUMP JUMPDEST PUSH1 0x0 DUP1 PUSH1 0x0 DUP1 PUSH1 0x0 DUP1 PUSH1 0x0 DUP1 PUSH2 0x100 DUP10 DUP12 SUB SLT ISZERO PUSH2 0x3C81 JUMPI PUSH2 0x3C80 PUSH2 0x3625 JUMP JUMPDEST JUMPDEST PUSH1 0x0 PUSH2 0x3C8F DUP12 DUP3 DUP13 ADD PUSH2 0x37DD JUMP JUMPDEST SWAP9 POP POP PUSH1 0x20 PUSH2 0x3CA0 DUP12 DUP3 DUP13 ADD PUSH2 0x37DD JUMP JUMPDEST SWAP8 POP POP PUSH1 0x40 PUSH2 0x3CB1 DUP12 DUP3 DUP13 ADD PUSH2 0x3650 JUMP JUMPDEST SWAP7 POP POP PUSH1 0x60 PUSH2 0x3CC2 DUP12 DUP3 DUP13 ADD PUSH2 0x3650 JUMP JUMPDEST SWAP6 POP POP PUSH1 0x80 PUSH2 0x3CD3 DUP12 DUP3 DUP13 ADD PUSH2 0x3650 JUMP JUMPDEST SWAP5 POP POP PUSH1 0xA0 PUSH2 0x3CE4 DUP12 DUP3 DUP13 ADD PUSH2 0x3650 JUMP JUMPDEST SWAP4 POP POP PUSH1 0xC0 PUSH2 0x3CF5 DUP12 DUP3 DUP13 ADD PUSH2 0x37DD JUMP JUMPDEST SWAP3 POP POP PUSH1 0xE0 PUSH2 0x3D06 DUP12 DUP3 DUP13 ADD PUSH2 0x3650 JUMP JUMPDEST SWAP2 POP POP SWAP3 SWAP6 SWAP9 POP SWAP3 SWAP6 SWAP9 SWAP1 SWAP4 SWAP7 POP JUMP JUMPDEST PUSH1 0x0 PUSH1 0x60 DUP3 ADD SWAP1 POP PUSH2 0x3D2B PUSH1 0x0 DUP4 ADD DUP7 PUSH2 0x36B8 JUMP JUMPDEST PUSH2 0x3D38 PUSH1 0x20 DUP4 ADD DUP6 PUSH2 0x36B8 JUMP JUMPDEST PUSH2 0x3D45 PUSH1 0x40 DUP4 ADD DUP5 PUSH2 0x36B8 JUMP JUMPDEST SWAP5 SWAP4 POP POP POP POP JUMP JUMPDEST PUSH32 0x4E487B7100000000000000000000000000000000000000000000000000000000 PUSH1 0x0 MSTORE PUSH1 0x22 PUSH1 0x4 MSTORE PUSH1 0x24 PUSH1 0x0 REVERT JUMPDEST PUSH1 0x0 PUSH1 0x2 DUP3 DIV SWAP1 POP PUSH1 0x1 DUP3 AND DUP1 PUSH2 0x3D94 JUMPI PUSH1 0x7F DUP3 AND SWAP2 POP JUMPDEST PUSH1 0x20 DUP3 LT DUP2 SUB PUSH2 0x3DA7 JUMPI PUSH2 0x3DA6 PUSH2 0x3D4D JUMP JUMPDEST JUMPDEST POP SWAP2 SWAP1 POP JUMP JUMPDEST PUSH32 0x53537761703A20446561646C696E6520726561636865642E0000000000000000 PUSH1 0x0 DUP3 ADD MSTORE POP JUMP JUMPDEST PUSH1 0x0 PUSH2 0x3DE3 PUSH1 0x18 DUP4 PUSH2 0x36ED JUMP JUMPDEST SWAP2 POP PUSH2 0x3DEE DUP3 PUSH2 0x3DAD JUMP JUMPDEST PUSH1 0x20 DUP3 ADD SWAP1 POP SWAP2 SWAP1 POP JUMP JUMPDEST PUSH1 0x0 PUSH1 0x20 DUP3 ADD SWAP1 POP DUP2 DUP2 SUB PUSH1 0x0 DUP4 ADD MSTORE PUSH2 0x3E12 DUP2 PUSH2 0x3DD6 JUMP JUMPDEST SWAP1 POP SWAP2 SWAP1 POP JUMP JUMPDEST PUSH32 0x53537761703A204E6F20746F6B656E732073656C65637465642E000000000000 PUSH1 0x0 DUP3 ADD MSTORE POP JUMP JUMPDEST PUSH1 0x0 PUSH2 0x3E4F PUSH1 0x1A DUP4 PUSH2 0x36ED JUMP JUMPDEST SWAP2 POP PUSH2 0x3E5A DUP3 PUSH2 0x3E19 JUMP JUMPDEST PUSH1 0x20 DUP3 ADD SWAP1 POP SWAP2 SWAP1 POP JUMP JUMPDEST PUSH1 0x0 PUSH1 0x20 DUP3 ADD SWAP1 POP DUP2 DUP2 SUB PUSH1 0x0 DUP4 ADD MSTORE PUSH2 0x3E7E DUP2 PUSH2 0x3E42 JUMP JUMPDEST SWAP1 POP SWAP2 SWAP1 POP JUMP JUMPDEST PUSH32 0x4E487B7100000000000000000000000000000000000000000000000000000000 PUSH1 0x0 MSTORE PUSH1 0x32 PUSH1 0x4 MSTORE PUSH1 0x24 PUSH1 0x0 REVERT JUMPDEST PUSH32 0x53537761703A2053616D6520746F6B656E732E00000000000000000000000000 PUSH1 0x0 DUP3 ADD MSTORE POP JUMP JUMPDEST PUSH1 0x0 PUSH2 0x3EEA PUSH1 0x13 DUP4 PUSH2 0x36ED JUMP JUMPDEST SWAP2 POP PUSH2 0x3EF5 DUP3 PUSH2 0x3EB4 JUMP JUMPDEST PUSH1 0x20 DUP3 ADD SWAP1 POP SWAP2 SWAP1 POP JUMP JUMPDEST PUSH1 0x0 PUSH1 0x20 DUP3 ADD SWAP1 POP DUP2 DUP2 SUB PUSH1 0x0 DUP4 ADD MSTORE PUSH2 0x3F19 DUP2 PUSH2 0x3EDD JUMP JUMPDEST SWAP1 POP SWAP2 SWAP1 POP JUMP JUMPDEST PUSH32 0x53537761703A205472616E736665722063616E63656C6C65642E000000000000 PUSH1 0x0 DUP3 ADD MSTORE POP JUMP JUMPDEST PUSH1 0x0 PUSH2 0x3F56 PUSH1 0x1A DUP4 PUSH2 0x36ED JUMP JUMPDEST SWAP2 POP PUSH2 0x3F61 DUP3 PUSH2 0x3F20 JUMP JUMPDEST PUSH1 0x20 DUP3 ADD SWAP1 POP SWAP2 SWAP1 POP JUMP JUMPDEST PUSH1 0x0 PUSH1 0x20 DUP3 ADD SWAP1 POP DUP2 DUP2 SUB PUSH1 0x0 DUP4 ADD MSTORE PUSH2 0x3F85 DUP2 PUSH2 0x3F49 JUMP JUMPDEST SWAP1 POP SWAP2 SWAP1 POP JUMP JUMPDEST PUSH32 0x4E487B7100000000000000000000000000000000000000000000000000000000 PUSH1 0x0 MSTORE PUSH1 0x11 PUSH1 0x4 MSTORE PUSH1 0x24 PUSH1 0x0 REVERT JUMPDEST PUSH1 0x0 PUSH2 0x3FC6 DUP3 PUSH2 0x362F JUMP JUMPDEST SWAP2 POP PUSH2 0x3FD1 DUP4 PUSH2 0x362F JUMP JUMPDEST SWAP3 POP DUP3 DUP3 ADD SWAP1 POP DUP1 DUP3 GT ISZERO PUSH2 0x3FE9 JUMPI PUSH2 0x3FE8 PUSH2 0x3F8C JUMP JUMPDEST JUMPDEST SWAP3 SWAP2 POP POP JUMP JUMPDEST PUSH1 0x0 PUSH2 0x3FFA DUP3 PUSH2 0x362F JUMP JUMPDEST SWAP2 POP PUSH2 0x4005 DUP4 PUSH2 0x362F JUMP JUMPDEST SWAP3 POP DUP3 DUP3 SUB SWAP1 POP DUP2 DUP2 GT ISZERO PUSH2 0x401D JUMPI PUSH2 0x401C PUSH2 0x3F8C JUMP JUMPDEST JUMPDEST SWAP3 SWAP2 POP POP JUMP JUMPDEST PUSH1 0x0 DUP2 MLOAD SWAP1 POP PUSH2 0x4032 DUP2 PUSH2 0x3639 JUMP JUMPDEST SWAP3 SWAP2 POP POP JUMP JUMPDEST PUSH1 0x0 PUSH1 0x20 DUP3 DUP5 SUB SLT ISZERO PUSH2 0x404E JUMPI PUSH2 0x404D PUSH2 0x3625 JUMP JUMPDEST JUMPDEST PUSH1 0x0 PUSH2 0x405C DUP5 DUP3 DUP6 ADD PUSH2 0x4023 JUMP JUMPDEST SWAP2 POP POP SWAP3 SWAP2 POP POP JUMP JUMPDEST PUSH32 0x53537761703A204C69717569646974792E000000000000000000000000000000 PUSH1 0x0 DUP3 ADD MSTORE POP JUMP JUMPDEST PUSH1 0x0 PUSH2 0x409B PUSH1 0x11 DUP4 PUSH2 0x36ED JUMP JUMPDEST SWAP2 POP PUSH2 0x40A6 DUP3 PUSH2 0x4065 JUMP JUMPDEST PUSH1 0x20 DUP3 ADD SWAP1 POP SWAP2 SWAP1 POP JUMP JUMPDEST PUSH1 0x0 PUSH1 0x20 DUP3 ADD SWAP1 POP DUP2 DUP2 SUB PUSH1 0x0 DUP4 ADD MSTORE PUSH2 0x40CA DUP2 PUSH2 0x408E JUMP JUMPDEST SWAP1 POP SWAP2 SWAP1 POP JUMP JUMPDEST PUSH1 0x0 PUSH2 0x40DC DUP3 PUSH2 0x362F JUMP JUMPDEST SWAP2 POP PUSH2 0x40E7 DUP4 PUSH2 0x362F JUMP JUMPDEST SWAP3 POP DUP3 DUP3 MUL PUSH2 0x40F5 DUP2 PUSH2 0x362F JUMP JUMPDEST SWAP2 POP DUP3 DUP3 DIV DUP5 EQ DUP4 ISZERO OR PUSH2 0x410C JUMPI PUSH2 0x410B PUSH2 0x3F8C JUMP JUMPDEST JUMPDEST POP SWAP3 SWAP2 POP POP JUMP JUMPDEST PUSH32 0x4E487B7100000000000000000000000000000000000000000000000000000000 PUSH1 0x0 MSTORE PUSH1 0x12 PUSH1 0x4 MSTORE PUSH1 0x24 PUSH1 0x0 REVERT JUMPDEST PUSH1 0x0 PUSH2 0x414D DUP3 PUSH2 0x362F JUMP JUMPDEST SWAP2 POP PUSH2 0x4158 DUP4 PUSH2 0x362F JUMP JUMPDEST SWAP3 POP DUP3 PUSH2 0x4168 JUMPI PUSH2 0x4167 PUSH2 0x4113 JUMP JUMPDEST JUMPDEST DUP3 DUP3 DIV SWAP1 POP SWAP3 SWAP2 POP POP JUMP JUMPDEST PUSH32 0x53537761703A2042616C616E63652E0000000000000000000000000000000000 PUSH1 0x0 DUP3 ADD MSTORE POP JUMP JUMPDEST PUSH1 0x0 PUSH2 0x41A9 PUSH1 0xF DUP4 PUSH2 0x36ED JUMP JUMPDEST SWAP2 POP PUSH2 0x41B4 DUP3 PUSH2 0x4173 JUMP JUMPDEST PUSH1 0x20 DUP3 ADD SWAP1 POP SWAP2 SWAP1 POP JUMP JUMPDEST PUSH1 0x0 PUSH1 0x20 DUP3 ADD SWAP1 POP DUP2 DUP2 SUB PUSH1 0x0 DUP4 ADD MSTORE PUSH2 0x41D8 DUP2 PUSH2 0x419C JUMP JUMPDEST SWAP1 POP SWAP2 SWAP1 POP JUMP JUMPDEST PUSH32 0x53537761703A2053616D6520546F6B656E730000000000000000000000000000 PUSH1 0x0 DUP3 ADD MSTORE POP JUMP JUMPDEST PUSH1 0x0 PUSH2 0x4215 PUSH1 0x12 DUP4 PUSH2 0x36ED JUMP JUMPDEST SWAP2 POP PUSH2 0x4220 DUP3 PUSH2 0x41DF JUMP JUMPDEST PUSH1 0x20 DUP3 ADD SWAP1 POP SWAP2 SWAP1 POP JUMP JUMPDEST PUSH1 0x0 PUSH1 0x20 DUP3 ADD SWAP1 POP DUP2 DUP2 SUB PUSH1 0x0 DUP4 ADD MSTORE PUSH2 0x4244 DUP2 PUSH2 0x4208 JUMP JUMPDEST SWAP1 POP SWAP2 SWAP1 POP JUMP JUMPDEST PUSH32 0x53537761703A204E6F7420456E6F756768204C69717569646974790000000000 PUSH1 0x0 DUP3 ADD MSTORE POP JUMP JUMPDEST PUSH1 0x0 PUSH2 0x4281 PUSH1 0x1B DUP4 PUSH2 0x36ED JUMP JUMPDEST SWAP2 POP PUSH2 0x428C DUP3 PUSH2 0x424B JUMP JUMPDEST PUSH1 0x20 DUP3 ADD SWAP1 POP SWAP2 SWAP1 POP JUMP JUMPDEST PUSH1 0x0 PUSH1 0x20 DUP3 ADD SWAP1 POP DUP2 DUP2 SUB PUSH1 0x0 DUP4 ADD MSTORE PUSH2 0x42B0 DUP2 PUSH2 0x4274 JUMP JUMPDEST SWAP1 POP SWAP2 SWAP1 POP JUMP JUMPDEST PUSH32 0x53537761703A20496E73756666696369656E7420616D6F756E742E0000000000 PUSH1 0x0 DUP3 ADD MSTORE POP JUMP JUMPDEST PUSH1 0x0 PUSH2 0x42ED PUSH1 0x1B DUP4 PUSH2 0x36ED JUMP JUMPDEST SWAP2 POP PUSH2 0x42F8 DUP3 PUSH2 0x42B7 JUMP JUMPDEST PUSH1 0x20 DUP3 ADD SWAP1 POP SWAP2 SWAP1 POP JUMP JUMPDEST PUSH1 0x0 PUSH1 0x20 DUP3 ADD SWAP1 POP DUP2 DUP2 SUB PUSH1 0x0 DUP4 ADD MSTORE PUSH2 0x431C DUP2 PUSH2 0x42E0 JUMP JUMPDEST SWAP1 POP SWAP2 SWAP1 POP JUMP JUMPDEST PUSH1 0x0 PUSH1 0x60 DUP3 ADD SWAP1 POP PUSH2 0x4338 PUSH1 0x0 DUP4 ADD DUP7 PUSH2 0x3B2B JUMP JUMPDEST PUSH2 0x4345 PUSH1 0x20 DUP4 ADD DUP6 PUSH2 0x36B8 JUMP JUMPDEST PUSH2 0x4352 PUSH1 0x40 DUP4 ADD DUP5 PUSH2 0x36B8 JUMP JUMPDEST SWAP5 SWAP4 POP POP POP POP JUMP JUMPDEST PUSH32 0x4E487B7100000000000000000000000000000000000000000000000000000000 PUSH1 0x0 MSTORE PUSH1 0x41 PUSH1 0x4 MSTORE PUSH1 0x24 PUSH1 0x0 REVERT JUMPDEST PUSH1 0x0 PUSH1 0x60 DUP3 ADD SWAP1 POP PUSH2 0x439E PUSH1 0x0 DUP4 ADD DUP7 PUSH2 0x3B2B JUMP JUMPDEST PUSH2 0x43AB PUSH1 0x20 DUP4 ADD DUP6 PUSH2 0x3B2B JUMP JUMPDEST PUSH2 0x43B8 PUSH1 0x40 DUP4 ADD DUP5 PUSH2 0x36B8 JUMP JUMPDEST SWAP5 SWAP4 POP POP POP POP JUMP JUMPDEST PUSH2 0x43C9 DUP2 PUSH2 0x3832 JUMP JUMPDEST DUP2 EQ PUSH2 0x43D4 JUMPI PUSH1 0x0 DUP1 REVERT JUMPDEST POP JUMP JUMPDEST PUSH1 0x0 DUP2 MLOAD SWAP1 POP PUSH2 0x43E6 DUP2 PUSH2 0x43C0 JUMP JUMPDEST SWAP3 SWAP2 POP POP JUMP JUMPDEST PUSH1 0x0 PUSH1 0x20 DUP3 DUP5 SUB SLT ISZERO PUSH2 0x4402 JUMPI PUSH2 0x4401 PUSH2 0x3625 JUMP JUMPDEST JUMPDEST PUSH1 0x0 PUSH2 0x4410 DUP5 DUP3 DUP6 ADD PUSH2 0x43D7 JUMP JUMPDEST SWAP2 POP POP SWAP3 SWAP2 POP POP JUMP JUMPDEST PUSH32 0x53537761703A205472616E73666572206661696C656421000000000000000000 PUSH1 0x0 DUP3 ADD MSTORE POP JUMP JUMPDEST PUSH1 0x0 PUSH2 0x444F PUSH1 0x17 DUP4 PUSH2 0x36ED JUMP JUMPDEST SWAP2 POP PUSH2 0x445A DUP3 PUSH2 0x4419 JUMP JUMPDEST PUSH1 0x20 DUP3 ADD SWAP1 POP SWAP2 SWAP1 POP JUMP JUMPDEST PUSH1 0x0 PUSH1 0x20 DUP3 ADD SWAP1 POP DUP2 DUP2 SUB PUSH1 0x0 DUP4 ADD MSTORE PUSH2 0x447E DUP2 PUSH2 0x4442 JUMP JUMPDEST SWAP1 POP SWAP2 SWAP1 POP JUMP JUMPDEST PUSH1 0x0 PUSH1 0x40 DUP3 ADD SWAP1 POP PUSH2 0x449A PUSH1 0x0 DUP4 ADD DUP6 PUSH2 0x3B2B JUMP JUMPDEST PUSH2 0x44A7 PUSH1 0x20 DUP4 ADD DUP5 PUSH2 0x36B8 JUMP JUMPDEST SWAP4 SWAP3 POP POP POP JUMP JUMPDEST PUSH32 0x53537761703A20422042616C616E63652E000000000000000000000000000000 PUSH1 0x0 DUP3 ADD MSTORE POP JUMP JUMPDEST PUSH1 0x0 PUSH2 0x44E4 PUSH1 0x11 DUP4 PUSH2 0x36ED JUMP JUMPDEST SWAP2 POP PUSH2 0x44EF DUP3 PUSH2 0x44AE JUMP JUMPDEST PUSH1 0x20 DUP3 ADD SWAP1 POP SWAP2 SWAP1 POP JUMP JUMPDEST PUSH1 0x0 PUSH1 0x20 DUP3 ADD SWAP1 POP DUP2 DUP2 SUB PUSH1 0x0 DUP4 ADD MSTORE PUSH2 0x4513 DUP2 PUSH2 0x44D7 JUMP JUMPDEST SWAP1 POP SWAP2 SWAP1 POP JUMP JUMPDEST PUSH32 0x53537761703A20412042616C616E63652E000000000000000000000000000000 PUSH1 0x0 DUP3 ADD MSTORE POP JUMP JUMPDEST PUSH1 0x0 PUSH2 0x4550 PUSH1 0x11 DUP4 PUSH2 0x36ED JUMP JUMPDEST SWAP2 POP PUSH2 0x455B DUP3 PUSH2 0x451A JUMP JUMPDEST PUSH1 0x20 DUP3 ADD SWAP1 POP SWAP2 SWAP1 POP JUMP JUMPDEST PUSH1 0x0 PUSH1 0x20 DUP3 ADD SWAP1 POP DUP2 DUP2 SUB PUSH1 0x0 DUP4 ADD MSTORE PUSH2 0x457F DUP2 PUSH2 0x4543 JUMP JUMPDEST SWAP1 POP SWAP2 SWAP1 POP JUMP JUMPDEST PUSH32 0x53537761703A20746F6B656E20726174696F0000000000000000000000000000 PUSH1 0x0 DUP3 ADD MSTORE POP JUMP JUMPDEST PUSH1 0x0 PUSH2 0x45BC PUSH1 0x12 DUP4 PUSH2 0x36ED JUMP JUMPDEST SWAP2 POP PUSH2 0x45C7 DUP3 PUSH2 0x4586 JUMP JUMPDEST PUSH1 0x20 DUP3 ADD SWAP1 POP SWAP2 SWAP1 POP JUMP JUMPDEST PUSH1 0x0 PUSH1 0x20 DUP3 ADD SWAP1 POP DUP2 DUP2 SUB PUSH1 0x0 DUP4 ADD MSTORE PUSH2 0x45EB DUP2 PUSH2 0x45AF JUMP JUMPDEST SWAP1 POP SWAP2 SWAP1 POP JUMP INVALID LOG2 PUSH5 0x6970667358 0x22 SLT KECCAK256 0xBE SWAP16 EXTCODEHASH SSTORE 0xB9 JUMP CALLDATACOPY ORIGIN 0xE5 0x2A 0xB1 DUP7 0xBB PUSH1 0xBF 0x21 0xD PUSH26 0xBA304AB22370E6BA7BC62A580F4664736F6C634300081C003300 "},"methodIdentifiers":{"addLiquidity(address,address,uint256,uint256,uint256,uint256,address,uint256)":"e8e33700","allowance(address,address)":"dd62ed3e","approve(address,uint256)":"095ea7b3","balanceOf(address)":"70a08231","burn(uint256)":"42966c68","burnFrom(address,uint256)":"79cc6790","decimals()":"313ce567","getAmountOut(uint256,uint256,uint256)":"054d50d4","getPrice(address,address)":"ac41865a","name()":"06fdde03","owner()":"8da5cb5b","removeLiquidity(address,address,uint256,uint256,uint256,address,uint256)":"baa2abde","renounceOwnership()":"715018a6","reserveOf(address)":"9fa77b20","swapExactTokensForTokens(uint256,uint256,address[],address,uint256)":"38ed1739","symbol()":"95d89b41","syncReserve(address)":"a4eef28a","totalSupply()":"18160ddd","transfer(address,uint256)":"a9059cbb","transferFrom(address,address,uint256)":"23b872dd","transferOwnership(address)":"f2fde38b"}}}}}